:020000040800F2
:10000000D83F002045010008612300086323000851
:10001000672300086B2300086F230008000000001E
:100020000000000000000000000000007323000832
:1000300075230008000000002380000879230008D1
:100040005F0100085F0100085F0100085F01000810
:100050005F0100085F0100085F0100085F01000800
:100060005F0100085F0100085F0100085F010008F0
:100070005F0100085F0100085F0100085F010008E0
:100080005F0100085F0100085F0100085F010008D0
:100090005F0100085F0100085F0100085F010008C0
:1000A0005F0100085F0100085F0100085F010008B0
:1000B000E93300085F0100085F0100085F010008E4
:1000C0005F0100085F0100085F0100085F01000890
:1000D0005F0100084D3800081B300008D7280008D1
:1000E0005F0100085F0100085F0100085F01000870
:1000F0005F0100085F0100085F0100085F01000860
:100100005F0100085F0100085F0100085F0100084F
:100110005F0100085F0100085F01000889230008F3
:100120005F0100085F0100085F0100085F0100082F
:10013000DFF80CD009F04AF8004800470523000812
:10014000D83F00200648804706480047FEE7FEE704
:10015000FEE7FEE7FEE7FEE7FEE7FEE7FEE7FEE777
:1001600047020008310100080CB500200190009002
:100170006C48006840F480306A49086000BF6948F4
:10018000006800F4003000900198401C0190009835
:1001900018B90198B0F5A06FF1D16248006800F479
:1001A000003010B10120009001E000200090009884
:1001B000012843D15C48006840F010005A490860AB
:1001C0000846006820F0030008600846006840F018
:1001D0000200086053484068524948600846406839
:1001E00048600846406840F48060486008464068BF
:1001F00020F47C1048600846406840F4E8104860ED
:100200000846006840F08070086000BF45480068FC
:1002100000F000700028F9D04248406820F0030048
:10022000404948600846406840F00200486000BF0E
:100230003C48406800F00C000828F9D10CBD10B50E
:10024000FFF792FF10BD10B53648006840F001007E
:1002500034490860084640683449084031494860DC
:1002600008460068324908402E4908600846006880
:1002700020F4802008600846406820F4FE004860B2
:100280004FF41F008860FFF7DAFF4FF00060294944
:10029000086010BD10B5002100200022214B5B68D2
:1002A00003F00C0121B1042906D0082928D107E068
:1002B000214B224C236027E01F4B204C236023E07E
:1002C000184B5B6803F47010164B5B6803F48032C4
:1002D000022303EB904022B9194B4343174C236090
:1002E0000DE0104B5B6803F4003323B1144B434320
:1002F000124C236003E0104B4343104C236003E097
:100300000D4B0E4C236000BF00BF064B5B68C3F370
:1003100003130C4CE15C094B1B68CB40074C23607A
:1003200010BD000000100240002002400000FFF855
:10033000FFFFF6FE08ED00E000127A00000000204A
:1003400000093D000400002031490143314A116099
:10035000704770B5002100230F22C47804B32D4CE0
:10036000246804F4E064C4F5E064210AC1F10403E4
:10037000CA40447804FA03F1847814402143090107
:10038000254C0678A155047804F01F050124AC40E3
:1003900005786D11AD0005F1E025C5F8004109E0D3
:1003A000047804F01F050124AC401C4D067876113A
:1003B00045F8264070BD1A4A0A400243154B1B1FE0
:1003C0001A60704739B1134A121D12680243114B6B
:1003D0001B1D1A6006E00F4A121D126882430D4B66
:1003E0001B1D1A607047042808D14FF0E0210969ED
:1003F00041F004014FF0E022116107E04FF0E021ED
:10040000096921F004014FF0E022116170470000FA
:100410000000FA050CED00E000E400E080E100E0FF
:1004200080FFFF1F01460020FE4A106800F03800E0
:10043000084310607047FB49096821F00801F94A38
:10044000116011460968014311607047F549096858
:1004500021F01001F34A116011460968014311604F
:100460007047F148EF494860F04848607047EE48EF
:10047000EC494860ED4848607047EA48006940F040
:100480008000E84908617047E648006940F0800054
:10049000E449086170470420E249C96801F001019C
:1004A00009B101200EE0DF49C96801F0040109B17A
:1004B000022007E0DB49C96801F0100109B10320FF
:1004C00000E00420704700B502460423FFF7E3FF75
:1004D000034603E0FFF7DFFF0346521E012B01D165
:1004E000002AF7D102B90523184600BD30B50446ED
:1004F00004254FF43020FFF7E6FF0546042D17D101
:10050000C848006940F00200C649086108464461D5
:10051000006940F0400008614FF43020FFF7D3FF3E
:100520000546C048006941F6FD710840BD490861B3
:10053000284630BD10B504244FF43020FFF7C3FF28
:100540000446042C16D1B748006940F00400B549B0
:1005500008610846006940F0400008614FF430200F
:10056000FFF7B1FF0446AF48006941F6FB71084050
:10057000AC490861204610BD00B502460423FFF7D0
:100580008AFF034603E0FFF786FF0346521E012B56
:1005900001D1002AF7D102B90523184600BD10B5D4
:1005A00004244FF43020FFF7E7FF0446042C16D153
:1005B0009C48006940F004009A49086108460069B7
:1005C00040F0400008614FF43020FFF7D5FF0446AB
:1005D0009448006941F6FB71084092490861204641
:1005E00010BD00208F49C96901F0020109B1012045
:1005F00000E00020704730B5A5250424FFF7F1FF87
:1006000000B100254FF43020FFF75DFF0446042CB5
:100610003AD18548834988608448886008460069E3
:1006200040F0200008610846006940F04000086181
:100630004FF43020FFF747FF0446042C1BD17948C4
:10064000006941F6DF710840764908610846006993
:1006500040F01000086176480580E002FFF733FFA4
:100660000446052C10D06F48006941F6EF71084030
:100670006C49086108E0052C06D06A48006941F61B
:10068000EF71084067490861204630BD78B50646DD
:100690000C46042500200090E802FFF714FF0546F1
:1006A000042D24D15F48006940F001005D490861D4
:1006B0003480E802FFF707FF0546042D10D1B01C77
:1006C0000090200C00990880E802FFF7FCFE054628
:1006D0005448006941F6FE7108405249086106E03D
:1006E0005048006941F6FE7108404E4908612846AD
:1006F00078BD70B504460D460426F002FFF7E3FE10
:100700000646042E11D14748006940F001004549D2
:1007100008612580F002FFF7D6FE064641480069D1
:1007200041F6FE7108403F490861304670BD70B522
:1007300005460E460424E002FFF7C5FE0446042CDD
:1007400017D13948374988603848886008460069B9
:1007500040F0100008612E80E002FFF7B4FE04466E
:10076000052C06D02F48006941F6EF7108402D494D
:100770000861204670BD2DE9F04304464FF6FF7630
:100780003746B046B1460425E443E6B2C4F3072732
:10079000C4F307484FEA1469E802FFF794FE0546E0
:1007A000042D49D120481F498860204888600846A8
:1007B000006940F010000861FF2E06D01C48083088
:1007C0000680E802FFF77FFE0546042D08D1FF2FC3
:1007D00006D017480A300780E802FFF774FE054686
:1007E000042D0AD1B8F1FF0F07D011480C30A0F842
:1007F0000080E802FFF767FE0546042D0AD1B9F133
:10080000FF0F07D00A480E30A0F80090E802FFF76B
:100810005AFE0546052D0FD00248006941F6EF71DA
:10082000084007E00020024023016745AB89EFCD77
:1008300000F8FF1F664908612846BDE8F08330B51F
:10084000054604244FF43020FFF73DFE0446042CF7
:1008500041D160485E4988605F4888600846006909
:1008600040F0200008610846006940F0400008613F
:100870004FF43020FFF727FE0446042C22D15448C1
:10088000006941F6DF710840514908610846006976
:1008900040F0100008611DB100205049088002E0BE
:1008A000A5204E4908804FF43020FFF70CFE044687
:1008B000052C10D04648006941F6EF7108404449C4
:1008C000086108E0052C06D04148006941F6DF7157
:1008D00008403F490861204630BDF0B505460E4648
:1008E000174604243B483A4988603B488860E00248
:1008F000FFF7E9FD0446042C19D13548006940F0A2
:1009000010003349086147F0F80030432843334969
:10091000891C0880E002FFF7D6FD0446052C06D0AE
:100920002B48006941F6EF710840294908612046CB
:10093000F0BD2748C069800870472548006A7047A5
:1009400000202349096801F0200109B1012000E0DD
:100950000020704729B11E4A126902431C4B1A61DC
:1009600004E01B4A12698243194B1A617047014621
:100970000020012908D1164AD26902F001020AB109
:10098000012008E0002006E0114AD2680A400AB1BE
:10099000012000E0002070470D49C8607047042026
:1009A0000B49C96801F0010109B101200EE00849B5
:1009B000C96801F0040109B1022007E00449C968CF
:1009C00001F0100109B1032000E00420704700008D
:1009D0000020024023016745AB89EFCD00F8FF1FDF
:1009E00010B50446CC48844208D10121042000F00F
:1009F0002DFB0021042000F029FB46E0C74884427B
:100A000008D10121082000F021FB0021082000F07E
:100A10001DFB3AE0C248844208D10121102000F0B9
:100A200015FB0021102000F011FB2EE0BD48844290
:100A300008D10121202000F009FB0021202000F036
:100A400005FB22E0B848844208D10121402000F093
:100A5000FDFA0021402000F0F9FA16E0B348844284
:100A600008D10121802000F0F1FA0021802000F05F
:100A7000EDFA0AE0AE48844207D10121801500F06A
:100A8000E5FA0021A01500F0E1FA10BD10B5012132
:100A9000084600F0DBFA0021012000F0D7FA10BD73
:100AA0002DE9F04102460025002600200023002405
:100AB000002791F803C00CF00F0591F803C00CF06B
:100AC000100CBCF1000F03D091F802C04CEA0505F0
:100AD00091F800C0BCF1000F31D0146800202BE069
:100AE0004FF0010C0CFA00F3B1F800C00CEA030659
:100AF0009E4220D183004FF00F0C0CFA03F7BC4349
:100B000005FA03FC4CEA040491F803C0BCF1280F79
:100B100006D14FF0010C0CFA00FCC2F814C00AE038
:100B200091F803C0BCF1480F05D14FF0010C0CFA4D
:100B300000FCC2F810C0401C0828D1D31460B1F8E2
:100B400000C0BCF1FF0F34DD546800202EE000F13E
:100B5000080C4FF0010808FA0CF3B1F800C00CEAD9
:100B600003069E4221D183004FF00F0C0CFA03F7CD
:100B7000BC4305FA03FC4CEA040491F803C0BCF141
:100B8000280F05D100F1080C08FA0CF8C2F81480FF
:100B900091F803C0BCF1480F07D100F1080C4FF0E9
:100BA000010808FA0CF8C2F81080401C0828CED3BF
:100BB0005460BDE8F0814FF6FF7101800221817021
:100BC0000421C17070470246002093680B400BB1AE
:100BD000012000E0002070470146886880B270471D
:100BE00002460020D3680B400BB1012000E000203A
:100BF00070470146C86880B2704701617047416123
:100C000070470AB1016100E041617047C1607047FF
:100C10004FF480320A438261816182618269826914
:100C2000704702460020434B18684FF68073184007
:100C300040EA021008433F4B186070473E49C861C4
:100C40007047F0B50A46002300240021002500F07B
:100C50000046B6F1004F02D1364EF16901E0354E43
:100C60007168C0F3034583B200F44016B6F5401F27
:100C700008D121F070612F4E766826F070662D4FF6
:100C80007E6012E000F48016B6F5801F06D10326C0
:100C900006FA05F4A14341F0706106E0460D360105
:100CA00003FA06F6B14341F0706122B1460D3601F8
:100CB00003FA06F6314300F00046B6F1004F02D1C8
:100CC0001C4EF16101E01B4E7160F0BD30B5002299
:100CD0008B071C0F0F2303FA04F2164B08338C10FA
:100CE00053F824309343134C08348D1044F82530C6
:100CF00023468C1053F824308C07240F00FA04F498
:100D000023430C4C08348D1044F8253030BD0A497B
:100D1000DC3108607047000000080140000C014011
:100D2000001001400014014000180140001C014067
:100D3000002001400000014000002042DF48006820
:100D400040F00100DD49086008464068DC49084081
:100D5000DA49486008460068DA490840D74908601F
:100D60000846006820F4802008600846406820F4A7
:100D7000FE0048604FF41F0088607047CF49096843
:100D800021F48031CD4A11601146096821F4802197
:100D90001160B0F5803F03D0B0F5802F0ED106E092
:100DA000C649096841F48031C44A116007E0C3496B
:100DB000096841F4A021C14A116000E000BF00BFF2
:100DC000704710B501460022002300204A11012A75
:100DD00002D1BA4C236806E0022A02D1B74C236A3A
:100DE00001E0B64C636A01F01F02012494401C40EC
:100DF0000CB1012000E0002010BD38B500200090AB
:100E00000024002500BF3120FFF7DBFF05460098D6
:100E1000401C00900098B0F5A06F01D0002DF2D0DA
:100E20003120FFF7CEFF08B1012400E00024204666
:100E300038BD01460020A14A106820F0F80040EAC1
:100E4000C10010607047A04908607047024600204A
:100E50009A4B586820F47C1042EA01031843974BE0
:100E60005860704798490866704701460020934AC9
:100E7000506820F003000843506070478F48406876
:100E800000F00C007047014600208C4A506820F0AA
:100E9000F00008435060704701460020874A5068C0
:100EA00020F4E06008435060704701460020834A08
:100EB000506820F4605040EAC1005060704729B18A
:100EC0007E4A527A02437D4B5A7204E07B4A527A40
:100ED00082437A4B5A7270477B49D8310860704719
:100EE00001460020754A506820F440400843506095
:100EF00070470021714A20321170704A82F8201028
:100F0000012802D004280AD104E001216B4A2032D2
:100F1000117005E00521694A2032117000E000BF20
:100F200000BF70476949086070476449096A014316
:100F3000624A11627047654944390860704730B5AC
:100F400000210022002400235C4D6D6805F00C0197
:100F500021B1042905D0082923D105E05C4D0560A5
:100F600022E05B4D05601FE0544D6D6805F4701282
:100F7000524D6D6805F48034022505EB92421CB990
:100F8000544D554305600BE04C4D6D6805F400353C
:100F90001DB1504D5543056002E04D4D5543056070
:100FA00002E04B4D056000BF00BF444D6D6805F089
:100FB000F0010909484D6B5C0568DD4045603F4D17
:100FC0006D6805F4E061090A434D6B5C4568DD40DE
:100FD00085603A4D6D6805F46051C90A3E4D6B5C01
:100FE0004568DD40C560354D6D6805F44041890BAD
:100FF0003A4D6B5CC568B5FBF3F5056130BD29B1B1
:101000002E4A526902432D4B5A6104E02B4A526921
:1010100082432A4B5A61704729B1284A9269024398
:10102000264B9A6104E0254A92698243234B9A61D8
:10103000704729B1214AD2690243204BDA6104E0AA
:101040001E4AD26982431D4BDA61704729B11B4A9F
:10105000D2680243194BDA6004E0184AD26882432E
:10106000164BDA60704729B1144A12690243134BD8
:101070001A6104E0114A12698243104B1A617047E9
:1010800012494039086070470F49C86470470B49DE
:10109000C87170470948406A40F08070074948624B
:1010A000704701460020054A92680A400AB10120B3
:1010B00000E000207047014988727047001002402C
:1010C0000000FFF8FFFFF6FE0000424280044242AB
:1010D00000127A0000093D001400002024000020C6
:1010E00010B50446FE48844208D10121C014FFF720
:1010F000ADFF0021E014FFF7A9FFC4E0B4F1804F79
:1011000008D101210846FFF7AEFF00210120FFF7BB
:10111000AAFFB8E0F348844208D101210220FFF77A
:10112000A2FF00210220FFF79EFFACE0EE488442C0
:1011300008D101210420FFF796FF00210420FFF7CA
:1011400092FFA0E0E948844208D101210820FFF77E
:101150008AFF00210820FFF786FF94E0E4488442DC
:1011600008D101211020FFF77EFF00211020FFF79A
:101170007AFF88E0DF48844208D101212020FFF770
:1011800072FF00212020FFF76EFF7CE0DA488442E6
:1011900008D101214014FFF759FF00216014FFF727
:1011A00055FF70E0D548844209D10121C804FFF7FA
:1011B0004DFF00214FF40020FFF748FF63E0D048C7
:1011C000844209D101210805FFF740FF00214FF4B7
:1011D0008010FFF73BFF56E0CA48844209D1012145
:1011E0004805FFF733FF00214FF40010FFF72EFFF3
:1011F00049E0C548844208D101214020FFF733FF70
:1012000000214020FFF72FFF3DE0C048844208D175
:1012100001218020FFF727FF00218020FFF723FF17
:1012200031E0BB48844208D101218015FFF71BFF44
:101230000021A015FFF717FF25E0B648844209D129
:1012400001210804FFF702FF00214FF48030FFF76F
:10125000FDFE18E0B048844209D101214804FFF79F
:10126000F5FE00214FF40030FFF7F0FE0BE0AB4835
:10127000844208D101218804FFF7E8FE00214FF4E1
:101280008020FFF7E3FE10BD00220288944B9842B5
:101290000ED0994B98420BD0B0F1804F08D0914BB3
:1012A000984205D0904B984202D0904B984204D17E
:1012B0004FF68F731A404B881A438D4B984207D0D4
:1012C0008C4B984204D04FF6FF431A40CB881A4308
:1012D00002808B8883850B880385814B98420BD0D5
:1012E000854B984208D08B4B984205D08A4B984248
:1012F00002D08A4B984201D10B7A03860123838264
:10130000704770B5002400220023058C4FF6FE764E
:1013100035400584028C8388048B4FF68F752C40F2
:10132000B51E2C400D882C43751E2A400D892A437A
:101330004D882A436A4DA8420BD06F4DA84208D071
:10134000744DA84205D0744DA84202D0734DA842F6
:1013500013D14FF6F7752A404D892A434FF6FB7596
:101360002A408D882A434FF6FF652B404FF6FF55E4
:101370002B408D892B43CD892B4383800483CD88DB
:101380008586028470BD70B5002400220023058C80
:101390004FF6EF7635400584028C8388048B48F63F
:1013A000FF752C404FF6FF452C400D884FF6FF7619
:1013B00006EA05252C434FF6DF752A400D8906EA1B
:1013C00005152A434D8806EA05152A43444DA842CF
:1013D00002D0494DA8421DD14FF67F752A404D8954
:1013E0004FF6FF7606EA05152A434FF6BF752A40E9
:1013F0008D8806EA05152A434FF6FF352B404FF23C
:10140000FF752B408D8906EA85052B43CD8906EAB9
:1014100085052B4383800483CD880587028470BDB6
:1014200070B5002400220023058C4FF6FF6635407E
:101430000584028C8388848B4FF68F752C404FF681
:10144000FC752C400D882C434FF6FF552A400D8922
:101450004FF6FF7606EA05252A434D8806EA05255C
:101460002A431F4DA84202D0234DA8421DD14FF25E
:10147000FF752A404D894FF6FF7606EA05252A4377
:101480004FF6FF352A408D8806EA05252A434EF699
:10149000FF752B404DF6FF752B408D8906EA05152B
:1014A0002B43CD8906EA05152B4383808483CD88A1
:1014B0008587028470BD70B5002200230024058C4E
:1014C0004EF6FF7635400584038C8488828B48F67F
:1014D000FF752A404FF6FF452A400D8820E00000A6
:1014E000002C01400004004000080040000C0040B7
:1014F000001000400014004000340140004C014046
:10150000005001400054014000180040001C004001
:1015100000200040004001400044014000480140DC
:101520004FF6FF7606EA05252A434DF6FF752B4058
:101530000D8906EA05352B434D8806EA05352B4310
:10154000FA4DA84202D0FA4DA84208D14BF6FF75D9
:101550002C408D894FF6FF7606EA85152C43848052
:101560008283CD88A0F84050038470BD828B4FF2F7
:10157000FF331A408283828B4FF6FF7303EA012305
:101580001A4382837047F0B50C46154600220021AD
:101590000026078C4EF6FF7C07EA0C070784828B37
:1015A000018C4FF6FF7707EA043640F6FF473A40D2
:1015B0004FF6FF7707EA05273A434FF6FF7707EA2A
:1015C00003373A43D94FB8420ED0D94FB8420BD067
:1015D000B0F1804F08D0D74FB84205D0D64FB842AF
:1015E00002D0D64FB84206D14DF6FF77394046F4C7
:1015F0008057394305E047F6FF57394044F4805798
:10160000394382830184F0BD828B4FF6F3731A4015
:101610008283828B0A4382837047F0B50C4615465D
:10162000002200210026078C4FF6FF6C07EA0C070A
:101630000784828B018C4FF6FF7707EA04264FF66A
:101640000C773A404FF6FF7707EA03172F433A43E8
:10165000B64FB8420ED0B64FB8420BD0B0F1804F63
:1016600008D0B44FB84205D0B34FB84202D0B34F00
:10167000B84206D14FF6FF57394046F480773943D8
:1016800005E04FF2FF57394044F4807739438283B5
:101690000184F0BD028B4FF2FF331A400283028BAC
:1016A0004FF6FF7303EA01231A4302837047F0B534
:1016B0000C461546002200210026078C4FF6EF7CD1
:1016C00007EA0C070784028B018C4FF6FF7707EAC5
:1016D000041640F6FF473A404FF6FF7707EA033714
:1016E0003A434FF6FF7707EA05273A438F4FB84250
:1016F0000ED08F4FB8420BD0B0F1804F08D08D4F35
:10170000B84205D08C4FB84202D08C4FB84206D1B7
:101710004FF6DF77394046F01007394305E04FF6C2
:101720005F77394044F01007394302830184F0BDEC
:10173000028B4FF6F3731A400283028B0A43028333
:101740007047F0B50C46154600220021068C4FF676
:10175000FE773E400684028B018C4FF60C763240B9
:101760007E1C06EA03162E433243704EB0420ED062
:101770006F4EB0420BD0B0F1804F08D06D4EB042EA
:1017800005D06D4EB04202D06C4EB04206D14FF63D
:10179000FD76314044F00106314305E04FF6F57621
:1017A000314044F00106314302830184F0BD70B53D
:1017B00005460C465D4885420ED05D4885420BD0FB
:1017C000B5F1804F08D05B48854205D05A48854224
:1017D00002D05A48854200D100E000BF208850B9AD
:1017E0002389A28861882846FFF7ABFFE188284655
:1017F000FFF79EFF25E0208804280AD12389A288CC
:1018000061882846FFF753FFE1882846FFF742FF2B
:1018100017E0208808280AD12389A28861882846F1
:10182000FFF7FBFEE1882846FFF7EEFE09E023897B
:10183000A28861882846FFF7A6FEE1882846FFF7C0
:1018400095FE70BD2DE9F04105460C4600260127A6
:10185000608808B9022600E00026A088012801D18E
:10186000022700E001272088A0B92389A288618887
:101870002846FFF766FFE1882846FFF759FF2389CE
:101880003A4631462846FFF712FFE1882846FFF71F
:1018900001FF13E02389A28861882846FFF707FF2C
:1018A000E1882846FFF7F6FE23893A463146284666
:1018B000FFF747FFE1882846FFF73AFFBDE8F081D0
:1018C0000A884B881A438B881A43CB881A430B89A2
:1018D0001A434B891A438B891A43A0F84420704756
:1018E0004FF6FF71818000210180C180418001722B
:1018F00070470021018041808180C1800181418148
:101900008181C18170470021018041800121818056
:101910000021C180018170470021018041808180C8
:10192000C18001814181818170470000002C01400C
:10193000003401400004004000080040000C00405A
:1019400021B1028842F00102028004E002884FF6D1
:10195000FE731A400280704731B1B0F8442042F45F
:101960000042A0F8442005E0B0F84420C2F30E0283
:10197000A0F8442070471AB183890B43838102E0A9
:1019800083898B43838170478182704741EA0203D8
:10199000A0F8483070471AB183890B43838102E075
:1019A00083898B438381704701894FF6F872114018
:1019B000018170470A46002101894FF68F73194053
:1019C00011430181704730B504460D462946204633
:1019D000FFF7F0FF208940F00700208130BD2DE99E
:1019E000F04104460D4616461F46602D06D13B4683
:1019F000012231462046FFF75AFE05E03B46012210
:101A000031462046FFF79DFE29462046FFF7D2FFCC
:101A1000208940F007002081BDE8F08130B50C46F8
:101A200000210189C9B24FF6FF7505EA0325154368
:101A300025432943018130BD2DE9F04105460E467D
:101A400017469846002443463A4631462846FFF753
:101A5000E5FF2C894FF6F870044044F007044FF678
:101A60008F70044044F070042C81BDE8F081F0B523
:101A700004460D4616461F463B463246294620463A
:101A8000FFF7CCFF208940F480402081F0BD018524
:101A9000828270470A46002101884FF68F731940F1
:101AA000114301807047F0B50C4615461E460021D3
:101AB000002200230189028B038C4FF6F87739400E
:101AC00021434FF6FC473A4040F201173A434FF6A4
:101AD000DD773B404FF6FF7707EA06172F433B437E
:101AE000018102830384F0BD0A460021018B4FF679
:101AF0008F7319401143018370470A460021018BFF
:101B000048F6FF7319404FF6FF7303EA02231943A7
:101B1000018370470A460021818B4FF68F7319406D
:101B20001143818370470A460021818B48F6FF7379
:101B300019404FF6FF7303EA02231943818370476C
:101B400021B1028842F08002028004E002884FF650
:101B50007F731A400280704721B1828842F00402EC
:101B6000828004E082884FF6FB731A4082807047BF
:101B700021B1828842F00802828004E082884FF618
:101B8000F7731A408280704721B1828842F00102C7
:101B9000828004E082884FF6FE731A40828070478C
:101BA0000A460021018B4FF6F77319401143018358
:101BB00070470A460021018B4FF2FF7319404FF620
:101BC000FF7303EA02231943018370470A46002189
:101BD000818B4FF6F77319401143818370470A4692
:101BE0000021818B4FF2FF7319404FF6FF7303EA18
:101BF00002231943818370470A460021018B4FF667
:101C0000FB7319401143018370470A460021018B81
:101C10004FF6FF3319404FF6FF7303EA02231943CF
:101C2000018370470A460021818B4FF6FB731940F0
:101C30001143818370470A460021818B4FF6FF33A1
:101C400019404FF6FF7303EA02231943818370475B
:101C50000A460021018B4FF67F731940114301831F
:101C600070470A460021018BC1F30E014FF6FF7346
:101C700003EA02231943018370470A460021818B3E
:101C80004FF67F7319401143818370470A46002144
:101C9000818BC1F30E014FF6FF7303EA0223194350
:101CA000818370470A460021018C4FF6FD7319406D
:101CB0001143018470470A460021018C4FF6F773E7
:101CC00019401143018470470A460021018C4FF6E8
:101CD000DF7319404FF6FF7303EA021319430184BF
:101CE00070470A460021018C4FF67F7319404FF66A
:101CF000FF7303EA02131943018470470A46002167
:101D0000018C4FF6FF5319404FF6FF7303EA02238D
:101D10001943018470470A460021018C4FF2FF737A
:101D200019404FF6FF7303EA0223194301847047F9
:101D30000A460021018C4DF6FF7319404FF6FF73E0
:101D400003EA023319430184704730B500230124AC
:101D50008C40A3B2048C9C430484048C02FA01F5E9
:101D6000ADB22C43048430BD30B5002304248C4034
:101D7000A3B2048C9C430484048C02FA01F5ADB236
:101D80002C43048430BD70B503460020002418465F
:101D9000183001258D40ACB21D8CA5431D8409B1BE
:101DA000082909D100EB6100056825F07005056080
:101DB0000568154305600EE00D1FC5F34E05284468
:101DC000056825F4E045056005684FF6FF7606EAEC
:101DD00002263543056070BD21B1028842F002023F
:101DE000028004E002884FF6FD731A4002807047BB
:101DF00021B1028842F00402028004E002884FF61A
:101E0000FB731A400280704721B1828842F0800241
:101E1000828004E082884FF67F731A408280704788
:101E200002884FF6F7731A40028002880A43028044
:101E3000704782884FF68F731A40828082880A43E7
:101E40008280704702894FF6F8731A400281028936
:101E50000A430281704702894FF67F731A4002815C
:101E600002890A43028170478184704781857047E7
:101E7000818670470187704781877047A0F84010BE
:101E8000704702884FF6FF431A40028002880A43D7
:101E9000028070470146888E70470146088F704760
:101EA0000146888F70470146B1F8400070470146EF
:101EB000888C70470146088D704702460020138ABF
:101EC0000B400BB1012000E000207047CA430282A2
:101ED000704730B50246002000230024158A05EA29
:101EE0000103958905EA010413B10CB1012000E05A
:101EF000002030BDCA4302827047000010B504467E
:101F0000FB48844209D101218803FFF79FF8002193
:101F10004FF48040FFF79AF832E0F648844209D146
:101F200001214804FFF79FF800214FF40030FFF72C
:101F30009AF825E0F048844209D101218804FFF78E
:101F400092F800214FF48020FFF78DF818E0EB485D
:101F5000844209D10121C804FFF785F800214FF41C
:101F60000020FFF780F80BE0E548844208D101210A
:101F70000805FFF778F800214FF48010FFF773F899
:101F800010BD2DE9F04786B005460E460024A24656
:101F900000BFA1460027B08900B100BF2F462C8AA0
:101FA0004CF6FF700440F08804432C82AC894EF656
:101FB000F3100440B0883189084371890843044311
:101FC000AC81AC8A4FF6FF400440B0890443AC8238
:101FD00001A8FEF7B4FFC648874202D1DDF810A081
:101FE00001E0DDF80CA0A88900F4004040B10AEB44
:101FF000CA0000EB0A1031684900B0FBF1F807E0B5
:102000000AEBCA0000EB0A1031688900B0FBF1F856
:102010006420B8FBF0F004012009642101FB108961
:10202000A88900F4004040B1322000EBC900B0FBA9
:10203000F1F000F00700044308E0322000EB091043
:102040006421B0FBF1F000F00F0004432C8106B0D6
:10205000BDE8F0874FF41651016000218180C180F6
:1020600001810C21418100218181704710B5024618
:102070000020108A4FF2FF0318400B884C8823433E
:102080008C882343CC8823431843108210BD002141
:10209000018041808180C180704721B1828942F4F2
:1020A0000052828104E082894DF6FF731A408281DA
:1020B0007047F0B50346002400260025002040F6B6
:1020C0006A17B94200D100BF1846C1F3421401F0AB
:1020D0001F06012707FA06F5012C01D10C3004E098
:1020E000022C01D1103000E014301AB107682F43E0
:1020F000076002E00768AF430760F0BD1AB1838A4A
:102100000B43838202E0838A8B4383827047028A77
:102110004FF6F0731A400282028A0A430282704725
:1021200082894FF2FF731A40828182890A43828139
:10213000704721B1828942F00202828104E08289E3
:102140004FF6FD731A4082817047028A4FF6DF73A3
:102150001A400282028A0A430282704721B1028A2F
:1021600042F48042028204E0028A4BF6FF731A4076
:1021700002827047C1F30802828070470146888856
:10218000C0F308007047818941F0010181817047E7
:10219000028BD2B20283028B42EA01220283704791
:1021A000028B02F47F420283028B0A430283704750
:1021B00021B1828A42F02002828204E0828A4FF6B4
:1021C000DF731A408282704721B1828A42F0100286
:1021D000828204E0828A4FF6EF731A40828270474F
:1021E00021B1828A42F00802828204E0828A4FF69C
:1021F000F7731A408282704721B1828942F400420B
:10220000828103E08289C2F30E028281704721B18C
:10221000828A42F40062828204E0828A4FF2FF7373
:102220001A4082827047828A4FF6FB731A4082827C
:10223000828A0A438282704721B1828A42F0020276
:10224000828204E0828A4FF6FD731A4082827047D0
:1022500002460020B1F5007F00D100BF13880B407B
:102260000BB1012000E00020704701F40072B2F5CC
:10227000007F00D100BFCA430280704770B502469C
:10228000002400230025002040F66A16B14200D148
:1022900000BFC1F3421501F01F03012606FA03F344
:1022A000012D02D19689334006E0022D02D1168A13
:1022B000334001E0968A33400C12012606FA04F4FA
:1022C0001688344013B10CB1012000E0002070BD2D
:1022D00010B50022002340F66A14A14200D100BFCD
:1022E0000A1201249440A3B2DC43048010BD000014
:1022F000003801400044004000480040004C0040CD
:102300000050004010B500F07DF804F06DFB0A4964
:102310000A48007804F0BFFE094908600723094A0B
:102320000021094805F014FA08A007F08BF904F021
:1023300077FC002010BD00002C0000202D000020A4
:10234000280000200C060020556600084F537374C7
:1023500061727420696E6974204F4B0A000000009E
:10236000704700BFFEE700BFFEE700BFFEE700BF0B
:10237000FEE770477047704710B504F047FB04F064
:1023800086FC04F05EFB10BD10B501210648FFF786
:10239000A0FD40B105480068401E044908600121C5
:1023A0000148FFF7A7FD10BD001400408C0000207D
:1023B00030B5514800684FF47A72B0FBF2F1B1F1D8
:1023C000807F00D31DE021F07F40401E4FF0E022CF
:1023D000506150170F22002807DA13071D0E474BD4
:1023E00000F00F04241F1D5503E013071C0E444B7F
:1023F0001C5400BF00204FF0E022906107201061C4
:1024000000BF30BD70B5FFF7D3FF01F078F900F0E1
:10241000BDF801F0B1F901F0E8F900F028F900F099
:102420006CF900F04FFF00F068FF00F071FE00F063
:1024300083FE642000F0E9FE4FF4FA6001F04AF9EF
:10244000002000F0E2FE4FF4FA6001F043F906F0DC
:1024500080F903F035FF01F0B9FB03F0BAFF29A0C2
:1024600007F0F0F800202C4908702C4908702C491E
:102470000870002406E001F01DFC03F066FF02F086
:1024800000FA641C40F2DC508442F4DB00240CE0CF
:1024900001F010FC03F059FF02F0F3F921488168C4
:1024A000284606F0EAF90546641C0A2CF0DB1E49B2
:1024B000284606F06CFA1D4908600120184908708A
:1024C0001BA007F0BFF81EA000F08EF8FDF7C9FFB3
:1024D00003F03FF820A007F0B5F823A000F084F83F
:1024E00013A007F0AFF803F0ABFA23A007F0AAF8A7
:1024F00021A000F079F870BD0000002018ED00E088
:1025000000E400E062737020696E6974204F4B2014
:102510006E6578740A000000A0000020A100002071
:10252000B4000020740F002000002041D8000020DB
:102530006461746120696E6974204F4B0A00000069
:102540006273702020616E64202064617461206970
:102550006E6974204F4B0A00666C61736820696E67
:102560006974204F4B0A0000666C61736820696EC5
:102570006974204F4B200A0070696420746573747D
:1025800020656E64204F4B0A0000000008B5012151
:102590001820FEF741FD0120ADF8000010208DF855
:1025A000030003208DF8020069460D48FEF778FA13
:1025B0000820ADF8000069460A48FEF771FA1020BD
:1025C000ADF8000069460748FEF76AFA01210448A1
:1025D000FEF713FB18210348FEF70FFB08BD0000B0
:1025E000000C0140001001400FB438B505A8009060
:1025F000D348009A049907F035F800200090D0489D
:1026000006F026F985B200240DE000BF4021CD4838
:10261000FFF71EFE0028F9D0C948015DC948FFF741
:10262000A9FD601C84B2AC42EFDB38BC5DF814FB42
:102630002DE9FF478246DAF8080006F0A1FB0446C0
:102640000D46DAF8000006F09BFB06460F46DAF866
:10265000040006F095FB804642460B46BAA0CDE941
:102660000067CDE90245FFF7BFFFBDE8FF8700B572
:1026700085B001218804FEF7DCFC01212120FEF752
:10268000CBFC0121B748FEF7DCFA4FF48070ADF8BF
:10269000100018208DF8130003208DF8120004A9F3
:1026A000B148FEF7FDF94FF40070ADF810000420BA
:1026B0008DF8130004A9AC48FEF7F2F94FF4165058
:1026C00000900020ADF80400ADF80600ADF8080059
:1026D000ADF80C000C20ADF80A0069469948FFF7E8
:1026E00050FC012240F225519648FFF7E2FC0121FF
:1026F0009448FFF7D2FC05B000BD08B54FF4E06088
:10270000FDF722FE27208DF8000001208DF8010042
:1027100000208DF8020001208DF803006846FDF7C7
:1027200018FE08BD002003E00021904A1154401C0F
:10273000C828F9DB7047F8B58D48008800F40040E0
:1027400000286FD08BA1894806F089F818B98AA0B3
:10275000FFF74AFFB6E08AA1844806F080F830B956
:1027600000208849087088A0FFF73EFFAAE089A1F1
:102770007E4806F074F830B901208249087087A0BD
:10278000FFF732FF9EE088A1784806F068F818B994
:1027900001208749087095E086A1744806F05FF82B
:1027A00010B903F04EF88DE003F064F869466F4805
:1027B00008F0C8F8054606F0F6FA044671480078B5
:1027C00000287BD17CA1009806F049F810B97B481D
:1027D000046073E07AA1009806F041F810B97748D8
:1027E00084606BE077A1009806F039F810B973485F
:1027F000446063E074A1009806F031F810B96F48A6
:10280000C4605BE071A1009806F029F810B96B482C
:10281000446153E06EA1009806F021F818B96D48A4
:1028200004604BE056E06CA1009806F018F810B96F
:102830006848846042E069A1009806F010F810B979
:10284000644844603AE066A1009806F008F810B9C0
:102850006048C46032E063A1009806F000F810B947
:102860005C4844612AE060A1009805F0F8FF10B9C7
:102870005E48046022E05EA1009805F0F0FF10B908
:102880005A4884601AE05BA1009805F0E8FF10B98F
:102890005648446012E058A1009805F0E0FF10B9D6
:1028A0005248C4600AE055A1009805F0D8FF10B95D
:1028B0004E48446102E052A0FFF796FE02F0EAFEA5
:1028C00003F0BEF851A0FFF78FFE002028490880D2
:1028D000FFF728FFF8BD10B504F098F840F2255135
:1028E0001848FFF7CBFC38B31648FFF747FC4849B8
:1028F00008701F48008800F40040E8B908460078D6
:10290000232808D11A48008840F40040184908805C
:10291000FFF711FF10E03E48017815480288008853
:10292000401C134B18801148815418460088C72852
:1029300002DD00201946088004F083F810BD000075
:10294000D80600200048004070697463682025663E
:102950003B726F6C6C2025663B7961772025660A97
:102960000000000030001400001401401006002098
:102970002E00002059657300636F7079000000001D
:10298000730000003100002053746F70204D6F748D
:102990006F7200005354415254000000537461722E
:1029A00074204D6F746F7200414E474C450000001B
:1029B00033000020636C7200707370008C3B002049
:1029C00070736400707369007063700070636400FA
:1029D00072737000683B0020727364007273690048
:1029E000726370007263640079737000B03B002002
:1029F00079736400797369007963700079636400A6
:102A0000756E64656620696E666F00000D0A0000D1
:102A10003000002000B585B001210820FEF7FCFA47
:102A20002020ADF8100004208DF8130003208DF84D
:102A3000120004A9FE48FEF733F801214804FEF70E
:102A4000F8FA01212120FEF7E7FA01210820FEF71C
:102A5000F8F82020ADF8100018208DF8130003209E
:102A60008DF8120004A9F348FEF71AF84020ADF8DB
:102A7000100004208DF8130004A9EE48FEF710F8AA
:102A80004FF4165000900020ADF80400ADF8060099
:102A9000ADF80800ADF80C000C20ADF80A0069464E
:102AA000E548FFF76EFA012240F22551E248FFF7B0
:102AB00000FB0021E048FFF7F0FA05B000BD08B5C3
:102AC0004FF4E060FDF740FC26208DF80000012067
:102AD0008DF8010000208DF8020001208DF8030020
:102AE0006846FDF736FC08BD002000BF03E000216A
:102AF000D24A1154401CB0F5487FF8DB7047F8B556
:102B0000CF49D1F8490006F011F90746CD493846BA
:102B100005F03DFF0746044606F032F90546C84871
:102B200090F84D002A460B460090C7A006F08AFD9B
:102B3000C349486C06F0FAF80746C249384605F022
:102B400026FF0746044606F01BF90546BC4890F8E8
:102B500048002A460B460090C1A006F073FDB84815
:102B600090F8403090F83F20B0F83D10C2A006F039
:102B700069FDB34890F8433090F8422090F8411036
:102B8000C5A006F05FFDF8BD10B50246012000E0CB
:102B900050430B1EA1F10104E1B2F9D110BD2DE9A2
:102BA000F34F81B007463C460020009083468146A3
:102BB0000026804628E020782D2802D148F002081F
:102BC000641C20782C2802D020782A2800D11CE010
:102BD00020782E2803D148F00108641C09E02078F1
:102BE000392802DC2078302803DA4FF0000900266B
:102BF0000BE008F0010010B1701CC6B203E009F14F
:102C0000010000F0FF09641CD5E700BF08F00200D6
:102C100000B17F1C00250EE0A9F10100401BC1B2EC
:102C20000A20FFF7B1FF795D3039009A00FB0120DF
:102C30000090681CC5B24D45EEDB052E00DD052673
:102C40000298067000250EE0701E401BC1B20A20DB
:102C5000FFF79AFF09F101012944795C303900FB43
:102C600001BB681CC5B2B542EEDB31460A20FFF756
:102C70008BFF009901FB00BA08F0020008B1CAF10D
:102C8000000A5046BDE8FE8F0246134610E0107859
:102C90002A2805D01078202802DB10787A2801DD58
:102CA000FF20704710782C2801D1481EC1B2521C59
:102CB0000029ECD1D01AC0B2F3E72DE9F04F85B06E
:102CC000044688467CA1404605F0B0FD0746012138
:102CD0003846FFF7D9FF0546FF2D24D0781904A9FF
:102CE000FFF75DFF82469DF810100A20FFF74CFFAA
:102CF000BAFBF0F642F21070B6FBF0F00830C1B249
:102D0000412001556420B6FBF0F06421B0FBF1F2E4
:102D100001FB1201422001556420B6FBF0F100FBDB
:102D200011614320015503213846FFF7ADFF0546E9
:102D3000FF2D43D0781904A9FFF731FF06469DF80F
:102D40001000801CC1B20A20FFF71EFFB6FBF0F096
:102D500060649DF81000801CC1B20A20FFF714FFC8
:102D6000B6FBF0F100FB116A504605F0DFFF81462B
:102D70009DF81000C0F10500C1B20A20FFF704FF62
:102D8000009005F0D3FF8346494605F0CEFD82460C
:102D90004B4905F0FCFD052102900A20FFF7F4FEE7
:102DA000616C00FB01FA504605F0C0FF01900299EA
:102DB00005F063FD039005F0CFFF60640421384601
:102DC000FFF762FF0546FF2D02D0785D84F84800CA
:102DD00005213846FFF758FF0546FF2D72D07819B8
:102DE00004A9FFF7DCFE06469DF81000801CC1B266
:102DF0000A20FFF7C9FEB6FBF0F044F8490F9DF832
:102E00001000801CC1B20A20FFF7BEFEB6FBF0F135
:102E100000FB116A504605F089FF81469DF81000BD
:102E2000C0F10500C1B20A20FFF7AEFE00904AE0F3
:102E3000000C01400014014000440040C407002081
:102E4000040E00200050C3474C6F6E6769747564B0
:102E5000653A252E3566202531632020200D0A0095
:102E60004C617469747564653A252E356620253188
:102E7000632020200D0A00005554432044617465EE
:102E80003A253034642F253032642F2530326420C7
:102E900020200D0A000000005554432054696D6540
:102EA0003A253032643A253032643A253032642093
:102EB00020200D0A000000004750524D4300000042
:102EC000000070421DE005F031FF8346494605F0E1
:102ED0002CFD8246714905F05AFD052102900A2019
:102EE000FFF752FE216800FB01FA504605F01EFF75
:102EF0000190029905F0C1FC039005F02DFF44F804
:102F0000490906213846FFF7BFFE0546FF2D02D0CE
:102F1000785D84F84D0009213846FFF7B5FE054677
:102F2000FF2D1ED0781904A9FFF739FE064642F29C
:102F30001070B6FBF0F0C1B2402001556420B6FB22
:102F4000F0F06421B0FBF1F201FB12013F200155CA
:102F50006420B6FBF0F100FB116000F5FA60A4F804
:102F60003D0005B0BDE8F08FF8B505460F464CA111
:102F7000384605F05BFC064606213046FFF784FE26
:102F80000446FF2C05D030196946FFF708FE85F886
:102F90004E0007213046FFF777FE0446FF2C05D090
:102FA00030196946FFF7FBFD85F84F0009213046CF
:102FB000FFF76AFE0446FF2C05D030196946FFF77B
:102FC000EEFDC5F86300F8BD70B504460D46294610
:102FD0002046FFF7C9FF29462046FFF76EFE70BD69
:102FE00070B5002430480088C0F30D0500BF04E030
:102FF0002E48005D2E490855641CAC42F8DB0020C9
:103000002B4908552B48FFF7DFFFFFF778FDFFF747
:103010006BFD00202449088070BD10B540F2255199
:103020002548FFF72BF920B32348FFF7A7F8C4B2D0
:103030001D48008800F40040D8B91B48008800F4FF
:10304000804070B10A2C03D000201749088023E08B
:1030500015480088C0F30D0013490880FFF7C0FF32
:103060001AE00D2C06D11048008840F480400E492B
:10307000088011E00C480088C0F30D000B490C5487
:1030800009480088401C0849088008460088B0F5B7
:10309000487F01DB0020088010BD00000000704266
:1030A000244750474741000034000020C407002057
:1030B000E40A0020040E00200044004030B5B0F5C2
:1030C000FA6F01DD4FF4FA60B1F5FA6F01DD4FF4EC
:1030D000FA61B2F5FA6F01DD4FF4FA62B3F5FA6FF7
:1030E00001DD4FF4FA63002800DA0020002900DA3D
:1030F0000021002A00DA0022002B00DA00236F4DA5
:1031000028802D1D29802D1D2A802D1D2B8030BD4E
:1031100008B501210920FDF77FFF4FF47070ADF86D
:10312000000003208DF8020018208DF80300694686
:103130006348FDF7B5FC08BDF0B587B0142714242B
:103140001425142601210420FDF773FF44F61F60A7
:10315000ADF814004720ADF810000020ADF81600BF
:10316000ADF8120004A955483438FEF78DF86020F8
:10317000ADF800000120ADF80200ADF806700020A7
:10318000ADF8080069464D483438FEF7BAF801201A
:10319000ADF80200ADF80640694648483438FEF7FD
:1031A000F2F80120ADF80200ADF806506946434838
:1031B0003438FEF735F90120ADF80200ADF80660AD
:1031C00069463E483438FEF776F908213B483438E2
:1031D000FEF7E6FC082139483438FEF7EAFC0821FE
:1031E00036483438FEF7F2FC082134483438FEF70C
:1031F000F6FC012131483438FEF7A2FC01212F48AA
:103200003438FEF79DFB07B0F0BD4FF47A714143AF
:10321000642291FBF2F101F57A71284A11804FF492
:103220007A714143642291FBF2F101F57A71234AEC
:10323000121D11804FF47A714143642291FBF2F127
:1032400001F57A711D4A083211804FF47A714143B9
:10325000642291FBF2F101F57A71184A0C32118067
:10326000704730B54FF47A744443642594FBF5F409
:1032700004F57A74114D2C804FF47A744C43642514
:1032800094FBF5F404F57A740C4D2D1D2C804FF44D
:103290007A745443642594FBF5F404F57A74074D6D
:1032A00008352C804FF47A745C43642594FBF5F464
:1032B00004F57A74014D0C352C8030BD3408004083
:1032C000000C014008B501210846FDF7B2FE0121BE
:1032D0000520FDF7A1FE0F20ADF8000003208DF8BA
:1032E000020028208DF803006946E148FDF7D8FB6D
:1032F0000F21DF48FDF783FC08BD00B587B01C2017
:103300008DF8000000208DF8010001208DF80200EA
:103310008DF803006846FDF71CF84FF6FF70ADF816
:1033200014004720ADF810000020ADF81600ADF8ED
:10333000120004A94FF08040FDF7A6FF0020ADF871
:103340000400ADF806000120ADF808000020ADF83B
:103350000A00ADF80C0001A94FF08040FEF727FAF3
:103360000420ADF804000020ADF806000120ADF8FF
:1033700008000020ADF80A00ADF80C0001A94FF0DC
:103380008040FEF714FA0820ADF804000020ADF8E4
:1033900006000120ADF808000020ADF80A00ADF8E5
:1033A0000C0001A94FF08040FEF701FA0C20ADF8A7
:1033B00004000020ADF806000120ADF80800002050
:1033C000ADF80A00ADF80C0001A94FF08040FEF7FF
:1033D000EEF901221E219007FEF7CDFA01218807A0
:1033E000FEF7AEFA07B000BD10B503F00FFBA14821
:1033F000007800F08000002849D102214807FEF73C
:1034000068FD002843D002214807FEF773FD994864
:10341000007800F0400050B34FF08040FEF73AFDD6
:10342000954908800846008894490988884204DA4A
:103430004FF6FF709249086002E000209049086052
:103440008D4800888D490988401A8D4909680844CB
:103450008C490860084600688B490860002085494F
:10346000087000214FF08040FEF71CFC0FE04FF089
:103470008040FEF70FFD814908807E48007840F0CB
:1034800040007C49087002214807FEF70BFC7F488A
:10349000007800F08000002849D104210807FEF7D9
:1034A00018FD002843D004210807FEF723FD7748C4
:1034B000007800F0400050B34FF08040FEF7EDFC84
:1034C000734908800846008872490988884204DAEE
:1034D0004FF6FF707049086002E000206E490860F6
:1034E0006B4800886B490988401A6B490968084491
:1034F0006A49086008460068694908600020634915
:10350000087000214FF08040FEF7DEFB0FE04FF027
:103510008040FEF7C2FC5F4908805C48007840F0BC
:1035200040005A49087002214807FEF7CDFB5D486C
:10353000007800F08000002848D10821C806FEF776
:10354000C8FC90B30821C806FEF7D4FC55480078A3
:1035500000F0400050B34FF08040FEF7A1FC52490C
:1035600008800846008851490988884204DA4FF6E5
:10357000FF704F49086002E000204D4908604A484A
:1035800000884A490988401A494909680844494954
:1035900008600846006848490860002041490870F2
:1035A00000214FF08040FEF7A9FB0FE04FF0804074
:1035B000FEF776FC3D4908803A48007840F040002C
:1035C0003849087002214807FEF798FB3B4800780D
:1035D00000F08000B8BB10218806FEF77AFC90B39B
:1035E00010218806FEF786FC3448007800F0400081
:1035F00050B34FF08040FEF756FC31490880084632
:10360000008830490988884204DA4FF6FF702E4955
:10361000086002E000202C490860294800882949F8
:103620000988401A2849096808442849086008465A
:1036300000682749086000202049087000214FF0E9
:103640008040FEF775FB0FE04FF08040FEF72BFC4B
:103650001C4908801948007840F04000174908705C
:1036600002214807FEF764FB03F0EBF910BD0000F0
:1036700000080140400000204400002042000020DB
:103680006800002058000020840000204600002030
:103690004A000020480000206C0000205C00002050
:1036A000800000204C000020500000204E00002030
:1036B00070000020600000207C00002052000020EC
:1036C00056000020540000207400002064000020F8
:1036D0007800002010B5044601212020FDF7A9FC48
:1036E0002348046000BF224800680028FBD1002165
:1036F0002020FDF79EFC00201E49088010BD1FB54C
:1037000001212020FDF795FC37208DF800000020D6
:103710008DF801008DF8020001208DF80300684645
:10372000FCF717FE40F2E730ADF808004720ADF88F
:1037300004000020ADF80A00ADF8060001A90D480C
:103740002438FDF7A1FD01210A482438FEF7BEFB0D
:103750000122114607482438FEF70DF901210548DA
:103760002438FEF7EDF800212020FDF762FC1FBD94
:103770008C0000202414004000B585B0012144F2E3
:103780000400FDF749FC4FF40070ADF8100018205C
:103790008DF8130003208DF8120004A95048FDF79E
:1037A0007FF94FF48060ADF8100004208DF813000D
:1037B00004A94B48FDF774F94FF4E1300090002064
:1037C000ADF80400ADF80600ADF80800ADF80C0047
:1037D0000C20ADF80A0069464248FEF7D2FB0121F1
:1037E0004048FEF75AFC05B000BD08B54FF4E06054
:1037F000FCF7AAFD25208DF8000000208DF80100BF
:1038000001208DF802008DF803006846FCF7A1FD49
:1038100008BD70B504460D46E1B23248FEF7AAFC79
:1038200000BF40212F48FEF713FD0028F9D02046A5
:1038300070BD10B5044600BF20212A48FEF708FDE0
:103840000028F9D02748FEF799FC10BD10B503F009
:10385000DDF840F225512348FEF710FD00283BD04B
:103860002048FEF78BFC204908702048008800F4AF
:10387000004088BB1D48008800F4804070B10846B5
:1038800000780A2803D000201849088024E017484F
:10389000008840F40040154908801DE01248007877
:1038A0000D2806D11148008840F480400F49088057
:1038B00012E00D4800780D490988C1F30D010C4A4A
:1038C00050540A480088401C08490880084600886F
:1038D000C72801DD0020088003F0B3F810BD000008
:1038E00000080140003801409200002090000020B4
:1038F0006D0E0020D2480078D149497840EA012075
:10390000D0490988401A00B2CF490880CC48807855
:10391000CB49C97840EA0120CA494988401A00B217
:10392000C9494880C6480079C549497940EA01201B
:10393000C4498988401A00B2C3498880C048007AC7
:10394000BF49497A40EA0120C0490988401A00B2BB
:10395000BF490880BA48807AB949C97A40EA01204B
:10396000BA494988401A00B2B9494880B448007B36
:10397000B349497B40EA0120B4498988401A00B222
:10398000B3498880B3480078002855D1B2480088F0
:1039900070B90020AD49088048808880AF49086030
:1039A000AF490860AF4908600120AB490880704703
:1039B000A748B0F90000A94909680844A749086068
:1039C000A348B0F90200A64909680844A449086060
:1039D0009F48B0F90400A34909680844A149086058
:1039E0009D480088B0F5487F21D19C4800689A49DD
:1039F000098890FBF1F000B294490880984800686B
:103A00009549098890FBF1F000B2904948809548AB
:103A100000689149098890FBF1F000B28B498880D9
:103A200000208D49088001208A490870BFE78A4834
:103A30000088401C884908808B480078002857D1AE
:103A40008A48008870B900207E49088048808880B4
:103A500087490860874908608749086001208349D1
:103A60000880A4E77848B0F9000081490968084453
:103A70007F4908607448B0F902007E49096808442B
:103A80007C4908607048B0F904007B490968084423
:103A90007949086075480088B0F5487F23D174489B
:103AA00000687249098890FBF1F000B2654908800E
:103AB000704800686D49098890FBF1F000B26149D7
:103AC00048806D4800686949098890FBF1F0A0F5CD
:103AD000005000B25B4988800020644908800120C2
:103AE0006149087063E761480088401C5F490880AD
:103AF00000BF5CE710B53C21D02002F0F9FA504934
:103B000008703B21D02002F0F3FA4D4948703E2165
:103B1000D02002F0EDFA4A4988703D21D02002F011
:103B2000E7FA4749C8704021D02002F0E1FA444941
:103B300008713F21D02002F0DBFA4149487142214F
:103B4000D02002F0D5FA3E4988714121D02002F000
:103B5000CFFA3B49C8714421D02002F0C9FA384954
:103B600008724321D02002F0C3FA35494872462139
:103B7000D02002F0BDFA324988724521D02002F0EF
:103B8000B7FA2F49C8724821D02002F0B1FA2C4967
:103B900008734721D02002F0ABFA2949487310BDC1
:103BA00010B500247521D02002F0A2FA0446682C3A
:103BB00001D1012000E0002020B121462FA005F016
:103BC00041FD02E035A005F03DFD10BD10B500241B
:103BD00000226B21D02002F0ACFA07221921D0205C
:103BE00002F0A7FA06221A21D02002F0A2FA0A2037
:103BF000FFF770FD42223721D02002F09AFA4022CE
:103C00006A21D02002F095FA0A20FFF763FD102206
:103C10001B21D02002F08DFA08221C21D02002F0B6
:103C200088FA4FF4FA60FFF755FDFFF7B9FF02E09D
:103C3000FFF760FF641CB4F57A7FF9DB10BD00006C
:103C4000350F00209A000020A200002094000020E0
:103C5000A8000020A0000020C4000020B800002020
:103C6000BC000020C0000020A1000020D4000020E3
:103C7000C8000020CC000020D00000200DC9E8B111
:103C8000B84D5036303530CAB6B1F0B3C9B9A6A375
:103C9000AC69643D307825780D0A0D000DB4EDCE89
:103CA000F321CEDEB7A8C9E8B1F0C9E8B1B80D0A72
:103CB0000D0000002DE9F041002500260027FFF748
:103CC00019FFFFF717FEFE480088FE49FE4A1278EA
:103CD00021F81200FA484188FC48FB4A127820F883
:103CE0001210F7488188FA48F74A127820F8121023
:103CF00000240DE0F34830F914000544F34830F98E
:103D000014000644F24830F914000744601CC4B2A1
:103D1000142CEFDB142095FBF0F8404604F0FDFF77
:103D2000EC490860142096FBF0F8404604F0F5FFDB
:103D3000E8494860142097FBF0F8404604F0EDFF96
:103D4000E4498860E0480078401CDF490870084674
:103D50000078142801D100200870BDE8F0810FB56B
:103D6000AFB0DD480168006804F0DFFD1D90DB485E
:103D70000168D948006804F0D8FD1C90D848016853
:103D8000D548006804F0D1FD1B90D6480168D248A0
:103D9000006804F0CAFD1A90D0480168006804F079
:103DA000C4FD1990CE480168CC48006804F0BDFD00
:103DB0001890CC480168C948006804F0B6FD179017
:103DC000C7480168006804F0B0FD1690C548016856
:103DD000C348006804F0A9FD1590C2480168006856
:103DE00004F0A3FD14903599084604F09EFD0E9052
:103DF0003499084604F099FD0C903299084604F075
:103E000094FD0B900C9904F038FD0D900E9904F080
:103E100034FD0F9004F0B4FFCDE9100106F06CFD05
:103E2000CDE9120104F0BFFF2D902D99329804F0D6
:103E3000AEFD32902D99349804F0A9FD34902D995F
:103E4000359804F0A4FD35903899084604F06DFDCE
:103E50000E903799084604F068FD0C903699084694
:103E600004F063FD0B900C9904F007FD0D900E9982
:103E700004F003FD0F9004F083FFCDE9100106F07C
:103E80003BFDCDE9120104F08EFF2D902D9936985F
:103E900004F07DFD36902D99379804F078FD379029
:103EA0002D99389804F073FD38901B99179804F0F9
:103EB000E4FC0C904FF08040389904F036FD0B90F4
:103EC0000C9904F032FD0D9004F05AFFCDE9100179
:103ED0001A99189804F023FD08904FF08040379904
:103EE00004F023FD0790089904F01FFD099004F0E9
:103EF00047FFCDE90C01149804F042FFCDE904011D
:103F0000169804F03DFF0022774BCDE9000104F044
:103F100020FECDE90201DDE9042304F017FECDE91E
:103F200008014FF08040369904F0FFFC059004F042
:103F300027FFCDE90601DDE9082304F00DFECDE9F8
:103F40000A01DDE90C2304F060FDCDE90E01DDE995
:103F5000102304F05AFDCDE9120104F024FF2C9047
:103F60001C99159804F0DBFC0C904FF080403899B8
:103F700004F0DBFC0B900C9904F0D7FC0D9004F0DE
:103F8000FFFECDE91001149804F0FAFECDE904011A
:103F9000199804F0F5FE0022534BCDE9000104F01E
:103FA000D8FDCDE90201DDE9042304F0CFFDCDE920
:103FB00008014FF08040379904F0B7FC059004F0F9
:103FC000DFFECDE90601DDE9082304F0C5FDCDE9FA
:103FD0000C011A99189804F050FC08904FF080409A
:103FE000369904F0A2FC0790089904F09EFC099011
:103FF00004F0C6FECDE90A01DDE90C2304F005FD5D
:10400000CDE90E01DDE9102304F0FFFCCDE912013A
:1040100004F0C9FE2B90169804F0B2FECDE9080119
:10402000199804F0ADFE00222F4BCDE9040104F0F5
:1040300090FDCDE90601DDE9082304F087FDCDE917
:104040000C014FF08040389904F06FFC099004F0A7
:1040500097FECDE90A01DDE90C2304F07DFDCDE9F1
:1040600010011C99159804F008FC0A904FF080404C
:10407000379904F05AFC09900A9904F056FC0C9008
:104080001B99179804F04BFC0A904FF0804036992A
:1040900004F04BFC09900A9904F047FC0B900C9932
:1040A00004F0EBFB0D9004F06BFECDE90E01DDE9B1
:1040B000102304F0AAFCCDE9120104F074FE15E00F
:1040C000A20000208C0F002008010020B40F002067
:1040D000DC0F0020440F0020DC000020E000002066
:1040E000E4000020E80000200000E03F2A902B9927
:1040F000084604F01AFC0E902C99084604F015FCB2
:104100000D900E9904F0B9FB0F9004F039FECDE943
:10411000100106F0F1FBCDE9120104F044FE2990F4
:104120002A9828901B99179804F0F9FB4FF08041CA
:10413000139004F0FAFB279015991C9804F09DFB4E
:104140004FF08041139004F0F0FB269019991D98D0
:1041500004F0E5FB1290169904F0E1FB139014991A
:1041600004F08BFB25901B99179804F0D8FB0C905A
:104170004FF08040289904F0D8FB0B900C9904F084
:10418000D4FB0D9004F0FCFDCDE91001149804F06F
:10419000F7FDCDE90801169804F0F2FD0022FE4B70
:1041A000CDE9040104F0D5FCCDE90601DDE90823E1
:1041B00004F0CCFCCDE90C014FF08040299904F0CB
:1041C000B4FB099004F0DCFDCDE90A01DDE90C2324
:1041D00004F0C2FCCDE90E01DDE9102304F015FC6A
:1041E000CDE9120104F0DFFD249015991C9804F02C
:1041F00044FB11904FF08040289904F096FB1090FA
:10420000119904F092FB13901A99189804F087FB07
:1042100011904FF08040299904F087FB109011997C
:1042200004F083FB1290139904F027FB2390169857
:1042300004F0A6FDCDE90801199804F0A1FD0022C3
:10424000D54BCDE9040104F084FCCDE90601DDE99C
:10425000082304F07BFCCDE90C014FF08040289945
:1042600004F063FB099004F08BFDCDE90A01DDE960
:104270000C2304F071FCCDE9100117991B9804F090
:10428000FCFA0C904FF08040299904F04EFB0B9003
:104290000C9904F04AFB0D9004F072FDCDE90E017B
:1042A000DDE9102304F0B1FBCDE9120104F07BFD40
:1042B00022902399389804F038FB1190229937986E
:1042C00004F033FB1090119904F029FB1390269908
:1042D000359804F02AFB11902599349804F025FBB9
:1042E0001090119904F01BFB1290139904F0C5FA79
:1042F00021902299369804F018FB1190249938984F
:1043000004F013FB1090119904F009FB1390259908
:10431000329804F00AFB11902799359804F005FBB8
:104320001090119904F0FBFA1290139904F0A5FA79
:1043300020902499379804F0F8FA11902399369830
:1043400004F0F3FA1090119904F0E9FA1390279908
:10435000349804F0EAFA11902699329804F0E5FABC
:104360001090119904F0DBFA1290139904F085FA79
:104370001F908A49219804F0D8FA13908848016860
:10438000139804F07AFA864908608449209804F06A
:10439000CCFA139083480168139804F06EFA8149AF
:1043A00008607E491F9804F0C0FA13907E480168A7
:1043B000139804F062FA7C4908607C48219904F063
:1043C000B4FA12902F9904F058FA139074480168C7
:1043D000139804F052FA2F907448209904F0A5FA2B
:1043E0001290309904F049FA13906E4801681398BE
:1043F00004F043FA30906D481F9904F096FA129039
:10440000319904F03AFA139067480168139804F060
:1044100034FA319066483199006804F086FA1190B8
:1044200064483099006804F080FA0F906248006890
:1044300080F000400D902F9904F077FA0E900F99BC
:1044400004F06DFA1090119904F069FA5B4912902A
:1044500004F06BFA13905A480168139804F00DFAAF
:104460005849086052483099006804F05EFA11908B
:1044700050483199006804F058FA0F90504801688C
:104480002F9804F052FA0E900F9904F0F6F910905C
:10449000119904F044FA4949129004F046FA139035
:1044A00045480168139804F0E8F947490860404816
:1044B00001682F9804F039FA11903F48319900684B
:1044C00004F033FA0F903E483099006804F02DFA5A
:1044D0000E900F9904F023FA1090119904F0CDF981
:1044E0003649129004F021FA13903248016813986B
:1044F00004F0C3F9354908602E4801682F9804F08C
:1045000014FA11902C483099006804F00EFA0F90BC
:104510002B483199006804F008FA0E900F9904F0C6
:10452000ACF91090119904F0FAF92449129004F0B2
:10453000FCF913901E480168139804F09EF9244971
:104540000860204800681E4908601F4800681A4932
:1045500008601E480068174908601D480068144933
:10456000086008460168006804F0DFF90E90114801
:104570000168006804F0D9F90C900F4801680068E0
:1045800004F0D3F90A900E480168006804F0CDF9F0
:1045900009900A991EE000000000E03F0AD7A33B03
:1045A000FC00002000010020040100200000A041C8
:1045B000E8000020E4000020E00000206F12833AB1
:1045C000DC000020F8000020EC000020F0000020BB
:1045D000F400002004F051F90B900C9904F04DF90F
:1045E0000D900E9904F049F90F9004F0C9FBCDE944
:1045F000100106F081F9CDE9120104F0D4FB2D90F1
:10460000FE482D99006804F0C2F9FC490860FC4896
:104610002D99006804F0BBF9F9490860F9482D9913
:10462000006804F0B4F9F7490860F7482D9900686C
:1046300004F0ADF9F4490860F44A0021F448006838
:1046400002F036FEED4801684FF0804004F06DF94D
:104650000A90EC4801680A9804F067F90C90E84861
:1046600001684FF0404004F060F90A90E6480168A4
:104670000A9804F05AF90B900C9904F0FEF80D908A
:1046800004F07EFBCDE90E0105F000FD4FF066322F
:10469000E04BCDE9100104F05FFACDE9120104F01E
:1046A00082FBDD494860D74801684FF0804004F044
:1046B0003CF90790D3480168079804F036F909904F
:1046C000CF4801684FF0404004F02FF90790CC48E4
:1046D0000168079804F029F90890099904F01FF976
:1046E0004FF07E510A9004F0C8F80B9004F048FB9C
:1046F000CDE90E01C14801684FF0804004F015F982
:104700000890BF480168089804F00FF90A90BD4866
:1047100001684FF0804004F008F90890BA48016839
:10472000089804F002F909900A9904F0A6F80B9091
:1047300004F026FBCDE90C01DDE90E2305F0EEFEC9
:104740004FF06632B34BCDE9100104F005FACDE924
:10475000120104F028FBB0490860AB4801684FF033
:10476000804004F0E2F80790A7480168079804F039
:10477000DCF80990A34801684FF0404004F0D5F8F8
:104780000790A0480168079804F0CFF808900999AD
:1047900004F0C5F84FF07E510A9004F06EF80B90CB
:1047A00004F0EEFACDE90E01944801684FF0804024
:1047B00004F0BBF8089094480168089804F0B5F834
:1047C0000A908F4801684FF0804004F0AEF80890DE
:1047D0008C480168089804F0A8F809900A9904F038
:1047E0004CF80B9004F0CCFACDE90C01DDE90E2376
:1047F00005F094FE4FF06632864BCDE9100104F0CF
:10480000ABF9CDE9120104F0CEFA8349886008467D
:104810008068139081480168139804F080F87E49FD
:104820008860084680687E49139004F0E3FA08D255
:10483000794880687B49139004F071F87649886064
:104840000EE0754880687849139004F0C9FA07D2E1
:10485000714880687349139004F00FF86E498860BE
:104860006B48006802F040FE7048007838B11E982E
:10487000FA2801DB00201E901E98401C1E9033B0C9
:1048800000BD2DE9F04F8DB0694908684FF08C41AB
:1048900004F07DF80C90664948684FF08C4104F0B4
:1048A00076F80B90624988684FF08C4104F06FF8FD
:1048B0000A906049B1F9000004F03DFA06464FF055
:1048C00066325D4B04F0BAF9044604F06CFA0990C4
:1048D0005849B1F9020004F02EFA06464FF066324C
:1048E000554B04F0ABF9044604F05DFA08905149C9
:1048F000B1F9040004F01FFA06464FF066324E4B41
:1049000004F09CF9044604F04EFA07904B48B0F9C5
:10491000000040F2424190FBF1F4204604F0FDF922
:10492000474908604748B0F9000040F2424190FB17
:10493000F1F4204604F0F1F9434908604348B0F926
:10494000000040F2424190FBF1F4204604F0E5F90A
:104950003F490860099804F013FA82463D4A3E4BED
:1049600004F0FAF880463D4A3D4B04F0F5F8044661
:104970000D463C49086804F003FA064622462B46D9
:1049800004F043F8CDE9040104F00DFA354908605C
:10499000089804F0F5F982462E4A2F4B04F0DCF813
:1049A0002E4A2F4BCDE9040104F0D6F806460F46F7
:1049B0002C49486804F0E4F9804632463B4604F04E
:1049C00024F8044604F0EFF926494860079804F0FB
:1049D000D7F9204A204BCDE9040104F0BDF8824606
:1049E0001E4A1F4B04F0B8F8804689461D49886866
:1049F00004F0C6F9064642464B4635E0DC0000208E
:104A0000E0000020E4000020E80000202C0000204E
:104A10002800002066A64C40740F0020D80000201B
:104A2000000034430000B443000034C3B40000204D
:104A3000440F0020A800002066664040400100208E
:104A40006C01002042010020700100204401002080
:104A500074010020FCA9F1D24D62603F083D9B55D6
:104A60009F2B0740500F002003F0CFFF044604F0B7
:104A70009AF9FE498860FE48B0F9000004F04DF94B
:104A80000446FC48B0F9000004F047F98146FA48B2
:104A9000B0F9000004F041F98246079804F070F97B
:104AA0000746F64AF64B04F057F8054604F07BF942
:104AB0008346089804F064F90746F04AF04B04F086
:104AC0004BF8054604F06FF90690099804F058F980
:104AD0000746EA4AEA4B04F03FF8054604F063F95A
:104AE00005900A98CDE902A9049401900B980090D2
:104AF0005A460C9BDDE90501FFF731F90DB0BDE821
:104B0000F08F0FB59DB0DF480168006803F00DFF1E
:104B10001590DD480168DB48006803F006FF14903B
:104B2000DA480168D748006803F0FFFE1390D648C2
:104B30000168006803F0F9FE1290D5480168D24878
:104B4000006803F0F2FE1190D0480168006803F09D
:104B5000ECFE1090CE480168CC48006803F0E5FEFA
:104B60000F90CB480168006803F0DFFE0E90229999
:104B7000209803F0DAFE0C90239903F0D6FE002172
:104B80000D9004F02DF901D121B000BD2399084604
:104B900003F0CBFE08902299084603F0C6FE06906B
:104BA0002099084603F0C1FE0590069903F065FEC2
:104BB0000790089903F061FE099004F0E1F8CDE94F
:104BC0000A0105F099FECDE90C0104F0ECF81C9007
:104BD0001C99209803F0DBFE20901C99229803F08A
:104BE000D6FE22901C99239803F0D1FE23901399AE
:104BF000119803F094FE4FF080410D9003F095FE64
:104C00001B900F99149803F038FE4FF080410D90DF
:104C100003F08BFE1A901299159803F080FE0C9009
:104C2000109903F07CFE0D900E9903F026FE19906A
:104C30001A99239803F079FE0D901999229803F0A0
:104C400074FE0C900D9903F06AFE18901999209843
:104C500003F06BFE0D901B99239803F066FE0C90F9
:104C60000D9903F05CFE17901B99229803F05DFEEE
:104C70000D901A99209803F058FE0C900D9903F0AE
:104C80004EFE16908349189803F04FFE0D9082480F
:104C900001680D9803F0F1FD7F4908607D49179880
:104CA00003F043FE0D907D4801680D9803F0E5FD8B
:104CB0007A4908607749169803F037FE0D907848D6
:104CC00001680D9803F0D9FD754908607548189979
:104CD00003F02BFE0C901D9903F0CFFD0D906E4854
:104CE00001680D9803F0C9FD1D906E48179903F0F7
:104CF0001CFE0C901E9903F0C0FD0D9067480168E2
:104D00000D9803F0BAFD1E906648169903F00DFE4B
:104D10000C901F9903F0B1FD0D90614801680D984A
:104D200003F0ABFD1F905A481F99006803F0FDFD8A
:104D30000B9056481E99006803F0F7FD0990524801
:104D4000006880F0004007901D9903F0EEFD089088
:104D5000099903F0E4FD0A900B9903F0E0FD524934
:104D60000C9003F0E2FD0D90464801680D9803F0A9
:104D700084FD4E49086046481E99006803F0D5FD41
:104D80000B9042481F99006803F0CFFD09903D4801
:104D900001681D9803F0C9FD0890099903F06DFDA5
:104DA0000A900B9903F0BBFD3F490C9003F0BDFD49
:104DB0000D90354801680D9803F05FFD3C4908608F
:104DC000334801681D9803F0B0FD0B902E481F99E1
:104DD000006803F0AAFD09902A481E99006803F0B4
:104DE000A4FD0890099903F09AFD0A900B9903F02D
:104DF00044FD2D490C9003F098FD0D902348016867
:104E00000D9803F03AFD2B490860204801681D9871
:104E100003F08BFD0B901C481E99006803F085FD84
:104E2000099018481F99006803F07FFD08900999C0
:104E300003F023FD0A900B9903F071FD1A490C90C1
:104E400003F073FD0D90124801680D9803F015FDF5
:104E500019490860154800680A4908601448006844
:104E60000949086013480068084927E0500F0020EE
:104E7000440100204201002040010020A835CD3B24
:104E80004ED1913FDC000020E0000020E400002033
:104E9000E80000200AD7A33BFC000020000100200E
:104EA000040100200000A0416F12833AF8000020A6
:104EB000EC000020F0000020F40000200860A8486A
:104EC0000068A849086008460168006803F02DFDE5
:104ED0000890A5480168006803F027FD0690A348E4
:104EE0000168006803F021FD0490A1480168006892
:104EF00003F01BFD0390049903F0BFFC0590069995
:104F000003F0BBFC0790089903F0B7FC099003F08D
:104F100037FFCDE90A0105F0EFFCCDE90C0103F004
:104F200042FF1C9092481C99006803F030FD9049A4
:104F300008608E481C99006803F029FD8B490860C1
:104F400089481C99006803F022FD8749086085485C
:104F50001C99006803F01BFD82490860854A002106
:104F60008548006802F0A4F9814801684FF080404C
:104F700003F0DBFC04907C480168049803F0D5FC46
:104F800006907A4801684FF0404003F0CEFC049050
:104F900074480168049803F0C8FC0590069903F072
:104FA0006CFC079003F0ECFECDE9080105F06EF80B
:104FB0004FF06632714BCDE90A0103F0CDFDCDE92A
:104FC0000C0103F0F0FE6E494860674801684FF03D
:104FD000804003F0AAFC019063480168019803F047
:104FE000A4FC0390614801684FF0404003F09DFC31
:104FF00001905E480168019803F097FC02900399C4
:1050000003F08DFC4FF07E51049003F036FC0590C8
:1050100003F0B6FECDE90801554801684FF0804025
:1050200003F083FC029051480168029803F07DFC74
:1050300004904D4801684FF0804003F076FC0290E8
:1050400048480168029803F070FC0390049903F04B
:1050500014FC059003F094FECDE90601DDE9082378
:1050600005F05CFA4FF06632444BCDE90A0103F0DB
:1050700073FDCDE90C0103F096FE414908604148FB
:10508000B0F9000003F049FE08903F48B0F9000075
:1050900003F043FE0790089905F000FB099003F028
:1050A0006FFE4FF06632354BCDE90A0103F054FD37
:1050B000CDE90C0103F077FE31498860084680682D
:1050C0000D90324801680D9803F029FC2C49886046
:1050D000084680682E490D9003F08CFE08D22848BF
:1050E000806801460D902B4803F019FC2449886024
:1050F0002148006802F0F8F92748007868B327488B
:105100000068FA2824D11E488068079003F038FE12
:10511000CDE90C011A484068079003F031FECDE953
:105120000A0117480068079003F02AFECDE908013C
:10513000DDE90C01CDE90201DDE90A01CDE900015B
:1051400017A0DDE9082304F07DFA00201349086068
:1051500012480068401C1149086000BF14E50000B7
:10516000F4000020E8000020E4000020E00000201F
:10517000DC0000202C0000202800002066A64C4007
:10518000740F002040010020420100209C010020FB
:10519000000034430000B443B40000201401002098
:1051A000583A25662020593A25662020205A3A2070
:1051B00025660A00034606210622F7480188F748BB
:1051C0000288ABB1012B1BD13AB94EF6EE60814299
:1051D00001D1002070470120FCE739B94EF6EE609E
:1051E000824201D10120F5E70020F3E7AB20F1E78F
:1051F00009B90020EEE70AB90120EBE7AB20E9E7A7
:105200000020E7E770B5042600240120FFF7D2FF55
:105210000446AB2C06D1E04800EBC420E04908600E
:10522000AB2070BDDC4800EBC420DD490860601C89
:10523000D949891E01EBC0250CE0D94800680068F7
:10524000401C10B904263046EBE7D5480068001D25
:10525000D3490860D2480068A842EED38020E0E736
:1052600010B50424CC48FBF741F90446042C01D0C6
:10527000204610BD0021C848FBF73BFA0446042C29
:1052800001D02046F5E7C548FBF730F90446204633
:10529000EFE72DE9F04104460F4604250026DFF82C
:1052A000FC82A8F101080120FFF784FF0646AB2E1F
:1052B00001D1BDE8F081701CB749891E01EBC028FF
:1052C00021E0B74800680068401CB8B93946B448C6
:1052D0000068FBF70EFA0546042D01D02846E8E7E2
:1052E0002146AF480068801CFBF703FA0546AC482E
:1052F0000068001DAA4908602846DAE7A848006847
:10530000001DA7490860A64800684045D9D3802001
:10531000CFE72DE9F04706460F46002545F25558E0
:105320004FF001099C4CA2460020FFF743FF0546C1
:10533000AB2D01D1BDE8F087974800EBC52A98480E
:105340000068841E0AE0B4F80080B04505D134F846
:10535000020C38804FF0000904E0241F0AF102001B
:105360008442F0D800BF4846E4E72DE9F0474FF00B
:10537000060A062600250027A8464FF0FF39864872
:10538000B0F800A085480688BAF1000075D0A0F5F5
:105390006E40EE3858B3A0F58850113800286DD112
:1053A00046B97D48FBF7A2F80446042C1ED02046DF
:1053B000BDE8F0874EF6EE60864210D17648FBF7E6
:1053C00095F80446042C01D02046F1E700217348EB
:1053D000FBF78FF90446042C08D02046E8E7FFF7D6
:1053E0003FFF0446042C01D02046E1E7AEE07EBB3F
:1053F000002522E06848C0886A4931F815108842C3
:1054000001D10FFA85F94D4515D0664931F81500DF
:105410006549FFF77EFF8046B8F1010F0BD0614967
:1054200031F8150060490988FFF733FF0746042F5C
:1054300001D03846BCE7681C85B20F2DDADB0021AD
:105440005548FBF756F90446042C02D02046AFE736
:1054500007E05248FBF74AF80446042C1FD02046C8
:10546000A6E74FF6FF70864212D14C48FBF73EF894
:105470000446042C03D020469AE711E05EE00021A8
:105480004548FBF736F90446042C08D020468FE740
:10549000FFF7E6FE0446042C01D0204688E755E0DD
:1054A00036B9FFF7DDFE0446042C46D020467FE7E0
:1054B0004FF6FF70864207D13848FBF717F80446CD
:1054C000042C3AD0204673E7002523E03348801DA2
:1054D0000088344931F81510884201D10FFA85F956
:1054E0004D4515D02F4931F815002F49FFF711FF11
:1054F0008046B8F1010F0BD02A4931F815002A492E
:105500000988FFF7C6FE0746042F01D038464FE74B
:10551000681C85B20F2DD9DB00212048FBF7E9F884
:105520000446042C01D0204642E71B48FAF7DEFF70
:105530000446042C01D020463AE707E0FFF790FE2E
:105540000446042C01D0204632E700BF00BF0420EF
:105550002EE710B5FFF709FF0446FFF753FE20467C
:1055600010BD2DE9F84F074689460425DFF83CA019
:10557000094800904FF00008002400264FF0000B6F
:105580000020FFF717FE8046B8F1010F10D1DFF8B9
:1055900008A00248009016E0000001080008010879
:1055A0001C0100202001002018010020FF03010839
:1055B000B8F1000F04D1DFF8C4A03148009002E038
:1055C000AB20BDE8F88F4EF6EE615046FBF791F840
:1055D0000546042D01D02846F3E7FFF713FE4946A0
:1055E0003846FFF756FE0646042E01D03046E8E75F
:1055F00000241CE0234830F81400B84215D021499B
:1056000031F814002049FFF784FE8346BBF1010FF7
:105610000BD01C4931F814001B490988FFF739FEEB
:105620000646042E01D03046CBE7601C84B20F2C16
:10563000E0DB0098FAF75AFF0546042D01D0284612
:10564000BFE700215046FBF754F80546042D01D072
:105650002846B6E72846B4E770B505460E4600244E
:1056600031462846FFF715FE0446802C04D131460A
:105670002846FFF776FF0446204670BD0008010863
:1056800000000108200100201801002010B5FFF7DC
:1056900060FF10BD70B5FE490868FE4903F045F98A
:1056A000054603F059FB84B2FB4988892146FFF780
:1056B000D3FFF7494868F74903F037F9054603F087
:1056C0004BFB84B2F449C8892146FFF7C5FFF04976
:1056D0008868F24903F029F9054603F03DFB84B2DE
:1056E000ED49088A2146FFF7B7FFED490868E94907
:1056F00003F01BF9054603F02FFB84B2E649488A04
:105700002146FFF7A9FFE6494868E24903F00DF991
:10571000054603F021FB84B2DF49888A2146FFF762
:105720009BFFDF498868DD4903F0FFF8054603F079
:1057300013FB84B2D849C88A2146FFF78DFFD949A7
:105740000868D44903F0F1F8054603F005FB84B27C
:10575000D149088B2146FFF77FFFD2494868CD49E0
:1057600003F0E3F8054603F0F7FA84B2CA49488B20
:105770002146FFF771FFCB498868C84903F0D5F887
:10578000054603F0E9FA84B2C349888B2146FFF746
:1057900063FFBF49C868C44903F0C7F8054603F072
:1057A000DBFA84B2BC4908882146FFF755FFB849A7
:1057B0004869BD4903F0B9F8054603F0CDFA84B253
:1057C000B54948882146FFF747FFB549C868B6493B
:1057D00003F0ABF8054603F0BFFA84B2AE498888FF
:1057E0002146FFF739FFAE494869AF4903F09DF8FC
:1057F000054603F0B1FA84B2A749C8882146FFF7ED
:105800002BFFA849C868A84903F08FF8054603F0A4
:10581000A3FA84B2A04908892146FFF71DFFA149D8
:105820004869A14903F081F8054603F095FA84B26E
:10583000994948892146FFF70FFF9CA003F002FF1A
:1058400070BD00B589B02421684602F0E4FF24222F
:105850006946934802F0C6FF242269468C4802F04C
:10586000C1FF242269468F4802F0BCFFFFF712FFF8
:1058700009B000BD38B5884988896946FFF749FDF8
:10588000BDF8000003F052FA0446824903F07FF8A5
:105890007F4908608049C8896946FFF73AFDBDF82D
:1058A000000003F043FA04467A4903F070F878499F
:1058B00048607949088A6946FFF72BFDBDF800006A
:1058C00003F034FA0446754903F061F870498860C2
:1058D0007149488A6946FFF71CFDBDF8000003F0D6
:1058E00025FA04466B4903F052F86D4908606A498D
:1058F000888A6946FFF70DFDBDF8000003F016FA2F
:105900000446644903F043F8654948606249C88A1F
:105910006946FFF7FEFCBDF8000003F007FA0446F5
:105920005E4903F034F85E4988605B49088B69463C
:10593000FFF7EFFCBDF8000003F0F8F90446554905
:1059400003F025F8574908605349488B6946FFF72B
:10595000E0FCBDF8000003F0E9F904464D4903F00E
:1059600016F8504948604C49888B6946FFF7D1FCCE
:10597000BDF8000003F0DAF90446484903F007F8DF
:1059800048498860444908886946FFF7C2FCBDF869
:10599000000003F0CBF90446434902F0F8FF3C490C
:1059A000C8603D4948886946FFF7B3FCBDF8000070
:1059B00003F0BCF904463C4902F0E9FF3449486170
:1059C000354988886946FFF7A4FCBDF8000003F05C
:1059D000ADF90446344902F0DAFF3149C8602E4976
:1059E000C8886946FFF795FCBDF8000003F09EF9F2
:1059F00004462D4902F0CBFF294948612649088910
:105A00006946FFF786FCBDF8000003F08FF90446F5
:105A1000254902F0BCFF2349C8601F4948896946EF
:105A2000FFF777FCBDF8000003F080F904461E493B
:105A300002F0ADFF1B4948611FA003F003FE38BD13
:105A4000F8B51549488A6946FFF763FCBDF80000C0
:105A500003F06CF907460F4902F099FF044603F082
:105A60008FF905462A460B4616A0FCF7BDFD0A49EC
:105A7000888A6946FFF74DFCBDF8000003F056F92F
:105A80000746044902F083FF044603F079F925E054
:105A9000683B00200000C8422001002000401C4656
:105AA0008C3B0020B03B002000007A440A0973615F
:105AB0007665206F6B090A000A0972656164206FC0
:105AC0006B090A005049445F5049542E7368656C55
:105AD0006C5F50203A2025660A00000005462A46E1
