:020000040800F2
:100000007024002045010008A51D0008A71D000858
:10001000AB1D0008AF1D0008B31D00080000000064
:10002000000000000000000000000000B71D0008F4
:10003000B91D000800000000CB620008BD1D0008CB
:100040005F0100085F0100085F0100085F01000810
:100050005F0100085F0100085F0100085F01000800
:100060005F0100085F0100085F0100085F010008F0
:100070005F0100085F0100085F0100085F010008E0
:100080005F0100085F0100085F0100085F010008D0
:100090005F0100085F0100085F0100085F010008C0
:1000A0005F0100085F0100085F0100085F010008B0
:1000B000A93D00085F0100085F0100085F0100081A
:1000C0005F0100085F0100085F0100085F01000890
:1000D0005F01000861410008D726000831200008B0
:1000E0005F0100085F0100085F0100085F01000870
:1000F0005F0100085F0100085F0100085F01000860
:100100005F0100085F0100085F0100085F0100084F
:100110005F0100085F0100085F010008CD1D0008B5
:100120005F0100085F0100085F0100085F0100082F
:10013000DFF80CD006F046FD00480047411D0008DE
:10014000702400200648804706480047FEE7FEE787
:10015000FEE7FEE7FEE7FEE7FEE7FEE7FEE7FEE777
:1001600045020008310100080CB500200190009004
:100170006B48006840F480306949086000BF6848F7
:10018000006800F4003000900198401C0190009835
:1001900018B90198B0F5A06FF1D16148006810F46A
:1001A000003F02D00120009001E000200090009864
:1001B000012842D15B48006840F0100059490860AE
:1001C0000846006820F0030008600846006840F018
:1001D000020008605248406851494860084640683B
:1001E00048600846406840F48060486008464068BF
:1001F00020F47C1048600846406840F4E8104860ED
:100200000846006840F08070086000BF44480068FD
:1002100010F0007FFAD04248406820F003004049C7
:1002200048600846406840F00200486000BF3C4813
:10023000406800F00C000828F9D10CBD10B5FFF79C
:1002400093FF10BD10B53648006840F001003449F6
:10025000086008464068344908403149486008460B
:100260000068324908402E4908600846006820F4BA
:10027000802008600846406820F4FE0048604FF483
:100280001F008860FFF7DAFF4FF000602849086020
:1002900010BD10B5002100200022214B5B6803F047
:1002A0000C0121B1042906D0082928D107E0214BEF
:1002B000214C236027E01F4B1F4C236023E0184B89
:1002C0005B6803F47010164B5B6803F48032022302
:1002D00003EB904022B9194B4343174C23600DE0C8
:1002E0000F4B5B6813F4003F04D0144B4343124C94
:1002F000236003E00F4B43430F4C236003E00D4B9F
:100300000D4C236000BF00BF054B5B68C3F30313B4
:100310000B4CE15C084B1B68CB40074C236010BDC5
:1003200000100240002002400000FFF8FFFFF6FE30
:1003300008ED00E000127A000000002000093D00F6
:100340000400002031490143314A1160704770B503
:10035000002100230F22C4780CB32D4C246804F430
:10036000E064C4F5E064210AC1F10403CA404478A2
:1003700004FA03F18478144021430901254C0678DE
:10038000A155047804F01F050124AC4005786D11D7
:100390004FF0E02606EB8505C5F8004109E004783A
:1003A00004F01F050124AC401B4D0678761145F87A
:1003B000264070BD194A0A400243154B1B1F1A60A4
:1003C000704739B1124A121D12680243104B1B1DAF
:1003D0001A6006E00E4A121D126882430C4B1B1D68
:1003E0001A607047042808D14FF0E021096941F0F4
:1003F00004014FF0E022116107E04FF0E0210969AC
:1004000021F004014FF0E022116170470000FA056D
:100410000CED00E000E400E080E100E080FFFF1F61
:1004200010B50446CA48844208D10121042000F0D6
:1004300027FB0021042000F023FB46E0C54884424E
:1004400008D10121082000F01BFB0021082000F04A
:1004500017FB3AE0C048844208D10121102000F087
:100460000FFB0021102000F00BFB2EE0BB48844264
:1004700008D10121202000F003FB0021202000F002
:10048000FFFA22E0B648844208D10121402000F062
:10049000F7FA0021402000F0F3FA16E0B148844258
:1004A00008D10121802000F0EBFA0021802000F02B
:1004B000E7FA0AE0AC48844207D10121801500F038
:1004C000DFFA0021A01500F0DBFA10BD10B5012104
:1004D000084600F0D5FA0021012000F0D1FA10BD45
:1004E0002DE9F041024600250026002000230024CB
:1004F000002791F803C00CF00F0591F803C01CF021
:10050000100F03D091F802C04CEA050591F800C025
:10051000BCF1000F31D0146800202BE04FF0010C2B
:100520000CFA00F3B1F800C00CEA03069E4220D199
:1005300083004FF00F0C0CFA03F7BC4305FA03FCE1
:100540004CEA040491F803C0BCF1280F06D14FF027
:10055000010C0CFA00FCC2F814C00AE091F803C0C8
:10056000BCF1480F05D14FF0010C0CFA00FCC2F8A9
:1005700010C0401C0828D1D31460B1F800C0BCF1F1
:10058000FF0F34DD546800202EE000F1080C4FF01E
:10059000010808FA0CF3B1F800C00CEA03069E4209
:1005A00021D183004FF00F0C0CFA03F7BC4305FA7E
:1005B00003FC4CEA040491F803C0BCF1280F05D1F8
:1005C00000F1080C08FA0CF8C2F8148091F803C086
:1005D000BCF1480F07D100F1080C4FF0010808FAF0
:1005E0000CF8C2F81080401C0828CED35460BDE837
:1005F000F0814FF6FF710180022181700421C170EA
:1006000070470246002093680B4201D0012000E0B1
:10061000002070470146886880B27047024600207B
:10062000D3680B4201D0012000E000207047014652
:10063000C86880B2704701617047416170470AB174
:10064000016100E041617047C16070474FF4803242
:100650000A438261816182618269826970470246D0
:100660000020424B18684FF68073184040EA021091
:1006700008433E4B186070473D49C8617047F0B56C
:100680000A46002300240021002500F00046B6F1B0
:10069000004F02D1354EF16901E0344E7168C0F36C
:1006A000034583B200F44016B6F5401F08D121F08F
:1006B00070612E4E766826F070662C4F7E6012E0D8
:1006C00000F48016B6F5801F06D1032606FA05F45D
:1006D000A14341F0706106E0460D360103FA06F6CB
:1006E000B14341F0706122B1460D360103FA06F6BE
:1006F000314300F00046B6F1004F02D11B4EF161CC
:1007000001E01A4E7160F0BD30B500228B071C0F5E
:100710000F2303FA04F2154B08338C1053F82430DE
:100720009343124C08348D1044F8253023468C1026
:1007300053F824308C07240F00FA04F423430B4CA5
:1007400008348D1044F8253030BD0A4908607047E0
:1007500000080140000C014000100140001401405D
:1007600000180140001C0140002001400000014031
:1007700000002042DC002042DD48006840F001001B
:10078000DB49086008464068DA490840D8494860B3
:1007900008460068D8490840D549086008460068FE
:1007A00020F4802008600846406820F4FE0048607D
:1007B0004FF41F0088607047CD49096821F48031EB
:1007C000CB4A11601146096821F480211160B0F50F
:1007D000803F03D0B0F5802F0ED106E0C4490968F0
:1007E00041F48031C24A116007E0C149096841F40F
:1007F000A021BF4A116000E000BF00BF704710B5E4
:1008000001460022002300204A11012A02D1B84CDF
:10081000236806E0022A02D1B54C236A01E0B44CF9
:10082000636A01F01F02012494401C4201D00120A0
:1008300000E0002010BD38B5002000900024002505
:1008400000BF3120FFF7DBFF05460098401C0090F9
:100850000098B0F5A06F01D0002DF2D03120FFF745
:10086000CEFF08B1012400E00024204638BD014637
:1008700000209F4A106820F0F80040EAC100106094
:1008800070479E490860704702460020984B5868A0
:1008900020F47C1042EA01031843954B58607047DE
:1008A00096490866704701460020914A506820F03A
:1008B00003000843506070478D48406800F00C000A
:1008C0007047014600208A4A506820F0F000084333
:1008D0005060704701460020854A506820F4E0606F
:1008E00008435060704701460020814A506820F458
:1008F000605040EAC1005060704729B17C4A527A8A
:1009000002437B4B5A7204E0794A527A8243784B15
:100910005A7270477A490860704701460020744A4D
:10092000506820F440400843506070470021754AE9
:1009300011706F4A82F82010012802D0042808D1D3
:1009400003E001216F4A117004E005216D4A117026
:1009500000E000BF00BF70476B4908607047644902
:10096000096A0143624A1162704767494439086065
:10097000704730B500210022002400235C4D6D68D3
:1009800005F00C0121B1042905D0082923D105E087
:100990005E4D056022E05D4D05601FE0544D6D68C1
:1009A00005F47012524D6D6805F48034022505EB94
:1009B00092421CB9564D554305600BE04C4D6D6895
:1009C00015F4003F03D0524D5543056002E04F4DF2
:1009D0005543056002E04D4D056000BF00BF444D2A
:1009E0006D6805F0F00109094A4D6B5C0568DD4052
:1009F00045603F4D6D6805F4E061090A454D6B5C4B
:100A00004568DD4085603A4D6D6805F46051C90A5E
:100A1000404D6B5C4568DD40C560354D6D6805F443
:100A20004041890B3C4D6B5CC568B5FBF3F5056136
:100A300030BD29B12E4A526902432D4B5A6104E060
:100A40002B4A526982432A4B5A61704729B1284A7E
:100A500092690243264B9A6104E0254A92698243D7
:100A6000234B9A61704729B1214AD2690243204B36
:100A7000DA6104E01E4AD26982431D4BDA61704795
:100A800029B11B4AD2680243194BDA6004E0184AC4
:100A9000D2688243164BDA60704729B1144A126952
:100AA0000243134B1A6104E0114A12698243104B4E
:100AB0001A61704714494039086070470F49C8648B
:100AC00070470B49C87170470948406A40F0807010
:100AD00007494862704701460020054A92680A4269
:100AE00001D0012000E00020704701498872704762
:100AF000001002400000FFF8FFFFF6FE0000424237
:100B0000D8004242201002408004424200127A0083
:100B100000093D00140000202400002010B5044608
:100B2000FE48844208D10121C014FFF7A9FF00212B
:100B3000E014FFF7A5FFC4E0B4F1804F08D1012114
:100B40000846FFF7AAFF00210120FFF7A6FFB8E043
:100B5000F348844208D101210220FFF79EFF0021C3
:100B60000220FFF79AFFACE0EE48844208D1012151
:100B70000420FFF792FF00210420FFF78EFFA0E082
:100B8000E948844208D101210820FFF786FF0021AF
:100B90000820FFF782FF94E0E448844208D1012155
:100BA0001020FFF77AFF00211020FFF776FF88E082
:100BB000DF48844208D101212020FFF76EFF002189
:100BC0002020FFF76AFF7CE0DA48844208D1012147
:100BD0004014FFF755FF00216014FFF751FF70E04C
:100BE000D548844209D10121C804FFF749FF0021FB
:100BF0004FF40020FFF744FF63E0D048844209D15E
:100C000001210805FFF73CFF00214FF48010FFF79A
:100C100037FF56E0CA48844209D101214805FFF751
:100C20002FFF00214FF40010FFF72AFF49E0C548CD
:100C3000844208D101214020FFF72FFF00214020EE
:100C4000FFF72BFF3DE0C048844208D101218020FE
:100C5000FFF723FF00218020FFF71FFF31E0BB4893
:100C6000844208D101218015FFF717FF0021A0154C
:100C7000FFF713FF25E0B648844209D1012108049B
:100C8000FFF7FEFE00214FF48030FFF7F9FE18E079
:100C9000B048844209D101214804FFF7F1FE002148
:100CA0004FF40030FFF7ECFE0BE0AB48844208D174
:100CB00001218804FFF7E4FE00214FF48020FFF7B4
:100CC000DFFE10BD00220288944B98420ED0994B53
:100CD00098420BD0B0F1804F08D0914B984205D08C
:100CE000904B984202D0904B984204D14FF68F73AC
:100CF0001A404B881A438D4B984207D08C4B984230
:100D000004D04FF6FF431A40CB881A4302808B88E9
:100D100083850B880385814B98420BD0854B984285
:100D200008D08B4B984205D08A4B984202D08A4B10
:100D3000984201D10B7A038601238382704770B5F4
:100D4000002400220023058C4FF6FE7635400584F2
:100D5000028C8388048B4FF68F752C40B51E2C4077
:100D60000D882C43751E2A400D892A434D882A433D
:100D70006A4DA8420BD06F4DA84208D0744DA842CE
:100D800005D0744DA84202D0734DA84213D14FF63E
:100D9000F7752A404D892A434FF6FB752A408D8806
:100DA0002A434FF6FF652B404FF6FF552B408D89A8
:100DB0002B43CD892B4383800483CD888586028491
:100DC00070BD70B5002400220023058C4FF6EF762D
:100DD00035400584028C8388048B48F6FF752C40CF
:100DE0004FF6FF452C400D884FF6FF7606EA0525A5
:100DF0002C434FF6DF752A400D8906EA05152A4374
:100E00004D8806EA05152A43444DA84202D0494DB3
:100E1000A8421DD14FF67F752A404D894FF6FF76C7
:100E200006EA05152A434FF6BF752A408D8806EA63
:100E300005152A434FF6FF352B404FF2FF752B4027
:100E40008D8906EA85052B43CD8906EA85052B4366
:100E500083800483CD880587028470BD70B500242B
:100E600000220023058C4FF6FF6635400584028C76
:100E70008388848B4FF68F752C404FF6FC752C4081
:100E80000D882C434FF6FF552A400D894FF6FF760B
:100E900006EA05252A434D8806EA05252A431F4D03
:100EA000A84202D0234DA8421DD14FF2FF752A401F
:100EB0004D894FF6FF7606EA05252A434FF6FF35A2
:100EC0002A408D8806EA05252A434EF6FF752B40F9
:100ED0004DF6FF752B408D8906EA05152B43CD890C
:100EE00006EA05152B4383808483CD888587028499
:100EF00070BD70B5002200230024058C4EF6FF76ED
:100F000035400584038C8488828B48F6FF752A401F
:100F10004FF6FF452A400D8820E00000002C0140DC
:100F20000004004000080040000C00400010004099
:100F30000014004000340140004C014000500140CA
:100F40000054014000180040001C004000200040F8
:100F50000040014000440140004801404FF6FF7648
:100F600006EA05252A434DF6FF752B400D8906EA52
:100F700005352B434D8806EA05352B43FA4DA8422B
:100F800002D0FA4DA84208D14BF6FF752C408D894E
:100F90004FF6FF7606EA85152C4384808283CD8840
:100FA000A0F84050038470BD828B4FF2FF331A408B
:100FB0008283828B4FF6FF7303EA01231A438283F5
:100FC0007047F0B50C461546002200210026078C1C
:100FD0004EF6FF7C07EA0C070784828B018C4FF6E4
:100FE000FF7707EA043640F6FF473A404FF6FF77AF
:100FF00007EA05273A434FF6FF7707EA03373A43F4
:10100000D94FB8420ED0D94FB8420BD0B0F1804F73
:1010100008D0D74FB84205D0D64FB84202D0D64FED
:10102000B84206D14DF6FF77394046F48057394330
:1010300005E047F6FF57394044F48057394382832F
:101040000184F0BD828B4FF6F3731A408283828B4A
:101050000A4382837047F0B50C46154600220021F2
:101060000026078C4FF6FF6C07EA0C070784828B7B
:10107000018C4FF6FF7707EA04264FF60C773A40CB
:101080004FF6FF7707EA03172F433A43B64FB842AC
:101090000ED0B64FB8420BD0B0F1804F08D0B44F4D
:1010A000B84205D0B34FB84202D0B34FB84206D1D0
:1010B0004FF6FF57394046F48077394305E04FF249
:1010C000FF57394044F48077394382830184F0BD6F
:1010D000028B4FF2FF331A400283028B4FF6FF73ED
:1010E00003EA01231A4302837047F0B50C46154604
:1010F000002200210026078C4FF6EF7C07EA0C0740
:101100000784028B018C4FF6FF7707EA041640F63E
:10111000FF473A404FF6FF7707EA03373A434FF667
:10112000FF7707EA05273A438F4FB8420ED08F4F1B
:10113000B8420BD0B0F1804F08D08D4FB84205D0E7
:101140008C4FB84202D08C4FB84206D14FF6DF77B1
:10115000394046F01007394305E04FF65F773940D4
:1011600044F01007394302830184F0BD028B4FF62F
:10117000F3731A400283028B0A4302837047F0B56F
:101180000C46154600220021068C4FF6FE773E40A5
:101190000684028B018C4FF60C7632407E1C06EAE8
:1011A00003162E433243704EB0420ED06F4EB04203
:1011B0000BD0B0F1804F08D06D4EB04205D06D4ECF
:1011C000B04202D06C4EB04206D14FF6FD763140AF
:1011D00044F00106314305E04FF6F576314044F026
:1011E0000106314302830184F0BD70B505460C460B
:1011F0005D4885420ED05D4885420BD0B5F1804FE9
:1012000008D05B48854205D05A48854202D05A48EA
:10121000854200D100E000BF208850B92389A28810
:1012200061882846FFF7ABFFE1882846FFF79EFF5D
:1012300025E0208804280AD12389A28861882846CD
:10124000FFF753FFE1882846FFF742FF17E02088A9
:1012500008280AD12389A28861882846FFF7FBFE67
:10126000E1882846FFF7EEFE09E02389A28861881D
:101270002846FFF7A6FEE1882846FFF795FE70BDD9
:101280002DE9F04105460C4600260127608808B983
:10129000022600E00026A088012801D1022700E0F4
:1012A00001272088A0B92389A28861882846FFF7F2
:1012B00066FFE1882846FFF759FF23893A46314601
:1012C0002846FFF712FFE1882846FFF701FF13E0E9
:1012D0002389A28861882846FFF707FFE18828460E
:1012E000FFF7F6FE23893A4631462846FFF747FFC7
:1012F000E1882846FFF73AFFBDE8F0810A884B886D
:101300001A438B881A43CB881A430B891A434B899B
:101310001A438B891A43A0F8442070474FF6FF7197
:10132000818000210180C1804180017270470021CD
:10133000018041808180C180018141818181C181A1
:101340007047002101804180012181800021C180FE
:10135000018170470021018041808180C18001812D
:101360004181818170470000002C01400034014020
:101370000004004000080040000C004021B1028839
:1013800042F00102028004E002884FF6FE731A4028
:101390000280704731B1B0F8442042F40042A0F816
:1013A000442005E0B0F84420C2F30E02A0F8442027
:1013B00070471AB183890B43838102E083898B4391
:1013C000838170478182704741EA0203A0F8483068
:1013D00070471AB183890B43838102E083898B4371
:1013E0008381704701894FF6F8721140018170477F
:1013F0000A46002101894FF68F731940114301817C
:10140000704730B504460D4629462046FFF7F0FFE9
:10141000208940F00700208130BD2DE9F0410446CD
:101420000D4616461F46602D06D13B460122314629
:101430002046FFF75AFE05E03B4601223146204692
:10144000FFF79DFE29462046FFF7D2FF208940F096
:1014500007002081BDE8F08130B50C4600210189EC
:10146000C9B24FF6FF7505EA032515432543294305
:10147000018130BD2DE9F04105460E4617469846DC
:10148000002443463A4631462846FFF7E5FF2C89BB
:101490004FF6F870044044F007044FF68F70044094
:1014A00044F070042C81BDE8F081F0B504460D468F
:1014B00016461F463B46324629462046FFF7CCFFDC
:1014C000208940F480402081F0BD018582827047F0
:1014D0000A46002101884FF68F731940114301809D
:1014E0007047F0B50C4615461E4600210022002329
:1014F0000189028B038C4FF6F877394021434FF670
:10150000FC473A4040F201173A434FF6DD773B4043
:101510004FF6FF7707EA06172F433B43018102830B
:101520000384F0BD0A460021018B4FF68F731940EA
:101530001143018370470A460021018B48F6FF736F
:1015400019404FF6FF7303EA0223194301837047E2
:101550000A460021818B4FF68F7319401143818316
:1015600070470A460021818B48F6FF7319404FF6F9
:10157000FF7303EA022319438183704721B1028874
:1015800042F08002028004E002884FF67F731A4026
:101590000280704721B1828842F00402828004E018
:1015A00082884FF6FB731A408280704721B182888F
:1015B00042F00802828004E082884FF6F7731A40F6
:1015C0008280704721B1828842F00102828004E06B
:1015D00082884FF6FE731A40828070470A460021C7
:1015E000018B4FF6F77319401143018370470A4688
:1015F0000021018B4FF2FF7319404FF6FF7303EA8E
:1016000002231943018370470A460021818B4FF65C
:10161000F77319401143818370470A460021818B7B
:101620004FF2FF7319404FF6FF7303EA0223194389
:10163000818370470A460021018B4FF6FB731940E6
:101640001143018370470A460021018B4FF6FF3397
:1016500019404FF6FF7303EA0223194301837047D1
:101660000A460021818B4FF6FB7319401143818399
:1016700070470A460021818B4FF6FF3319404FF621
:10168000FF7303EA02231943818370470A4600214E
:10169000018B4FF67F7319401143018370470A464F
:1016A0000021018BC1F30E014FF6FF7303EA022301
:1016B0001943018370470A460021818B4FF67F73DF
:1016C00019401143818370470A460021818BC1F381
:1016D0000E014FF6FF7303EA02231943818370471B
:1016E0000A460021018C4FF6FD7319401143018415
:1016F00070470A460021018C4FF6F77319401143D9
:10170000018470470A460021018C4FF6DF731940AF
:101710004FF6FF7303EA02131943018470470A4628
:101720000021018C4FF67F7319404FF6FF7303EAD7
:1017300002131943018470470A460021018C4FF6B9
:10174000FF5319404FF6FF7303EA02231943018444
:1017500070470A460021018C4FF2FF7319404FF683
:10176000FF7303EA02231943018470470A460021EC
:10177000018C4DF6FF7319404FF6FF7303EA0233F5
:1017800019430184704730B5002301248C40A3B273
:10179000048C9C430484048C02FA01F5ADB22C4302
:1017A000048430BD30B5002304248C40A3B2048CE3
:1017B0009C430484048C02FA01F5ADB22C430484EA
:1017C00030BD70B5034600200024184618300125AE
:1017D0008D40ACB21D8CA5431D8409B1082909D1E7
:1017E00000EB6100056825F070050560056815438C
:1017F00005600EE00D1FC5F34E052844056825F46D
:10180000E045056005684FF6FF7606EA0226354397
:10181000056070BD21B1028842F00202028004E03E
:1018200002884FF6FD731A400280704721B102888A
:1018300042F00402028004E002884FF6FB731A4073
:101840000280704721B1828842F08002828004E0E9
:1018500082884FF67F731A408280704702884FF665
:10186000F7731A40028002880A4302807047828818
:101870004FF68F731A40828082880A4382807047B5
:1018800002894FF6F8731A40028102890A430281E5
:10189000704702894FF67F731A40028102890A431A
:1018A00002817047818470478185704781867047C7
:1018B0000187704781877047A0F840107047028801
:1018C0004FF6FF431A40028002880A4302807047A5
:1018D0000146888E70470146088F70470146888F01
:1018E00070470146B1F8400070470146888C704748
:1018F0000146088D704702460020138A0B4201D032
:10190000012000E000207047CA430282704730B5D2
:101910000246002000230024158A05EA0103958968
:1019200005EA010413B10CB1012000E0002030BD34
:10193000CA4302827047000010B50446FB48844247
:1019400009D101218803FFF79BF800214FF4804063
:10195000FFF796F832E0F648844209D101214804A5
:10196000FFF79BF800214FF40030FFF796F825E0D1
:10197000F048844209D101218804FFF78EF8002144
:101980004FF48020FFF789F818E0EB48844209D132
:101990000121C804FFF781F800214FF40020FFF770
:1019A0007CF80BE0E548844208D101210805FFF7E7
:1019B00074F800214FF48010FFF76FF810BD2DE987
:1019C000F04786B005460E460024A24600BFA14659
:1019D0000027B08900B100BF2F462C8A4CF6FF705B
:1019E0000440F08804432C82AC894EF6F310044086
:1019F000B08831890843718908430443AC81AC8ABB
:101A00004FF6FF400440B0890443AC8201A8FEF7C2
:101A1000B0FFC648874202D1DDF810A001E0DDF832
:101A20000CA0A88910F4004F08D00AEBCA0000EB04
:101A30000A1031684900B0FBF1F807E00AEBCA0070
:101A400000EB0A1031688900B0FBF1F86420B8FBA4
:101A5000F0F004012009642101FB1089A88910F429
:101A6000004F08D0322000EBC900B0FBF1F000F0CD
:101A70000700044308E0322000EB09106421B0FBAA
:101A8000F1F000F00F0004432C8106B0BDE8F087B0
:101A90004FF41651016000218180C18001810C2129
:101AA000418100218181704710B502460020108AD3
:101AB0004FF2FF0318400B884C8823438C88234344
:101AC000CC8823431843108210BD0021018041803F
:101AD0008180C180704721B1828942F400528281A5
:101AE00004E082894DF6FF731A4082817047F0B599
:101AF00003460024002600250020A1F510676A3F58
:101B000000D100BF1846C1F3421401F01F0601279F
:101B100007FA06F5012C01D10C3004E0022C01D1AA
:101B2000103000E014301AB107682F43076002E05C
:101B30000768AF430760F0BD1AB1838A0B43838205
:101B400002E0838A8B4383827047028A4FF6F073E8
:101B50001A400282028A0A430282704782894FF247
:101B6000FF731A40828182890A438281704721B1C2
:101B7000828942F00202828104E082894FF6FD737D
:101B80001A4082817047028A4FF6DF731A40028240
:101B9000028A0A430282704721B1028A42F48042DB
:101BA000028204E0028A4BF6FF731A4002827047F9
:101BB000C1F308028280704701468888C0F308009C
:101BC0007047818941F0010181817047028BD2B257
:101BD0000283028B42EA012202837047028B02F4E5
:101BE0007F420283028B0A430283704721B1828ABB
:101BF00042F02002828204E0828A4FF6DF731A40AC
:101C00008282704721B1828A42F01002828204E00F
:101C1000828A4FF6EF731A408282704721B1828A1E
:101C200042F00802828204E0828A4FF6F7731A407B
:101C30008282704721B1828942F40042828103E0AE
:101C40008289C2F30E028281704721B1828A42F4F6
:101C50000062828204E0828A4FF2FF731A4082821D
:101C60007047828A4FF6FB731A408282828A0A4347
:101C70008282704721B1828A42F00202828204E0AD
:101C8000828A4FF6FD731A40828270470246002016
:101C9000B1F5007F00D100BF13880B4201D00120B5
:101CA00000E00020704701F40072B2F5007F00D11F
:101CB00000BFCA430280704770B50246002400236B
:101CC00000250020A1F510666A3E00D100BFC1F3D7
:101CD000421501F01F03012606FA03F3012D02D17C
:101CE0009689334006E0022D02D1168A334001E086
:101CF000968A33400C12012606FA04F41688344002
:101D000013B10CB1012000E0002070BD10B500221D
:101D10000023A1F510646A3C00D100BF0A1201241F
:101D20009440A3B2DC43048010BD000000380140A1
:101D30000044004000480040004C0040005000407B
:101D400010B500F08FF802F09BFF0A210D4803F058
:101D5000E6FA0D4908600A210C4803F0E0FA0C4944
:101D600008600A210B4803F0DAFA0B4908600423E3
:101D70000A4A00210A4803F03AFE03F09FF80020C7
:101D800010BD00000C0200202800002034020020BA
:101D9000300000205C02002038000020C00300203A
:101DA00029480008704700BFFEE700BFFEE700BFFC
:101DB000FEE700BFFEE770477047704710B502F0BE
:101DC00073FF03F0B2F802F08AFF10BD10B50121D5
:101DD0000C48FFF79CFDA0B10B480068401C0A4965
:101DE000086008460068B0F57A7F06D100200860D8
:101DF00006480068401E0549086001210148FFF7B8
:101E000097FD10BD00140040580100205C01002027
:101E100030B5174800684FF47A72B0FBF2F1B1F1B7
:101E2000807F00D31DE021F07F40401E4FF0E02274
:101E3000506150170F22002807DA13071D0E0D4BB3
:101E400000F00F04241F1D5503E013071C0E0A4B5E
:101E50001C5400BF00204FF0E02290610720106169
:101E600000BF30BD10B5FFF7D3FF00F007F810BD7D
:101E70000000002018ED00E000E400E008B50121BA
:101E80001820FEF7E3FD0120ADF8000010208DF8CA
:101E9000030003208DF8020069460D48FEF720FB81
:101EA0000820ADF8000069460A48FEF719FB10202B
:101EB000ADF8000069460748FEF712FB012104480F
:101EC000FEF7B9FB18210348FEF7B5FB08BD00007B
:101ED000000C01400010014000B585B001218804CC
:101EE000FEF7C1FD01212120FEF7B0FD01216A4866
:101EF000FEF7C5FB4FF48070ADF8100018208DF888
:101F0000130003208DF8120004A96448FEF7E8FAD4
:101F10004FF40070ADF8100004208DF8130004A9F0
:101F20005E48FEF7DDFA4FF4165000900020ADF841
:101F30000400ADF80600ADF80800ADF80C000C2068
:101F4000ADF80A0069465648FFF739FD012240F214
:101F500025515348FFF7CBFD01215148FFF7BBFD49
:101F600005B000BD08B54FF4E060FEF7EBF927209F
:101F70008DF8000001208DF8010000208DF802008E
:101F800001208DF803006846FEF7E1F908BD002046
:101F900003E00021434A1154401CC828F9DB704774
:101FA0000FB438B505A800903F48009A049904F092
:101FB00097FE002000903C4804F0CAF985B2002446
:101FC0000DE000BF40213648FFF760FE0028F9D041
:101FD0003548015D3248FFF7EBFD601C84B2AC422E
:101FE000EFDB38BC5DF814FB10B53048008810F406
:101FF000004F0FD02EA12B4804F0B1F910B92DA03D
:10200000FFF7CEFF2DA1274804F0A9F910B92CA0A5
:10201000FFF7C6FF2BA0FFF7C3FF22492A4800683D
:1020200003F024FB002021490880FFF7B0FF10BD1A
:1020300010B502F039FE40F225511948FFF73CFE79
:1020400038B31748FFF7B8FD2049087017480088D3
:1020500010F4004F1DD108460078232808D11348FA
:10206000008840F4004011490880FFF7BDFF10E0F0
:10207000164801780D4802880088401C0B4B1880D8
:102080000848815418460088C72802DD00201946F8
:10209000088002F024FE10BD30001400001401403E
:1020A00000480040C40300208C0400203E000020B3
:1020B00059657300636F7079000000004E6F000077
:1020C0006F6B00000D0A0000280000204000002077
:1020D00000B585B001210820FEF7B8FC2020ADF83E
:1020E000100004208DF8130003208DF8120004A9BD
:1020F000FE48FEF7F5F901214804FEF7B4FC012182
:102100002120FEF7A3FC01210820FEF7B8FA2020C9
:10211000ADF8100018208DF8130003208DF8120080
:1021200004A9F348FEF7DCF94020ADF810000420C4
:102130008DF8130004A9EE48FEF7D2F94FF41650BB
:1021400000900020ADF80400ADF80600ADF80800DE
:10215000ADF80C000C20ADF80A006946E548FFF721
:102160002EFC012240F22551E248FFF7C0FC00217D
:10217000E048FFF7B0FC05B000BD08B54FF4E060E3
:10218000FEF7E0F826208DF8000001208DF8010010
:1021900000208DF8020001208DF803006846FEF74C
:1021A000D6F808BD002000BF03E00021D24A115438
:1021B000401CB0F5487FF8DB7047F8B5CF49D1F83F
:1021C000490004F039FB0746CD49384604F063F96D
:1021D0000746044604F062FB0546C84890F84D00E7
:1021E0002A460B460090C7A004F06AFDC349486C1C
:1021F00004F022FB0746C249384604F04CF9074672
:10220000044604F04BFB0546BC4890F848002A46BB
:102210000B460090C1A004F053FDB84890F8403040
:1022200090F83F20B0F83D10C2A004F049FDB3483B
:1022300090F8433090F8422090F84110C5A004F087
:102240003FFDF8BD10B50246012000E050430B00F1
:10225000A1F10104E1B2F9D110BD2DE9F34F81B034
:1022600007463C4600200090834681460026804673
:1022700028E020782D2802D148F00208641C20783C
:102280002C2802D020782A2800D11CE020782E2883
:1022900003D148F00108641C09E02078392802DCE9
:1022A0002078302803DA4FF0000900260BE018F000
:1022B000010F02D0701CC6B203E009F1010000F06A
:1022C000FF09641CD5E700BF18F0020F00D07F1C87
:1022D00000250EE0A9F10100401BC1B20A20FFF762
:1022E000B1FF795D3039009A00FB01200090681C35
:1022F000C5B24D45EEDB052E00DD052602980670C1
:1023000000250EE0701E401BC1B20A20FFF79AFFA5
:1023100009F101012944795C303900FB01BB681CDB
:10232000C5B2B542EEDB31460A20FFF78BFF0099BC
:1023300001FB00BA18F0020F01D0CAF1000A5046A2
:10234000BDE8FE8F0246134610E010782A2805D01B
:102350001078202802DB10787A2801DDFF207047F2
:1023600010782C2801D1481EC1B2521C0029ECD192
:10237000D01AC0B2F3E72DE9F04F85B00446884685
:102380007CA1404603F0D2FF074601213846FFF703
:10239000D9FF0546FF2D24D0781904A9FFF75DFF6A
:1023A00082469DF810100A20FFF74CFFBAFBF0F6AA
:1023B00042F21070B6FBF0F00830C1B24120015576
:1023C0006420B6FBF0F06421B0FBF1F201FB1201D6
:1023D000422001556420B6FBF0F100FB116143205F
:1023E000015503213846FFF7ADFF0546FF2D43D0C9
:1023F000781904A9FFF731FF06469DF81000801CEC
:10240000C1B20A20FFF71EFFB6FBF0F060649DF832
:102410001000801CC1B20A20FFF714FFB6FBF0F1D8
:1024200000FB116A504604F007FA81469DF810003F
:10243000C0F10500C1B20A20FFF704FF009004F0CC
:10244000FBF98346494603F0F0FF82464B4904F00E
:1024500022F8052102900A20FFF7F4FE616C00FBD0
:1024600001FA504604F0E8F90190029903F085FF63
:10247000039004F0E6F9606404213846FFF762FF38
:102480000546FF2D02D0785D84F8480005213846C6
:10249000FFF758FF0546FF2D72D0781904A9FFF702
:1024A000DCFE06469DF81000801CC1B20A20FFF732
:1024B000C9FEB6FBF0F044F8490F9DF81000801CEF
:1024C000C1B20A20FFF7BEFEB6FBF0F100FB116AB5
:1024D000504604F0B1F981469DF81000C0F10500A6
:1024E000C1B20A20FFF7AEFE00904AE0000C0140A6
:1024F000001401400044004054050020940B0020CB
:102500000050C3474C6F6E6769747564653A252E39
:102510003566202531632020200D0A004C61746946
:10252000747564653A252E35662025316320202098
:102530000D0A000055544320446174653A25303437
:10254000642F253032642F253032642020200D0A7C
:10255000000000005554432054696D653A2530321F
:10256000643A253032643A253032642020200D0A46
:10257000000000004750524D430000000000704230
:102580001DE004F059F98346494603F04EFF8246A8
:10259000714903F080FF052102900A20FFF752FEE7
:1025A000216800FB01FA504604F046F901900299B7
:1025B00003F0E3FE039004F044F944F849090621CE
:1025C0003846FFF7BFFE0546FF2D02D0785D84F840
:1025D0004D0009213846FFF7B5FE0546FF2D1ED0F8
:1025E000781904A9FFF739FE064642F21070B6FBCF
:1025F000F0F0C1B2402001556420B6FBF0F0642138
:10260000B0FBF1F201FB12013F2001556420B6FB43
:10261000F0F100FB116000F5FA60A4F83D0005B090
:10262000BDE8F08FF8B505460F464CA1384603F0DB
:102630007DFE064606213046FFF784FE0446FF2C49
:1026400005D030196946FFF708FE85F84E000721CE
:102650003046FFF777FE0446FF2C05D03019694657
:10266000FFF7FBFD85F84F0009213046FFF76AFEB2
:102670000446FF2C05D030196946FFF7EEFDC5F87A
:102680006300F8BD70B504460D4629462046FFF7A5
:10269000C9FF29462046FFF76EFE70BD70B50024C5
:1026A00030480088C0F30D0500BF04E02E48005DEF
:1026B0002E490855641CAC42F8DB00202B49085514
:1026C0002B48FFF7DFFFFFF778FDFFF76BFD0020DA
:1026D0002449088070BD10B540F225512548FFF708
:1026E000EBFA20B32348FFF767FAC4B21D4800880D
:1026F00010F4004F2ED11B48008810F4804F0ED0EC
:102700000A2C03D000201749088023E015480088D0
:10271000C0F30D0013490880FFF7C0FF1AE00D2C2D
:1027200006D11048008840F480400E49088011E02E
:102730000C480088C0F30D000B490C540948008870
:10274000401C0849088008460088B0F5487F01DB36
:102750000020088010BD0000000070422447504750
:10276000474100004200002054050020740800206A
:10277000940B002000440040002100E0491C8142ED
:10278000FCD370470A2000BF0100A0F10100FBD17B
:10279000704710B54FF48061FE48FDF74CFFFFF71E
:1027A000F1FF4FF40061FB48FDF745FFFFF7EAFF3B
:1027B0004FF48061F748FDF740FFFFF7E3FF4FF468
:1027C0000061F448FDF739FFFFF7DCFF10BD10B5DD
:1027D0004FF48061EF48FDF730FFFFF7D3FF4FF470
:1027E0000061EC48FDF727FFFFF7CCFF4FF4806155
:1027F000E848FDF720FFFFF7C5FF10BD2DE9F041C8
:1028000004462646002521E006F080077006060EE5
:102810004FF40061DF48FDF710FFFFF7B3FF802F93
:1028200004D1F900DB48FDF706FF04E04FF48061B6
:10283000D848FDF702FFFFF7A5FF4FF40061D54828
:10284000FDF7F9FEFFF79EFF681CC5B2082DDBDB24
:102850004FF40061CF48FDF7F0FEFFF793FF4FF410
:102860008061CC48FDF7E7FEFFF78CFFBDE8F08103
:1028700038B5044674B94FF48060ADF800001420F8
:102880008DF8030003208DF802006946C148FDF76A
:1028900027FE0BE0012C09D1A002ADF80000482072
:1028A0008DF803006946BB48FDF71AFE38BD70B5C8
:1028B00000254FF40061B748FDF7BFFEFFF762FF48
:1028C0004FF48061B348FDF7B6FE0120FFF7D0FF5B
:1028D00000241CE0FFF756FF4FF40061AD48FDF700
:1028E000AAFEFFF74FFF4FF48061AA48FDF789FE6B
:1028F000012801D1012600E0002646EA4500C5B2C4
:102900004FF40061A348FDF798FE601CC4B2082C88
:10291000E0DB0020FFF7ACFFFFF734FF284670BD77
:1029200010B500240120FFF7A3FF4FF40061994880
:10293000FDF781FEFFF726FF00E0641C4FF4806185
:102940009448FDF75EFE012803D141F288308442AD
:10295000F3D34FF400618F48FDF76FFEFFF712FFCE
:102960000020FFF785FF10BD10B54FF400618948C6
:10297000FDF763FEFFF706FF4FF480618548FDF722
:102980005CFEFFF7FFFE4FF400618248FDF753FE47
:10299000FFF7F8FE4FF400617E48FDF74EFEFFF7AB
:1029A000F1FE10BD10B54FF400617A48FDF745FE09
:1029B000FFF7E8FE4FF480617648FDF73CFEFFF735
:1029C000E1FE4FF400617348FDF735FEFFF7DAFED4
:1029D0004FF400616F48FDF730FEFFF7D3FE10BDE6
:1029E00070B504460D46FFF7D4FE2046FFF706FFFC
:1029F000FFF796FF2846FFF701FFFFF791FFFFF76C
:102A0000C8FE611CC8B2FFF7F9FEFFF789FFFFF7A8
:102A10004EFF0646FFF7DBFE3220FFF7ADFE3046E5
:102A200070BD70B506460C461546FFF7B2FE30463F
:102A3000FFF7E4FEFFF774FF2046FFF7DFFEFFF726
:102A40006FFF2846FFF7DAFEFFF76AFFFFF7BFFECA
:102A5000FA20FFF791FE70BD70B505460C46FFF7F2
:102A600098FE2846FFF7CAFEFFF75AFF2046FFF7F9
:102A7000C5FEFFF755FFFFF7AAFEFA20FFF77CFE21
:102A800070BD2DE9F04106460F4615469846FFF702
:102A900080FE3046FFF7B2FEFFF742FF3846FFF7F1
:102AA000ADFEFFF73DFFFFF774FE711CC8B2FFF7E4
:102AB000A5FEFFF735FF00240DE0FFF7F8FE08F84C
:102AC0000400601CA84202DAFFF74EFF01E0FFF7A6
:102AD00069FF601CC4B2AC42EFDBFFF778FEFA205E
:102AE000FFF74AFEBDE8F0812DE9F04104460D46AE
:102AF000FFF74FFE2046FFF781FEFFF711FF284644
:102B0000FFF77CFEFFF70CFFFFF743FE611CC8B226
:102B1000FFF774FEFFF704FFFFF7C9FE0646FFF755
:102B200023FFFFF7C4FE0746FFF73CFFFFF74FFE0A
:102B3000FA20FFF721FE47EA06284046BDE8F0816B
:102B40002DE9F04704460D46FFF723FE2046FFF728
:102B500055FEFFF7E5FE2846FFF750FEFFF7E0FEC3
:102B6000FFF717FE611CC8B2FFF748FEFFF7D8FE5B
:102B7000FFF79DFE0746FFF7F7FEFFF798FE0646B4
:102B8000FFF7F2FEFFF793FE8046FFF70BFFFFF71C
:102B90001EFE01E0000C0140FA20FFF7EDFDC7EB3F
:102BA000074000EB062000EB08094846BDE8F08727
:102BB00008B501210820FDF749FF4FF40060ADF88A
:102BC000000014208DF8030003208DF802006946F0
:102BD0000848FDF785FC4FF48060ADF80000142034
:102BE0008DF8030003208DF8020069460148FDF7C7
:102BF00077FC08BD000C014008B501210920FDF754
:102C000025FF4FF47070ADF8000003208DF802002E
:102C100018208DF8030069465E48FDF761FC08BD89
:102C2000F0B587B01427142414251426012104209C
:102C3000FDF719FF44F61F60ADF814004720ADF80A
:102C400010000020ADF81600ADF8120004A952489B
:102C5000FEF738F86020ADF800000120ADF8020062
:102C6000ADF806700020ADF8080069464A48FEF746
:102C700066F80120ADF80200ADF806406946464806
:102C8000FEF79FF80120ADF80200ADF80650694646
:102C90004148FEF7E3F80120ADF80200ADF8066008
:102CA00069463D48FEF725F908213B48FEF796FCAA
:102CB00008213948FEF79BFC08213748FEF7A4FCA1
:102CC00008213548FEF7A9FC01213348FEF756FCE0
:102CD00001213148FEF752FB07B0F0BD4FF47A7185
:102CE0004143642291FBF2F101F57A712A4A3432B0
:102CF00011804FF47A714143642291FBF2F101F5A6
:102D00007A71254A383211804FF47A714143642236
:102D100091FBF2F101F57A711F4A3C3211804FF4B8
:102D20007A714143642291FBF2F101F57A711A4AFA
:102D300040321180704730B54FF47A7444436425B3
:102D400094FBF5F404F57A74134D34352C804FF46C
:102D50007A744C43642594FBF5F404F57A740E4DB3
:102D600038352C804FF47A745443642594FBF5F481
:102D700004F57A74084D3C352C804FF47A745C432A
:102D8000642594FBF5F404F57A74034D40352C80EA
:102D900030BD0000000C0140000800402DE9F0416A
:102DA00005460C46FE480168204603F038FB0746FE
:102DB000FC480168384603F038FB0646FA480168CB
:102DC000304603F0DAFAF8490860F8484168F848F4
:102DD000006803F024FB0646F4488168304603F09F
:102DE0001EFBF4490860F148C06880F0004048606C
:102DF000EE48C06880F000408860EF480068C86016
:102E00000868E849096803F010FB0646E7480168CE
:102E1000304603F0B2FAE5490860E6494868E149FE
:102E2000096803F002FB0646E0484168304603F0BB
:102E3000A4FADE494860DF498868DA49096803F086
:102E4000F4FA0646D9488168304603F096FAD74925
:102E50008860D849C868D349096803F0E6FA06468D
:102E6000D248C168304603F088FAD049C860CE48DD
:102E70000168284603F0D3FAD0490860D0480078AA
:102E800003F0DAFC0646C9480168304603F0CDFA83
:102E9000CC490860CA48007803F0CEFC0646C34817
:102EA0008168304603F0C1FAC7490860C448007819
:102EB00003F0C2FC0746C3480168384603F0B5FA80
:102EC0000646C2480168304603F057FAC049086018
:102ED00008460168BB48006803F0DDFABD49086098
:102EE000BB480168B848006803F0D5FABA490860E1
:102EF000B4480068B9490860B148007803F09CFC08
:102F00000646AA484168304603F08FFAB449086083
:102F1000B2480168AF48006803F087FA0646A34844
:102F20000168304603F07EFAA0490860AC480168A9
:102F3000A848006803F079FA06469C484168304684
:102F400003F070FA99494860A4480168A2480068F3
:102F500003F06BFA064695488168304603F062FA42
:102F6000924988609E4801689B48006803F05DFABA
:102F700006468E48C168304603F054FA8B49C86053
:102F80008E4801689348006803F04FFA0646864869
:102F90000168304603F0F1F9834908608748016809
:102FA0008D48006803F041FA06467D4801683046C6
:102FB00003F0E3F97A49086008460168204603F007
:102FC0002EFA88490860BDE8F0812DE9F0410546F8
:102FD0000C4685480168204603F021FA07467148EF
:102FE0000168384603F021FA0646804801683046F9
:102FF00003F0C3F97D4908607D4841686C4800686A
:1030000003F00DFA06467A488168304603F007FA65
:10301000684908607648C06880F00040486074489D
:10302000C06880F00040886063480068C860086835
:103030005C49096803F0F9F906466D4801683046B5
:1030400003F09BF96A4908605A494868554909687C
:1030500003F0EBF9064666484168304603F08DF907
:1030600063494860534988684E49096803F0DDF9AF
:1030700006465F488168304603F07FF95C49886006
:103080004C49C8684749096803F0CFF906465848D3
:10309000C168304603F071F95549C860534801686A
:1030A000284603F0BCF9454908604548007803F01C
:1030B000C3FB06464E480168304603F0B6F9414965
:1030C00008603F48007803F0B7FB0646484881682F
:1030D000304603F0AAF93C4908603948007803F00B
:1030E000ABFB074637480168384603F09EF90646B1
:1030F00036480168304603F040F935490860084613
:1031000001683048006803F0C6F932490860304869
:1031100001682D48006803F0BEF92F49086029486E
:1031200000682E4908602648007803F085FB0646B3
:103130002F484168304603F078F92949086027484C
:1031400001682448006803F070F9064628480168C1
:10315000304603F067F926490860214801681D4898
:10316000006803F062F9064621484168304603F0E2
:1031700059F91F494860194801681748006803F069
:1031800054F906461A488168304603F04BF918494D
:103190008860134801681048006803F046F929E088
:1031A0007C00002050000020CC0000206C0000209B
:1031B00044000020000C002048000020D400002023
:1031C00054000020D8000020DC0000204C0000202B
:1031D000E0000020E4000020E8000020EC000020D7
:1031E000F0000020A400002058000020C8000020AB
:1031F0005C0000200646FE48C168304603F012F924
:10320000FB49C860FB480168FB48006803F00DF902
:103210000646FA480168304603F0AFF8F7490860FF
:10322000F4480168F648006803F0FFF80646F548E0
:103230000168304603F0A1F8F249086008460168C9
:10324000204603F0ECF8F0490860BDE8F0812DE974
:10325000F04F93B0ED48008803F0EEFAEC490860B7
:10326000EC48008803F0E8FAEB490860EB48008876
:1032700003F0E2FAEA490860EA48008803F0DCFA61
:10328000E1490860E848008803F0D6FAE749086099
:10329000E748008803F0D0FAE6490860E64800688D
:1032A00003F0C1FAE5490860E548006803F0BBFA9D
:1032B000E4490860E448006803F0B5FAE3490860AF
:1032C000E349D348006803F019FB07D24FF08D4162
:1032D000CF48006803F0DFF805460BE0CC480168F2
:1032E0004FF08E4003F09BF807464FF08D4103F0FE
:1032F000D2F80546D649C848006803F0FFFA07D25D
:103300004FF08D41C448006803F0C5F806460BE055
:10331000C14801684FF08E4003F081F807464FF036
:103320008D4103F0B8F80646C949BD48006803F06E
:10333000E5FA07D24FF08D41B948006803F0ABF8C9
:1033400004460BE0B64801684FF08E4003F067F882
:1033500007464FF08D4103F09EF804462146304663
:1033600003F099F8834603F099FACDE90C0104F0D3
:103370005FFC0022B74BCDE90E0103F073F94FF06B
:10338000C042B54BCDE9100103F0DEF9074603F06A
:1033900098FAB24908602146284603F07CF8834633
:1033A00003F07CFACDE90C0104F042FC0022A94BA9
:1033B000CDE90E0103F056F94FF0C042A64BCDE91E
:1033C000100103F0C1F9074603F07BFAA449086035
:1033D0009F499A48006803F091FA07D24FF08D4157
:1033E0009648006803F057F805460BE093480168DB
:1033F0004FF08E4003F013F807464FF08D4103F075
:103400004AF8054692498F48006803F077FA07D2D8
:103410004FF08D418B48006803F03DF806460BE005
:10342000884801684FF08E4002F0F9FF07464FF0E0
:103430008D4103F030F8064685498448006803F062
:103440005DFA07D24FF08D418048006803F023F801
:1034500004460BE07D4801684FF08E4002F0DFFF2C
:1034600007464FF08D4103F016F804467849684846
:10347000006803F043FA03D279480068784908608D
:1034800073496348006803F043FA05D27448006842
:1034900080F00040724908606D495F48006803F0A1
:1034A0002DFA03D26D4800686C49086068495A4893
:1034B000006803F02DFA05D26848006880F00040EB
:1034C000664908606548006803F0E8F9074604F0BB
:1034D000D7FDCDE90A016248006803F0DFF9CDE9C4
:1034E000040104F077FD07468846204603F0D6F92C
:1034F0003A464346CDE9060103F0B4F8CDE90801A8
:10350000DDE90A2303F0AEF8CDE90E015448006866
:1035100003F0C4F9074604F0B3FDCDE906014F48B6
:10352000006803F0BBF9074604F0AAFDCDE90201EB
:10353000304603F0B3F9CDE90001DDE9022303F0E1
:1035400091F8CDE90401DDE9062303F08BF8CDE91C
:103550000A014248006803F0A1F9074604F03AFD69
:10356000CDE90601284603F099F9CDE90401DDE92A
:10357000062303F077F8CDE90801DDE90A2302F01C
:10358000CAFFCDE90C01DDE90E2303F065F8CDE9B2
:10359000100103F096F981463148006803F07EF986
:1035A000074604F06DFDCDE90A01204603F076F9E7
:1035B000CDE90801DDE90A2303F054F8CDE90E0155
:1035C0002748006803F06AF9CDE9080104F002FD1C
:1035D00007468846304603F061F93A464346CDE94E
:1035E0000A0103F03FF8CDE90C01DDE90E2339E0D3
:1035F0005C000020D4000020E4000020C80000206F
:10360000E800002058000020A00000200A0100204F
:10361000940000200C010020980000200E010020E2
:103620009C0000200401002006010020A4000020CE
:1036300008010020A800002064010020AC00002048
:1036400068010020B00000206C010020B4000020C0
:1036500000F8FF4600806640B81E0940BC0000200C
:10366000C000002002F057FFCDE9100103F029F956
:103670008246484603F012F9CDE90C01504603F0AA
:103680000DF90746DDE90C2304F0E4FBED4AEE4BAF
:10369000CDE90E0102F0E6FFCDE9100103F011F9CA
:1036A000EA490860EA480168E848006802F0B7FEA5
:1036B000E64908604FF08E41E648006803F01EF9C5
:1036C00011D2E448006803F0E9F84FF06632E24BAB
:1036D000CDE9100103F038F881F00041074603F00E
:1036E000F0F8DC4908604FF08E41DA48006803F0DA
:1036F0000FF913D2D7480168D84802F090FE8346EC
:1037000003F0CCF807464FF06632D34B03F01CF8B9
:10371000CDE9100103F0D5F8CE4908604FF08E4195
:10372000CF48006803F0EAF811D2CD48006803F0F2
:10373000B5F807464FF06632C74B03F005F881F045
:103740000041CDE9100103F0BCF8C54908604FF015
:103750008E41C348006803F0DBF813D2C04801680B
:10376000BE4802F05CFE834603F098F807464FF02F
:103770006632B94B02F0E8FFCDE9100103F0A1F881
:10378000B74908604FF08E41B648006803F0B6F8BC
:1037900011D2B448006803F081F807464FF0663252
:1037A000AD4B02F0D1FF81F00041CDE9100103F0F3
:1037B00088F8AC4908604FF08E41AA48006803F0D1
:1037C000A7F813D2A7480168A44802F028FE834650
:1037D00003F064F807464FF066329F4B02F0B4FFE7
:1037E000CDE9100103F06DF89E4908609948016821
:1037F0009D480068FFF7E9FB994801689B4800680D
:10380000FFF7CCFA9748016890480068FFF7C6FABE
:1038100013B0BDE8F08F2DE9F04105460C46944801
:103820000168204602F0FBFD0746924801683846D1
:1038300002F0FBFD064690480168304602F09DFD0F
:103840008D4908608D4841688D48006802F0E7FDA9
:1038500006468A488168304602F0E1FD89490860E1
:103860008648C06880F0004048608448C06880F0A6
:103870000040886084480068C86008687D4909681D
:1038800002F0D3FD06467D480168304602F075FD22
:103890007A4908607B4948687649096802F0C5FDA5
:1038A000064676484168304602F067FD7349486035
:1038B000744988686F49096802F0B7FD06466F4889
:1038C0008168304602F059FD6C4988606D49C868CE
:1038D0006849096802F0A9FD06466848C168304693
:1038E00002F04BFD6549C86063480168284602F054
:1038F00096FD664908606648007802F09DFF06461E
:103900005E480168304602F090FD624908606048F8
:10391000007802F091FF064658488168304602F070
:1039200084FD5D4908605A48007802F085FF07462B
:1039300058480168384602F078FD06465748016845
:10394000304602F01AFD56490860084601685148A1
:10395000006802F0A0FD53490860514801684E48D4
:10396000006802F098FD504908604A4800684F49D5
:1039700008604748007802F05FFF06463F4841680C
:10398000304602F052FD4A490860484801684548FF
:10399000006802F04AFD064638480168304602F0E9
:1039A00041FD36490860424801683E48006802F01F
:1039B0003CFD064631484168304602F033FD2F4950
:1039C00048603A4801683848006802F02EFD064613
:1039D0002A488168304602F025FD2849886034482D
:1039E00001683148006802F020FD06462348C1689E
:1039F000304602F017FD2149C86024480168294873
:103A0000006802F012FD06461B480168304602F0CD
:103A1000B4FC194908601D4801682348006802F099
:103A200004FD064612480168304602F0A6FC104923
:103A3000086008460168204602F0F1FC0949086068
:103A4000BDE8F081775AF01ADCA54C40C400002094
:103A5000B8000020A00000206666304000FF7F47CD
:103A6000A4000020A8000020BC000020C00000200E
:103A70009000002050000020D00000208000002096
:103A800044000020000C002048000020D40000204A
:103A900054000020D8000020DC0000204C00002052
:103AA000E0000020E4000020E8000020EC000020FE
:103AB000F000002010B500226B21D020FEF7B1FFEE
:103AC00007221921D020FEF7ACFF06221A21D020B0
:103AD000FEF7A7FF42223721D020FEF7A2FF4022A7
:103AE0006A21D020FEF79DFF18221B21D020FEF76F
:103AF00098FF01221C21D020FEF793FFC82300224B
:103B00001146104602F0B8FA10BD10B54421D0207D
:103B1000FEF766FF4F4908704321D020FEF760FF93
:103B20004C49487008460078497840EA01204A49E3
:103B300008804621D020FEF753FF46498870452172
:103B4000D020FEF74DFF4349C87008468078C978F9
:103B500040EA0120414908804821D020FEF740FF7B
:103B60003C4908714721D020FEF73AFF3949487196
:103B700008460079497940EA01203949088010BD9A
:103B80002DE9F05F3C21D020FEF72AFF3149087073
:103B90003B21D020FEF724FF2E49487008460078CC
:103BA000497840EA01202F4908803E21D020FEF7C5
:103BB00017FF284988703D21D020FEF711FF2549C5
:103BC000C87008468078C97840EA012026490880F4
:103BD0004021D020FEF704FF1E4908713F21D0206C
:103BE000FEF7FEFE1B49487108460079497940EA14
:103BF00001201E4908804221D020FEF7F1FE154920
:103C000088714121D020FEF7EBFE1249C8710846A9
:103C10008079C97940EA0120154908800846008862
:103C200002F00AFE8346134902F035FC824602F098
:103C300035FE0646104A114B02F06DFC0446002288
:103C40000F4B02F00FFD804602F00FFE084908807E
:103C5000BDE8F09F100C00200401002006010020A8
:103C6000080100200A0100200C0100200E010020A4
:103C7000100100200000AA43A4703D0AD74342402F
:103C80000000244008B501210846FCF7ECFE0121A4
:103C90000520FCF7DBFE0F20ADF8000003208DF8B7
:103CA000020028208DF803006946DF48FCF718FC65
:103CB0000F21DD48FCF7C1FC08BD00B587B01C2012
:103CC0008DF8000000208DF8010001208DF8020021
:103CD0008DF803006846FCF73AFB4FF6FF70ADF82D
:103CE00014004720ADF810000020ADF81600ADF824
:103CF000120004A94FF08040FCF7E4FF0020ADF86B
:103D00000400ADF806000120ADF808000020ADF871
:103D10000A00ADF80C0001A94FF08040FDF765FAEC
:103D20000420ADF804000020ADF806000120ADF835
:103D300008000020ADF80A00ADF80C0001A94FF012
:103D40008040FDF752FA0820ADF804000020ADF8DD
:103D500006000120ADF808000020ADF80A00ADF81B
:103D60000C0001A94FF08040FDF73FFA0C20ADF8A0
:103D700004000020ADF806000120ADF80800002086
:103D8000ADF80A00ADF80C0001A94FF08040FDF736
:103D90002CFA01221E219007FDF70BFB0121880759
:103DA000FDF7ECFA07B000BD10B500F07DFF9F48AD
:103DB000007810F0800F49D102214807FDF7A7FDD8
:103DC000002843D002214807FDF7B2FD974800784C
:103DD00010F0400F2AD04FF08040FDF779FD944954
:103DE00008800846008893490988884204DA4FF61B
:103DF000FF709149086002E000208F4908608C48FC
:103E000000888C490988401A8B49096808448B4905
:103E10000860084600688A490860002083490870E5
:103E200000214FF08040FDF75BFC0FE04FF0804039
:103E3000FDF74EFD7F4908807C48007840F0400047
:103E40007A49087002214807FDF74AFC7D4800784E
:103E500010F0800F49D104210807FDF758FD002814
:103E600043D004210807FDF763FD7648007810F081
:103E7000400F2AD04FF08040FDF72DFD7249088099
:103E80000846008871490988884204DA4FF6FF70B5
:103E90006F49086002E000206D4908606A480088A8
:103EA0006A490988401A6A490968084469490860EA
:103EB00008460068684908600020624908700021CF
:103EC0004FF08040FDF71EFC0FE04FF08040FDF703
:103ED00002FD5E4908805B48007840F04000594987
:103EE000087002214807FDF70DFC5C48007810F0CF
:103EF000800F48D10821C806FDF709FD90B30821BD
:103F0000C806FDF715FD5548007810F0400F2AD07F
:103F10004FF08040FDF7E2FC5149088008460088D8
:103F200050490988884204DA4FF6FF704E4908600C
:103F300002E000204C490860494800884949098846
:103F4000401A494909680844484908600846006819
:103F50004749086000204149087000214FF0804027
:103F6000FDF7EAFB0FE04FF08040FDF7B7FC3D495D
:103F700008803A48007840F0400038490870022133
:103F80004807FDF7D9FB3B48007810F0800F48D177
:103F900010218806FDF7BBFC90B310218806FDF7C1
:103FA000C7FC3448007810F0400F2AD04FF0804012
:103FB000FDF797FC30490880084600882F4909889A
:103FC000884204DA4FF6FF702D49086002E00020B5
:103FD0002B4908602848008828490988401A284940
:103FE00009680844274908600846006826490860AF
:103FF00000202049087000214FF08040FDF7B6FBFB
:104000000FE04FF08040FDF76CFC1C490880194818
:10401000007840F040001749087002214807FDF77A
:10402000A5FB00F05CFE10BD00080140140100205B
:104030002A0100202801002038010020180100205A
:1040400054010020150100202E0100202C01002029
:104050003C0100201C01002050010020160100201E
:10406000320100203001002040010020200100200A
:104070004C010020170100203601002034010020EF
:1040800044010020240100204801002000B585B033
:10409000012144F20400FCF7D9FC4FF40070ADF8A4
:1040A000100018208DF8130003208DF8120004A9C9
:1040B0004A48FCF715FA4FF48060ADF81000042070
:1040C0008DF8130004A94548FCF70AFA4FF416507E
:1040D00000900020ADF80400ADF80600ADF808002F
:1040E000ADF80C000C20ADF80A0069463C48FDF71D
:1040F00066FC01213A48FDF7EEFC05B000BD08B5AD
:104100004FF4E060FCF71EF925208DF80000002038
:104110008DF8010001208DF802008DF8030068463B
:10412000FCF715F908BD70B504460D46E1B22C4800
:10413000FDF73EFD00BF40212948FDF7A7FD0028FF
:10414000F9D0204670BD10B5044600BF2021244898
:10415000FDF79CFD0028F9D02148FDF72DFD10BD8D
:1041600010B540F225511E48FDF7A6FD10B31C48BE
:10417000FDF722FDC4B21B48008810F4004F2BD17C
:104180001848008810F4804F0CD00A2C03D000206F
:104190001449088020E01348008840F40040114989
:1041A000088019E00D2C06D10E48008840F48040AC
:1041B0000C49088010E00B480088C0F30D000A4944
:1041C0000C5408480088401C0649088008460088AE
:1041D000C72801DD0020088010BD00000008014054
:1041E00000380140600100201A0C002070B50A213F
:1041F0003C20FEF7F5FB04460B213C20FEF7F0FBCC
:1042000005460C213C20FEF7EBFB0646482C07D167
:10421000342D05D1332E03D1CBA002F051FD02E0A5
:10422000D0A002F04DFD70BD10B500241422002175
:104230003C20FEF7F6FB202201213C20FEF7F1FB9B
:10424000002202213C20FEF7ECFB05230022114650
:10425000104601F011FF10BD10B5CA480068CA49E8
:104260000968441804EBD471481002F0DCFAC7491D
:104270000860C7480068C7490968441804EBD4714E
:10428000481002F0D0FAC4490860C4480068C44924
:104290000968441804EBD471481002F0C4FAC1490B
:1042A000086010BDC04B1860C04B1860C04B19604F
:1042B000C04B1960C04B1A60C04B1A60704770B594
:1042C00003460C461546184621462A46B64E366821
:1042D000B04201DDB44E3060B44E3668B04201DA0F
:1042E000B24E3060B24E3668B14201DDB04E316040
:1042F000B04E3668B14201DAAE4E3160AE4E36682D
:10430000B24201DDAC4E3260AC4E3668B24201DAE8
:10431000AA4E326070BDA4480068A4490968401ADA
:1043200005D4A1480068A1490968401A04E09F48E3
:1043300000689D490968401A002809DD9A49096802
:104340009A4A1268881800EBD07149109C4A116093
:104350009748006897490968401A05D4944800684E
:1043600094490968401A04E0924800689049096835
:10437000401A002809DD8E4909688E4A126888189B
:1043800000EBD07149108F4A11608B4800688B494F
:104390000968401A05D48848006888490968401AA5
:1043A00004E08648006884490968401A002809DD4D
:1043B00081490968814A1268881800EBD071491058
:1043C000814A116070477E4B1B68C01A7D4B1B6889
:1043D000C91A7D4B1B68D21A70471CB5002000908B
:1043E0000190152200213C20FEF71BFB0122022137
:1043F0003C20FEF716FB052300221146104601F073
:104400003BFE03213C20FEF7EBFA8DF8010004216E
:104410003C20FEF7E5FA8DF8020007213C20FEF76C
:10442000DFFA8DF8030008213C20FEF7D9FA8DF859
:10443000040005213C20FEF7D3FA8DF80500062183
:104440003C20FEF7CDFA8DF806009DF802009DF89D
:10445000011040EA01205D4908609DF804009DF8C4
:10446000031040EA01205A4908609DF806009DF8B3
:10447000051040EA01205749086054480068B0F52B
:10448000004F06DB51480068A0F57F40FF384F49D8
:1044900008604F480068B0F5004F06DB4C480068E4
:1044A000A0F57F40FF384A4908604A480068B0F5E7
:1044B000004F06DB47480068A0F57F40FF384549BC
:1044C00008601CBD1CB500200090019003213C2019
:1044D000FEF786FA8DF8010004213C20FEF780FAF1
:1044E0008DF8020007213C20FEF77AFA8DF80300D0
:1044F00008213C20FEF774FA8DF8040005213C20C9
:10450000FEF76EFA8DF8050006213C20FEF768FAEA
:104510008DF806009DF802009DF8011040EA012088
:104520002A4908609DF804009DF8031040EA012024
:10453000274908609DF806009DF8051040EA012013
:10454000244908601CBD00000DC9E8B1B8484D43BE
:10455000353737334CC9E8B1F0B3C9B9A6210D0AD4
:104560000D0000000DB4EDCEF321CEDEB7A8CAB623
:10457000B1F0C9E8B1B8484D43353737334C210D58
:104580000A0D0000700100207C010020880100203D
:1045900074010020800100208C010020780100209F
:1045A0008401002090010020A0010020A40100202F
:1045B000A8010020AC010020B0010020B4010020BF
:1045C000B8010020BC010020C001002064010020CF
:1045D000680100206C01002015E00821B448FCF7B8
:1045E0002CF84FF4967300221146104601F044FD5A
:1045F0000821AF48FCF71FF84FF4967300221146CC
:10460000104601F039FDE8E713E01021A848FCF757
:1046100014F8C82300221146104601F02DFD102188
:10462000A348FCF708F8C82300221146104601F001
:1046300023FDEAE70AE09F499F48006800F042FE38
:104640000A2300221146104601F016FDF3E78AB056
:10465000FEF7AEFA4FF4FA7300221146104601F04D
:104660000BFDFFF727FAFEF7A3FA4FF4FA730022C7
:104670001146104601F000FDFFF71CFAFFF702FBA0
:10468000FFF71BFB6420FEF729FB4FF4FA630022BF
:104690001146104601F0F0FC0020FEF71FFB4FF41E
:1046A000FA6300221146104601F0E6FCFFF702FA19
:1046B000FFF7BAFD4FF0000A60E0FFF703FF7F4805
:1046C000006802F0B0F807907D48006802F0ABF88F
:1046D000069000BF7B49079802F010F906D24FF010
:1046E0008D41079801F0D7FE83460AE04FF08E40D7
:1046F000079901F094FE04464FF08D4101F0CBFE86
:1047000083467049069802F0F9F806D24FF08D41C1
:10471000069801F0C0FE08900AE04FF08E4006991E
:1047200001F07DFE04464FF08D4101F0B4FE08908B
:10473000584602F0B3F8CDE90001089802F0AEF84F
:104740008046DDE9002303F085FB5F4A5F4BCDE93E
:10475000020101F087FF06460F465D48006802F03F
:104760009DF832463B46CDE9040101F0D4FE0446F3
:1047700002F0A7F8564908600AF1010ABAF5FA6F83
:104780009BDB54495248006801F085FE504908609F
:104790004FF0000A21E0FFF7B8F9FFF7F1F9FFF752
:1047A00091FEFEF754FD4C4801684C48006801F04A
:1047B000E4FD4A4908604A4801684A48006801F037
:1047C000DCFD48490860484801684848006801F035
:1047D000D4FD464908600AF1010ABAF5FA6FDADB3E
:1047E0000DE0FFF792F9FFF7CBF9FFF76BFEFEF74D
:1047F0002EFD042300221146104601F03DFCF0E797
:10480000FDF76AFBFDF7AEFB39A0FDF7C9FB0AE037
:104810003F494048006800F055FD1423002211462E
:10482000104601F029FCF3E705233B4A0021AFF2D3
:104830002F0001F0DCF80623384A0021AFF2F11016
:1048400001F0D5F80723364A0021AFF2172001F016
:10485000CEF80823334A0021AFF2272001F0C7F831
:104860000923314A0021AFF25F2001F0C0F80A238A
:104870002E4A0021AFF29F2001F0B9F80EE02C493A
:104880002C48006800F01EFD01212B48FBF7D5FEE7
:10489000322300221146104601F0EEFBEFE705E05F
:1048A000142300221146104601F0E6FBF8E7000051
:1048B000001001403400002030000020640100207E
:1048C0006801002000F8FF46775AF01ADCA54C403A
:1048D000B80000200000FA44C8000020F4000020C6
:1048E000CC000020F8000020D0000020FC000020B8
:1048F0000D0A20426C7565746F6F746820696E696B
:10490000742073756363656564210D0A00000000FF
:104910003C00002038000020200E0020600F002006
:10492000A0100020E01100202013002060140020BF
:104930002C00002028000020000C0140024600202E
:1049400005E011F8013B02F8013B431CD8B20B789B
:10495000002BF6D1137070472DE9F04105460E4645
:1049600014460027FA480078002804DD1120207042
:104970000020BDE8F0812878012808D0022807D05F
:10498000032802D0042804D100E000BF00BF00BF0C
:1049900003E0012020700020EBE700BF01F074FC71
:1049A000074605F10F013046FFF7C8FF804638463D
:1049B00001F06EFC002020704046DAE7014600203E
:1049C00002E0491C421CD0B20A78002AF9D1704793
:1049D0002DE9F04105460F4614464FF00008DC482B
:1049E0000078002803DD12202070BDE8F0812878CF
:1049F000012808D0022807D0032802D0042804D1B7
:104A000000E000BF00BF00BF02E001202070ECE723
:104A100000BF01F039FC80463846FFF7CFFF06465D
:104A20000F2E05DD404601F033FC0B202070DCE743
:104A3000394605F10F00FFF781FF404601F028FCE1
:104A40000020207000BFD0E77CB5002514E0694647
:104A5000284601F01EFA064666B9BE4850F82540C1
:104A600044B1012C06D0D4E9020100EB8100E063DF
:104A700001982064681CC5B21F2DE8DD7CBD0024B0
:104A800002E0C82001F0C8FAB34800780028F8D046
:104A9000B24800686421B0FBF1F0B04908600846F4
:104AA000006828B90020AE490870FF2001F033FAF1
:104AB00000BF01F0E9FB0446AA480068AA49086063
:104AC0000020A8490860204601F0E2FBA6480068E3
:104AD000A2490968B0FBF1F0C0F16400A049087078
:104AE00001F081FBFFF7B0FF642001F095FAE0E7E9
:104AF00000B587B00320002180229C4BCDE9013214
:104B0000CDE903104FF6FE701E23994A0090AFF2D4
:104B1000910000F0C4FF06AA96A11E2001F027F91B
:104B200007B000BD002400BF01F0AEFB04468D4875
:104B30000068401C8B490860204601F0A9FB01F089
:104B400051FBF1E700B587B00320002180228D4B97
:104B5000CDE90132CDE903104FF6FF701F238A4AD9
:104B60000090AFF23F0000F09AFF06AA87A11F2035
:104B700001F0FDF807B000BD04E0002200F8012BB1
:104B80004A1E91B20029F8DC704730B54FF4A0718D
:104B90008248FFF7F1FF814B03F1200500240AE072
:104BA000002018705D603F20D873002119742033F5
:104BB0002035601C84B2092CF2DB0020187058608C
:104BC0003F20D8730021197474487549086030BDBE
:104BD00030B54FF4BD617348FFF7CEFF80215D48CB
:104BE000FFF7CAFF6F4B03F1540500240AE05D6133
:104BF0003F2083F8440000214520C15454335435EC
:104C0000601CC4B2112CF2D3002058613F2083F8FD
:104C1000440000214520C1540020634908606148D8
:104C20006249086030BD0022614B1A706149002062
:104C300004E0002201F8012B421CD0B20428F8DB6A
:104C400000225D4B1A705D4B1A705D4B1A605D4B14
:104C50001A60704700205C4908603D4908705B4954
:104C600008705B4908705B4908705B4908603D4902
:104C700008603D4908603949086037490870704745
:104C800010B501F0ABFAFFF7E5FFFFF7CCFFFFF738
:104C90009FFFFFF77AFF00F0F3FDFFF753FFFFF7E9
:104CA00027FF01F09CFA10BD4A480078012808D17E
:104CB00027480078FF2804D225480078401C244962
:104CC0000870704745493A4A1278885C3949095C4E
:104CD000424A515C01EBC001384A1170704710B56F
:104CE00000243C480078012830D101F0CDFA044678
:104CF00017480078002804DD15480078401E144944
:104D0000087013480078F0B930480078D8B9FFF738
:104D1000D9FF2A48007828490978884213D00D48DD
:104D20002649097850F8210025490860084600689E
:104D3000006B401C0968086327480068401C26492E
:104D4000086001F0BDFA204601F0A2FA10BD000093
:104D5000D9010020A4190020D8010020D001002092
:104D6000CC010020E4010020D4010020A415002083
:104D7000A017002075432F4F532D494920537461CC
:104D800074000000A4170020A019002075432F4FC5
:104D9000532D49492049646C6500000064140020CB
:104DA000C8010020241A0020F4010020EC0100209A
:104DB000DD010020DE010020DB010020DC010020FD
:104DC000F0010020E801002000020020DA010020AC
:104DD000E3010020E2010020C4010020308100082E
:104DE00010B50024FE480078012811D101F04CFADA
:104DF0000446FC48007840B9FB480078FF2804D2FC
:104E0000F9480078401CF8490870204601F040FA43
:104E100010BD10B5002401F037FA0446F1480078BF
:104E2000F0B9F1480078D8B9FFF74CFFEF480078A7
:104E3000EF490978884213D0EE48EC49097850F8D8
:104E40002100ED49086008460068006B401C0968B5
:104E50000863EA480068401CE849086001F02BFA42
:104E6000204601F015FA10BD10B50024DC4800788A
:104E7000012822D101F008FA0446DB480078002816
:104E800018DDD9480078401ED749087008460078D8
:104E900060B9D448007828B9204601F0F9F9FFF745
:104EA000B8FF0AE0204601F0F3F906E0204601F0E1
:104EB000EFF902E0204601F0EBF910BD10B5C8484B
:104EC000007890B9FFF7FEFEC8480078C84908701E
:104ED000C848C649097850F82100C7490860084603
:104EE0000068C749086001F0D6F910BD10B500246C
:104EF000022001F091F801F0C7F904460020C149F1
:104F00000860204601F0C4F9642001F085F801F042
:104F1000BBF90446BB480068BB4908600120BB4997
:104F20000870204601F0B4F910BD70B5002601F0FC
:104F3000AAF901F0A9F90646B5480068401CB44931
:104F40000860304601F0A4F9A5480078012858D13E
:104F5000B048007820B1012804D0022809D103E02C
:104F600001250BE0002509E001250120A949087071
:104F700004E001250020A749087000BF00BF05B963
:104F800070BDA548046838E001F07EF90646A08CA3
:104F900078B3A08C401E0004000CA08429D194F8A2
:104FA000260010F0370F09D014F8260F20F0370034
:104FB000207001206070A4F1260402E0002084F833
:104FC000270094F8260010F0080F12D104F12A04EB
:104FD000A0789249097840EA010090490870207849
:104FE0008F49085C617840EA010014F82A198C4A5C
:104FF00050546469304601F04BF994F828001F289A
:10500000C2D100BFBCE74FF48F707047704710B536
:1050100090F82A2001F10B039B5C90F82B40A343EE
:1050200001F10B04A35423469B5C23B98B7A90F8BF
:105030002C40A3438B7210BD2DE9F04F05460F465F
:1050400090469946A87A77490E5C05F10B00805D81
:1050500011F800B00BEBC60000F0FF0A654850F8ED
:105060002A40002004F12004A0802760A07920EAD3
:105070000800A07184F80790A079A4F1200410F032
:10508000080F0DD194F82C0064490978084363494E
:1050900008706348805D94F82B1008436049885578
:1050A00029462046FFF7B3FF5046BDE8F08F10B504
:1050B000534A1268D061524A126892F82A3000F1BD
:1050C0000B02D25C4E4B1B6893F82B301A434C4BAF
:1050D0001B6893F82A4000F10B031A55827A484B5B
:1050E0001B6893F82C301A438272454A126892F872
:1050F0002A104B4A525C424B1B6893F82B309A4360
:10510000474B5A541A46525C42B93D4A126892F8CB
:105110002C30424A12789A43404B1A7010BD00233B
:10512000837200F10B01002204E0002301F8013B2F
:10513000531CDAB2042AF8DB704705E011F8013B92
:1051400000F8013B531E9AB2002AF7DC70472DE9A4
:10515000F84F05460E4617469846DDE90BABDDF8DD
:1051600028900020009001F08FF800902E480468ED
:10517000002C7DD054F8140F2B490860009801F0E2
:1051800087F844F8146C25750020A074E074208220
:1051900044F810AC44F8089C44F80C7C24F804BC97
:1051A00024F8028C6076E810A07505F007006075A1
:1051B000A17D012088402076617D01208840E07536
:1051C0000020A060E060E06160622062A062E062B6
:1051D0003F2084F83000A4F114044FF0000125E0D2
:1051E000E2010020D9010020DA010020DC010020CA
:1051F000DB010020A4190020F0010020C4010020E0
:10520000E8010020E4010020D0010020D8010020A6
:1052100000020020F8010020F4010020DD01002040
:10522000DE01002030810008EC0100204FF0450035
:105230000155204601F026F8204600F0D1FF01F08C
:1052400023F800901A4840F825401A480068606129
:105250000020A0611748006810B1164800688461FA
:105260001448046004F12A04A0781349097800E086
:1052700019E040EA01001049087020780F49085CE5
:10528000617840EA010014F82A190C4A50540C487D
:10529000007800F101000A490870009800F0F8FF5A
:1052A0000020BDE8F88F009800F0F2FF4220F8E7F8
:1052B000A4190020F4010020DD010020DE010020FF
:1052C000E30100202DE9F04106460D464FF00008AD
:1052D0003078022804D0012028700020BDE8F08139
:1052E00000F0D2FF80467468E08A00280FDD216953
:1052F000081D20610F68E08A401EE082A1682069D5
:10530000884201D1606820610020287002E01F20DF
:1053100028700027404600F0BBFF3846DEE72DE945
:10532000F04106460F464FF00008FB480078002881
:1053300002DD0020BDE8F08100F0A6FF8046F748BE
:105340000468006820B1F54800684068F3490860C7
:10535000404600F09DFF0CB300F096FF8046F048F9
:105360000568E5B100680068ED490860404600F056
:105370008FFF6E6006EB8700A860EE602E61AF8243
:105380000020E882022020700020208165603F20FC
:10539000E073002121742046FFF7C1FE08E0DF48DA
:1053A00000686060DD480460404600F071FF002442
:1053B0002046BFE72DE9F0470446894615464FF0E1
:1053C000000A2078022804D0012028702046BDE879
:1053D000F087D1480078002803DD0F202870204690
:1053E000F5E700F051FF8246A07A10B14FF00108B6
:1053F00001E04FF00008B9F1000F03D0B9F1010F3F
:105400004DD123E0B8F1000F19D13F20E073002106
:1054100021746668C24800683060C1480660002098
:105420002070BE480068606000202081BB48046096
:10543000504600F02DFF00202870002705E0504660
:1054400000F026FF4920287027462FE005E00023C2
:10545000042219462046FFF7EFFDA07A0028F6D176
:105460003F20E073002121746668AD480068306019
:10547000AB48066000202070A848006860600020EB
:105480002081A6480460504600F002FFB8F1010FE9
:1054900001D1FFF7BEFC00202870002706E050462F
:1054A00000F0F6FE07202870274600BF00BF3846F0
:1054B0008DE770B50546002600F0E6FE06466C68EE
:1054C0006068E060606820610020E082304600F0A3
:1054D000DFFE002070BD2DE9F047074688461546DF
:1054E0004FF000093878022804D0012028700020ED
:1054F000BDE8F08788480078002803DD0220287086
:105500000020F5E787480078002803DD0D2028708B
:105510000020EDE700F0B8FE81467C68E08A0028B4
:1055200013DD2169081D20610E68E08A401EE082BB
:10553000A1682069884201D160682061484600F076
:10554000A7FE002028703046D2E77748006890F820
:10555000260040F004007449096881F82600002004
:105560007149096881F827006F480068A0F8248015
:105570003846FFF79CFD484600F08AFEFFF749FCDD
:1055800000F082FE81466848006890F8270020B14C
:1055900001280DD002280AD105E063480068066A98
:1055A000002028700DE000260E20287009E000BFC2
:1055B00039465D480068FFF72AFD00260A2028705A
:1055C00000BF00BF00205849096881F826005649ED
:1055D000096881F8270054490968C8615249096877
:1055E0000862484600F054FE304681E72DE9F0415C
:1055F00004460F4615464FF000082078022804D0D4
:10560000012028700020BDE8F08100F03DFE8046BA
:10561000A07A20B300267FB1012F0CD107E002232E
:10562000042200212046FFF707FD701CC6B2A07AB5
:105630000028F4D109E000BF022304220021204603
:10564000FFF7FAFC701CC6B200BF00BF404600F076
:105650001FFEFFF7DEFB0E2028703046D3E74046E2
:1056600000F016FE0020287000BFCCE72DE9F041C5
:1056700005460E4600272878022802D00120BDE802
:10568000F08100F001FE0746A87A60B100230422F1
:1056900031462846FFF7D0FC384600F0F9FDFFF709
:1056A000B8FB0020EBE76C68E08AA18A884204DB43
:1056B000384600F0EDFD1E20E1E7E168081DE060DE
:1056C0000E60E08A401CE082D4E90210884201D1D9
:1056D0006068E060384600F0DBFD0020CFE72DE990
:1056E000F04105460E4600272878022802D0012006
:1056F000BDE8F08100F0C8FD0746A87AB0B10023EC
:10570000042231462846FFF797FC384600F0C0FDDA
:10571000FFF77FFB0020EBE7D9010020C801002044
:10572000FC010020DA010020E80100206C68E08A1A
:10573000A18A884204DB384600F0AAFD1E20D7E784
:1057400061682069884201D1A06820612069001F3A
:10575000206120690660E08A401CE082384600F043
:1057600097FD0020C4E72DE9F04105460F46164697
:105770004FF000082878022802D00120BDE8F0810F
:1057800000F082FD8046A87AE8B116F0010F0AD039
:1057900005E00023042239462846FFF74DFCA87A8D
:1057A0000028F6D105E00023042239462846FFF7F9
:1057B00043FC404600F06CFD16F0040F01D1FFF7EA
:1057C00028FB0020DAE76C68E08AA18A884204DBC3
:1057D000404600F05DFD1E20D0E716F0020F0BD012
:1057E00061682069884201D1A06820612069001F9A
:1057F00020612069076009E0E168081DE0600F6032
:10580000D4E90210884201D16068E060E08A401C5F
:10581000E082404600F03CFD0020AFE72DE9F04774
:1058200005460C464FF0000A2878022802D00120D5
:10583000BDE8F08700F028FD8246A87A207305F1C4
:105840000B0804F10809002705E018F8010B09F816
:10585000010B781CC7B2042FF7DB6E68F08A0028B2
:1058600003DD30690068206001E000202060F08ADC
:10587000A080B08AE080504600F00AFD0020D7E703
:1058800070B560210A48FFF777F9094C04F1180652
:10589000002504E0266018341836681C85B2032DF4
:1058A000F8DB0020206002480249086070BD00005B
:1058B0000C200020FC0100202DE9FF5F8146884676
:1058C0000020009000F0E0FC0090FA4850F828001A
:1058D00030B1009800F0DCFC282004B0BDE8F09F57
:1058E000B9F1FF0F03D1F448006890F82890F1480F
:1058F00050F8294024B9009800F0CAFC2920ECE7B0
:10590000012C04D1009800F0C3FC4320E5E74FEAE6
:10591000E80708F0070003900120B84000F0FF0AF4
:1059200001210398814001F0FF0B0020E14941F87B
:105930002900084640F8284014F82A6FA078029001
:105940006078A4F12A040190DC48815D019801424D
:105950001AD0DA48805D01998843D84988550846AD
:10596000805D28B9D648007802998843D4490870E8
:10597000D348007840EA0A00D1490870CF48C05D9A
:1059800040EA0B00CD49C855E569D5B105F10B00DA
:10599000805D0199884305F10B0188550846805DBB
:1059A00018B9A87A02998843A872A87A40EA0A002E
:1059B000A87205F10B00C05D40EA0B0005F10B0178
:1059C000C85584F8288084F82A70039884F8290040
:1059D00084F82CA084F82BB0009800F059FCB9484A
:1059E0000078012801D1FFF714FA002075E72DE9AE
:1059F000FE4F06460F4690461C464FF0000900F049
:105A000043FC8146B0480078002805DD484600F098
:105A10003FFC3C20BDE8FE8FA64850F8240060BB48
:105A20000120A44941F82400484600F031FC00233D
:105A300042463946304600F0D7FB824600200090AF
:105A4000019003460246514602902046FFF77FFB35
:105A5000054635B99B48007801280CD1FFF7D9F9E4
:105A600009E000F011FC81460020924941F8240031
:105A7000484600F00DFC2846CCE7484600F008FCFC
:105A80002820C7E712F0010F08D012F0020F05D04E
:105A900002E0491E002308C00029FAD170472DE911
:105AA000F04F85B081468A4693461C46DDE90F7863
:105AB000129D0020039000F0E7FB039082480078DD
:105AC000002806DD039800F0E3FB3C2005B0BDE8AC
:105AD000F08F784850F8240088BB0120754941F8C0
