:020000040800F2
:10000000D83F002045010008612300086323000851
:10001000672300086B2300086F230008000000001E
:100020000000000000000000000000007323000832
:100030007523000800000000277B000879230008D2
:100040005F0100085F0100085F0100085F01000810
:100050005F0100085F0100085F0100085F01000800
:100060005F0100085F0100085F0100085F010008F0
:100070005F0100085F0100085F0100085F010008E0
:100080005F0100085F0100085F0100085F010008D0
:100090005F0100085F0100085F0100085F010008C0
:1000A0005F0100085F0100085F0100085F010008B0
:1000B000813200085F0100085F0100085F0100084D
:1000C0005F0100085F0100085F0100085F01000890
:1000D0005F010008E5360008B32E0008B9270008C4
:1000E0005F0100085F0100085F0100085F01000870
:1000F0005F0100085F0100085F0100085F01000860
:100100005F0100085F0100085F0100085F0100084F
:100110005F0100085F0100085F01000889230008F3
:100120005F0100085F0100085F0100085F0100082F
:10013000DFF80CD008F054FD004800470523000804
:10014000D83F00200648804706480047FEE7FEE704
:10015000FEE7FEE7FEE7FEE7FEE7FEE7FEE7FEE777
:1001600047020008310100080CB500200190009002
:100170006C48006840F480306A49086000BF6948F4
:10018000006800F4003000900198401C0190009835
:1001900018B90198B0F5A06FF1D16248006800F479
:1001A000003010B10120009001E000200090009884
:1001B000012843D15C48006840F010005A490860AB
:1001C0000846006820F0030008600846006840F018
:1001D0000200086053484068524948600846406839
:1001E00048600846406840F48060486008464068BF
:1001F00020F47C1048600846406840F4E8104860ED
:100200000846006840F08070086000BF45480068FC
:1002100000F000700028F9D04248406820F0030048
:10022000404948600846406840F00200486000BF0E
:100230003C48406800F00C000828F9D10CBD10B50E
:10024000FFF792FF10BD10B53648006840F001007E
:1002500034490860084640683449084031494860DC
:1002600008460068324908402E4908600846006880
:1002700020F4802008600846406820F4FE004860B2
:100280004FF41F008860FFF7DAFF4FF00060294944
:10029000086010BD10B5002100200022214B5B68D2
:1002A00003F00C0121B1042906D0082928D107E068
:1002B000214B224C236027E01F4B204C236023E07E
:1002C000184B5B6803F47010164B5B6803F48032C4
:1002D000022303EB904022B9194B4343174C236090
:1002E0000DE0104B5B6803F4003323B1144B434320
:1002F000124C236003E0104B4343104C236003E097
:100300000D4B0E4C236000BF00BF064B5B68C3F370
:1003100003130C4CE15C094B1B68CB40074C23607A
:1003200010BD000000100240002002400000FFF855
:10033000FFFFF6FE08ED00E000127A00000000204A
:1003400000093D000400002031490143314A116099
:10035000704770B5002100230F22C47804B32D4CE0
:10036000246804F4E064C4F5E064210AC1F10403E4
:10037000CA40447804FA03F1847814402143090107
:10038000254C0678A155047804F01F050124AC40E3
:1003900005786D11AD0005F1E025C5F8004109E0D3
:1003A000047804F01F050124AC401C4D067876113A
:1003B00045F8264070BD1A4A0A400243154B1B1FE0
:1003C0001A60704739B1134A121D12680243114B6B
:1003D0001B1D1A6006E00F4A121D126882430D4B66
:1003E0001B1D1A607047042808D14FF0E0210969ED
:1003F00041F004014FF0E022116107E04FF0E021ED
:10040000096921F004014FF0E022116170470000FA
:100410000000FA050CED00E000E400E080E100E0FF
:1004200080FFFF1F01460020FE4A106800F03800E0
:10043000084310607047FB49096821F00801F94A38
:10044000116011460968014311607047F549096858
:1004500021F01001F34A116011460968014311604F
:100460007047F148EF494860F04848607047EE48EF
:10047000EC494860ED4848607047EA48006940F040
:100480008000E84908617047E648006940F0800054
:10049000E449086170470420E249C96801F001019C
:1004A00009B101200EE0DF49C96801F0040109B17A
:1004B000022007E0DB49C96801F0100109B10320FF
:1004C00000E00420704700B502460423FFF7E3FF75
:1004D000034603E0FFF7DFFF0346521E012B01D165
:1004E000002AF7D102B90523184600BD30B50446ED
:1004F00004254FF43020FFF7E6FF0546042D17D101
:10050000C848006940F00200C649086108464461D5
:10051000006940F0400008614FF43020FFF7D3FF3E
:100520000546C048006941F6FD710840BD490861B3
:10053000284630BD10B504244FF43020FFF7C3FF28
:100540000446042C16D1B748006940F00400B549B0
:1005500008610846006940F0400008614FF430200F
:10056000FFF7B1FF0446AF48006941F6FB71084050
:10057000AC490861204610BD00B502460423FFF7D0
:100580008AFF034603E0FFF786FF0346521E012B56
:1005900001D1002AF7D102B90523184600BD10B5D4
:1005A00004244FF43020FFF7E7FF0446042C16D153
:1005B0009C48006940F004009A49086108460069B7
:1005C00040F0400008614FF43020FFF7D5FF0446AB
:1005D0009448006941F6FB71084092490861204641
:1005E00010BD00208F49C96901F0020109B1012045
:1005F00000E00020704730B5A5250424FFF7F1FF87
:1006000000B100254FF43020FFF75DFF0446042CB5
:100610003AD18548834988608448886008460069E3
:1006200040F0200008610846006940F04000086181
:100630004FF43020FFF747FF0446042C1BD17948C4
:10064000006941F6DF710840764908610846006993
:1006500040F01000086176480580E002FFF733FFA4
:100660000446052C10D06F48006941F6EF71084030
:100670006C49086108E0052C06D06A48006941F61B
:10068000EF71084067490861204630BD78B50646DD
:100690000C46042500200090E802FFF714FF0546F1
:1006A000042D24D15F48006940F001005D490861D4
:1006B0003480E802FFF707FF0546042D10D1B01C77
:1006C0000090200C00990880E802FFF7FCFE054628
:1006D0005448006941F6FE7108405249086106E03D
:1006E0005048006941F6FE7108404E4908612846AD
:1006F00078BD70B504460D460426F002FFF7E3FE10
:100700000646042E11D14748006940F001004549D2
:1007100008612580F002FFF7D6FE064641480069D1
:1007200041F6FE7108403F490861304670BD70B522
:1007300005460E460424E002FFF7C5FE0446042CDD
:1007400017D13948374988603848886008460069B9
:1007500040F0100008612E80E002FFF7B4FE04466E
:10076000052C06D02F48006941F6EF7108402D494D
:100770000861204670BD2DE9F04304464FF6FF7630
:100780003746B046B1460425E443E6B2C4F3072732
:10079000C4F307484FEA1469E802FFF794FE0546E0
:1007A000042D49D120481F498860204888600846A8
:1007B000006940F010000861FF2E06D01C48083088
:1007C0000680E802FFF77FFE0546042D08D1FF2FC3
:1007D00006D017480A300780E802FFF774FE054686
:1007E000042D0AD1B8F1FF0F07D011480C30A0F842
:1007F0000080E802FFF767FE0546042D0AD1B9F133
:10080000FF0F07D00A480E30A0F80090E802FFF76B
:100810005AFE0546052D0FD00248006941F6EF71DA
:10082000084007E00020024023016745AB89EFCD77
:1008300000F8FF1F664908612846BDE8F08330B51F
:10084000054604244FF43020FFF73DFE0446042CF7
:1008500041D160485E4988605F4888600846006909
:1008600040F0200008610846006940F0400008613F
:100870004FF43020FFF727FE0446042C22D15448C1
:10088000006941F6DF710840514908610846006976
:1008900040F0100008611DB100205049088002E0BE
:1008A000A5204E4908804FF43020FFF70CFE044687
:1008B000052C10D04648006941F6EF7108404449C4
:1008C000086108E0052C06D04148006941F6DF7157
:1008D00008403F490861204630BDF0B505460E4648
:1008E000174604243B483A4988603B488860E00248
:1008F000FFF7E9FD0446042C19D13548006940F0A2
:1009000010003349086147F0F80030432843334969
:10091000891C0880E002FFF7D6FD0446052C06D0AE
:100920002B48006941F6EF710840294908612046CB
:10093000F0BD2748C069800870472548006A7047A5
:1009400000202349096801F0200109B1012000E0DD
:100950000020704729B11E4A126902431C4B1A61DC
:1009600004E01B4A12698243194B1A617047014621
:100970000020012908D1164AD26902F001020AB109
:10098000012008E0002006E0114AD2680A400AB1BE
:10099000012000E0002070470D49C8607047042026
:1009A0000B49C96801F0010109B101200EE00849B5
:1009B000C96801F0040109B1022007E00449C968CF
:1009C00001F0100109B1032000E00420704700008D
:1009D0000020024023016745AB89EFCD00F8FF1FDF
:1009E00010B50446CC48844208D10121042000F00F
:1009F0002DFB0021042000F029FB46E0C74884427B
:100A000008D10121082000F021FB0021082000F07E
:100A10001DFB3AE0C248844208D10121102000F0B9
:100A200015FB0021102000F011FB2EE0BD48844290
:100A300008D10121202000F009FB0021202000F036
:100A400005FB22E0B848844208D10121402000F093
:100A5000FDFA0021402000F0F9FA16E0B348844284
:100A600008D10121802000F0F1FA0021802000F05F
:100A7000EDFA0AE0AE48844207D10121801500F06A
:100A8000E5FA0021A01500F0E1FA10BD10B5012132
:100A9000084600F0DBFA0021012000F0D7FA10BD73
:100AA0002DE9F04102460025002600200023002405
:100AB000002791F803C00CF00F0591F803C00CF06B
:100AC000100CBCF1000F03D091F802C04CEA0505F0
:100AD00091F800C0BCF1000F31D0146800202BE069
:100AE0004FF0010C0CFA00F3B1F800C00CEA030659
:100AF0009E4220D183004FF00F0C0CFA03F7BC4349
:100B000005FA03FC4CEA040491F803C0BCF1280F79
:100B100006D14FF0010C0CFA00FCC2F814C00AE038
:100B200091F803C0BCF1480F05D14FF0010C0CFA4D
:100B300000FCC2F810C0401C0828D1D31460B1F8E2
:100B400000C0BCF1FF0F34DD546800202EE000F13E
:100B5000080C4FF0010808FA0CF3B1F800C00CEAD9
:100B600003069E4221D183004FF00F0C0CFA03F7CD
:100B7000BC4305FA03FC4CEA040491F803C0BCF141
:100B8000280F05D100F1080C08FA0CF8C2F81480FF
:100B900091F803C0BCF1480F07D100F1080C4FF0E9
:100BA000010808FA0CF8C2F81080401C0828CED3BF
:100BB0005460BDE8F0814FF6FF7101800221817021
:100BC0000421C17070470246002093680B400BB1AE
:100BD000012000E0002070470146886880B270471D
:100BE00002460020D3680B400BB1012000E000203A
:100BF00070470146C86880B2704701617047416123
:100C000070470AB1016100E041617047C1607047FF
:100C10004FF480320A438261816182618269826914
:100C2000704702460020434B18684FF68073184007
:100C300040EA021008433F4B186070473E49C861C4
:100C40007047F0B50A46002300240021002500F07B
:100C50000046B6F1004F02D1364EF16901E0354E43
:100C60007168C0F3034583B200F44016B6F5401F27
:100C700008D121F070612F4E766826F070662D4FF6
:100C80007E6012E000F48016B6F5801F06D10326C0
:100C900006FA05F4A14341F0706106E0460D360105
:100CA00003FA06F6B14341F0706122B1460D3601F8
:100CB00003FA06F6314300F00046B6F1004F02D1C8
:100CC0001C4EF16101E01B4E7160F0BD30B5002299
:100CD0008B071C0F0F2303FA04F2164B08338C10FA
:100CE00053F824309343134C08348D1044F82530C6
:100CF00023468C1053F824308C07240F00FA04F498
:100D000023430C4C08348D1044F8253030BD0A497B
:100D1000DC3108607047000000080140000C014011
:100D2000001001400014014000180140001C014067
:100D3000002001400000014000002042DF48006820
:100D400040F00100DD49086008464068DC49084081
:100D5000DA49486008460068DA490840D74908601F
:100D60000846006820F4802008600846406820F4A7
:100D7000FE0048604FF41F0088607047CF49096843
:100D800021F48031CD4A11601146096821F4802197
:100D90001160B0F5803F03D0B0F5802F0ED106E092
:100DA000C649096841F48031C44A116007E0C3496B
:100DB000096841F4A021C14A116000E000BF00BFF2
:100DC000704710B501460022002300204A11012A75
:100DD00002D1BA4C236806E0022A02D1B74C236A3A
:100DE00001E0B64C636A01F01F02012494401C40EC
:100DF0000CB1012000E0002010BD38B500200090AB
:100E00000024002500BF3120FFF7DBFF05460098D6
:100E1000401C00900098B0F5A06F01D0002DF2D0DA
:100E20003120FFF7CEFF08B1012400E00024204666
:100E300038BD01460020A14A106820F0F80040EAC1
:100E4000C10010607047A04908607047024600204A
:100E50009A4B586820F47C1042EA01031843974BE0
:100E60005860704798490866704701460020934AC9
:100E7000506820F003000843506070478F48406876
:100E800000F00C007047014600208C4A506820F0AA
:100E9000F00008435060704701460020874A5068C0
:100EA00020F4E06008435060704701460020834A08
:100EB000506820F4605040EAC1005060704729B18A
:100EC0007E4A527A02437D4B5A7204E07B4A527A40
:100ED00082437A4B5A7270477B49D8310860704719
:100EE00001460020754A506820F440400843506095
:100EF00070470021714A20321170704A82F8201028
:100F0000012802D004280AD104E001216B4A2032D2
:100F1000117005E00521694A2032117000E000BF20
:100F200000BF70476949086070476449096A014316
:100F3000624A11627047654944390860704730B5AC
:100F400000210022002400235C4D6D6805F00C0197
:100F500021B1042905D0082923D105E05C4D0560A5
:100F600022E05B4D05601FE0544D6D6805F4701282
:100F7000524D6D6805F48034022505EB92421CB990
:100F8000544D554305600BE04C4D6D6805F400353C
:100F90001DB1504D5543056002E04D4D5543056070
:100FA00002E04B4D056000BF00BF444D6D6805F089
:100FB000F0010909484D6B5C0568DD4045603F4D17
:100FC0006D6805F4E061090A434D6B5C4568DD40DE
:100FD00085603A4D6D6805F46051C90A3E4D6B5C01
:100FE0004568DD40C560354D6D6805F44041890BAD
:100FF0003A4D6B5CC568B5FBF3F5056130BD29B1B1
:101000002E4A526902432D4B5A6104E02B4A526921
:1010100082432A4B5A61704729B1284A9269024398
:10102000264B9A6104E0254A92698243234B9A61D8
:10103000704729B1214AD2690243204BDA6104E0AA
:101040001E4AD26982431D4BDA61704729B11B4A9F
:10105000D2680243194BDA6004E0184AD26882432E
:10106000164BDA60704729B1144A12690243134BD8
:101070001A6104E0114A12698243104B1A617047E9
:1010800012494039086070470F49C86470470B49DE
:10109000C87170470948406A40F08070074948624B
:1010A000704701460020054A92680A400AB10120B3
:1010B00000E000207047014988727047001002402C
:1010C0000000FFF8FFFFF6FE0000424280044242AB
:1010D00000127A0000093D001400002024000020C6
:1010E00010B50446FE48844208D10121C014FFF720
:1010F000ADFF0021E014FFF7A9FFC4E0B4F1804F79
:1011000008D101210846FFF7AEFF00210120FFF7BB
:10111000AAFFB8E0F348844208D101210220FFF77A
:10112000A2FF00210220FFF79EFFACE0EE488442C0
:1011300008D101210420FFF796FF00210420FFF7CA
:1011400092FFA0E0E948844208D101210820FFF77E
:101150008AFF00210820FFF786FF94E0E4488442DC
:1011600008D101211020FFF77EFF00211020FFF79A
:101170007AFF88E0DF48844208D101212020FFF770
:1011800072FF00212020FFF76EFF7CE0DA488442E6
:1011900008D101214014FFF759FF00216014FFF727
:1011A00055FF70E0D548844209D10121C804FFF7FA
:1011B0004DFF00214FF40020FFF748FF63E0D048C7
:1011C000844209D101210805FFF740FF00214FF4B7
:1011D0008010FFF73BFF56E0CA48844209D1012145
:1011E0004805FFF733FF00214FF40010FFF72EFFF3
:1011F00049E0C548844208D101214020FFF733FF70
:1012000000214020FFF72FFF3DE0C048844208D175
:1012100001218020FFF727FF00218020FFF723FF17
:1012200031E0BB48844208D101218015FFF71BFF44
:101230000021A015FFF717FF25E0B648844209D129
:1012400001210804FFF702FF00214FF48030FFF76F
:10125000FDFE18E0B048844209D101214804FFF79F
:10126000F5FE00214FF40030FFF7F0FE0BE0AB4835
:10127000844208D101218804FFF7E8FE00214FF4E1
:101280008020FFF7E3FE10BD00220288944B9842B5
:101290000ED0994B98420BD0B0F1804F08D0914BB3
:1012A000984205D0904B984202D0904B984204D17E
:1012B0004FF68F731A404B881A438D4B984207D0D4
:1012C0008C4B984204D04FF6FF431A40CB881A4308
:1012D00002808B8883850B880385814B98420BD0D5
:1012E000854B984208D08B4B984205D08A4B984248
:1012F00002D08A4B984201D10B7A03860123838264
:10130000704770B5002400220023058C4FF6FE764E
:1013100035400584028C8388048B4FF68F752C40F2
:10132000B51E2C400D882C43751E2A400D892A437A
:101330004D882A436A4DA8420BD06F4DA84208D071
:10134000744DA84205D0744DA84202D0734DA842F6
:1013500013D14FF6F7752A404D892A434FF6FB7596
:101360002A408D882A434FF6FF652B404FF6FF55E4
:101370002B408D892B43CD892B4383800483CD88DB
:101380008586028470BD70B5002400220023058C80
:101390004FF6EF7635400584028C8388048B48F63F
:1013A000FF752C404FF6FF452C400D884FF6FF7619
:1013B00006EA05252C434FF6DF752A400D8906EA1B
:1013C00005152A434D8806EA05152A43444DA842CF
:1013D00002D0494DA8421DD14FF67F752A404D8954
:1013E0004FF6FF7606EA05152A434FF6BF752A40E9
:1013F0008D8806EA05152A434FF6FF352B404FF23C
:10140000FF752B408D8906EA85052B43CD8906EAB9
:1014100085052B4383800483CD880587028470BDB6
:1014200070B5002400220023058C4FF6FF6635407E
:101430000584028C8388848B4FF68F752C404FF681
:10144000FC752C400D882C434FF6FF552A400D8922
:101450004FF6FF7606EA05252A434D8806EA05255C
:101460002A431F4DA84202D0234DA8421DD14FF25E
:10147000FF752A404D894FF6FF7606EA05252A4377
:101480004FF6FF352A408D8806EA05252A434EF699
:10149000FF752B404DF6FF752B408D8906EA05152B
:1014A0002B43CD8906EA05152B4383808483CD88A1
:1014B0008587028470BD70B5002200230024058C4E
:1014C0004EF6FF7635400584038C8488828B48F67F
:1014D000FF752A404FF6FF452A400D8820E00000A6
:1014E000002C01400004004000080040000C0040B7
:1014F000001000400014004000340140004C014046
:10150000005001400054014000180040001C004001
:1015100000200040004001400044014000480140DC
:101520004FF6FF7606EA05252A434DF6FF752B4058
:101530000D8906EA05352B434D8806EA05352B4310
:10154000FA4DA84202D0FA4DA84208D14BF6FF75D9
:101550002C408D894FF6FF7606EA85152C43848052
:101560008283CD88A0F84050038470BD828B4FF2F7
:10157000FF331A408283828B4FF6FF7303EA012305
:101580001A4382837047F0B50C46154600220021AD
:101590000026078C4EF6FF7C07EA0C070784828B37
:1015A000018C4FF6FF7707EA043640F6FF473A40D2
:1015B0004FF6FF7707EA05273A434FF6FF7707EA2A
:1015C00003373A43D94FB8420ED0D94FB8420BD067
:1015D000B0F1804F08D0D74FB84205D0D64FB842AF
:1015E00002D0D64FB84206D14DF6FF77394046F4C7
:1015F0008057394305E047F6FF57394044F4805798
:10160000394382830184F0BD828B4FF6F3731A4015
:101610008283828B0A4382837047F0B50C4615465D
:10162000002200210026078C4FF6FF6C07EA0C070A
:101630000784828B018C4FF6FF7707EA04264FF66A
:101640000C773A404FF6FF7707EA03172F433A43E8
:10165000B64FB8420ED0B64FB8420BD0B0F1804F63
:1016600008D0B44FB84205D0B34FB84202D0B34F00
:10167000B84206D14FF6FF57394046F480773943D8
:1016800005E04FF2FF57394044F4807739438283B5
:101690000184F0BD028B4FF2FF331A400283028BAC
:1016A0004FF6FF7303EA01231A4302837047F0B534
:1016B0000C461546002200210026078C4FF6EF7CD1
:1016C00007EA0C070784028B018C4FF6FF7707EAC5
:1016D000041640F6FF473A404FF6FF7707EA033714
:1016E0003A434FF6FF7707EA05273A438F4FB84250
:1016F0000ED08F4FB8420BD0B0F1804F08D08D4F35
:10170000B84205D08C4FB84202D08C4FB84206D1B7
:101710004FF6DF77394046F01007394305E04FF6C2
:101720005F77394044F01007394302830184F0BDEC
:10173000028B4FF6F3731A400283028B0A43028333
:101740007047F0B50C46154600220021068C4FF676
:10175000FE773E400684028B018C4FF60C763240B9
:101760007E1C06EA03162E433243704EB0420ED062
:101770006F4EB0420BD0B0F1804F08D06D4EB042EA
:1017800005D06D4EB04202D06C4EB04206D14FF63D
:10179000FD76314044F00106314305E04FF6F57621
:1017A000314044F00106314302830184F0BD70B53D
:1017B00005460C465D4885420ED05D4885420BD0FB
:1017C000B5F1804F08D05B48854205D05A48854224
:1017D00002D05A48854200D100E000BF208850B9AD
:1017E0002389A28861882846FFF7ABFFE188284655
:1017F000FFF79EFF25E0208804280AD12389A288CC
:1018000061882846FFF753FFE1882846FFF742FF2B
:1018100017E0208808280AD12389A28861882846F1
:10182000FFF7FBFEE1882846FFF7EEFE09E023897B
:10183000A28861882846FFF7A6FEE1882846FFF7C0
:1018400095FE70BD2DE9F04105460C4600260127A6
:10185000608808B9022600E00026A088012801D18E
:10186000022700E001272088A0B92389A288618887
:101870002846FFF766FFE1882846FFF759FF2389CE
:101880003A4631462846FFF712FFE1882846FFF71F
:1018900001FF13E02389A28861882846FFF707FF2C
:1018A000E1882846FFF7F6FE23893A463146284666
:1018B000FFF747FFE1882846FFF73AFFBDE8F081D0
:1018C0000A884B881A438B881A43CB881A430B89A2
:1018D0001A434B891A438B891A43A0F84420704756
:1018E0004FF6FF71818000210180C180418001722B
:1018F00070470021018041808180C1800181418148
:101900008181C18170470021018041800121818056
:101910000021C180018170470021018041808180C8
:10192000C18001814181818170470000002C01400C
:10193000003401400004004000080040000C00405A
:1019400021B1028842F00102028004E002884FF6D1
:10195000FE731A400280704731B1B0F8442042F45F
:101960000042A0F8442005E0B0F84420C2F30E0283
:10197000A0F8442070471AB183890B43838102E0A9
:1019800083898B43838170478182704741EA0203D8
:10199000A0F8483070471AB183890B43838102E075
:1019A00083898B438381704701894FF6F872114018
:1019B000018170470A46002101894FF68F73194053
:1019C00011430181704730B504460D462946204633
:1019D000FFF7F0FF208940F00700208130BD2DE99E
:1019E000F04104460D4616461F46602D06D13B4683
:1019F000012231462046FFF75AFE05E03B46012210
:101A000031462046FFF79DFE29462046FFF7D2FFCC
:101A1000208940F007002081BDE8F08130B50C46F8
:101A200000210189C9B24FF6FF7505EA0325154368
:101A300025432943018130BD2DE9F04105460E467D
:101A400017469846002443463A4631462846FFF753
:101A5000E5FF2C894FF6F870044044F007044FF678
:101A60008F70044044F070042C81BDE8F081F0B523
:101A700004460D4616461F463B463246294620463A
:101A8000FFF7CCFF208940F480402081F0BD018524
:101A9000828270470A46002101884FF68F731940F1
:101AA000114301807047F0B50C4615461E460021D3
:101AB000002200230189028B038C4FF6F87739400E
:101AC00021434FF6FC473A4040F201173A434FF6A4
:101AD000DD773B404FF6FF7707EA06172F433B437E
:101AE000018102830384F0BD0A460021018B4FF679
:101AF0008F7319401143018370470A460021018BFF
:101B000048F6FF7319404FF6FF7303EA02231943A7
:101B1000018370470A460021818B4FF68F7319406D
:101B20001143818370470A460021818B48F6FF7379
:101B300019404FF6FF7303EA02231943818370476C
:101B400021B1028842F08002028004E002884FF650
:101B50007F731A400280704721B1828842F00402EC
:101B6000828004E082884FF6FB731A4082807047BF
:101B700021B1828842F00802828004E082884FF618
:101B8000F7731A408280704721B1828842F00102C7
:101B9000828004E082884FF6FE731A40828070478C
:101BA0000A460021018B4FF6F77319401143018358
:101BB00070470A460021018B4FF2FF7319404FF620
:101BC000FF7303EA02231943018370470A46002189
:101BD000818B4FF6F77319401143818370470A4692
:101BE0000021818B4FF2FF7319404FF6FF7303EA18
:101BF00002231943818370470A460021018B4FF667
:101C0000FB7319401143018370470A460021018B81
:101C10004FF6FF3319404FF6FF7303EA02231943CF
:101C2000018370470A460021818B4FF6FB731940F0
:101C30001143818370470A460021818B4FF6FF33A1
:101C400019404FF6FF7303EA02231943818370475B
:101C50000A460021018B4FF67F731940114301831F
:101C600070470A460021018BC1F30E014FF6FF7346
:101C700003EA02231943018370470A460021818B3E
:101C80004FF67F7319401143818370470A46002144
:101C9000818BC1F30E014FF6FF7303EA0223194350
:101CA000818370470A460021018C4FF6FD7319406D
:101CB0001143018470470A460021018C4FF6F773E7
:101CC00019401143018470470A460021018C4FF6E8
:101CD000DF7319404FF6FF7303EA021319430184BF
:101CE00070470A460021018C4FF67F7319404FF66A
:101CF000FF7303EA02131943018470470A46002167
:101D0000018C4FF6FF5319404FF6FF7303EA02238D
:101D10001943018470470A460021018C4FF2FF737A
:101D200019404FF6FF7303EA0223194301847047F9
:101D30000A460021018C4DF6FF7319404FF6FF73E0
:101D400003EA023319430184704730B500230124AC
:101D50008C40A3B2048C9C430484048C02FA01F5E9
:101D6000ADB22C43048430BD30B5002304248C4034
:101D7000A3B2048C9C430484048C02FA01F5ADB236
:101D80002C43048430BD70B503460020002418465F
:101D9000183001258D40ACB21D8CA5431D8409B1BE
:101DA000082909D100EB6100056825F07005056080
:101DB0000568154305600EE00D1FC5F34E05284468
:101DC000056825F4E045056005684FF6FF7606EAEC
:101DD00002263543056070BD21B1028842F002023F
:101DE000028004E002884FF6FD731A4002807047BB
:101DF00021B1028842F00402028004E002884FF61A
:101E0000FB731A400280704721B1828842F0800241
:101E1000828004E082884FF67F731A408280704788
:101E200002884FF6F7731A40028002880A43028044
:101E3000704782884FF68F731A40828082880A43E7
:101E40008280704702894FF6F8731A400281028936
:101E50000A430281704702894FF67F731A4002815C
:101E600002890A43028170478184704781857047E7
:101E7000818670470187704781877047A0F84010BE
:101E8000704702884FF6FF431A40028002880A43D7
:101E9000028070470146888E70470146088F704760
:101EA0000146888F70470146B1F8400070470146EF
:101EB000888C70470146088D704702460020138ABF
:101EC0000B400BB1012000E000207047CA430282A2
:101ED000704730B50246002000230024158A05EA29
:101EE0000103958905EA010413B10CB1012000E05A
:101EF000002030BDCA4302827047000010B504467E
:101F0000FB48844209D101218803FFF79FF8002193
:101F10004FF48040FFF79AF832E0F648844209D146
:101F200001214804FFF79FF800214FF40030FFF72C
:101F30009AF825E0F048844209D101218804FFF78E
:101F400092F800214FF48020FFF78DF818E0EB485D
:101F5000844209D10121C804FFF785F800214FF41C
:101F60000020FFF780F80BE0E548844208D101210A
:101F70000805FFF778F800214FF48010FFF773F899
:101F800010BD2DE9F04786B005460E460024A24656
:101F900000BFA1460027B08900B100BF2F462C8AA0
:101FA0004CF6FF700440F08804432C82AC894EF656
:101FB000F3100440B0883189084371890843044311
:101FC000AC81AC8A4FF6FF400440B0890443AC8238
:101FD00001A8FEF7B4FFC648874202D1DDF810A081
:101FE00001E0DDF80CA0A88900F4004040B10AEB44
:101FF000CA0000EB0A1031684900B0FBF1F807E0B5
:102000000AEBCA0000EB0A1031688900B0FBF1F856
:102010006420B8FBF0F004012009642101FB108961
:10202000A88900F4004040B1322000EBC900B0FBA9
:10203000F1F000F00700044308E0322000EB091043
:102040006421B0FBF1F000F00F0004432C8106B0D6
:10205000BDE8F0874FF41651016000218180C180F6
:1020600001810C21418100218181704710B5024618
:102070000020108A4FF2FF0318400B884C8823433E
:102080008C882343CC8823431843108210BD002141
:10209000018041808180C180704721B1828942F4F2
:1020A0000052828104E082894DF6FF731A408281DA
:1020B0007047F0B50346002400260025002040F6B6
:1020C0006A17B94200D100BF1846C1F3421401F0AB
:1020D0001F06012707FA06F5012C01D10C3004E098
:1020E000022C01D1103000E014301AB107682F43E0
:1020F000076002E00768AF430760F0BD1AB1838A4A
:102100000B43838202E0838A8B4383827047028A77
:102110004FF6F0731A400282028A0A430282704725
:1021200082894FF2FF731A40828182890A43828139
:10213000704721B1828942F00202828104E08289E3
:102140004FF6FD731A4082817047028A4FF6DF73A3
:102150001A400282028A0A430282704721B1028A2F
:1021600042F48042028204E0028A4BF6FF731A4076
:1021700002827047C1F30802828070470146888856
:10218000C0F308007047818941F0010181817047E7
:10219000028BD2B20283028B42EA01220283704791
:1021A000028B02F47F420283028B0A430283704750
:1021B00021B1828A42F02002828204E0828A4FF6B4
:1021C000DF731A408282704721B1828A42F0100286
:1021D000828204E0828A4FF6EF731A40828270474F
:1021E00021B1828A42F00802828204E0828A4FF69C
:1021F000F7731A408282704721B1828942F400420B
:10220000828103E08289C2F30E028281704721B18C
:10221000828A42F40062828204E0828A4FF2FF7373
:102220001A4082827047828A4FF6FB731A4082827C
:10223000828A0A438282704721B1828A42F0020276
:10224000828204E0828A4FF6FD731A4082827047D0
:1022500002460020B1F5007F00D100BF13880B407B
:102260000BB1012000E00020704701F40072B2F5CC
:10227000007F00D100BFCA430280704770B502469C
:10228000002400230025002040F66A16B14200D148
:1022900000BFC1F3421501F01F03012606FA03F344
:1022A000012D02D19689334006E0022D02D1168A13
:1022B000334001E0968A33400C12012606FA04F4FA
:1022C0001688344013B10CB1012000E0002070BD2D
:1022D00010B50022002340F66A14A14200D100BFCD
:1022E0000A1201249440A3B2DC43048010BD000014
:1022F000003801400044004000480040004C0040CD
:102300000050004010B500F07DF804F0EFF80A49E5
:102310000A48007804F041FC094908600723094A8B
:102320000021094804F096FF08A006F0B3FC04F071
:10233000F9F9002010BD00002C0000202D00002025
:10234000280000200C060020596100084F537374C8
:1023500061727420696E6974204F4B0A000000009E
:10236000704700BFFEE700BFFEE700BFFEE700BF0B
:10237000FEE770477047704710B504F0C9F804F0E5
:1023800008FA04F0E0F810BD10B501210648FFF787
:10239000A0FD40B105480068401E044908600121C5
:1023A0000148FFF7A7FD10BD001400408C0000207D
:1023B00030B5534800684FF47A72B0FBF2F1B1F1D6
:1023C000807F00D31DE021F07F40401E4FF0E022CF
:1023D000506150170F22002807DA13071D0E494BD2
:1023E00000F00F04241F1D5503E013071C0E464B7D
:1023F0001C5400BF00204FF0E022906107201061C4
:1024000000BF30BD70B5FFF7D3FF01F0C4F800F096
:10241000C1F801F0FDF801F034F900F008F900F01E
:102420004CF900F09BFE00F0B4FE00F0BDFD00F0A2
:10243000CFFD642000F035FE4FF4FA6001F096F80D
:10244000002000F02EFE4FF4FA6001F08FF805F046
:10245000FEFE03F0B7FC01F005FB03F03CFD2BA0F2
:1024600006F018FC00202E4908702E4908702E49ED
:102470000870002406E001F069FB03F0E8FC02F0BC
:102480006EF9641C40F2DC508442F4DB00240CE062
:1024900001F05CFB03F0DBFC02F061F9234881688A
:1024A000284605F042FF0546641C0A2CF0DB204953
:1024B000284605F0C4FF1F49086001201A4908702A
:1024C0001DA006F0E7FB20A000F015F9FDF7C9FFFD
:1024D00002F0BDFF22A006F0DDFB25A000F00BF905
:1024E00015A006F0D7FB03F03FF905F0B0FE03F0AE
:1024F0004FF803F01CFA22A006F0CCFB70BD0000E0
:102500000000002018ED00E000E400E0627370209D
:10251000696E6974204F4B206E6578740A00000064
:10252000A0000020A1000020B4000020740F0020B3
:1025300000002041D80000206461746120696E6948
:1025400074204F4B0A0000006273702020616E649B
:1025500020206461746120696E6974204F4B0A0009
:10256000666C61736820696E6974204F4B0A0000C5
:10257000666C61736820696E6974204F4B200A0095
:10258000706964207465737420656E64204F4B0A13
:102590000000000008B501211820FEF73DFD0120D4
:1025A000ADF8000010208DF8030003208DF8020024
:1025B00069460D48FEF774FA0820ADF80000694638
:1025C0000A48FEF76DFA1020ADF80000694607488A
:1025D000FEF766FA01210448FEF70FFB18210348B5
:1025E000FEF70BFB08BD0000000C0140001001408D
:1025F0002DE9FF478246DAF8080006F019F904468B
:102600000D46DAF8000006F013F906460F46DAF830
:10261000040006F00DF9804642460B4680A0CDE945
:102620000067CDE9024506F035FBBDE8FF8700B540
:1026300085B001218804FEF7FCFC01212120FEF772
:10264000EBFC01217D48FEF7FCFA4FF48070ADF8F9
:10265000100018208DF8130003208DF8120004A933
:102660007748FEF71DFA4FF40070ADF81000042013
:102670008DF8130004A97248FEF712FA4FF41650B1
:1026800000900020ADF80400ADF80600ADF8080099
:10269000ADF80C000C20ADF80A0069466948FFF758
:1026A00070FC012240F225516648FFF702FD01212E
:1026B0006448FFF7F2FC05B000BD08B54FF4E060D8
:1026C000FDF742FE27208DF8000001208DF8010063
:1026D00000208DF8020001208DF803006846FDF708
:1026E00038FE08BD002003E00021574A1154401C69
:1026F000C828F9DB70470FB438B505A800905348D7
:10270000009A049906F0D6FA002000904F4805F090
:10271000F7FD85B200240DE000BF40214948FFF7D6
:1027200097FD0028F9D04948015D4648FFF722FD92
:10273000601C84B2AC42EFDB38BC5DF814FB10B512
:102740004348008800F40040002834D041A13E48AE
:1027500005F0DDFD18B940A0FFF7CDFF23E040A153
:10276000394805F0D4FD30B900203F4908703FA03A
:10277000FFF7C1FF17E040A1334805F0C8FD30B9AD
:102780000120394908703EA0FFF7B5FF0BE03FA1DB
:102790002D4805F0BCFD18B901203E49087002E043
:1027A0003DA0FFF7A8FF3FA0FFF7A5FF00202849A5
:1027B0000880FFF797FF10BD10B503F0A9FE40F2A7
:1027C00025512048FFF75AFD38B31E48FFF7D6FCC5
:1027D000354908701E48008800F40040E8B90846F2
:1027E0000078232808D11A48008840F4004018498E
:1027F0000880FFF7A4FF10E02B48017814480288F6
:102800000088401C124B18800F48815418460088DD
:10281000C72802DD00201946088003F094FE10BD91
:1028200070697463682025663B726F6C6C20256646
:102830003B7961772025660A000000003000140013
:10284000001401400048004010060020D806002077
:102850002E00002059657300636F7079000000003E
:1028600053544F50000000003100002053746F702B
:10287000204D6F746F720000535441525400000099
:102880005374617274204D6F746F7200414E474CE7
:102890004500000033000020756E64656620696E97
:1028A000666F00000D0A00003000002000B585B002
:1028B00001210820FEF7B0FB2020ADF81000042015
:1028C0008DF8130003208DF8120004A9FE48FEF7CE
:1028D000E7F801214804FEF7ACFB01212120FEF7B7
:1028E0009BFB01210820FEF7ACF92020ADF8100079
:1028F00018208DF8130003208DF8120004A9F34866
:10290000FEF7CEF84020ADF8100004208DF813003B
:1029100004A9EE48FEF7C4F84FF4165000900020CA
:10292000ADF80400ADF80600ADF80800ADF80C00F5
:102930000C20ADF80A006946E548FFF722FB0122AA
:1029400040F22551E248FFF7B4FB0021E048FFF7D1
:10295000A4FB05B000BD08B54FF4E060FDF7F4FC42
:1029600026208DF8000001208DF8010000208DF850
:10297000020001208DF803006846FDF7EAFC08BD5F
:10298000002000BF03E00021D24A1154401CB0F5E2
:10299000487FF8DB7047F8B5CF49D1F8490005F01A
:1029A0001DFF0746CD49384605F049FD0746044658
:1029B00005F03EFF0546C84890F84D002A460B46F4
:1029C0000090C7A006F066F9C349486C05F006FF01
:1029D0000746C249384605F032FD0746044605F071
:1029E00027FF0546BC4890F848002A460B46009051
:1029F000C1A006F04FF9B84890F8403090F83F2059
:102A0000B0F83D10C2A006F045F9B34890F8433045
:102A100090F8422090F84110C5A006F03BF9F8BDAF
:102A200010B50246012000E050430B1EA1F1010445
:102A3000E1B2F9D110BD2DE9F34F81B007463C4614
:102A400000200090834681460026804628E02078BA
:102A50002D2802D148F00208641C20782C2802D0CE
:102A600020782A2800D11CE020782E2803D148F0B5
:102A70000108641C09E02078392802DC207830281D
:102A800003DA4FF0000900260BE008F0010010B156
:102A9000701CC6B203E009F1010000F0FF09641CDC
:102AA000D5E700BF08F0020000B17F1C00250EE052
:102AB000A9F10100401BC1B20A20FFF7B1FF795D07
:102AC0003039009A00FB01200090681CC5B24D45CA
:102AD000EEDB052E00DD05260298067000250EE0CF
:102AE000701E401BC1B20A20FFF79AFF09F10101D5
:102AF0002944795C303900FB01BB681CC5B2B54282
:102B0000EEDB31460A20FFF78BFF009901FB00BA8C
:102B100008F0020008B1CAF1000A5046BDE8FE8F75
:102B20000246134610E010782A2805D01078202895
:102B300002DB10787A2801DDFF20704710782C28FE
:102B400001D1481EC1B2521C0029ECD1D01AC0B22A
:102B5000F3E72DE9F04F85B0044688467CA1404656
:102B600005F0BCFB074601213846FFF7D9FF0546B3
:102B7000FF2D24D0781904A9FFF75DFF82469DF848
:102B800010100A20FFF74CFFBAFBF0F642F210706B
:102B9000B6FBF0F00830C1B2412001556420B6FB0D
:102BA000F0F06421B0FBF1F201FB1201422001556B
:102BB0006420B6FBF0F100FB1161432001550321B5
:102BC0003846FFF7ADFF0546FF2D43D0781904A91D
:102BD000FFF731FF06469DF81000801CC1B20A20A5
:102BE000FFF71EFFB6FBF0F060649DF81000801C3C
:102BF000C1B20A20FFF714FFB6FBF0F100FB116A27
:102C0000504605F0EBFD81469DF81000C0F105002F
:102C1000C1B20A20FFF704FF009005F0DFFD8346F4
:102C2000494605F0DAFB82464B4905F008FC0521D0
:102C300002900A20FFF7F4FE616C00FB01FA504697
:102C400005F0CCFD0190029905F06FFB039005F0B3
:102C5000DBFD606404213846FFF762FF0546FF2D67
:102C600002D0785D84F8480005213846FFF758FF08
:102C70000546FF2D72D0781904A9FFF7DCFE064641
:102C80009DF81000801CC1B20A20FFF7C9FEB6FBF8
:102C9000F0F044F8490F9DF81000801CC1B20A20E2
:102CA000FFF7BEFEB6FBF0F100FB116A504605F0DF
:102CB00095FD81469DF81000C0F10500C1B20A20C3
:102CC000FFF7AEFE00904AE0000C01400014014006
:102CD00000440040C4070020040E00200050C347F9
:102CE0004C6F6E6769747564653A252E35662025CC
:102CF00031632020200D0A004C617469747564658D
:102D00003A252E3566202531632020200D0A00004B
:102D100055544320446174653A253034642F25307E
:102D200032642F253032642020200D0A000000007C
:102D30005554432054696D653A253032643A253044
:102D400032643A253032642020200D0A0000000051
:102D50004750524D43000000000070421DE005F056
:102D60003DFD8346494605F038FB8246714905F032
:102D700066FB052102900A20FFF752FE216800FB46
:102D800001FA504605F02AFD0190029905F0CDFAAE
:102D9000039005F039FD44F8490906213846FFF74C
:102DA000BFFE0546FF2D02D0785D84F84D00092155
:102DB0003846FFF7B5FE0546FF2D1ED0781904A949
:102DC000FFF739FE064642F21070B6FBF0F0C1B2D2
:102DD000402001556420B6FBF0F06421B0FBF1F215
:102DE00001FB12013F2001556420B6FBF0F100FB0E
:102DF000116000F5FA60A4F83D0005B0BDE8F08F61
:102E0000F8B505460F464CA1384605F067FA064668
:102E100006213046FFF784FE0446FF2C05D030190A
:102E20006946FFF708FE85F84E0007213046FFF798
:102E300077FE0446FF2C05D030196946FFF7FBFDED
:102E400085F84F0009213046FFF76AFE0446FF2C43
:102E500005D030196946FFF7EEFDC5F86300F8BDEF
:102E600070B504460D4629462046FFF7C9FF29469E
:102E70002046FFF76EFE70BD70B500243048008814
:102E8000C0F30D0500BF04E02E48005D2E49085533
:102E9000641CAC42F8DB00202B4908552B48FFF797
:102EA000DFFFFFF778FDFFF76BFD00202449088066
:102EB00070BD10B540F225512548FFF7DFF920B36A
:102EC0002348FFF75BF9C4B21D48008800F40040B6
:102ED000D8B91B48008800F4804070B10A2C03D098
:102EE00000201749088023E015480088C0F30D0032
:102EF00013490880FFF7C0FF1AE00D2C06D11048D7
:102F0000008840F480400E49088011E00C48008899
:102F1000C0F30D000B490C5409480088401C0849B7
:102F2000088008460088B0F5487F01DB0020088053
:102F300010BD000000007042244750474741000088
:102F400034000020C4070020E40A0020040E002002
:102F50000044004030B5B0F5FA6F01DD4FF4FA607F
:102F6000B1F5FA6F01DD4FF4FA61B2F5FA6F01DDE8
:102F70004FF4FA62B3F5FA6F01DD4FF4FA630028FB
:102F800000DA0020002900DA0021002A00DA0022FD
:102F9000002B00DA00236F4D28802D1D29802D1D68
:102FA0002A802D1D2B8030BD08B501210920FEF798
:102FB00033F84FF47070ADF8000003208DF8020074
:102FC00018208DF8030069466348FDF769FD08BDC8
:102FD000F0B587B0142714241425142601210420E9
:102FE000FEF727F844F61F60ADF814004720ADF84F
:102FF00010000020ADF81600ADF8120004A95548E5
:103000003438FEF741F96020ADF800000120ADF83A
:103010000200ADF806700020ADF8080069464D4882
:103020003438FEF76EF90120ADF80200ADF8064025
:10303000694648483438FEF7A6F90120ADF8020089
:10304000ADF80650694643483438FEF7E9F90120E7
:10305000ADF80200ADF8066069463E483438FEF728
:103060002AFA08213B483438FEF79AFD08213948EE
:103070003438FEF79EFD082136483438FEF7A6FDA9
:10308000082134483438FEF7AAFD0121314834388C
:10309000FEF756FD01212F483438FEF751FC07B0EA
:1030A000F0BD4FF47A714143642291FBF2F101F5D6
:1030B0007A71284A11804FF47A714143642291FB5E
:1030C000F2F101F57A71234A121D11804FF47A71E1
:1030D0004143642291FBF2F101F57A711D4A0832F5
:1030E00011804FF47A714143642291FBF2F101F5B2
:1030F0007A71184A0C321180704730B54FF47A74E7
:103100004443642594FBF5F404F57A74114D2C8046
:103110004FF47A744C43642594FBF5F404F57A7407
:103120000C4D2D1D2C804FF47A745443642594FB70
:10313000F5F404F57A74074D08352C804FF47A7451
:103140005C43642594FBF5F404F57A74014D0C3569
:103150002C8030BD34080040000C014008B501212E
:103160000846FDF766FF01210520FDF755FF0F20FA
:10317000ADF8000003208DF8020028208DF8030030
:103180006946E148FDF78CFC0F21DF48FDF737FD6C
:1031900008BD00B587B01C208DF8000000208DF818
:1031A000010001208DF802008DF803006846FDF74C
:1031B000D0F84FF6FF70ADF814004720ADF81000BE
:1031C0000020ADF81600ADF8120004A94FF08040C1
:1031D000FEF75AF80020ADF80400ADF80600012013
:1031E000ADF808000020ADF80A00ADF80C0001A908
:1031F0004FF08040FEF7DBFA0420ADF80400002019
:10320000ADF806000120ADF808000020ADF80A0076
:10321000ADF80C0001A94FF08040FEF7C8FA082075
:10322000ADF804000020ADF806000120ADF808005C
:103230000020ADF80A00ADF80C0001A94FF0804065
:10324000FEF7B5FA0C20ADF804000020ADF806003A
:103250000120ADF808000020ADF80A00ADF80C0020
:1032600001A94FF08040FEF7A2FA01221E2190072B
:10327000FEF781FB01218807FEF762FB07B000BD66
:1032800010B503F045F9A148007800F0800000284F
:1032900049D102214807FEF71CFE002843D0022135
:1032A0004807FEF727FE9948007800F0400050B329
:1032B0004FF08040FEF7EEFD9549088008460088F3
:1032C00094490988884204DA4FF6FF7092490860F1
:1032D00002E00020904908608D4800888D490988E7
:1032E000401A8D49096808448C49086008460068FE
:1032F0008B49086000208549087000214FF080400C
:10330000FEF7D0FC0FE04FF08040FEF7C3FD81498F
:1033100008807E48007840F040007C490870022117
:103320004807FEF7BFFC7F48007800F080000028C7
:1033300049D104210807FEF7CCFD002843D0042121
:103340000807FEF7D7FD7748007800F0400050B33B
:103350004FF08040FEF7A1FD7349088008460088C1
:1033600072490988884204DA4FF6FF707049086094
:1033700002E000206E4908606B4800886B490988AC
:10338000401A6B49096808446A49086008460068A1
:103390006949086000206349087000214FF08040AF
:1033A000FEF792FC0FE04FF08040FEF776FD5F499C
:1033B00008805C48007840F040005A4908700221BB
:1033C0004807FEF781FC5D48007800F08000002887
:1033D00048D10821C806FEF77CFD90B30821C80635
:1033E000FEF788FD5548007800F0400050B34FF0DC
:1033F0008040FEF755FD5249088008460088514933
:103400000988884204DA4FF6FF704F49086002E0ED
:1034100000204D4908604A4800884A490988401AF6
:10342000494909680844494908600846006848490C
:10343000086000204149087000214FF08040FEF7ED
:103440005DFC0FE04FF08040FEF72AFD3D4908800B
:103450003A48007840F04000384908700221480797
:10346000FEF74CFC3B48007800F08000B8BB102110
:103470008806FEF72EFD90B310218806FEF73AFD70
:103480003448007800F0400050B34FF08040FEF721
:103490000AFD314908800846008830490988884279
:1034A00004DA4FF6FF702E49086002E000202C4934
:1034B00008602948008829490988401A284909686C
:1034C0000844284908600846006827490860002029
:1034D0002049087000214FF08040FEF729FC0FE0E2
:1034E0004FF08040FEF7DFFC1C4908801948007847
:1034F00040F040001749087002214807FEF718FC09
:1035000003F021F810BD0000000801404000002039
:1035100044000020420000206800002058000020E5
:1035200084000020460000204A00002048000020BF
:103530006C0000205C000020800000204C00002077
:10354000500000204E00002070000020600000208D
:103550007C00002052000020560000205400002073
:1035600074000020640000207800002010B504469C
:1035700001212020FDF75DFD2348046000BF2248A3
:1035800000680028FBD100212020FDF752FD00201B
:103590001E49088010BD1FB501212020FDF749FDFF
:1035A00037208DF8000000208DF801008DF8020012
:1035B00001208DF803006846FCF7CBFE40F2E730AF
:1035C000ADF808004720ADF804000020ADF80A006F
:1035D000ADF8060001A90D482438FDF755FE01217C
:1035E0000A482438FEF772FC0122114607482438A5
:1035F000FEF7C1F9012105482438FEF7A1F90021A1
:103600002020FDF716FD1FBD8C0000202414004073
:1036100000B585B0012144F20400FDF7FDFC4FF434
:103620000070ADF8100018208DF8130003208DF8FD
:10363000120004A95048FDF733FA4FF48060ADF84A
:10364000100004208DF8130004A94B48FDF728FA58
:103650004FF4E13000900020ADF80400ADF8060012
:10366000ADF80800ADF80C000C20ADF80A00694672
:103670004248FEF786FC01214048FEF70EFD05B0EA
:1036800000BD08B54FF4E060FCF75EFE25208DF824
:10369000000000208DF8010001208DF802008DF857
:1036A00003006846FCF755FE08BD70B504460D469C
:1036B000E1B23248FEF75EFD00BF40212F48FEF721
:1036C000C7FD0028F9D0204670BD10B5044600BFE4
:1036D00020212A48FEF7BCFD0028F9D02748FEF734
:1036E0004DFD10BD10B502F013FF40F225512348E7
:1036F000FEF7C4FD00283BD02048FEF73FFD2049DF
:1037000008702048008800F4004088BB1D480088ED
:1037100000F4804070B1084600780A2803D00020E9
:103720001849088024E01748008840F400401549F3
:1037300008801DE0124800780D2806D11148008845
:1037400040F480400F49088012E00D4800780D4990
:103750000988C1F30D010C4A50540A480088401CE6
:103760000849088008460088C72801DD0020088035
:1037700002F0E9FE10BD00000008014000380140E1
:1037800092000020900000206D0E0020D2480078AA
:10379000D149497840EA0120D0490988401A00B24D
:1037A000CF490880CC488078CB49C97840EA0120CD
:1037B000CA494988401A00B2C9494880C6480079B8
:1037C000C549497940EA0120C4498988401A00B2B4
:1037D000C3498880C048007ABF49497A40EA01203D
:1037E000C0490988401A00B2BF490880BA48807AA7
:1037F000B949C97A40EA0120BA494988401A00B259
:10380000B9494880B448007BB349497B40EA01206C
:10381000B4498988401A00B2B3498880B348007817
:10382000002855D1B248008870B90020AD49088001
:1038300048808880AF490860AF490860AF49086098
:103840000120AB4908807047A748B0F90000A9499A
:1038500009680844A7490860A348B0F90200A649CE
:1038600009680844A44908609F48B0F90400A349C6
:1038700009680844A14908609D480088B0F5487F60
:1038800021D19C4800689A49098890FBF1F000B268
:1038900094490880984800689549098890FBF1F0A0
:1038A00000B290494880954800689149098890FB8A
:1038B000F1F000B28B49888000208D4908800120FA
:1038C0008A490870BFE78A480088401C88490880F8
:1038D0008B480078002857D18A48008870B90020AA
:1038E0007E49088048808880874908608749086049
:1038F00087490860012083490880A4E77848B0F927
:1039000000008149096808447F4908607448B0F99B
:1039100002007E49096808447C4908607048B0F993
:1039200004007B49096808447949086075480088A3
:10393000B0F5487F23D1744800687249098890FB2C
:10394000F1F000B265490880704800686D49098847
:1039500090FBF1F000B2614948806D480068694908
:10396000098890FBF1F0A0F5005000B25B49888017
:1039700000206449088001206149087063E76148BC
:103980000088401C5F49088000BF5CE710B53C21FF
:10399000D02002F02FF9504908703B21D02002F0CE
:1039A00029F94D4948703E21D02002F023F94A49B7
:1039B00088703D21D02002F01DF94749C870402190
:1039C000D02002F017F9444908713F21D02002F0BD
:1039D00011F9414948714221D02002F00BF93E49CA
:1039E00088714121D02002F005F93B49C87144217A
:1039F000D02002F0FFF8384908724321D02002F0AD
:103A0000F9F8354948724621D02002F0F3F83249DE
:103A100088724521D02002F0EDF82F49C872482164
:103A2000D02002F0E7F82C4908734721D02002F09B
:103A3000E1F82949487310BD10B500247521D02044
:103A400002F0D8F80446682C01D1012000E00020E3
:103A500020B121462FA005F01DF902E035A005F0A8
:103A600019F910BD10B5002400226B21D02002F0FE
:103A7000E2F807221921D02002F0DDF806221A21EF
:103A8000D02002F0D8F80A20FFF770FD422237213B
:103A9000D02002F0D0F840226A21D02002F0CBF8EA
:103AA0000A20FFF763FD10221B21D02002F0C3F88B
:103AB00008221C21D02002F0BEF84FF4FA60FFF774
:103AC00055FDFFF7B9FF02E0FFF760FF641CB4F596
:103AD0007A7FF9DB10BD0000350F00209A0000202E
:103AE000A200002094000020A8000020A0000020D8
:103AF000C4000020B8000020BC000020C00000204E
:103B0000A1000020D4000020C8000020CC0000202C
:103B1000D00000200DC9E8B1B84D5036303530CA5C
:103B2000B6B1F0B3C9B9A6A3AC69643D30782578C5
:103B30000D0A0D000DB4EDCEF321CEDEB7A8C9E815
:103B4000B1F0C9E8B1B80D0A0D0000002DE9F0414F
:103B5000002500260027FFF719FFFFF717FEFE4894
:103B60000088FE49FE4A127821F81200FA4841887E
:103B7000FC48FB4A127820F81210F7488188FA486E
:103B8000F74A127820F8121000240DE0F34830F9BB
:103B900014000544F34830F914000644F24830F9A3
:103BA00014000744601CC4B2142CEFDB142095FBF6
:103BB000F0F8404604F009FEEC490860142096FB3A
:103BC000F0F8404604F001FEE8494860142097FBF5
:103BD000F0F8404604F0F9FDE4498860E0480078D8
:103BE000401CDF49087008460078142801D10020E5
:103BF0000870BDE8F0810FB5AFB0DD48016800681E
:103C000004F0EBFB1D90DB480168D948006804F024
:103C1000E4FB1C90D8480168D548006804F0DDFB3F
:103C20001B90D6480168D248006804F0D6FB1A9071
:103C3000D0480168006804F0D0FB1990CE480168B4
:103C4000CC48006804F0C9FB1890CC480168C9480A
:103C5000006804F0C2FB1790C7480168006804F0D0
:103C6000BCFB1690C5480168C348006804F0B5FB6A
:103C70001590C2480168006804F0AFFB14903599B4
:103C8000084604F0AAFB0E903499084604F0A5FB00
:103C90000C903299084604F0A0FB0B900C9904F0AC
:103CA00044FB0D900E9904F040FB0F9004F0C0FD12
:103CB000CDE9100106F050F9CDE9120104F0CBFD79
:103CC0002D902D99329804F0BAFB32902D993498AA
:103CD00004F0B5FB34902D99359804F0B0FB359085
:103CE0003899084604F079FB0E903799084604F09D
:103CF00074FB0C903699084604F06FFB0B900C99FE
:103D000004F013FB0D900E9904F00FFB0F9004F0DC
:103D10008FFDCDE9100106F01FF9CDE9120104F085
:103D20009AFD2D902D99369804F089FB36902D99A7
:103D3000379804F084FB37902D99389804F07FFB76
:103D400038901B99179804F0F0FA0C904FF08040CF
:103D5000389904F042FB0B900C9904F03EFB0D9057
:103D600004F066FDCDE910011A99189804F02FFBB4
:103D700008904FF08040379904F02FFB0790089986
:103D800004F02BFB099004F053FDCDE90C011498CD
:103D900004F04EFDCDE90401169804F049FD00221F
:103DA000774BCDE9000104F02CFCCDE90201DDE9FF
:103DB000042304F023FCCDE908014FF0804036993C
:103DC00004F00BFB059004F033FDCDE90601DDE9BD
:103DD000082304F019FCCDE90A01DDE90C2304F005
:103DE0006CFBCDE90E01DDE9102304F066FBCDE9A3
:103DF000120104F030FD2C901C99159804F0E7FA9C
:103E00000C904FF08040389904F0E7FA0B900C9931
:103E100004F0E3FA0D9004F00BFDCDE910011498C5
:103E200004F006FDCDE90401199804F001FD00221B
:103E3000534BCDE9000104F0E4FBCDE90201DDE9DB
:103E4000042304F0DBFBCDE908014FF080403799F3
:103E500004F0C3FA059004F0EBFCCDE90601DDE9BE
:103E6000082304F0D1FBCDE90C011A99189804F04D
:103E70005CFA08904FF08040369904F0AEFA079053
:103E8000089904F0AAFA099004F0D2FCCDE90A01DD
:103E9000DDE90C2304F011FBCDE90E01DDE910236F
:103EA00004F00BFBCDE9120104F0D5FC2B90169821
:103EB00004F0BEFCCDE90801199804F0B9FC002219
:103EC0002F4BCDE9040104F09CFBCDE90601DDE9AF
:103ED000082304F093FBCDE90C014FF080403899A2
:103EE00004F07BFA099004F0A3FCCDE90A01DDE9B6
:103EF0000C2304F089FBCDE910011C99159804F0FE
:103F000014FA0A904FF08040379904F066FA09904D
:103F10000A9904F062FA0C901B99179804F057FA6A
:103F20000A904FF08040369904F057FA09900A99A8
:103F300004F053FA0B900C9904F0F7F90D9004F08B
:103F400077FCCDE90E01DDE9102304F0B6FACDE9E6
:103F5000120104F080FC15E0A20000208C0F00206C
:103F600008010020B40F0020DC0F0020440F0020C7
:103F7000DC000020E0000020E4000020E800002039
:103F80000000E03F2A902B99084604F026FA0E9094
:103F90002C99084604F021FA0D900E9904F0C5F909
:103FA0000F9004F045FCCDE9100105F0D5FFCDE9F7
:103FB000120104F050FC29902A9828901B99179818
:103FC00004F005FA4FF08041139004F006FA2790B0
:103FD00015991C9804F0A9F94FF08041139004F052
:103FE000FCF9269019991D9804F0F1F91290169990
:103FF00004F0EDF91390149904F097F925901B99AA
:10400000179804F0E4F90C904FF08040289904F0E0
:10401000E4F90B900C9904F0E0F90D9004F008FC21
:10402000CDE91001149804F003FCCDE908011698BD
:1040300004F0FEFB0022FE4BCDE9040104F0E1FA9E
:10404000CDE90601DDE9082304F0D8FACDE90C0139
:104050004FF08040299904F0C0F9099004F0E8FB82
:10406000CDE90A01DDE90C2304F0CEFACDE90E0119
:10407000DDE9102304F021FACDE9120104F0EBFB95
:10408000249015991C9804F050F911904FF080403D
:10409000289904F0A2F91090119904F09EF9139058
:1040A0001A99189804F093F911904FF080402999CB
:1040B00004F093F91090119904F08FF9129013996C
:1040C00004F033F92390169804F0B2FBCDE908010F
:1040D000199804F0ADFB0022D54BCDE9040104F0A2
:1040E00090FACDE90601DDE9082304F087FACDE96D
:1040F0000C014FF08040289904F06FF9099004F00A
:1041000097FBCDE90A01DDE90C2304F07DFACDE946
:10411000100117991B9804F008F90C904FF080409B
:10412000299904F05AF90B900C9904F056F90D9066
:1041300004F07EFBCDE90E01DDE9102304F0BDF9AA
:10414000CDE9120104F087FB22902399389804F0FE
:1041500044F911902299379804F03FF91090119981
:1041600004F035F913902699359804F036F911903A
:104170002599349804F031F91090119904F027F939
:104180001290139904F0D1F821902299369804F0F6
:1041900024F911902499389804F01FF9109011997E
:1041A00004F015F913902599329804F016F911903E
:1041B0002799359804F011F91090119904F007F936
:1041C0001290139904F0B1F820902499379804F0D4
:1041D00004F911902399369804F0FFF81090119982
:1041E00004F0F5F813902799349804F0F6F811903C
:1041F0002699329804F0F1F81090119904F0E7F83C
:104200001290139904F091F81F908A49219804F0B4
:10421000E4F8139088480168139804F086F88649FA
:1042200008608449209804F0D8F813908348016806
:10423000139804F07AF8814908607E491F9804F0C9
:10424000CCF813907E480168139804F06EF87C490E
:1042500008607C48219904F0C0F812902F9904F06E
:1042600064F8139074480168139804F05EF82F9076
:104270007448209904F0B1F81290309904F055F880
:1042800013906E480168139804F04FF830906D4811
:104290001F9904F0A2F81290319904F046F8139097
:1042A00067480168139804F040F8319066483199E6
:1042B000006804F092F8119064483099006804F0A6
:1042C0008CF80F906248006880F000400D902F99A4
:1042D00004F083F80E900F9904F079F8109011997A
:1042E00004F075F85B49129004F077F813905A487F
:1042F0000168139804F019F8584908605248309939
:10430000006804F06AF8119050483199006804F090
:1043100064F80F90504801682F9804F05EF80E90F2
:104320000F9904F002F81090119904F050F84949DF
:10433000129004F052F8139045480168139803F066
:10434000F4FF47490860404801682F9804F045F899
:1043500011903F483199006804F03FF80F903E48B3
:104360003099006804F039F80E900F9904F02FF896
:104370001090119903F0D9FF3649129004F02DF8EE
:10438000139032480168139803F0CFFF3549086055
:104390002E4801682F9804F020F811902C4830998D
:1043A000006804F01AF80F902B483199006804F067
:1043B00014F80E900F9903F0B8FF1090119904F0C3
:1043C00006F82449129004F008F813901E4801687A
:1043D000139803F0AAFF24490860204800681E498A
:1043E00008601F4800681A4908601E48006817499D
:1043F00008601D48006814490860084601680068A4
:1044000003F0EBFF0E9011480168006803F0E5FF30
:104410000C900F480168006803F0DFFF0A900E4817
:104420000168006803F0D9FF09900A991EE00000B6
:104430000000E03F0AD7A33BFC0000200001002061
:10444000040100200000A041E8000020E40000205A
:10445000E00000206F12833ADC000020F80000200A
:10446000EC000020F0000020F400002003F05DFFCD
:104470000B900C9903F059FF0D900E9903F055FF26
:104480000F9004F0D5F9CDE9100105F065FDCDE9F7
:10449000120104F0E0F92D90FE482D99006803F018
:1044A000CEFFFC490860FC482D99006803F0C7FF67
:1044B000F9490860F9482D99006803F0C0FFF749F1
:1044C0000860F7482D99006803F0B9FFF4490860C7
:1044D000F44A0021F448006802F06CFCED480168E1
:1044E0004FF0804003F079FF0A90EC4801680A9889
:1044F00003F073FF0C90E84801684FF0404003F070
:104500006CFF0A90E64801680A9803F066FF0B907A
:104510000C9903F00AFF0D9004F08AF9CDE90E0121
:1045200005F0E4F84FF06632E04BCDE9100104F0FD
:104530006BF8CDE9120104F08EF9DD494860D748E7
:1045400001684FF0804003F048FF0790D3480168AE
:10455000079803F042FF0990CF4801684FF04040B0
:1045600003F03BFF0790CC480168079803F035FF44
:104570000890099903F02BFF4FF07E510A9003F049
:10458000D4FE0B9004F054F9CDE90E01C148016846
:104590004FF0804003F021FF0890BF480168089861
:1045A00003F01BFF0A90BD4801684FF0804003F004
:1045B00014FF0890BA480168089803F00EFF0990AC
:1045C0000A9903F0B2FE0B9004F032F9CDE90C0128
:1045D000DDE90E2305F0D2FA4FF06632B34BCDE998
:1045E000100104F011F8CDE9120104F034F9B049DA
:1045F0000860AB4801684FF0804003F0EEFE079082
:10460000A7480168079803F0E8FE0990A3480168ED
:104610004FF0404003F0E1FE0790A0480168079882
:1046200003F0DBFE0890099903F0D1FE4FF07E51B4
:104630000A9003F07AFE0B9004F0FAF8CDE90E012F
:10464000944801684FF0804003F0C7FE08909448FA
:104650000168089803F0C1FE0A908F4801684FF086
:10466000804003F0BAFE08908C480168089803F077
:10467000B4FE09900A9903F058FE0B9004F0D8F8A4
:10468000CDE90C01DDE90E2305F078FA4FF0663232
:10469000864BCDE9100103F0B7FFCDE9120104F01C
:1046A000DAF8834988600846806813908148016879
:1046B000139803F08CFE7E498860084680687E4926
:1046C000139004F0EFF808D2794880687B49139082
:1046D00003F07DFE764988600EE075488068784971
:1046E000139004F0D5F807D271488068734913908D
:1046F00003F01BFE6E4988606B48006802F076FC90
:104700007048007848B31E98FA2823DB6848806810
:104710000D9004F08DF8CDE91201654840680D90C8
:1047200004F086F8CDE91001614800680D9004F0AE
:104730007FF8CDE90E01DDE91201CDE90201DDE9E5
:104740001001CDE9000160A0DDE90E2304F0A2FA1A
:1047500000201E901E98401C1E9033B000BD2DE915
:10476000F04F8DB05D4908684FF08C4103F067FE53
:104770000C905A4948684FF08C4103F060FE0B9052
:10478000564988684FF08C4103F059FE0A9054490D
:10479000B1F9000004F027F806464FF06632514B9D
:1047A00003F0A4FF044604F056F809904C49B1F90F
:1047B000020004F018F806464FF06632494B03F049
:1047C00095FF044604F047F808904549B1F9040004
:1047D00004F009F806464FF06632424B03F086FFBC
:1047E000044604F038F807903F48B0F9000040F262
:1047F000424190FBF1F4204603F0E7FF3B4908609B
:104800003B48B0F9000040F2424190FBF1F42046F1
:1048100003F0DBFF374908603748B0F9000040F289
:10482000424190FBF1F4204603F0CFFF334908608A
:10483000099803F0FDFF8246314A324B03F0E4FE53
:104840008046314A314B03F0DFFE04460D463049C5
:10485000086803F0EDFF064622462B4603F02DFEC6
:10486000CDE9040103F0F7FF29490860089803F037
:10487000DFFF8246224A234B03F0C6FE224A234B27
:10488000CDE9040103F0C0FE06460F462049486802
:1048900040E00000DC000020E0000020E4000020F8
:1048A000E80000202C0000202800002066A64C40D4
:1048B000740F0020D8000020000034430000B443EF
:1048C000000034C3B4000020583A25662020593A2D
:1048D00025662020205A3A2025660A00440F002031
:1048E000A800002066664040400100206C010020C6
:1048F00042010020700100204401002074010020CA
:10490000FCA9F1D24D62603F083D9B559F2B0740AB
:10491000500F002003F08CFF804632463B4603F0E8
:10492000CCFD044603F097FFFE494860079803F06A
:104930007FFFFD4AFD4BCDE9040103F065FE824691
:10494000FB4AFC4B03F060FE80468946F5498868C7
:1049500003F06EFF064642464B4603F0AEFD0446AA
:1049600003F079FFEF498860F348B0F9000003F0E5
:104970002CFF0446F148B0F9000003F026FF814601
:10498000EF48B0F9000003F020FF8246079803F0DB
:104990004FFF0746EB4AEC4B03F036FE054603F0AB
:1049A0005AFF8346089803F043FF0746E54AE64B63
:1049B00003F02AFE054603F04EFF0690099803F027
:1049C00037FF0746DF4AE04B03F01EFE054603F0C3
:1049D00042FF05900A98CDE902A9049401900B9832
:1049E00000905A460C9BDDE90501FFF704F90DB074
:1049F000BDE8F08F0FB59DB0D4480168006803F0A2
:104A0000ECFC1590D2480168D048006803F0E5FC42
:104A10001490D0480168CD48006803F0DEFC139084
:104A2000CB480168006803F0D8FC1290CA480168BE
:104A3000C748006803F0D1FC1190C64801680068BF
:104A400003F0CBFC1090C4480168C248006803F032
:104A5000C4FC0F90C0480168006803F0BEFC0E90D3
:104A60002299209803F0B9FC0C90239903F0B5FC2F
:104A700000210D9003F00CFF01D121B000BD23995E
:104A8000084603F0AAFC08902299084603F0A5FC0A
:104A900006902099084603F0A0FC0590069903F0C3
:104AA00044FC0790089903F040FC099003F0C0FE15
:104AB000CDE90A0105F050FACDE90C0103F0CBFE77
:104AC0001C901C99209803F0BAFC20901C99229805
:104AD00003F0B5FC22901C99239803F0B0FC2390BE
:104AE0001399119803F073FC4FF080410D9003F07F
:104AF00074FC1B900F99149803F017FC4FF0804141
:104B00000D9003F06AFC1A901299159803F05FFC5F
:104B10000C90109903F05BFC0D900E9903F005FCCE
:104B200019901A99239803F058FC0D90199922981E
:104B300003F053FC0C900D9903F049FC189019995F
:104B4000209803F04AFC0D901B99239803F045FC34
:104B50000C900D9903F03BFC17901B99229803F0E1
:104B60003CFC0D901A99209803F037FC0C900D999D
:104B700003F02DFC16907949189803F02EFC0D9047
:104B8000774801680D9803F0D0FB754908607349B8
:104B9000179803F022FC0D90724801680D9803F0FD
:104BA000C4FB704908606D49169803F016FC0D901F
:104BB0006D4801680D9803F0B8FB6B4908606B48BD
:104BC000189903F00AFC0C901D9903F0AEFB0D90B0
:104BD000634801680D9803F0A8FB1D90634817997E
:104BE00003F0FBFB0C901E9903F09FFB0D905D48BA
:104BF00001680D9803F099FB1E905C48169903F02C
:104C0000ECFB0C901F9903F090FB0D905648016847
:104C10000D9803F08AFB1F904F481F99006803F01E
:104C2000DCFB0B904B481E99006803F0D6FB099003
:104C30004748006880F0004007901D9903F0CDFBC5
:104C40000890099903F0C3FB0A900B9903F0BFFB8E
:104C500047490C9003F0C1FB0D903C4801680D984A
:104C600003F063FB434908603B481E99006803F06A
:104C7000B4FB0B9037481F99006803F0AEFB099016
:104C8000324801681D9803F0A8FB0890099903F0C9
:104C90004CFB0A900B9903F09AFB35490C9003F0FA
:104CA0009CFB0D902A4801680D9803F03EFB3249A9
:104CB0000860294801681D9803F08FFB0B90244879
:104CC0001F99006803F089FB099020481E9900682D
:104CD00003F083FB0890099903F079FB0A900B9984
:104CE00003F023FB22490C9003F077FB0D90194849
:104CF00001680D9803F019FB204908601548016808
:104D00001D9803F06AFB0B9011481E99006803F090
:104D100064FB09900D481F99006803F05EFB089042
:104D200009992DE0500F0020FCA9F1D24D62603F9F
:104D3000083D9B559F2B0740440100204201002065
:104D400040010020A835CD3B4ED1913FDC00002032
:104D5000E0000020E4000020E80000200AD7A33B88
:104D6000FC00002000010020040100200000A04100
:104D70006F12833AF8000020EC000020F0000020C1
:104D800003F0D3FA0A900B9903F021FBB4490C907D
:104D900003F023FB0D90B34801680D9803F0C5FAAA
:104DA000B1490860B1480068B1490860B14800687D
:104DB000B1490860B1480068B1490860AA48006874
:104DC000A849086008460168006803F006FB0890DF
:104DD000AB480168006803F000FB0690A648016834
:104DE000006803F0FAFA0490A1480168006803F033
:104DF000F4FA0390049903F098FA0590069903F0E9
:104E000094FA0790089903F090FA099003F010FDC6
:104E1000CDE90A0105F0A0F8CDE90C0103F01BFD76
:104E20001C9093481C99006803F009FB90490860A6
:104E300091481C99006803F002FB8F490860904874
:104E40001C99006803F0FBFA8D49086085481C999D
:104E5000006803F0F4FA834908608A4A00218A480E
:104E6000006801F0A7FF824801684FF0804003F01E
:104E7000B4FA049082480168049803F0AEFA0690F0
:104E80007D4801684FF0404003F0A7FA0490754850
:104E90000168049803F0A1FA0590069903F045FA19
:104EA000079003F0C5FCCDE9080104F01FFC4FF0AA
:104EB0006632764BCDE90A0103F0A6FBCDE90C0181
:104EC00003F0C9FC724948606D4801684FF08040AA
:104ED00003F083FA01906A480168019803F07DFAB3
:104EE0000390654801684FF0404003F076FA019066
:104EF00061480168019803F070FA0290039903F089
:104F000066FA4FF07E51049003F00FFA059003F01B
:104F10008FFCCDE90801564801684FF0804003F04E
:104F20005CFA029054480168029803F056FA049023
:104F3000534801684FF0804003F04FFA029049480F
:104F40000168029803F049FA0390049903F0EDF91F
:104F5000059003F06DFCCDE90601DDE9082304F0BE
:104F60000DFE4FF06632494BCDE90A0103F04CFBD0
:104F7000CDE90C0103F06FFC454908604548B0F9E4
:104F8000000003F022FC08904348B0F9000003F051
:104F90001CFC0790089904F0B1FE099003F048FC4E
:104FA0004FF06632394BCDE90A0103F02DFBCDE914
:104FB0000C0103F050FC36498860084680680D906B
:104FC000364801680D9803F002FA314988600846B6
:104FD000806833490D9003F065FC08D22C48806846
:104FE00001460D902F4803F0F2F9294988602648C0
:104FF000006801F0FBFF2C48007870B32B48006874
:10500000FA2825D122488068079003F011FCCDE9E9
:105010000C011F484068079003F00AFCCDE90A0123
:105020001B480068079003F003FCCDE90801DDE9A7
:105030000C01CDE90201DDE90A01CDE90001AFF281
:105040007870DDE9082303F025FE00201749086089
:1050500016480068401C1549086000BF0DE50000B7
:105060006F12833AE8000020F4000020F8000020CE
:10507000DC000020EC000020E0000020F000002018
:10508000E40000202C0000202800002066A64C40F0
:10509000740F002040010020420100209C010020EC
:1050A000000034430000B443B40000201401002089
:1050B000034606210622F7480188F7480288ABB16B
:1050C000012B1BD13AB94EF6EE60814201D100208E
:1050D00070470120FCE739B94EF6EE60824201D1FB
:1050E0000120F5E70020F3E7AB20F1E709B9002044
:1050F000EEE70AB90120EBE7AB20E9E70020E7E79C
:1051000070B5042600240120FFF7D2FF0446AB2C23
:1051100006D1E04800EBC420E0490860AB2070BD38
:10512000DC4800EBC420DD490860601CD949891EB9
:1051300001EBC0250CE0D94800680068401C10B99C
:1051400004263046EBE7D5480068001DD3490860C7
:10515000D2480068A842EED38020E0E710B50424CE
:10516000CC48FBF7C3F90446042C01D0204610BDFF
:105170000021C848FBF7BDFA0446042C01D02046A4
:10518000F5E7C548FBF7B2F904462046EFE72DE9FD
:10519000F04104460F4604250026DFF8FC82A8F102
:1051A00001080120FFF784FF0646AB2E01D1BDE8C0
:1051B000F081701CB749891E01EBC02821E0B74877
:1051C00000680068401CB8B93946B4480068FBF76D
:1051D00090FA0546042D01D02846E8E72146AF485D
:1051E0000068801CFBF785FA0546AC480068001D86
:1051F000AA4908602846DAE7A8480068001DA749C0
:105200000860A64800684045D9D38020CFE72DE943
:10521000F04706460F46002545F255584FF0010964
:105220009C4CA2460020FFF743FF0546AB2D01D161
:10523000BDE8F087974800EBC52A98480068841EAF
:105240000AE0B4F80080B04505D134F8020C38808B
:105250004FF0000904E0241F0AF102008442F0D854
:1052600000BF4846E4E72DE9F0474FF0060A06265E
:1052700000250027A8464FF0FF398648B0F800A067
:1052800085480688BAF1000075D0A0F56E40EE386A
:1052900058B3A0F58850113800286DD146B97D4823
:1052A000FBF724F90446042C1ED02046BDE8F08705
:1052B0004EF6EE60864210D17648FBF717F90446A9
:1052C000042C01D02046F1E700217348FBF711FAC6
:1052D0000446042C08D02046E8E7FFF73FFF0446C9
:1052E000042C01D02046E1E7AEE07EBB002522E0A1
:1052F0006848C0886A4931F81510884201D10FFA10
:1053000085F94D4515D0664931F815006549FFF717
:105310007EFF8046B8F1010F0BD0614931F81500CE
:1053200060490988FFF733FF0746042F01D038464C
:10533000BCE7681C85B20F2DDADB00215548FBF76E
:10534000D8F90446042C02D02046AFE707E05248C3
:10535000FBF7CCF80446042C1FD02046A6E74FF6F6
:10536000FF70864212D14C48FBF7C0F80446042C6B
:1053700003D020469AE711E05EE000214548FBF7A4
:10538000B8F90446042C08D020468FE7FFF7E6FE64
:105390000446042C01D0204688E755E036B9FFF7D3
:1053A000DDFE0446042C46D020467FE74FF6FF7012
:1053B000864207D13848FBF799F80446042C3AD0C6
:1053C000204673E7002523E03348801D00883449D8
:1053D00031F81510884201D10FFA85F94D4515D0E5
:1053E0002F4931F815002F49FFF711FF8046B8F11A
:1053F000010F0BD02A4931F815002A490988FFF717
:10540000C6FE0746042F01D038464FE7681C85B218
:105410000F2DD9DB00212048FBF76BF90446042C43
:1054200001D0204642E71B48FBF760F80446042CF5
:1054300001D020463AE707E0FFF790FE0446042C2F
:1054400001D0204632E700BF00BF04202EE710B590
:10545000FFF709FF0446FFF753FE204610BD2DE974
:10546000F84F074689460425DFF83CA0094800901C
:105470004FF00008002400264FF0000B0020FFF73B
:1054800017FE8046B8F1010F10D1DFF808A00248DE
:10549000009016E000000108000801081C0100202F
:1054A0002001002018010020FF030108B8F1000FBF
:1054B00004D1DFF8C4A03148009002E0AB20BDE881
:1054C000F88F4EF6EE615046FBF713F90546042DB2
:1054D00001D02846F3E7FFF713FE49463846FFF7A9
:1054E00056FE0646042E01D03046E8E700241CE0B4
:1054F000234830F81400B84215D0214931F814007F
:105500002049FFF784FE8346BBF1010F0BD01C49F5
:1055100031F814001B490988FFF739FE0646042EAE
:1055200001D03046CBE7601C84B20F2CE0DB009842
:10553000FAF7DCFF0546042D01D02846BFE700211D
:105540005046FBF7D6F80546042D01D02846B6E7AD
:105550002846B4E770B505460E4600243146284675
:10556000FFF715FE0446802C04D131462846FFF78C
:1055700076FF0446204670BD0008010800000108BF
:10558000200100201801002010B5FFF760FF10BDBA
:1055900038B5F3490868F34902F01FFF044603F0E9
:1055A00033F980B20090F0498889BDF80010FFF708
:1055B000D1FFEB494868EB4902F00FFF044603F0C6
:1055C00023F980B20090E849C889BDF80010FFF7C0
:1055D000C1FFE3498868E54902F0FFFE044603F095
:1055E00013F980B20090E049088ABDF80010FFF777
:1055F000B1FFDF490868DB4902F0EFFE044603F023
:1056000003F980B20090D849488ABDF80010FFF72E
:10561000A1FFD7494868D34902F0DFFE044603F0F2
:10562000F3F880B20090D049888ABDF80010FFF7E7
:1056300091FFCF498868CD4902F0CFFE044603F0C0
:10564000E3F880B20090C849C88ABDF80010FFF79F
:1056500081FFC8490868C34902F0BFFE044603F051
:10566000D3F880B20090C049088BBDF80010FFF756
:1056700071FFC0494868BB4902F0AFFE044603F021
:10568000C3F880B20090B849488BBDF80010FFF70E
:1056900061FFB8498868B54902F09FFE044603F0EF
:1056A000B3F880B20090B049888BBDF80010FFF7C6
:1056B00051FFAB49C868B04902F08FFE044603F0C1
:1056C000A3F880B20090A84908886946FFF79FFDBB
:1056D000A3494869A84902F080FE044603F094F803
:1056E00080B20090A04948886946FFF790FDA04924
:1056F000C868A14902F071FE044603F085F880B243
:105700000090994988886946FFF781FD9849486962
:10571000994902F062FE044603F076F880B20090E8
:105720009149C8886946FFF772FD9249C868924955
:1057300002F053FE044603F067F880B200908A49F5
:1057400008896946FFF763FD8A4948698A4902F07A
:1057500044FE044603F058F880B20090824948891C
:105760006946FFF754FD38BD38B57F4988896946D9
:10577000FFF74DFDBDF8000003F030F8044679490D
:1057800002F05DFE764908607749C8896946FFF7EF
:105790003EFDBDF8000003F021F80446714902F017
:1057A0004EFE6F4948607049088A6946FFF72FFD31
:1057B000BDF8000003F012F804466C4902F03FFE09
:1057C000674988606849488A6946FFF720FDBDF847
:1057D000000003F003F80446624902F030FE644919
:1057E00008606149888A6946FFF711FDBDF800002D
:1057F00002F0F4FF04465B4902F021FE5C49486078
:105800005949C88A6946FFF702FDBDF8000002F059
:10581000E5FF0446554902F012FE55498860524999
:10582000088B6946FFF7F3FCBDF8000002F0D6FFD5
:1058300004464C4902F003FE4E4908604A49488B31
:105840006946FFF7E4FCBDF8000002F0C7FF04461C
:10585000444902F0F4FD474948604349888B694652
:10586000FFF7D5FCBDF8000002F0B8FF04463F4941
:1058700002F0E5FD3F4988603B4908886946FFF72B
:10588000C6FCBDF8000002F0A9FF04463A4902F048
:10589000D6FD3349C860344948886946FFF7B7FCEC
:1058A000BDF8000002F09AFF0446334902F0C7FD3C
:1058B0002B4948612C4988886946FFF7A8FCBDF848
:1058C000000002F08BFF04462B4902F0B8FD284986
:1058D000C8602549C8886946FFF799FCBDF80000F3
:1058E00002F07CFF0446244902F0A9FD20494861EA
:1058F0001D4908896946FFF78AFCBDF8000002F0DF
:105900006DFF04461C4902F09AFD1A49C860164909
:1059100048896946FFF77BFCBDF8000002F05EFF96
:105920000446154902F08BFD1249486138BDF8B5AF
:105930000D4988896946FFF76AFCBDF8000002F04E
:105940004DFF0746074902F07AFD044602F070FF5A
:1059500005462A460B4609A003F09CF9F8BD000055
:10596000683B00200000C8422001002000401C4687
:105970008C3B0020B03B002000007A44504944207A
:10598000726F6C2C2070203A20256600002100E008
:10599000491C8142FCD370470A2000BF011EA0F1C0
:1059A0000100FBD1704710B54FF48061FE48FBF752
:1059B00024F9FFF7F1FF4FF40061FB48FBF71DF9F5
:1059C000FFF7EAFF4FF48061F748FBF718F9FFF79C
:1059D000E3FF4FF40061F448FBF711F9FFF7DCFF38
:1059E00010BD10B54FF48061EF48FBF708F9FFF7E1
:1059F000D3FF4FF40061EC48FBF7FFF8FFF7CCFF53
:105A00004FF48061E848FBF7F8F8FFF7C5FF10BDD9
:105A10002DE9F04104462646002521E006F08007E6
:105A20007006060E4FF40061DF48FBF7E8F8FFF759
:105A3000B3FF802F04D1F900DB48FBF7DEF804E068
:105A40004FF48061D848FBF7DAF8FFF7A5FF4FF471
:105A50000061D548FBF7D1F8FFF79EFF681CC5B27F
:105A6000082DDBDB4FF40061CF48FBF7C8F8FFF7E8
:105A700093FF4FF48061CC48FBF7BFF8FFF78CFF32
:105A8000BDE8F08138B5044674B94FF48060ADF8D4
:105A9000000014208DF8030003208DF802006946F1
:105AA000C148FAF7FDFF0BE0012C09D1A002ADF8C7
:105AB000000048208DF803006946BB48FAF7F0FF64
:105AC00038BD70B500254FF40061B748FBF797F873
:105AD000FFF762FF4FF48061B348FBF78EF80120B7
