:020000040800F2
:100000007024002045010008AD1D0008AF1D000848
:10001000B31D0008B71D0008BB1D0008000000004C
:10002000000000000000000000000000BF1D0008EC
:10003000C11D00080000000053620008C51D000833
:100040005F0100085F0100085F0100085F01000810
:100050005F0100085F0100085F0100085F01000800
:100060005F0100085F0100085F0100085F010008F0
:100070005F0100085F0100085F0100085F010008E0
:100080005F0100085F0100085F0100085F010008D0
:100090005F0100085F0100085F0100085F010008C0
:1000A0005F0100085F0100085F0100085F010008B0
:1000B000513D00085F0100085F0100085F01000872
:1000C0005F0100085F0100085F0100085F01000890
:1000D0005F010008114100087F260008D91F0008B1
:1000E0005F0100085F0100085F0100085F01000870
:1000F0005F0100085F0100085F0100085F01000860
:100100005F0100085F0100085F0100085F0100084F
:100110005F0100085F0100085F010008D51D0008AD
:100120005F0100085F0100085F0100085F0100082F
:10013000DFF80CD006F008FD00480047491D000814
:10014000702400200648804706480047FEE7FEE787
:10015000FEE7FEE7FEE7FEE7FEE7FEE7FEE7FEE777
:1001600047020008310100080CB500200190009002
:100170006C48006840F480306A49086000BF6948F4
:10018000006800F4003000900198401C0190009835
:1001900018B90198B0F5A06FF1D16248006800F479
:1001A000003010B10120009001E000200090009884
:1001B000012843D15C48006840F010005A490860AB
:1001C0000846006820F0030008600846006840F018
:1001D0000200086053484068524948600846406839
:1001E00048600846406840F48060486008464068BF
:1001F00020F47C1048600846406840F4E8104860ED
:100200000846006840F08070086000BF45480068FC
:1002100000F000700028F9D04248406820F0030048
:10022000404948600846406840F00200486000BF0E
:100230003C48406800F00C000828F9D10CBD10B50E
:10024000FFF792FF10BD10B53648006840F001007E
:1002500034490860084640683449084031494860DC
:1002600008460068324908402E4908600846006880
:1002700020F4802008600846406820F4FE004860B2
:100280004FF41F008860FFF7DAFF4FF00060294944
:10029000086010BD10B5002100200022214B5B68D2
:1002A00003F00C0121B1042906D0082928D107E068
:1002B000214B224C236027E01F4B204C236023E07E
:1002C000184B5B6803F47010164B5B6803F48032C4
:1002D000022303EB904022B9194B4343174C236090
:1002E0000DE0104B5B6803F4003323B1144B434320
:1002F000124C236003E0104B4343104C236003E097
:100300000D4B0E4C236000BF00BF064B5B68C3F370
:1003100003130C4CE15C094B1B68CB40074C23607A
:1003200010BD000000100240002002400000FFF855
:10033000FFFFF6FE08ED00E000127A00000000204A
:1003400000093D000400002031490143314A116099
:10035000704770B5002100230F22C47804B32D4CE0
:10036000246804F4E064C4F5E064210AC1F10403E4
:10037000CA40447804FA03F1847814402143090107
:10038000254C0678A155047804F01F050124AC40E3
:1003900005786D11AD0005F1E025C5F8004109E0D3
:1003A000047804F01F050124AC401C4D067876113A
:1003B00045F8264070BD1A4A0A400243154B1B1FE0
:1003C0001A60704739B1134A121D12680243114B6B
:1003D0001B1D1A6006E00F4A121D126882430D4B66
:1003E0001B1D1A607047042808D14FF0E0210969ED
:1003F00041F004014FF0E022116107E04FF0E021ED
:10040000096921F004014FF0E022116170470000FA
:100410000000FA050CED00E000E400E080E100E0FF
:1004200080FFFF1F10B50446CC48844208D101214B
:10043000042000F02DFB0021042000F029FB46E001
:10044000C748844208D10121082000F021FB002187
:10045000082000F01DFB3AE0C248844208D1012187
:10046000102000F015FB0021102000F011FB2EE001
:10047000BD48844208D10121202000F009FB002161
:10048000202000F005FB22E0B848844208D1012179
:10049000402000F0FDFA0021402000F0F9FA16E0BB
:1004A000B348844208D10121802000F0F1FA0021F4
:1004B000802000F0EDFA0AE0AE48844207D1012125
:1004C000801500F0E5FA0021A01500F0E1FA10BD5A
:1004D00010B50121084600F0DBFA0021012000F0F0
:1004E000D7FA10BD2DE9F041024600250026002074
:1004F00000230024002791F803C00CF00F0591F8A9
:1005000003C00CF0100CBCF1000F03D091F802C036
:100510004CEA050591F800C0BCF1000F31D0146819
:1005200000202BE04FF0010C0CFA00F3B1F800C0F2
:100530000CEA03069E4220D183004FF00F0C0CFA08
:1005400003F7BC4305FA03FC4CEA040491F803C02A
:10055000BCF1280F06D14FF0010C0CFA00FCC2F8D8
:1005600014C00AE091F803C0BCF1480F05D14FF068
:10057000010C0CFA00FCC2F810C0401C0828D1D3B2
:100580001460B1F800C0BCF1FF0F34DD54680020E6
:100590002EE000F1080C4FF0010808FA0CF3B1F856
:1005A00000C00CEA03069E4221D183004FF00F0CDD
:1005B0000CFA03F7BC4305FA03FC4CEA040491F877
:1005C00003C0BCF1280F05D100F1080C08FA0CF8A3
:1005D000C2F8148091F803C0BCF1480F07D100F1B4
:1005E000080C4FF0010808FA0CF8C2F81080401C03
:1005F0000828CED35460BDE8F0814FF6FF7101802A
:10060000022181700421C170704702460020936866
:100610000B400BB1012000E00020704701468868C4
:1006200080B2704702460020D3680B400BB1012016
:1006300000E0002070470146C86880B27047016141
:100640007047416170470AB1016100E04161704744
:10065000C16070474FF480320A43826181618261D8
:1006600082698269704702460020434B18684FF642
:100670008073184040EA021008433F4B18607047EF
:100680003E49C8617047F0B50A46002300240021A6
:10069000002500F00046B6F1004F02D1364EF16958
:1006A00001E0354E7168C0F3034583B200F4401693
:1006B000B6F5401F08D121F070612F4E766826F004
:1006C00070662D4F7E6012E000F48016B6F5801F34
:1006D00006D1032606FA05F4A14341F0706106E055
:1006E000460D360103FA06F6B14341F0706122B1BE
:1006F000460D360103FA06F6314300F00046B6F126
:10070000004F02D11C4EF16101E01B4E7160F0BD43
:1007100030B500228B071C0F0F2303FA04F2164B8F
:1007200008338C1053F824309343134C08348D1045
:1007300044F8253023468C1053F824308C07240FBE
:1007400000FA04F423430C4C08348D1044F825308F
:1007500030BD0A49DC3108607047000000080140E4
:10076000000C01400010014000140140001801403D
:10077000001C014000200140000001400000204218
:10078000DF48006840F00100DD4908600846406825
:10079000DC490840DA49486008460068DA49084000
:1007A000D74908600846006820F4802008600846A1
:1007B000406820F4FE0048604FF41F0088607047D6
:1007C000CF49096821F48031CD4A1160114609688A
:1007D00021F480211160B0F5803F03D0B0F5802F67
:1007E0000ED106E0C649096841F48031C44A11605F
:1007F00007E0C349096841F4A021C14A116000E043
:1008000000BF00BF704710B5014600220023002042
:100810004A11012A02D1BA4C236806E0022A02D109
:10082000B74C236A01E0B64C636A01F01F02012451
:1008300094401C400CB1012000E0002010BD38B5F0
:10084000002000900024002500BF3120FFF7DBFFCF
:1008500005460098401C00900098B0F5A06F01D0AC
:10086000002DF2D03120FFF7CEFF08B1012400E0C7
:100870000024204638BD01460020A14A106820F01F
:10088000F80040EAC10010607047A0490860704756
:10089000024600209A4B586820F47C1042EA01037B
:1008A0001843974B5860704798490866704701464F
:1008B0000020934A506820F00300084350607047BE
:1008C0008F48406800F00C007047014600208C4AB9
:1008D000506820F0F0000843506070470146002047
:1008E000874A506820F4E060084350607047014632
:1008F0000020834A506820F4605040EAC1005060F4
:10090000704729B17E4A527A02437D4B5A7204E005
:100910007B4A527A82437A4B5A7270477B49D8316C
:100920000860704701460020754A506820F4404036
:100930000843506070470021714A20321170704A9C
:1009400082F82010012802D004280AD104E00121F5
:100950006B4A2032117005E00521694A203211707E
:1009600000E000BF00BF70476949086070476449F4
:10097000096A0143624A1162704765494439086057
:10098000704730B500210022002400235C4D6D68C3
:1009900005F00C0121B1042905D0082923D105E077
:1009A0005C4D056022E05B4D05601FE0544D6D68B5
:1009B00005F47012524D6D6805F48034022505EB84
:1009C00092421CB9544D554305600BE04C4D6D6887
:1009D00005F400351DB1504D5543056002E04D4D05
:1009E0005543056002E04B4D056000BF00BF444D1C
:1009F0006D6805F0F0010909484D6B5C0568DD4044
:100A000045603F4D6D6805F4E061090A434D6B5C3C
:100A10004568DD4085603A4D6D6805F46051C90A4E
:100A20003E4D6B5C4568DD40C560354D6D6805F435
:100A30004041890B3A4D6B5CC568B5FBF3F5056128
:100A400030BD29B12E4A526902432D4B5A6104E050
:100A50002B4A526982432A4B5A61704729B1284A6E
:100A600092690243264B9A6104E0254A92698243C7
:100A7000234B9A61704729B1214AD2690243204B26
:100A8000DA6104E01E4AD26982431D4BDA61704785
:100A900029B11B4AD2680243194BDA6004E0184AB4
:100AA000D2688243164BDA60704729B1144A126942
:100AB0000243134B1A6104E0114A12698243104B3E
:100AC0001A61704712494039086070470F49C8647D
:100AD00070470B49C87170470948406A40F0807000
:100AE00007494862704701460020054A92680A405B
:100AF0000AB1012000E00020704701498872704768
:100B0000001002400000FFF8FFFFF6FE0000424226
:100B10008004424200127A0000093D0014000020C7
:100B20002400002010B50446FE48844208D101216B
:100B3000C014FFF7ADFF0021E014FFF7A9FFC4E0E8
:100B4000B4F1804F08D101210846FFF7AEFF002124
:100B50000120FFF7AAFFB8E0F348844208D1012141
:100B60000220FFF7A2FF00210220FFF79EFFACE06A
:100B7000EE48844208D101210420FFF796FF0021AE
:100B80000420FFF792FFA0E0E948844208D1012148
:100B90000820FFF78AFF00210820FFF786FF94E076
:100BA000E448844208D101211020FFF77EFF002194
:100BB0001020FFF77AFF88E0DF48844208D1012146
:100BC0002020FFF772FF00212020FFF76EFF7CE05E
:100BD000DA48844208D101214014FFF759FF00216F
:100BE0006014FFF755FF70E0D548844209D1012118
:100BF000C804FFF74DFF00214FF40020FFF748FF26
:100C000063E0D048844209D101210805FFF740FF85
:100C100000214FF48010FFF73BFF56E0CA488442A2
:100C200009D101214805FFF733FF00214FF40010DF
:100C3000FFF72EFF49E0C548844208D1012140203A
:100C4000FFF733FF00214020FFF72FFF3DE0C048B2
:100C5000844208D101218020FFF727FF0021802056
:100C6000FFF723FF31E0BB48844208D10121801502
:100C7000FFF71BFF0021A015FFF717FF25E0B6487F
:100C8000844209D101210804FFF702FF00214FF43B
:100C90008030FFF7FDFE18E0B048844209D1012101
:100CA0004804FFF7F5FE00214FF40030FFF7F0FE97
:100CB0000BE0AB48844208D101218804FFF7E8FE2D
:100CC00000214FF48020FFF7E3FE10BD00220288D0
:100CD000944B98420ED0994B98420BD0B0F1804F74
:100CE00008D0914B984205D0904B984202D0904B3F
:100CF000984204D14FF68F731A404B881A438D4B9C
:100D0000984207D08C4B984204D04FF6FF431A40CC
:100D1000CB881A4302808B8883850B880385814B9F
:100D200098420BD0854B984208D08B4B984205D007
:100D30008A4B984202D08A4B984201D10B7A0386A3
:100D400001238382704770B5002400220023058CA4
:100D50004FF6FE7635400584028C8388048B4FF66F
:100D60008F752C40B51E2C400D882C43751E2A40D3
:100D70000D892A434D882A436A4DA8420BD06F4DF6
:100D8000A84208D0744DA84205D0744DA84202D0A4
:100D9000734DA84213D14FF6F7752A404D892A4367
:100DA0004FF6FB752A408D882A434FF6FF652B408E
:100DB0004FF6FF552B408D892B43CD892B438380E4
:100DC0000483CD888586028470BD70B5002400221E
:100DD0000023058C4FF6EF7635400584028C83881E
:100DE000048B48F6FF752C404FF6FF452C400D88CC
:100DF0004FF6FF7606EA05252C434FF6DF752A40AD
:100E00000D8906EA05152A434D8806EA05152A4389
:100E1000444DA84202D0494DA8421DD14FF67F75DE
:100E20002A404D894FF6FF7606EA05152A434FF60C
:100E3000BF752A408D8806EA05152A434FF6FF350F
:100E40002B404FF2FF752B408D8906EA85052B4319
:100E5000CD8906EA85052B4383800483CD880587E9
:100E6000028470BD70B5002400220023058C4FF66B
:100E7000FF6635400584028C8388848B4FF68F751E
:100E80002C404FF6FC752C400D882C434FF6FF5537
:100E90002A400D894FF6FF7606EA05252A434D883C
:100EA00006EA05252A431F4DA84202D0234DA84239
:100EB0001DD14FF2FF752A404D894FF6FF7606EAA5
:100EC00005252A434FF6FF352A408D8806EA052579
:100ED0002A434EF6FF752B404DF6FF752B408D894A
:100EE00006EA05152B43CD8906EA05152B438380B9
:100EF0008483CD888587028470BD70B5002200236D
:100F00000024058C4EF6FF7635400584038C8488DA
:100F1000828B48F6FF752A404FF6FF452A400D8820
:100F200020E00000002C01400004004000080040C8
:100F3000000C00400010004000140040003401404C
:100F4000004C014000500140005401400018004096
:100F5000001C0040002000400040014000440140CF
:100F6000004801404FF6FF7606EA05252A434DF674
:100F7000FF752B400D8906EA05352B434D8806EA9F
:100F800005352B43FA4DA84202D0FA4DA84208D1AC
:100F90004BF6FF752C408D894FF6FF7606EA8515D6
:100FA0002C4384808283CD88A0F84050038470BD98
:100FB000828B4FF2FF331A408283828B4FF6FF738E
:100FC00003EA01231A4382837047F0B50C461546A5
:100FD000002200210026078C4EF6FF7C07EA0C0752
:100FE0000784828B018C4FF6FF7707EA043640F6C0
:100FF000FF473A404FF6FF7707EA05273A434FF697
:10100000FF7707EA03373A43D94FB8420ED0D94F9A
:10101000B8420BD0B0F1804F08D0D74FB84205D0BE
:10102000D64FB84202D0D64FB84206D14DF6FF7720
:10103000394046F48057394305E047F6FF573940B9
:1010400044F48057394382830184F0BD828B4FF68C
:10105000F3731A408283828B0A4382837047F0B510
:101060000C461546002200210026078C4FF6FF6C27
:1010700007EA0C070784828B018C4FF6FF7707EA9B
:1010800004264FF60C773A404FF6FF7707EA03172E
:101090002F433A43B64FB8420ED0B64FB8420BD0AA
:1010A000B0F1804F08D0B44FB84205D0B34FB8422A
:1010B00002D0B34FB84206D14FF6FF57394046F43D
:1010C0008077394305E04FF2FF57394044F4807789
:1010D000394382830184F0BD028B4FF2FF331A4003
:1010E0000283028B4FF6FF7303EA01231A43028344
:1010F0007047F0B50C461546002200210026078CEB
:101100004FF6EF7C07EA0C070784028B018C4FF641
:10111000FF7707EA041640F6FF473A404FF6FF779D
:1011200007EA03373A434FF6FF7707EA05273A43C2
:101130008F4FB8420ED08F4FB8420BD0B0F1804FD6
:1011400008D08D4FB84205D08C4FB84202D08C4F9A
:10115000B84206D14FF6DF77394046F010073943E1
:1011600005E04FF65F77394044F0100739430283BA
:101170000184F0BD028B4FF6F3731A400283028B99
:101180000A4302837047F0B50C4615460022002141
:10119000068C4FF6FE773E400684028B018C4FF69C
:1011A0000C7632407E1C06EA03162E433243704E04
:1011B000B0420ED06F4EB0420BD0B0F1804F08D08D
:1011C0006D4EB04205D06D4EB04202D06C4EB04272
:1011D00006D14FF6FD76314044F00106314305E07B
:1011E0004FF6F576314044F0010631430283018425
:1011F000F0BD70B505460C465D4885420ED05D4891
:1012000085420BD0B5F1804F08D05B48854205D0B0
:101210005A48854202D05A48854200D100E000BFBA
:10122000208850B92389A28861882846FFF7ABFF40
:10123000E1882846FFF79EFF25E0208804280AD190
:101240002389A28861882846FFF753FFE188284652
:10125000FFF742FF17E0208808280AD12389A288D7
:1012600061882846FFF7FBFEE1882846FFF7EEFE7F
:1012700009E02389A28861882846FFF7A6FEE18855
:101280002846FFF795FE70BD2DE9F04105460C4656
:1012900000260127608808B9022600E00026A08801
:1012A000012801D1022700E001272088A0B9238965
:1012B000A28861882846FFF766FFE1882846FFF785
:1012C00059FF23893A4631462846FFF712FFE18845
:1012D0002846FFF701FF13E02389A288618828468A
:1012E000FFF707FFE1882846FFF7F6FE23893A4615
:1012F00031462846FFF747FFE1882846FFF73AFFC7
:10130000BDE8F0810A884B881A438B881A43CB8842
:101310001A430B891A434B891A438B891A43A0F845
:10132000442070474FF6FF71818000210180C18009
:101330004180017270470021018041808180C1801D
:10134000018141818181C1817047002101804180FB
:10135000012181800021C18001817047002101802D
:1013600041808180C180018141818181704700007D
:10137000002C0140003401400004004000080040FF
:10138000000C004021B1028842F00102028004E01A
:1013900002884FF6FE731A400280704731B1B0F8F0
:1013A000442042F40042A0F8442005E0B0F8442074
:1013B000C2F30E02A0F8442070471AB183890B4390
:1013C000838102E083898B438381704781827047E8
:1013D00041EA0203A0F8483070471AB183890B43F1
:1013E000838102E083898B438381704701894FF6B3
:1013F000F8721140018170470A46002101894FF6B9
:101400008F73194011430181704730B504460D4672
:1014100029462046FFF7F0FF208940F00700208191
:1014200030BD2DE9F04104460D4616461F46602D9D
:1014300006D13B46012231462046FFF75AFE05E021
:101440003B46012231462046FFF79DFE29462046B5
:10145000FFF7D2FF208940F007002081BDE8F0812E
:1014600030B50C4600210189C9B24FF6FF7505EA77
:101470000325154325432943018130BD2DE9F04162
:1014800005460E4617469846002443463A463146DE
:101490002846FFF7E5FF2C894FF6F870044044F02A
:1014A00007044FF68F70044044F070042C81BDE8AF
:1014B000F081F0B504460D4616461F463B463246BF
:1014C00029462046FFF7CCFF208940F48040208148
:1014D000F0BD0185828270470A46002101884FF6DF
:1014E0008F731940114301807047F0B50C461546C3
:1014F0001E460021002200230189028B038C4FF637
:10150000F877394021434FF6FC473A4040F2011743
:101510003A434FF6DD773B404FF6FF7707EA061771
:101520002F433B43018102830384F0BD0A4600211F
:10153000018B4FF68F7319401143018370470A46A0
:101540000021018B48F6FF7319404FF6FF7303EA41
:1015500002231943018370470A460021818B4FF60D
:101560008F7319401143818370470A460021818B94
:1015700048F6FF7319404FF6FF7303EA022319433D
:101580008183704721B1028842F08002028004E02A
:1015900002884FF67F731A400280704721B182881B
:1015A00042F00402828004E082884FF6FB731A4006
:1015B0008280704721B1828842F00802828004E074
:1015C00082884FF6F7731A408280704721B1828873
:1015D00042F00102828004E082884FF6FE731A40D6
:1015E000828070470A460021018B4FF6F77319403D
:1015F0001143018370470A460021018B4FF2FF73AC
:1016000019404FF6FF7303EA022319430183704721
:101610000A460021818B4FF6F773194011438183ED
:1016200070470A460021818B4FF2FF7319404FF635
:10163000FF7303EA02231943818370470A4600219E
:10164000018B4FF6FB7319401143018370470A4623
:101650000021018B4FF6FF3319404FF6FF7303EA69
:1016600002231943018370470A460021818B4FF6FC
:10167000FB7319401143818370470A460021818B17
:101680004FF6FF3319404FF6FF7303EA0223194365
:10169000818370470A460021018B4FF67F73194002
:1016A0001143018370470A460021018BC1F30E01EB
:1016B0004FF6FF7303EA02231943018370470A467A
:1016C0000021818B4FF67F7319401143818370474E
:1016D0000A460021818BC1F30E014FF6FF7303EA26
:1016E00002231943818370470A460021018C4FF67B
:1016F000FD7319401143018470470A460021018C93
:101700004FF6F77319401143018470470A460021D0
:10171000018C4FF6DF7319404FF6FF7303EA021393
:101720001943018470470A460021018C4FF67F73EC
:1017300019404FF6FF7303EA0213194301847047FF
:101740000A460021018C4FF6FF5319404FF6FF73F4
:1017500003EA02231943018470470A460021018CE1
:101760004FF2FF7319404FF6FF7303EA0223194348
:10177000018470470A460021018C4DF6FF73194021
:101780004FF6FF7303EA023319430184704730B503
:10179000002301248C40A3B2048C9C430484048C59
:1017A00002FA01F5ADB22C43048430BD30B50023FC
:1017B00004248C40A3B2048C9C430484048C02FA5D
:1017C00001F5ADB22C43048430BD70B50346002052
:1017D00000241846183001258D40ACB21D8CA5435D
:1017E0001D8409B1082909D100EB6100056825F0C5
:1017F000700505600568154305600EE00D1FC5F313
:101800004E052844056825F4E045056005684FF657
:10181000FF7606EA02263543056070BD21B10288D5
:1018200042F00202028004E002884FF6FD731A4083
:101830000280704721B1028842F00402028004E075
:1018400002884FF6FB731A400280704721B18288EC
:1018500042F08002828004E082884FF67F731A4053
:101860008280704702884FF6F7731A400280028820
:101870000A430280704782884FF68F731A40828035
:1018800082880A438280704702894FF6F8731A40B3
:10189000028102890A430281704702894FF67F73F1
:1018A0001A40028102890A4302817047818470478D
:1018B00081857047818670470187704781877047AF
:1018C000A0F84010704702884FF6FF431A4002808C
:1018D00002880A43028070470146888E704701469D
:1018E000088F70470146888F70470146B1F8400065
:1018F00070470146888C70470146088D7047024644
:101900000020138A0B400BB1012000E0002070473B
:10191000CA430282704730B50246002000230024EB
:10192000158A05EA0103958905EA010413B10CB192
:10193000012000E0002030BDCA4302827047000051
:1019400010B50446FB48844209D101218803FFF702
:101950009FF800214FF48040FFF79AF832E0F648F4
:10196000844209D101214804FFF79FF800214FF478
:101970000030FFF79AF825E0F048844209D10121B0
:101980008804FFF792F800214FF48020FFF78DF8CC
:1019900018E0EB48844209D10121C804FFF785F81B
:1019A00000214FF40020FFF780F80BE0E548844267
:1019B00008D101210805FFF778F800214FF48010C5
:1019C000FFF773F810BD2DE9F04786B005460E46C7
:1019D0000024A24600BFA1460027B08900B100BF85
:1019E0002F462C8A4CF6FF700440F08804432C826A
:1019F000AC894EF6F3100440B088318908437189F0
:101A000008430443AC81AC8A4FF6FF400440B089E0
:101A10000443AC8201A8FEF7B4FFC648874202D156
:101A2000DDF810A001E0DDF80CA0A88900F400406A
:101A300040B10AEBCA0000EB0A1031684900B0FB64
:101A4000F1F807E00AEBCA0000EB0A1031688900E0
:101A5000B0FBF1F86420B8FBF0F004012009642128
:101A600001FB1089A88900F4004040B1322000EB4E
:101A7000C900B0FBF1F000F00700044308E0322099
:101A800000EB09106421B0FBF1F000F00F000443FB
:101A90002C8106B0BDE8F0874FF41651016000219B
:101AA0008180C18001810C214181002181817047A9
:101AB00010B502460020108A4FF2FF0318400B8831
:101AC0004C8823438C882343CC88234318431082BB
:101AD00010BD0021018041808180C180704721B10B
:101AE000828942F40052828104E082894DF6FF73BC
:101AF0001A4082817047F0B5034600240026002575
:101B0000002040F66A17B94200D100BF1846C1F361
:101B1000421401F01F06012707FA06F5012C01D136
:101B20000C3004E0022C01D1103000E014301AB166
:101B300007682F43076002E00768AF430760F0BD06
:101B40001AB1838A0B43838202E0838A8B438382A8
:101B50007047028A4FF6F0731A400282028A0A43E3
:101B60000282704782894FF2FF731A408281828914
:101B70000A438281704721B1828942F00202828148
:101B800004E082894FF6FD731A4082817047028A11
:101B90004FF6DF731A400282028A0A4302827047BC
:101BA00021B1028A42F48042028204E0028A4BF6AA
:101BB000FF731A4002827047C1F3080282807047A7
:101BC00001468888C0F308007047818941F001010F
:101BD00081817047028BD2B20283028B42EA0122DA
:101BE00002837047028B02F47F420283028B0A4316
:101BF0000283704721B1828A42F02002828204E08F
:101C0000828A4FF6DF731A408282704721B1828A3E
:101C100042F01002828204E0828A4FF6EF731A408B
:101C20008282704721B1828A42F00802828204E0F7
:101C3000828A4FF6F7731A408282704721B18289F7
:101C400042F40042828103E08289C2F30E02828163
:101C5000704721B1828A42F40062828204E0828A63
:101C60004FF2FF731A4082827047828A4FF6FB73ED
:101C70001A408282828A0A438282704721B1828A14
:101C800042F00202828204E0828A4FF6FD731A401B
:101C90008282704702460020B1F5007F00D100BF6C
:101CA00013880B400BB1012000E00020704701F4C5
:101CB0000072B2F5007F00D100BFCA4302807047B6
:101CC00070B50246002400230025002040F66A1665
:101CD000B14200D100BFC1F3421501F01F0301263C
:101CE00006FA03F3012D02D19689334006E0022D56
:101CF00002D1168A334001E0968A33400C12012645
:101D000006FA04F41688344013B10CB1012000E047
:101D1000002070BD10B50022002340F66A14A142D5
:101D200000D100BF0A1201249440A3B2DC43048016
:101D300010BD000000380140004400400048004051
:101D4000004C00400050004010B500F08FF802F049
:101D50006FFF0A210D4803F0ACFA0D4908600A2113
:101D60000C4803F0A6FA0C4908600A210B4803F05E
:101D7000A0FA0B49086004230A4A00210A4803F02C
:101D8000FFFD03F073F8002010BD000010020020DA
:101D900028000020380200203000002060020020CF
:101DA00038000020C4030020D9470008704700BF56
:101DB000FEE700BFFEE700BFFEE700BFFEE770479B
:101DC0007047704710B502F047FF03F086F802F045
:101DD0005EFF10BD10B501210C48FFF79CFDA0B1BE
:101DE0000B480068401C0A49086008460068B0F5C6
:101DF0007A7F06D10020086006480068401E054929
:101E0000086001210148FFF797FD10BD0014004054
:101E10005C0100206001002030B5164800684FF4D6
:101E20007A72B0FBF2F1B1F1807F00D31DE021F0B6
:101E30007F40401E4FF0E022506150170F220028D3
:101E400007DA13071D0E0C4B00F00F04241F1D555D
:101E500003E013071C0E094B1C5400BF00204FF079
:101E6000E02290610720106100BF30BD00B5FFF790
:101E7000D3FF00BD0000002018ED00E000E400E00A
:101E800000B585B001218804FEF7F5FD0121212070
:101E9000FEF7E4FD01216A48FEF7F5FB4FF4807080
:101EA000ADF8100018208DF8130003208DF81200F3
:101EB00004A96448FEF716FB4FF40070ADF810005B
:101EC00004208DF8130004A95E48FEF70BFB4FF4C5
:101ED000165000900020ADF80400ADF80600ADF8F3
:101EE0000800ADF80C000C20ADF80A006946564811
:101EF000FFF769FD012240F225515348FFF7FBFD32
:101F000001215148FFF7EBFD05B000BD08B54FF4C6
:101F1000E060FEF719FA27208DF8000001208DF807
:101F2000010000208DF8020001208DF803006846B2
:101F3000FEF70FFA08BD002003E00021434A1154C8
:101F4000401CC828F9DB70470FB438B505A80090CD
:101F50003F48009A049904F081FE002000903C481C
:101F600004F0BAF985B200240DE000BF40213648E4
:101F7000FFF790FE0028F9D03548015D3248FFF7A1
:101F80001BFE601C84B2AC42EFDB38BC5DF814FB76
:101F900010B53048008800F4004078B12EA12B48DD
:101FA00004F0A1F910B92DA0FFF7CEFF2DA127480D
:101FB00004F099F910B92CA0FFF7C6FF2BA0FFF78A
:101FC000C3FF22492A48006803F01AFB0020214978
:101FD0000880FFF7B0FF10BD10B502F03DFE40F2E3
:101FE00025511948FFF76CFE38B31748FFF7E8FD95
:101FF000204908701748008800F40040E8B90846F6
:102000000078232808D11348008840F40040114983
:102010000880FFF7BDFF10E0164801780D480288E0
:102020000088401C0B4B18800848815418460088D3
:10203000C72802DD00201946088002F028FE10BDE6
:10204000300014000014014000480040C803002084
:10205000900400203E00002059657300636F707982
:10206000000000004E6F00006F6B00000D0A0000C2
:10207000280000204000002000B585B00121082084
:10208000FEF7ECFC2020ADF8100004208DF81300C2
:1020900003208DF8120004A9FE48FEF723FA01215F
:1020A0004804FEF7E8FC01212120FEF7D7FC0121BE
:1020B0000820FEF7E8FA2020ADF8100018208DF86F
:1020C000130003208DF8120004A9F348FEF70AFA62
:1020D0004020ADF8100004208DF8130004A9EE484C
:1020E000FEF700FA4FF4165000900020ADF80400FF
:1020F000ADF80600ADF80800ADF80C000C20ADF806
:102100000A006946E548FFF75EFC012240F22551CE
:10211000E248FFF7F0FC0021E048FFF7E0FC05B0E3
:1021200000BD08B54FF4E060FEF70EF926208DF8EB
:10213000000001208DF8010000208DF80200012030
:102140008DF803006846FEF704F908BD002000BFC3
:1021500003E00021D24A1154401CB0F5487FF8DB5F
:102160007047F8B5CF49D1F8490004F023FB074682
:10217000CD49384604F04FF90746044604F04CFBBD
:102180000546C84890F84D002A460B460090C7A067
:1021900004F054FDC349486C04F00CFB0746C249E7
:1021A000384604F038F90746044604F035FB054686
:1021B000BC4890F848002A460B460090C1A004F0A5
:1021C0003DFDB84890F8403090F83F20B0F83D1001
:1021D000C2A004F033FDB34890F8433090F8422099
:1021E00090F84110C5A004F029FDF8BD10B50246D5
:1021F000012000E050430B1EA1F10104E1B2F9D12E
:1022000010BD2DE9F34F81B007463C4600200090F9
:10221000834681460026804628E020782D2802D17A
:1022200048F00208641C20782C2802D020782A2844
:1022300000D11CE020782E2803D148F00108641C4E
:1022400009E02078392802DC2078302803DA4FF0C2
:10225000000900260BE008F0010010B1701CC6B2A6
:1022600003E009F1010000F0FF09641CD5E700BF9D
:1022700008F0020000B17F1C00250EE0A9F101006A
:10228000401BC1B20A20FFF7B1FF795D3039009AD7
:1022900000FB01200090681CC5B24D45EEDB052E09
:1022A00000DD05260298067000250EE0701E401B1A
:1022B000C1B20A20FFF79AFF09F101012944795CB4
:1022C000303900FB01BB681CC5B2B542EEDB3146BC
:1022D0000A20FFF78BFF009901FB00BA08F002000B
:1022E00008B1CAF1000A5046BDE8FE8F0246134607
:1022F00010E010782A2805D01078202802DB10780A
:102300007A2801DDFF20704710782C2801D1481E63
:10231000C1B2521C0029ECD1D01AC0B2F3E72DE9AA
:10232000F04F85B0044688467CA1404603F0C2FFCA
:10233000074601213846FFF7D9FF0546FF2D24D077
:10234000781904A9FFF75DFF82469DF810100A2056
:10235000FFF74CFFBAFBF0F642F21070B6FBF0F05C
:102360000830C1B2412001556420B6FBF0F0642171
:10237000B0FBF1F201FB1201422001556420B6FBD3
:10238000F0F100FB11614320015503213846FFF7AE
:10239000ADFF0546FF2D43D0781904A9FFF731FFA3
:1023A00006469DF81000801CC1B20A20FFF71EFFF0
:1023B000B6FBF0F060649DF81000801CC1B20A20EA
:1023C000FFF714FFB6FBF0F100FB116A504604F072
:1023D000F1F981469DF81000C0F10500C1B20A2054
:1023E000FFF704FF009004F0E5F98346494603F047
:1023F000E0FF82464B4904F00EF8052102900A20C6
:10240000FFF7F4FE616C00FB01FA504604F0D2F9CC
:102410000190029903F075FF039004F0D0F9606415
:1024200004213846FFF762FF0546FF2D02D0785D94
:1024300084F8480005213846FFF758FF0546FF2D70
:1024400072D0781904A9FFF7DCFE06469DF810004B
:10245000801CC1B20A20FFF7C9FEB6FBF0F044F8B9
:10246000490F9DF81000801CC1B20A20FFF7BEFE84
:10247000B6FBF0F100FB116A504604F09BF981466F
:102480009DF81000C0F10500C1B20A20FFF7AEFEB2
:1024900000904AE0000C014000140140004400405C
:1024A00058050020980B00200050C3474C6F6E6702
:1024B00069747564653A252E3566202531632020C0
:1024C000200D0A004C617469747564653A252E35D7
:1024D00066202531632020200D0A0000555443203A
:1024E000446174653A253034642F253032642F25D9
:1024F0003032642020200D0A000000005554432093
:1025000054696D653A253032643A253032643A2593
:102510003032642020200D0A000000004750524D48
:1025200043000000000070421DE004F043F98346C0
:10253000494603F03EFF8246714903F06CFF0521D6
:1025400002900A20FFF752FE216800FB01FA504674
:1025500004F030F90190029903F0D3FE039004F0E7
:102560002EF944F8490906213846FFF7BFFE054613
:10257000FF2D02D0785D84F84D0009213846FFF721
:10258000B5FE0546FF2D1ED0781904A9FFF739FEC8
:10259000064642F21070B6FBF0F0C1B24020015581
:1025A0006420B6FBF0F06421B0FBF1F201FB1201F4
:1025B0003F2001556420B6FBF0F100FB116000F5EF
:1025C000FA60A4F83D0005B0BDE8F08FF8B5054607
:1025D0000F464CA1384603F06DFE064606213046F4
:1025E000FFF784FE0446FF2C05D030196946FFF73B
:1025F00008FE85F84E0007213046FFF777FE0446B7
:10260000FF2C05D030196946FFF7FBFD85F84F0018
:1026100009213046FFF76AFE0446FF2C05D0301929
:102620006946FFF7EEFDC5F86300F8BD70B50446D6
:102630000D4629462046FFF7C9FF29462046FFF7E9
:102640006EFE70BD70B5002430480088C0F30D05E3
:1026500000BF04E02E48005D2E490855641CAC42C2
:10266000F8DB00202B4908552B48FFF7DFFFFFF769
:1026700078FDFFF76BFD00202449088070BD10B580
:1026800040F225512548FFF71BFB20B32348FFF7F5
:1026900097FAC4B21D48008800F40040D8B91B481E
:1026A000008800F4804070B10A2C03D00020174944
:1026B000088023E015480088C0F30D001349088006
:1026C000FFF7C0FF1AE00D2C06D11048008840F437
:1026D00080400E49088011E00C480088C0F30D00CE
:1026E0000B490C5409480088401C084908800846DA
:1026F0000088B0F5487F01DB0020088010BD000095
:10270000000070422447504747410000420000202B
:102710005805002078080020980B00200044004055
:10272000002100E0491C8142FCD370470A2000BF11
:10273000011EA0F10100FBD1704710B54FF480617C
:10274000FE48FDF77CFFFFF7F1FF4FF40061FB4807
:10275000FDF775FFFFF7EAFF4FF48061F748FDF7DB
:1027600070FFFFF7E3FF4FF40061F448FDF769FFE6
:10277000FFF7DCFF10BD10B54FF48061EF48FDF7A7
:1027800060FFFFF7D3FF4FF40061EC48FDF757FF00
:10279000FFF7CCFF4FF48061E848FDF750FFFFF7EB
:1027A000C5FF10BD2DE9F04104462646002521E075
:1027B00006F080077006060E4FF40061DF48FDF753
:1027C00040FFFFF7B3FF802F04D1F900DB48FDF78E
:1027D00036FF04E04FF48061D848FDF732FFFFF781
:1027E000A5FF4FF40061D548FDF729FFFFF79EFFD5
:1027F000681CC5B2082DDBDB4FF40061CF48FDF744
:1028000020FFFFF793FF4FF48061CC48FDF717FFDF
:10281000FFF78CFFBDE8F08138B5044674B94FF47A
:102820008060ADF8000014208DF8030003208DF8BF
:1028300002006946C148FDF755FE0BE0012C09D1A5
:10284000A002ADF8000048208DF803006946BB489F
:10285000FDF748FE38BD70B500254FF40061B7485C
:10286000FDF7EFFEFFF762FF4FF48061B348FDF71D
:10287000E6FE0120FFF7D0FF00241CE0FFF756FF23
:102880004FF40061AD48FDF7DAFEFFF74FFF4FF45C
:102890008061AA48FDF7B9FE012801D1012600E0B8
:1028A000002646EA4500C5B24FF40061A348FDF793
:1028B000C8FE601CC4B2082CE0DB0020FFF7ACFFB0
:1028C000FFF734FF284670BD10B500240120FFF744
:1028D000A3FF4FF400619948FDF7B1FEFFF726FF13
:1028E00000E0641C4FF480619448FDF78EFE0128DF
:1028F00003D141F288308442F3D34FF400618F4812
:10290000FDF79FFEFFF712FF0020FFF785FF10BDC8
:1029100010B54FF400618948FDF793FEFFF706FFFD
:102920004FF480618548FDF78CFEFFF7FFFE4FF402
:1029300000618248FDF783FEFFF7F8FE4FF4006167
:102940007E48FDF77EFEFFF7F1FE10BD10B54FF497
:1029500000617A48FDF775FEFFF7E8FE4FF48061ED
:102960007648FDF76CFEFFF7E1FE4FF40061734817
:10297000FDF765FEFFF7DAFE4FF400616F48FDF7E3
:1029800060FEFFF7D3FE10BD70B504460D46FFF79D
:10299000D4FE2046FFF706FFFFF796FF2846FFF715
:1029A00001FFFFF791FFFFF7C8FE611CC8B2FFF7F8
:1029B000F9FEFFF789FFFFF74EFF0646FFF7DBFE44
:1029C0003220FFF7ADFE304670BD70B506460C46AE
:1029D0001546FFF7B2FE3046FFF7E4FEFFF774FF3F
:1029E0002046FFF7DFFEFFF76FFF2846FFF7DAFE0E
:1029F000FFF76AFFFFF7BFFEFA20FFF791FE70BDF9
:102A000070B505460C46FFF798FE2846FFF7CAFE4C
:102A1000FFF75AFF2046FFF7C5FEFFF755FFFFF708
:102A2000AAFEFA20FFF77CFE70BD2DE9F0410646B4
:102A30000F4615469846FFF780FE3046FFF7B2FE78
:102A4000FFF742FF3846FFF7ADFEFFF73DFFFFF708
:102A500074FE711CC8B2FFF7A5FEFFF735FF002416
:102A60000DE0FFF7F8FE08F80400601CA84202DA47
:102A7000FFF74EFF01E0FFF769FF601CC4B2AC42F4
:102A8000EFDBFFF778FEFA20FFF74AFEBDE8F081A2
:102A90002DE9F04104460D46FFF74FFE2046FFF7B3
:102AA00081FEFFF711FF2846FFF77CFEFFF70CFFC2
:102AB000FFF743FE611CC8B2FFF774FEFFF704FF87
:102AC000FFF7C9FE0646FFF723FFFFF7C4FE0746E0
:102AD000FFF73CFFFFF74FFEFA20FFF721FE47EA22
:102AE00006284046BDE8F0812DE9F04704460D4632
:102AF000FFF723FE2046FFF755FEFFF7E5FE2846C9
:102B0000FFF750FEFFF7E0FEFFF717FE611CC8B2AB
:102B1000FFF748FEFFF7D8FEFFF79DFE0746FFF7D9
:102B2000F7FEFFF798FE0646FFF7F2FEFFF793FE6B
:102B30008046FFF70BFFFFF71EFE01E0000C01408F
:102B4000FA20FFF7EDFDC7EB074000EB062000EB96
:102B500008094846BDE8F08708B501210820FDF7BF
:102B60007DFF4FF40060ADF8000014208DF80300E5
:102B700003208DF8020069460848FDF7B3FC4FF4C6
:102B80008060ADF8000014208DF8030003208DF85C
:102B9000020069460148FDF7A5FC08BD000C014094
:102BA00008B501210920FDF759FF4FF47070ADF809
:102BB000000003208DF8020018208DF803006946FC
:102BC0005E48FDF78FFC08BDF0B587B014271424CC
:102BD0001425142601210420FDF74DFF44F61F6043
:102BE000ADF814004720ADF810000020ADF8160035
:102BF000ADF8120004A95248FEF768F86020ADF85D
:102C000000000120ADF80200ADF806700020ADF81C
:102C1000080069464A48FEF796F80120ADF8020020
:102C2000ADF8064069464648FEF7CFF80120ADF8FA
:102C30000200ADF8065069464148FEF713F901203D
:102C4000ADF80200ADF8066069463D48FEF755F95B
:102C500008213B48FEF7C6FC08213948FEF7CBFCAB
:102C600008213748FEF7D4FC08213548FEF7D9FC87
:102C700001213348FEF786FC01213148FEF782FB33
:102C800007B0F0BD4FF47A714143642291FBF2F139
:102C900001F57A712A4A343211804FF47A71414336
:102CA000642291FBF2F101F57A71254A38321180E4
:102CB0004FF47A714143642291FBF2F101F57A718C
:102CC0001F4A3C3211804FF47A714143642291FBD8
:102CD000F2F101F57A711A4A40321180704730B52D
:102CE0004FF47A744443642594FBF5F404F57A7444
:102CF000134D34352C804FF47A744C43642594FB87
:102D0000F5F404F57A740E4D38352C804FF47A744E
:102D10005443642594FBF5F404F57A74084D3C356E
:102D20002C804FF47A745C43642594FBF5F404F52D
:102D30007A74034D40352C8030BD0000000C0140FA
:102D4000000800402DE9F04105460C46FE480168A8
:102D5000204603F028FB0746FC480168384603F08C
:102D600028FB0646FA480168304603F0CAFAF849DB
:102D70000860F8484168F848006803F014FB06460C
:102D8000F4488168304603F00EFBF4490860F148CE
:102D9000C06880F000404860EE48C06880F00040A5
:102DA0008860EF480068C8600868E849096803F06F
:102DB00000FB0646E7480168304603F0A2FAE54901
:102DC0000860E6494868E149096803F0F2FA0646F6
:102DD000E0484168304603F094FADE494860DF4934
:102DE0008868DA49096803F0E4FA0646D948816838
:102DF000304603F086FAD7498860D849C868D34975
:102E0000096803F0D6FA0646D248C168304603F096
:102E100078FAD049C860CE480168284603F0C3FA62
:102E2000D0490860D048007803F0C4FC0646C94881
:102E30000168304603F0BDFACC490860CA48007802
:102E400003F0B8FC0646C3488168304603F0B1FA87
:102E5000C7490860C448007803F0ACFC0746C34883
:102E60000168384603F0A5FA0646C24801683046B4
:102E700003F047FAC049086008460168BB4800688B
:102E800003F0C9FABD490860BB480168B84800684A
:102E900003F0C1FABA490860B4480068B94908604B
:102EA000B148007803F086FC0646AA4841683046DF
:102EB00003F07FFAB4490860B2480168AF4800687F
:102EC00003F077FA0646A3480168304603F06EFA2D
:102ED000A0490860AC480168A848006803F069FA96
:102EE00006469C484168304603F060FA99494860BC
:102EF000A4480168A248006803F05BFA06469548BA
:102F00008168304603F052FA924988609E48016811
:102F10009B48006803F04DFA06468E48C16830466B
:102F200003F044FA8B49C8608E48016893480068F2
:102F300003F03FFA064686480168304603F0E1F99F
:102F400083490860874801688D48006803F031FABA
:102F500006467D480168304603F0D3F97A49086097
:102F600008460168204603F01EFA88490860BDE85B
:102F7000F0812DE9F04105460C4685480168204660
:102F800003F011FA074671480168384603F011FA58
:102F9000064680480168304603F0B3F97D49086071
:102FA0007D4841686C48006803F0FDF906467A48A0
:102FB0008168304603F0F7F9684908607648C068D0
:102FC00080F0004048607448C06880F0004088602D
:102FD00063480068C86008685C49096803F0E9F95B
:102FE00006466D480168304603F08BF96A4908606F
:102FF0005A4948685549096803F0DBF906466648AE
:103000004168304603F07DF9634948605349886858
:103010004E49096803F0CDF906465F48816830469D
:1030200003F06FF95C4988604C49C86847490968F2
:1030300003F0BFF906465848C168304603F061F90D
:103040005549C86053480168284603F0ACF9454922
:1030500008604548007803F0ADFB06464E4801681D
:10306000304603F0A6F9414908603F48007803F074
:10307000A1FB064648488168304603F09AF93C496E
:1030800008603948007803F095FB07463748016827
:10309000384603F08EF9064636480168304603F09C
:1030A00030F935490860084601683048006803F087
:1030B000B2F932490860304801682D48006803F0D1
:1030C000AAF92F490860294800682E490860264857
:1030D000007803F06FFB06462F484168304603F046
:1030E00068F929490860274801682448006803F006
:1030F00060F9064628480168304603F057F926492A
:103100000860214801681D48006803F052F906462E
:1031100021484168304603F049F91F494860194881
:1031200001681748006803F044F906461A488168A8
:10313000304603F03BF9184988601348016810488D
:10314000006803F036F929E0DC0000209000002040
:103150007C000020CC00002084000020040C002013
:10316000880000209C00002094000020A000002087
:10317000A40000208C000020A8000020AC0000204B
:10318000B0000020B4000020B8000020540000204F
:103190009800002078000020BC0000200646FE4871
:1031A000C168304603F002F9FB49C860FB4801687A
:1031B000FB48006803F0FDF80646FA48016830460F
:1031C00003F09FF8F7490860F4480168F648006882
:1031D00003F0EFF80646F5480168304603F091F831
:1031E000F249086008460168204603F0DCF8F0491F
:1031F0000860BDE8F0812DE9F04F93B0ED480088FC
:1032000003F0D8FAEC490860EC48008803F0D2FAE1
:10321000EB490860EB48008803F0CCFAEA49086003
:10322000EA48008803F0C6FAE1490860E8480088E7
:1032300003F0C0FAE7490860E748008803F0BAFAEB
:10324000E6490860E648006803F0ABFAE549086023
:10325000E548006803F0A5FAE4490860E44800681E
:1032600003F09FFAE3490860E349D348006803F09C
:1032700003FB07D24FF08D41CF48006803F0CBF835
:1032800005460BE0CC4801684FF08E4003F08BF808
:1032900007464FF08D4103F0BEF80546D649C848B1
:1032A000006803F0E9FA07D24FF08D41C448006886
:1032B00003F0B1F806460BE0C14801684FF08E40BC
:1032C00003F071F807464FF08D4103F0A4F806466D
:1032D000C949BD48006803F0CFFA07D24FF08D41CD
:1032E000B948006803F097F804460BE0B648016857
:1032F0004FF08E4003F057F807464FF08D4103F032
:103300008AF804462146304603F085F8834603F0E8
:1033100083FACDE90C0104F04DFC0022B74BCDE956
:103320000E0103F05DF94FF0C042B54BCDE910013D
:1033300003F0C8F9074603F082FAB2490860214653
:10334000284603F068F8834603F066FACDE90C01DD
:1033500004F030FC0022A94BCDE90E0103F040F946
:103360004FF0C042A64BCDE9100103F0ABF9074680
:1033700003F065FAA44908609F499A48006803F081
:103380007BFA07D24FF08D419648006803F043F86E
:1033900005460BE0934801684FF08E4003F003F8B8
:1033A00007464FF08D4103F036F8054692498F48A5
:1033B000006803F061FA07D24FF08D418B48006836
:1033C00003F029F806460BE0884801684FF08E406C
:1033D00002F0E9FF07464FF08D4103F01CF8064666
:1033E00085498448006803F047FA07D24FF08D41C1
:1033F0008048006803F00FF804460BE07D48016840
:103400004FF08E4002F0CFFF07464FF08D4103F0A2
:1034100002F8044678496848006803F02DFA03D2A0
:10342000794800687849086073496348006803F088
:103430002DFA05D27448006880F000407249086097
:103440006D495F48006803F017FA03D26D480068C1
:103450006C49086068495A48006803F017FA05D2B9
:103460006848006880F00040664908606548006868
:1034700003F0D2F9074604F0BBFDCDE90A0162482A
:10348000006803F0C9F9CDE9040104F063FD0746C3
:103490008846204603F0C0F93A464346CDE9060186
:1034A00003F09EF8CDE90801DDE90A2303F098F85E
:1034B000CDE90E015448006803F0AEF9074604F068
:1034C00097FDCDE906014F48006803F0A5F90746CE
:1034D00004F08EFDCDE90201304603F09DF9CDE9FF
:1034E0000001DDE9022303F07BF8CDE90401DDE909
:1034F000062303F075F8CDE90A014248006803F09D
:103500008BF9074604F026FDCDE90601284603F0B5
:1035100083F9CDE90401DDE9062303F061F8CDE983
:103520000801DDE90A2302F0B4FFCDE90C01DDE971
:103530000E2303F04FF8CDE9100103F080F9814626
:103540003148006803F068F9074604F051FDCDE901
:103550000A01204603F060F9CDE90801DDE90A23FC
:1035600003F03EF8CDE90E012748006803F054F956
:10357000CDE9080104F0EEFC07468846304603F02A
:103580004BF93A464346CDE90A0103F029F8CDE963
:103590000C01DDE90E2339E0BC0000209C00002076
:1035A000AC00002078000020B0000020980000202F
:1035B00050000020FE0000204400002000010020F8
:1035C00048000020020100204C000020F8000020EC
:1035D000FA00002054000020FC00002058000020C9
:1035E000680100205C0000206C01002060000020C9
:1035F000700100206400002000F8FF460080664053
:10360000B81E09406C0000207000002002F041FF4D
:10361000CDE9100103F013F98246484603F0FCF8A7
:10362000CDE90C01504603F0F7F80746DDE90C231D
:1036300004F0D0FBED4AEE4BCDE90E0102F0D0FFD5
:10364000CDE9100103F0FBF8EA490860EA48016897
:10365000E848006802F0A7FEE64908604FF08E4196
:10366000E648006803F008F911D2E448006803F066
:10367000D3F84FF06632E24BCDE9100103F022F8A7
:1036800081F00041074603F0DAF8DC4908604FF0AA
:103690008E41DA48006803F0F9F813D2D748016880
:1036A000D84802F080FE834603F0B6F807464FF094
:1036B0006632D34B03F006F8CDE9100103F0BFF8F2
:1036C000CE4908604FF08E41CF48006803F0D4F82F
:1036D00011D2CD48006803F09FF807464FF06632DC
:1036E000C74B02F0EFFF81F00041CDE9100103F07C
:1036F000A6F8C54908604FF08E41C348006803F042
:10370000C5F813D2C0480168BE4802F04CFE83469B
:1037100003F082F807464FF06632B94B02F0D2FF51
:10372000CDE9100103F08BF8B74908604FF08E41E6
:10373000B648006803F0A0F811D2B448006803F05E
:103740006BF807464FF06632AD4B02F0BBFF81F0DD
:103750000041CDE9100103F072F8AC4908604FF068
:103760008E41AA48006803F091F813D2A748016877
:10377000A44802F018FE834603F04EF807464FF0C7
:1037800066329F4B02F09EFFCDE9100103F057F81F
:103790009E490860994801689D480068FFF7E9FB69
:1037A000994801689B480068FFF7CCFA9748016880
:1037B00090480068FFF7C6FA13B0BDE8F08F2DE916
:1037C000F04105460C4694480168204602F0EBFDA6
:1037D000074692480168384602F0EBFD06469048DD
:1037E0000168304602F08DFD8D4908608D484168C2
:1037F0008D48006802F0D7FD06468A488168304649
:1038000002F0D1FD894908608648C06880F0004018
:1038100048608448C06880F0004088608448006840
:10382000C86008687D49096802F0C3FD06467D4806
:103830000168304602F065FD7A4908607B494868B6
:103840007649096802F0B5FD06467648416830467B
:1038500002F057FD73494860744988686F490968E8
:1038600002F0A7FD06466F488168304602F049FD28
:103870006C4988606D49C8686849096802F099FD1B
:1038800006466848C168304602F03BFD6549C8609D
:1038900063480168284602F086FD6649086066486C
:1038A000007802F087FF06465E480168304602F065
:1038B00080FD624908606048007802F07BFF0646A0
:1038C00058488168304602F074FD5D4908605A48E6
:1038D000007802F06FFF074658480168384602F04A
:1038E00068FD064657480168304602F00AFD564911
:1038F0000860084601685148006802F08CFD534991
:103900000860514801684E48006802F084FD504943
:1039100008604A4800684F4908604748007802F04C
:1039200049FF06463F484168304602F042FD4A4999
:103930000860484801684548006802F03AFD0646BC
:1039400038480168304602F031FD36490860424887
:1039500001683E48006802F02CFD06463148416887
:10396000304602F023FD2F4948603A480168384844
:10397000006802F01EFD06462A488168304602F0C3
:1039800015FD28498860344801683148006802F014
:1039900010FD06462348C168304602F007FD214964
:1039A000C860244801682948006802F002FD064604
:1039B0001B480168304602F0A4FC194908601D4804
:1039C00001682348006802F0F4FC064612480168CA
:1039D000304602F096FC104908600846016820460F
:1039E00002F0E1FC09490860BDE8F081775AF01A5D
:1039F000DCA54C407400002068000020500000202E
:103A00006666304000FF7F475400002058000020C9
:103A10006C00002070000020F000002090000020CA
:103A200080000020E000002084000020040C002022
:103A3000880000209C00002094000020A0000020AE
:103A4000A40000208C000020A8000020AC00002072
:103A5000B0000020B4000020B800002010B5002203
:103A60006B21D020FEF7B1FF07221921D020FEF7ED
:103A7000ACFF06221A21D020FEF7A7FF42223721F1
:103A8000D020FEF7A2FF40226A21D020FEF79DFF42
:103A900018221B21D020FEF798FF01221C21D020E4
:103AA000FEF793FFC82300221146104602F0ACFA3D
:103AB00010BD10B54421D020FEF766FF4F490870B5
:103AC0004321D020FEF760FF4C494870084600783B
:103AD000497840EA01204A4908804621D020FEF773
:103AE00053FF464988704521D020FEF74DFF4349DA
:103AF000C87008468078C97840EA012041490880AA
:103B00004821D020FEF740FF3C4908714721D020D2
:103B1000FEF73AFF3949487108460079497940EA89
:103B200001203949088010BD2DE9F05F3C21D020EB
:103B3000FEF72AFF314908703B21D020FEF724FF11
:103B40002E49487008460078497840EA01202F49FC
:103B500008803E21D020FEF717FF284988703D21BC
:103B6000D020FEF711FF2549C87008468078C97833
:103B700040EA0120264908804021D020FEF704FFBA
:103B80001E4908713F21D020FEF7FEFE1B494871F7
:103B900008460079497940EA01201E4908804221FF
:103BA000D020FEF7F1FE154988714121D020FEF7A3
:103BB000EBFE1249C87108468079C97940EA0120B4
:103BC000154908800846008802F0F4FD8346134931
:103BD00002F021FC824602F01FFE0646104A114BFD
:103BE00002F057FC044600220F4B02F0F9FC80461D
:103BF00002F0F9FD08490880BDE8F09F140C002090
:103C0000F8000020FA000020FC000020FE00002048
:103C10000001002002010020040100200000AA434E
:103C2000A4703D0AD74342400000244008B501215A
:103C30000846FCF720FF01210520FCF70FFF0F20AD
:103C4000ADF8000003208DF8020028208DF8030055
:103C50006946E148FCF746FC0F21DF48FCF7F1FC20
:103C600008BD00B587B01C208DF8000000208DF83D
:103C7000010001208DF802008DF803006846FCF772
:103C800068FB4FF6FF70ADF814004720ADF8100048
:103C90000020ADF81600ADF8120004A94FF08040E6
:103CA000FDF714F80020ADF80400ADF8060001207F
:103CB000ADF808000020ADF80A00ADF80C0001A92D
:103CC0004FF08040FDF795FA0420ADF80400002085
:103CD000ADF806000120ADF808000020ADF80A009C
:103CE000ADF80C0001A94FF08040FDF782FA0820E2
:103CF000ADF804000020ADF806000120ADF8080082
:103D00000020ADF80A00ADF80C0001A94FF080408A
:103D1000FDF76FFA0C20ADF804000020ADF80600A6
:103D20000120ADF808000020ADF80A00ADF80C0045
:103D300001A94FF08040FDF75CFA01221E21900797
:103D4000FDF73BFB01218807FDF71CFB07B000BD19
:103D500010B500F081FFA148007800F08000002835
:103D600049D102214807FDF7D6FD002843D00221A2
:103D70004807FDF7E1FD9948007800F0400050B396
:103D80004FF08040FDF7A8FD95490880084600885F
:103D900094490988884204DA4FF6FF709249086016
:103DA00002E00020904908608D4800888D4909880C
:103DB000401A8D49096808448C4908600846006823
:103DC0008B49086000208549087000214FF0804031
:103DD000FDF78AFC0FE04FF08040FDF77DFD814943
:103DE00008807E48007840F040007C49087002213D
:103DF0004807FDF779FC7F48007800F08000002834
:103E000049D104210807FDF786FD002843D004218D
:103E10000807FDF791FD7748007800F0400050B3A7
:103E20004FF08040FDF75BFD73490880084600882D
:103E300072490988884204DA4FF6FF7070490860B9
:103E400002E000206E4908606B4800886B490988D1
:103E5000401A6B49096808446A49086008460068C6
:103E60006949086000206349087000214FF08040D4
:103E7000FDF74CFC0FE04FF08040FDF730FD5F494F
:103E800008805C48007840F040005A4908700221E0
:103E90004807FDF73BFC5D48007800F080000028F3
:103EA00048D10821C806FDF736FD90B30821C806A1
:103EB000FDF742FD5548007800F0400050B34FF048
:103EC0008040FDF70FFD524908800846008851499F
:103ED0000988884204DA4FF6FF704F49086002E013
:103EE00000204D4908604A4800884A490988401A1C
:103EF0004949096808444949086008460068484932
:103F0000086000204149087000214FF08040FDF713
:103F100017FC0FE04FF08040FDF7E4FC3D490880BE
:103F20003A48007840F040003849087002214807BC
:103F3000FDF706FC3B48007800F08000B8BB10217C
:103F40008806FDF7E8FC90B310218806FDF7F4FC25
:103F50003448007800F0400050B34FF08040FDF747
:103F6000C4FC3149088008460088304909888842E5
:103F700004DA4FF6FF702E49086002E000202C4959
:103F800008602948008829490988401A2849096891
:103F9000084428490860084600682749086000204E
:103FA0002049087000214FF08040FDF7E3FB0FE04F
:103FB0004FF08040FDF799FC1C49088019480078B3
:103FC00040F040001749087002214807FDF7D2FB76
:103FD00000F05DFE10BD000000080140140100204B
:103FE00018010020160100203C0100202C010020B7
:103FF000580100201A0100201E0100201C01002091
:104000004001002030010020540100202001002048
:10401000240100202201002044010020340100205E
:1040200050010020260100202A0100202801002044
:1040300048010020380100204C01002000B585B067
:10404000012144F20400FCF709FD4FF40070ADF8C3
:10405000100018208DF8130003208DF8120004A919
:104060004A48FCF73FFA4FF48060ADF81000042096
:104070008DF8130004A94548FCF734FA4FF41650A4
:1040800000900020ADF80400ADF80600ADF808007F
:10409000ADF80C000C20ADF80A0069463C48FDF76D
:1040A00092FC01213A48FDF71AFD05B000BD08B5A4
:1040B0004FF4E060FCF748F925208DF8000000205F
:1040C0008DF8010001208DF802008DF8030068468C
:1040D000FCF73FF908BD70B504460D46E1B22C4827
:1040E000FDF76AFD00BF40212948FDF7D3FD0028F8
:1040F000F9D0204670BD10B5044600BF20212448E9
:10410000FDF7C8FD0028F9D02148FDF759FD10BD85
:1041100010B540F225511E48FDF7D2FD10B31C48E2
:10412000FDF74EFDC4B21B48008800F40040C8B93A
:104130001848008800F4804060B10A2C03D00020A9
:104140001449088020E01348008840F400401149D9
:10415000088019E00D2C06D10E48008840F48040FC
:104160000C49088010E00B480088C0F30D000A4994
:104170000C5408480088401C0649088008460088FE
:10418000C72801DD0020088010BD000000080140A4
:1041900000380140640100201E0C002070B50A2187
:1041A0003C20FEF7F1FB04460B213C20FEF7ECFB24
:1041B00005460C213C20FEF7E7FB0646482C07D1BC
:1041C000342D05D1332E03D1CBA002F037FD02E010
:1041D000D0A002F033FD70BD10B5002414220021E0
:1041E0003C20FEF7F2FB202201213C20FEF7EDFBF4
:1041F000002202213C20FEF7E8FB052300221146A5
:10420000104601F001FF10BD10B5CA480068CA4948
:104210000968441804EBD471481002F0C2FAC74987
:104220000860C7480068C7490968441804EBD4719E
:10423000481002F0B6FAC4490860C4480068C4498E
:104240000968441804EBD471481002F0AAFAC14975
:10425000086010BDC04B1860C04B1860C04B19609F
:10426000C04B1960C04B1A60C04B1A60704770B5E4
:1042700003460C461546184621462A46B64E366871
:10428000B04201DDB44E3060B44E3668B04201DA5F
:10429000B24E3060B24E3668B14201DDB04E316090
:1042A000B04E3668B14201DAAE4E3160AE4E36687D
:1042B000B24201DDAC4E3260AC4E3668B24201DA39
:1042C000AA4E326070BDA4480068A4490968401A2B
:1042D00005D4A1480068A1490968401A04E09F4834
:1042E00000689D490968401A002809DD9A49096853
:1042F0009A4A1268881800EBD07149109C4A1160E4
:104300009748006897490968401A05D4944800689E
:1043100094490968401A04E0924800689049096885
:10432000401A002809DD8E4909688E4A12688818EB
:1043300000EBD07149108F4A11608B4800688B499F
:104340000968401A05D48848006888490968401AF5
:1043500004E08648006884490968401A002809DD9D
:1043600081490968814A1268881800EBD0714910A8
:10437000814A116070477E4B1B68C01A7D4B1B68D9
:10438000C91A7D4B1B68D21A70471CB500200090DB
:104390000190152200213C20FEF717FB012202218B
:1043A0003C20FEF712FB052300221146104601F0C7
:1043B0002BFE03213C20FEF7E7FA8DF801000421D3
:1043C0003C20FEF7E1FA8DF8020007213C20FEF7C1
:1043D000DBFA8DF8030008213C20FEF7D5FA8DF8B2
:1043E000040005213C20FEF7CFFA8DF805000621D8
:1043F0003C20FEF7C9FA8DF806009DF802009DF8F2
:10440000011040EA01205D4908609DF804009DF814
:10441000031040EA01205A4908609DF806009DF803
:10442000051040EA01205749086054480068B0F57B
:10443000004F06DB51480068A0F57F40FF384F4928
:1044400008604F480068B0F5004F06DB4C48006834
:10445000A0F57F40FF384A4908604A480068B0F537
:10446000004F06DB47480068A0F57F40FF3845490C
:1044700008601CBD1CB500200090019003213C2069
:10448000FEF782FA8DF8010004213C20FEF77CFA49
:104490008DF8020007213C20FEF776FA8DF8030024
:1044A00008213C20FEF770FA8DF8040005213C201D
:1044B000FEF76AFA8DF8050006213C20FEF764FA43
:1044C0008DF806009DF802009DF8011040EA0120D9
:1044D0002A4908609DF804009DF8031040EA012075
:1044E000274908609DF806009DF8051040EA012064
:1044F000244908601CBD00000DC9E8B1B8484D430F
:10450000353737334CC9E8B1F0B3C9B9A6210D0A24
:104510000D0000000DB4EDCEF321CEDEB7A8CAB673
:10452000B1F0C9E8B1B8484D43353737334C210DA8
:104530000A0D000074010020800100208C01002081
:104540007801002084010020900100207C010020DF
:104550008801002094010020A4010020A80100206F
:10456000AC010020B0010020B4010020B8010020FF
:10457000BC010020C0010020C4010020680100200F
:104580006C0100207001002015E00821B448FCF700
:1045900058F84FF4967300221146104601F034FD8E
:1045A0000821AF48FCF74BF84FF4967300221146F0
:1045B000104601F029FDE8E713E01021A848FCF7B8
:1045C00040F8C82300221146104601F01DFD1021BD
:1045D000A348FCF734F8C82300221146104601F026
:1045E00013FDEAE70AE09F499F48006800F034FEA7
:1045F0000A2300221146104601F006FDF3E78AB0B7
:10460000FEF7AAFA4FF4FA7300221146104601F0A1
:10461000FBFCFFF723FAFEF79FFA4FF4FA73002230
:104620001146104601F0F0FCFFF718FAFFF7FEFA0A
:10463000FFF717FB6420FEF725FB4FF4FA63002217
:104640001146104601F0E0FC0020FEF71BFB4FF482
:10465000FA6300221146104601F0D6FCFFF7FEF97E
:10466000FFF7BAFD4FF0000A60E0FFF703FF7F4855
:10467000006802F096F807907D48006802F091F813
:10468000069000BF7B49079802F0F6F806D24FF07B
:104690008D41079801F0BFFE83460AE04FF08E403F
:1046A000079901F080FE04464FF08D4101F0B3FE02
:1046B00083467049069802F0DFF806D24FF08D412C
:1046C000069801F0A8FE08900AE04FF08E40069987
:1046D00001F069FE04464FF08D4101F09CFE089008
:1046E000584602F099F8CDE90001089802F094F8D4
:1046F0008046DDE9002303F06DFB5F4A5F4BCDE9A7
:10470000020101F06DFF06460F465D48006802F0A9
:1047100083F832463B46CDE9040101F0BAFE044677
:1047200002F08DF8564908600AF1010ABAF5FA6FED
:104730009BDB54495248006801F06DFE5049086007
:104740004FF0000A21E0FFF7B4F9FFF7EDF9FFF7AA
:1047500091FEFEF750FD4C4801684C48006801F09E
:10476000D0FD4A4908604A4801684A48006801F09B
:10477000C8FD48490860484801684848006801F099
:10478000C0FD464908600AF1010ABAF5FA6FDADBA2
:104790000DE0FFF78EF9FFF7C7F9FFF76BFEFEF7A5
:1047A0002AFD042300221146104601F02DFCF0E7FB
:1047B000FDF766FBFDF7AAFB39A0FDF7C5FB0AE094
:1047C0003F494048006800F047FD1423002211468D
:1047D000104601F019FCF3E705233B4A0021AFF234
:1047E0002F0001F0CDF80623384A0021AFF2F11076
:1047F00001F0C6F80723364A0021AFF2172001F076
:10480000BFF80823334A0021AFF2272001F0B8F89F
:104810000923314A0021AFF25F2001F0B1F80A23E9
:104820002E4A0021AFF29F2001F0AAF80EE02C4999
:104830002C48006800F010FD01212B48FBF701FF18
:10484000322300221146104601F0DEFBEFE705E0BF
:10485000142300221146104601F0D6FBF8E70000B1
:1048600000100140340000203000002068010020CA
:104870006C01002000F8FF46775AF01ADCA54C4086
:10488000680000200000FA447800002008010020A1
:104890007C0000200C01002080000020100100207E
:1048A0000D0A20426C7565746F6F746820696E69BB
:1048B000742073756363656564210D0A0000000050
:1048C0003C00002038000020240E0020640F00204F
:1048D000A4100020E4110020241300206414002000
:1048E0002C00002028000020000C0140024600207F
:1048F00005E011F8013B02F8013B431CD8B20B78EC
:10490000002BF6D1137070472DE9F04105460E4695
:1049100014460027FA480078002804DD1120207092
:104920000020BDE8F0812878012808D0022807D0AF
:10493000032802D0042804D100E000BF00BF00BF5C
:1049400003E0012020700020EBE700BF01F060FCD5
:10495000074605F10F013046FFF7C8FF804638468D
:1049600001F05AFC002020704046DAE701460020A2
:1049700002E0491C421CD0B20A78002AF9D17047E3
:104980002DE9F04105460F4614464FF00008DC487B
:104990000078002803DD12202070BDE8F08128781F
:1049A000012808D0022807D0032802D0042804D107
:1049B00000E000BF00BF00BF02E001202070ECE774
:1049C00000BF01F025FC80463846FFF7CFFF0646C2
:1049D0000F2E05DD404601F01FFC0B202070DCE7A8
:1049E000394605F10F00FFF781FF404601F014FC46
:1049F0000020207000BFD0E77CB5002514E0694698
:104A0000284601F00DFA064666B9BE4850F8254022
:104A100044B1012C06D0D4E9020100EB8100E0632F
:104A200001982064681CC5B21F2DE8DD7CBD002400
:104A300002E0C82001F0B8FAB34800780028F8D0A6
:104A4000B24800686421B0FBF1F0B0490860084644
:104A5000006828B90020AE490870FF2001F022FA52
:104A600000BF01F0D5FB0446AA480068AA490860C7
:104A70000020A8490860204601F0CEFBA648006847
:104A8000A2490968B0FBF1F0C0F16400A0490870C8
:104A900001F06DFBFFF7B0FF642001F085FAE0E75D
:104AA00000B587B00320002180229C4BCDE9013264
:104AB000CDE903104FF6FE701E23994A0090AFF225
:104AC000910000F0B5FF06AA96A11E2001F019F989
:104AD00007B000BD002400BF01F09AFB04468D48DA
:104AE0000068401C8B490860204601F095FB01F0EE
:104AF0003DFBF1E700B587B00320002180228D4BFC
:104B0000CDE90132CDE903104FF6FF701F238A4A29
:104B10000090AFF23F0000F08BFF06AA87A11F2094
:104B200001F0EFF807B000BD04E0002200F8012B0F
:104B30004A1E91B20029F8DC704730B54FF4A071DD
:104B40008248FFF7F1FF814B03F1200500240AE0C2
:104B5000002018705D603F20D87300211974203345
:104B60002035601C84B2092CF2DB002018705860DC
:104B70003F20D8730021197474487549086030BD0E
:104B800030B54FF4BD617348FFF7CEFF80215D481B
:104B9000FFF7CAFF6F4B03F1540500240AE05D6183
:104BA0003F2083F8440000214520C154543354353C
:104BB000601CC4B2112CF2D3002058613F2083F84E
:104BC000440000214520C154002063490860614829
:104BD0006249086030BD0022614B1A7061490020B3
:104BE00004E0002201F8012B421CD0B20428F8DBBB
:104BF00000225D4B1A705D4B1A705D4B1A605D4B65
:104C00001A60704700205C4908603D4908705B49A4
:104C100008705B4908705B4908705B4908603D4952
:104C200008603D4908603949086037490870704795
:104C300010B501F097FAFFF7E5FFFFF7CCFFFFF79C
:104C40009FFFFFF77AFF00F0E5FDFFF753FFFFF747
:104C500027FF01F088FA10BD4A480078012808D1E2
:104C600027480078FF2804D225480078401C2449B2
:104C70000870704745493A4A1278885C3949095C9E
:104C8000424A515C01EBC001384A1170704710B5BF
:104C900000243C480078012830D101F0B9FA0446DC
:104CA00017480078002804DD15480078401E144994
:104CB000087013480078F0B930480078D8B9FFF789
:104CC000D9FF2A48007828490978884213D00D482E
:104CD0002649097850F821002549086008460068EF
:104CE000006B401C0968086327480068401C26497F
:104CF000086001F0A9FA204601F08EFA10BD00000C
:104D0000DD010020A8190020DC010020D4010020D2
:104D1000D0010020E8010020D8010020A8150020C3
:104D2000A417002075432F4F532D49492053746118
:104D300074000000A8170020A419002075432F4F0D
:104D4000532D49492049646C650000006814002017
:104D5000CC010020281A0020F8010020F0010020DA
:104D6000E1010020E2010020DF010020E00100203D
:104D7000F4010020EC01002004020020DE010020EC
:104D8000E7010020E6010020C80100209080000813
:104D900010B50024FE480078012811D101F038FA3E
:104DA0000446FC48007840B9FB480078FF2804D24C
:104DB000F9480078401CF8490870204601F02CFAA8
:104DC00010BD10B5002401F023FA0446F148007824
:104DD000F0B9F1480078D8B9FFF74CFFEF480078F8
:104DE000EF490978884213D0EE48EC49097850F829
:104DF0002100ED49086008460068006B401C096806
:104E00000863EA480068401CE849086001F017FAA6
:104E1000204601F001FA10BD10B50024DC480078EE
:104E2000012822D101F0F4F90446DB48007800287B
:104E300018DDD9480078401ED74908700846007828
:104E400060B9D448007828B9204601F0E5F9FFF7A9
:104E5000B8FF0AE0204601F0DFF906E0204601F045
:104E6000DBF902E0204601F0D7F910BD10B5C848C3
:104E7000007890B9FFF7FEFEC8480078C84908706E
:104E8000C848C649097850F82100C7490860084653
:104E90000068C749086001F0C2F910BD10B50024D0
:104EA000022001F081F801F0B3F904460020C14965
:104EB0000860204601F0B0F9642001F075F801F0B7
:104EC000A7F90446BB480068BB4908600120BB49FC
:104ED0000870204601F0A0F910BD70B5002601F061
:104EE00096F901F095F90646B5480068401CB449AA
:104EF0000860304601F090F9A5480078012853D1A8
:104F0000B048007820B1012804D0022809D103E07C
:104F100001250BE0002509E001250120A9490870C1
:104F200004E001250020A749087000BF00BF05B9B3
:104F300070BDA548046833E001F06AF90646A08C0C
:104F400050B3A08C401E80B2A08428BB94F82600E9
:104F500000F0370040B114F8260F20F03700207021
:104F600001206070263C02E0002084F8270094F8BD
:104F7000260000F0080078B92A34A078934909780F
:104F800008439249087020789149085C6178084389
:104F900014F82A198E4A50546469304601F03CF9DD
:104FA00094F828001F28C7D100BFC1E74FF48F70C5
:104FB0007047704710B590F82A2001F10B039B5CF5
:104FC00090F82B40A34301F10B04A35423469B5CB0
:104FD00023B98B7A90F82C40A3438B7210BD2DE936
:104FE000F04F05460F4690469946A87A79490E5CDF
:104FF00005F10B00805D11F800B00BEBC60000F06E
:10500000FF0A684850F82A4000202034A08027601A
:10501000A07920EA0800A07184F80790A079203CCC
:1050200000F0080068B994F82C0068490978084332
:10503000664908706648805D94F82B1008436449FF
:10504000885529462046FFF7B5FF5046BDE8F08F4A
:1050500010B5574A1268D061554A126892F82A3042
:1050600000F10B02D25C524B1B6893F82B301A43B1
:105070004F4B1B6893F82A4000F10B031A55827AB4
:105080004B4B1B6893F82C301A438272484A1268C3
:1050900092F82A104E4A525C454B1B6893F82B300D
:1050A0009A434B4B5A541A46525C42B9404A1268D2
:1050B00092F82C30454A12789A43444B1A7010BD2E
:1050C0000023837200F10B01002204E0002301F8A9
:1050D000013B531CDAB2042AF8DB704705E011F8F3
:1050E000013B00F8013B531E9AB2002AF7DC7047DF
:1050F0002DE9F84F05460E4617469846DDE90BABFD
:10510000DDF828900020009001F082F800903248ED
:105110000468002C3BD054F8140F2F490860009805
:1051200001F07AF844F8146C25750020A074E0743E
:10513000208244F810AC44F8089C44F80C7C24F815
:1051400004BC24F8028C6076E810A07505F0070016
:105150006075A17D012088402076617D0120884016
:10516000E0750020A060E060E06160622062A06203
:10517000E0623F2084F83000143C002145200155B6
:10518000204601F043F8204600F0EEFF26E053E011
:10519000E6010020DD010020DE010020E00100200A
:1051A000DF010020A8190020F4010020C801002020
:1051B000EC010020E8010020D4010020DC010020E7
:1051C00004020020FC010020F8010020E101002081
:1051D000E201002090800008F001002001F018F8A2
:1051E0000090184840F8254017480068606100208A
:1051F000A0611548006810B1134800688461124826
:1052000004602A34A0781149097808430F490870CE
:1052100020780F49085C6178084314F82A190C4A71
:1052200050540C480078401C0A490870009800F05F
:10523000F3FF0020BDE8F88F009800F0EDFF42205A
:10524000F8E70000A8190020F8010020E101002083
:10525000E2010020E70100202DE9F04106460D465D
:105260004FF000083078022804D001202870002078
:10527000BDE8F08100F0CCFF80467468E08A002829
:105280000FDD2169081D20610F68E08A401EE08261
:10529000A1682069884201D16068206100202870DF
:1052A00002E01F2028700027404600F0B5FF384676
:1052B000DEE72DE9F04106460F464FF00008FB48B7
:1052C0000078002802DD0020BDE8F08100F0A0FF9A
:1052D0008046F7480468006820B1F54800684068D7
:1052E000F3490860404600F097FF0CB300F090FFD0
:1052F0008046F0480568E5B100680068ED4908603F
:10530000404600F089FF6E6006EB8700A860EE6003
:105310002E61AF820020E8820220207000202081D0
:1053200065603F20E073002121742046FFF7C8FE2E
:1053300008E0DF4800686060DD480460404600F037
:105340006BFF00242046BFE72DE9F047044689465D
:1053500015464FF0000A2078022804D0012028705A
:105360002046BDE8F087D1480078002803DD0F20F3
:1053700028702046F5E700F04BFF8246A07A10B176
:105380004FF0010801E04FF00008B9F1000F03D021
:10539000B9F1010F4DD123E0B8F1000F19D13F2031
:1053A000E073002121746668C24800683060C1481B
:1053B000066000202070BE480068606000202081E8
:1053C000BB480460504600F027FF002028700027EB
:1053D00005E0504600F020FF4920287027462FE0C6
:1053E00005E00023042219462046FFF7F8FDA07AC5
:1053F0000028F6D13F20E073002121746668AD4893
:1054000000683060AB48066000202070A848006843
:10541000606000202081A6480460504600F0FCFE39
:10542000B8F1010F01D1FFF7CCFC00202870002754
:1054300006E0504600F0F0FE07202870274600BF27
:1054400000BF38468DE770B50546002600F0E0FE47
:1054500006466C686068E060606820610020E08259
:10546000304600F0D9FE002070BD2DE9F047074618
:10547000884615464FF000093878022804D00120EC
:1054800028700020BDE8F08788480078002803DDF8
:10549000022028700020F5E787480078002803DD07
:1054A0000D2028700020EDE700F0B2FE81467C68F8
:1054B000E08A002813DD2169081D20610E68E08A5A
:1054C000401EE082A1682069884201D160682061A5
:1054D000484600F0A1FE002028703046D2E7774809
:1054E000006890F8260040F004007449096881F8CB
:1054F000260000207149096881F827006F4800687C
:10550000A0F824803846FFF7A3FD484600F084FE4B
:10551000FFF757FC00F07CFE81466848006890F871
:10552000270020B101280DD002280AD105E06348E8
:105530000068066A002028700DE000260E20287002
:1055400009E000BF39465D480068FFF733FD0026DB
:105550000A20287000BF00BF00205849096881F860
:1055600026005649096881F8270054490968C8612E
:10557000524909680862484600F04EFE304681E70D
:105580002DE9F04104460F4615464FF000082078FB
:10559000022804D0012028700020BDE8F08100F02E
:1055A00037FE8046A07A20B300267FB1012F0CD1B0
:1055B00007E00223042200212046FFF710FD701CA3
:1055C000C6B2A07A0028F4D109E000BF0223042269
:1055D00000212046FFF703FD701CC6B200BF00BFCC
:1055E000404600F019FEFFF7ECFB0E202870304615
:1055F000D3E7404600F010FE0020287000BFCCE743
:105600002DE9F04105460E4600272878022802D0F1
:105610000120BDE8F08100F0FBFD0746A87A60B1EB
:105620000023042231462846FFF7D9FC384600F013
:10563000F3FDFFF7C6FB0020EBE76C68E08AA18A68
:10564000884204DB384600F0E7FD1E20E1E7E16810
:10565000081DE0600E60E08A401CE082D4E9021080
:10566000884201D16068E060384600F0D5FD002036
:10567000CFE72DE9F04105460E460027287802289D
:1056800002D00120BDE8F08100F0C2FD0746A87AF3
:10569000B0B10023042231462846FFF7A0FC38466B
:1056A00000F0BAFDFFF78DFB0020EBE7DD010020E5
:1056B000CC01002000020020DE010020EC010020CF
:1056C0006C68E08AA18A884204DB384600F0A4FDB9
:1056D0001E20D7E761682069884201D1A068206157
:1056E0002069001F206120690660E08A401CE0827A
:1056F000384600F091FD0020C4E72DE9F041054651
:105700000F4616464FF000082878022802D00120E4
:10571000BDE8F08100F07CFD8046A87AE8B106F093
:10572000010050B105E00023042239462846FFF766
:1057300056FCA87A0028F6D105E000230422394659
:105740002846FFF74CFC404600F066FD06F00400DA
:1057500008B9FFF736FB0020DAE76C68E08AA18A17
:10576000884204DB404600F057FD1E20D0E706F0DB
:10577000020058B161682069884201D1A0682061A7
:105780002069001F20612069076009E0E168081DA9
:10579000E0600F60D4E90210884201D16068E060E7
:1057A000E08A401CE082404600F036FD0020AFE772
:1057B0002DE9F04705460C464FF0000A28780228EC
:1057C00002D00120BDE8F08700F022FD8246A87AD1
:1057D000207305F10B0804F10809002705E018F80B
:1057E000010B09F8010B781CC7B2042FF7DB6E68B8
:1057F000F08A002803DD30690068206001E00020A5
:105800002060F08AA080B08AE080504600F004FD5D
:105810000020D7E770B560210A48FFF785F9094CE9
:1058200004F11806002504E0266018341836681CB8
:1058300085B2032DF8DB0020206002480249086091
:1058400070BD000010200020000200202DE9FF5F45
:10585000814688460020009000F0DAFC0090FA486B
:1058600050F8280030B1009800F0D6FC282004B091
:10587000BDE8F09FB9F1FF0F03D1F448006890F83C
:105880002890F14850F8294024B9009800F0C4FC51
:105890002920ECE7012C04D1009800F0BDFC432046
:1058A000E5E74FEAE80708F0070003900120B84059
:1058B00000F0FF0A01210398814001F0FF0B002056
:1058C000E14941F82900084640F8284014F82A6FB9
:1058D000A078029060782A3C0190DD48815D0198B3
:1058E0000140D1B1DA48805D01998843D849885593
:1058F0000846805D28B9D748007802998843D54981
:105900000870D448007840EA0A00D2490870D048AC
:10591000C05D40EA0B00CE49C855E569D5B105F137
:105920000B00805D0199884305F10B0188550846FD
:10593000805D18B9A87A02998843A872A87A40EACB
:105940000A00A87205F10B00C05D40EA0B0005F1EA
:105950000B01C85584F8288084F82A70039884F8CD
:10596000290084F82CA084F82BB0009800F054FC97
:10597000B9480078012801D1FFF723FA002076E723
:105980002DE9FE4F06460F4690461C464FF0000993
:1059900000F03EFC8146B1480078002805DD48460D
:1059A00000F03AFC3C20BDE8FE8FA74850F82400E8
:1059B00060BB0120A44941F82400484600F02CFCBB
:1059C000002342463946304600F0D2FB8246002092
:1059D0000090019003460246514602902046FFF790
:1059E00087FB054635B99C48007801280CD1FFF7A4
:1059F000E8F909E000F00CFC81460020924941F8EA
:105A00002400484600F008FC2846CCE7484600F051
:105A100003FC2820C7E702F0010343B102F00203B0
:105A20002BB102E0491E002308C00029FAD17047BB
:105A30002DE9F04F85B081468A4693461C46DDE944
:105A40000F78129D0020039000F0E2FB0390834842
:105A50000078002806DD039800F0DEFB3C2005B04E
:105A6000BDE8F08F784850F8240088BB01207649C3
:105A700041F82400039800F0CFFB2A4641463846FF
:105A8000FFF7C9FF2B465A465146484600F070FBC7
:105A900004901198CDE9008002953A4620460E9B6D
:105AA0000499FFF725FB064636B96B4800780128B4
:105AB0000CD1FFF786F909E000F0AAFB0390002063
:105AC000614941F82400039800F0A6FB3046C6E780
:105AD000FFE7039800F0A0FB2820C0E770B505465B
