:020000040800F2
:10000000603F002045010008A11D0008A31D000855
:10001000A71D0008AB1D0008AF1D00080000000070
:10002000000000000000000000000000B31D0008F8
:10003000B51D0008000000002F5F0008B91D000872
:100040005F0100085F0100085F0100085F01000810
:100050005F0100085F0100085F0100085F01000800
:100060005F0100085F0100085F0100085F010008F0
:100070005F0100085F0100085F0100085F010008E0
:100080005F0100085F0100085F0100085F010008D0
:100090005F0100085F0100085F0100085F010008C0
:1000A0005F0100085F0100085F0100085F010008B0
:1000B0001D2F00085F0100085F0100085F010008B4
:1000C0005F0100085F0100085F0100085F01000890
:1000D0005F010008813300084B2B00089B220008B9
:1000E0005F0100085F0100085F0100085F01000870
:1000F0005F0100085F0100085F0100085F01000860
:100100005F0100085F0100085F0100085F0100084F
:100110005F0100085F0100085F010008C91D0008B9
:100120005F0100085F0100085F0100085F0100082F
:10013000DFF80CD006F0B0FF00480047491D00086A
:10014000603F00200648804706480047FEE7FEE77C
:10015000FEE7FEE7FEE7FEE7FEE7FEE7FEE7FEE777
:1001600047020008310100080CB500200190009002
:100170006C48006840F480306A49086000BF6948F4
:10018000006800F4003000900198401C0190009835
:1001900018B90198B0F5A06FF1D16248006800F479
:1001A000003010B10120009001E000200090009884
:1001B000012843D15C48006840F010005A490860AB
:1001C0000846006820F0030008600846006840F018
:1001D0000200086053484068524948600846406839
:1001E00048600846406840F48060486008464068BF
:1001F00020F47C1048600846406840F4E8104860ED
:100200000846006840F08070086000BF45480068FC
:1002100000F000700028F9D04248406820F0030048
:10022000404948600846406840F00200486000BF0E
:100230003C48406800F00C000828F9D10CBD10B50E
:10024000FFF792FF10BD10B53648006840F001007E
:1002500034490860084640683449084031494860DC
:1002600008460068324908402E4908600846006880
:1002700020F4802008600846406820F4FE004860B2
:100280004FF41F008860FFF7DAFF4FF00060294944
:10029000086010BD10B5002100200022214B5B68D2
:1002A00003F00C0121B1042906D0082928D107E068
:1002B000214B224C236027E01F4B204C236023E07E
:1002C000184B5B6803F47010164B5B6803F48032C4
:1002D000022303EB904022B9194B4343174C236090
:1002E0000DE0104B5B6803F4003323B1144B434320
:1002F000124C236003E0104B4343104C236003E097
:100300000D4B0E4C236000BF00BF064B5B68C3F370
:1003100003130C4CE15C094B1B68CB40074C23607A
:1003200010BD000000100240002002400000FFF855
:10033000FFFFF6FE08ED00E000127A00000000204A
:1003400000093D000400002031490143314A116099
:10035000704770B5002100230F22C47804B32D4CE0
:10036000246804F4E064C4F5E064210AC1F10403E4
:10037000CA40447804FA03F1847814402143090107
:10038000254C0678A155047804F01F050124AC40E3
:1003900005786D11AD0005F1E025C5F8004109E0D3
:1003A000047804F01F050124AC401C4D067876113A
:1003B00045F8264070BD1A4A0A400243154B1B1FE0
:1003C0001A60704739B1134A121D12680243114B6B
:1003D0001B1D1A6006E00F4A121D126882430D4B66
:1003E0001B1D1A607047042808D14FF0E0210969ED
:1003F00041F004014FF0E022116107E04FF0E021ED
:10040000096921F004014FF0E022116170470000FA
:100410000000FA050CED00E000E400E080E100E0FF
:1004200080FFFF1F10B50446CC48844208D101214B
:10043000042000F02DFB0021042000F029FB46E001
:10044000C748844208D10121082000F021FB002187
:10045000082000F01DFB3AE0C248844208D1012187
:10046000102000F015FB0021102000F011FB2EE001
:10047000BD48844208D10121202000F009FB002161
:10048000202000F005FB22E0B848844208D1012179
:10049000402000F0FDFA0021402000F0F9FA16E0BB
:1004A000B348844208D10121802000F0F1FA0021F4
:1004B000802000F0EDFA0AE0AE48844207D1012125
:1004C000801500F0E5FA0021A01500F0E1FA10BD5A
:1004D00010B50121084600F0DBFA0021012000F0F0
:1004E000D7FA10BD2DE9F041024600250026002074
:1004F00000230024002791F803C00CF00F0591F8A9
:1005000003C00CF0100CBCF1000F03D091F802C036
:100510004CEA050591F800C0BCF1000F31D0146819
:1005200000202BE04FF0010C0CFA00F3B1F800C0F2
:100530000CEA03069E4220D183004FF00F0C0CFA08
:1005400003F7BC4305FA03FC4CEA040491F803C02A
:10055000BCF1280F06D14FF0010C0CFA00FCC2F8D8
:1005600014C00AE091F803C0BCF1480F05D14FF068
:10057000010C0CFA00FCC2F810C0401C0828D1D3B2
:100580001460B1F800C0BCF1FF0F34DD54680020E6
:100590002EE000F1080C4FF0010808FA0CF3B1F856
:1005A00000C00CEA03069E4221D183004FF00F0CDD
:1005B0000CFA03F7BC4305FA03FC4CEA040491F877
:1005C00003C0BCF1280F05D100F1080C08FA0CF8A3
:1005D000C2F8148091F803C0BCF1480F07D100F1B4
:1005E000080C4FF0010808FA0CF8C2F81080401C03
:1005F0000828CED35460BDE8F0814FF6FF7101802A
:10060000022181700421C170704702460020936866
:100610000B400BB1012000E00020704701468868C4
:1006200080B2704702460020D3680B400BB1012016
:1006300000E0002070470146C86880B27047016141
:100640007047416170470AB1016100E04161704744
:10065000C16070474FF480320A43826181618261D8
:1006600082698269704702460020434B18684FF642
:100670008073184040EA021008433F4B18607047EF
:100680003E49C8617047F0B50A46002300240021A6
:10069000002500F00046B6F1004F02D1364EF16958
:1006A00001E0354E7168C0F3034583B200F4401693
:1006B000B6F5401F08D121F070612F4E766826F004
:1006C00070662D4F7E6012E000F48016B6F5801F34
:1006D00006D1032606FA05F4A14341F0706106E055
:1006E000460D360103FA06F6B14341F0706122B1BE
:1006F000460D360103FA06F6314300F00046B6F126
:10070000004F02D11C4EF16101E01B4E7160F0BD43
:1007100030B500228B071C0F0F2303FA04F2164B8F
:1007200008338C1053F824309343134C08348D1045
:1007300044F8253023468C1053F824308C07240FBE
:1007400000FA04F423430C4C08348D1044F825308F
:1007500030BD0A49DC3108607047000000080140E4
:10076000000C01400010014000140140001801403D
:10077000001C014000200140000001400000204218
:10078000DF48006840F00100DD4908600846406825
:10079000DC490840DA49486008460068DA49084000
:1007A000D74908600846006820F4802008600846A1
:1007B000406820F4FE0048604FF41F0088607047D6
:1007C000CF49096821F48031CD4A1160114609688A
:1007D00021F480211160B0F5803F03D0B0F5802F67
:1007E0000ED106E0C649096841F48031C44A11605F
:1007F00007E0C349096841F4A021C14A116000E043
:1008000000BF00BF704710B5014600220023002042
:100810004A11012A02D1BA4C236806E0022A02D109
:10082000B74C236A01E0B64C636A01F01F02012451
:1008300094401C400CB1012000E0002010BD38B5F0
:10084000002000900024002500BF3120FFF7DBFFCF
:1008500005460098401C00900098B0F5A06F01D0AC
:10086000002DF2D03120FFF7CEFF08B1012400E0C7
:100870000024204638BD01460020A14A106820F01F
:10088000F80040EAC10010607047A0490860704756
:10089000024600209A4B586820F47C1042EA01037B
:1008A0001843974B5860704798490866704701464F
:1008B0000020934A506820F00300084350607047BE
:1008C0008F48406800F00C007047014600208C4AB9
:1008D000506820F0F0000843506070470146002047
:1008E000874A506820F4E060084350607047014632
:1008F0000020834A506820F4605040EAC1005060F4
:10090000704729B17E4A527A02437D4B5A7204E005
:100910007B4A527A82437A4B5A7270477B49D8316C
:100920000860704701460020754A506820F4404036
:100930000843506070470021714A20321170704A9C
:1009400082F82010012802D004280AD104E00121F5
:100950006B4A2032117005E00521694A203211707E
:1009600000E000BF00BF70476949086070476449F4
:10097000096A0143624A1162704765494439086057
:10098000704730B500210022002400235C4D6D68C3
:1009900005F00C0121B1042905D0082923D105E077
:1009A0005C4D056022E05B4D05601FE0544D6D68B5
:1009B00005F47012524D6D6805F48034022505EB84
:1009C00092421CB9544D554305600BE04C4D6D6887
:1009D00005F400351DB1504D5543056002E04D4D05
:1009E0005543056002E04B4D056000BF00BF444D1C
:1009F0006D6805F0F0010909484D6B5C0568DD4044
:100A000045603F4D6D6805F4E061090A434D6B5C3C
:100A10004568DD4085603A4D6D6805F46051C90A4E
:100A20003E4D6B5C4568DD40C560354D6D6805F435
:100A30004041890B3A4D6B5CC568B5FBF3F5056128
:100A400030BD29B12E4A526902432D4B5A6104E050
:100A50002B4A526982432A4B5A61704729B1284A6E
:100A600092690243264B9A6104E0254A92698243C7
:100A7000234B9A61704729B1214AD2690243204B26
:100A8000DA6104E01E4AD26982431D4BDA61704785
:100A900029B11B4AD2680243194BDA6004E0184AB4
:100AA000D2688243164BDA60704729B1144A126942
:100AB0000243134B1A6104E0114A12698243104B3E
:100AC0001A61704712494039086070470F49C8647D
:100AD00070470B49C87170470948406A40F0807000
:100AE00007494862704701460020054A92680A405B
:100AF0000AB1012000E00020704701498872704768
:100B0000001002400000FFF8FFFFF6FE0000424226
:100B10008004424200127A0000093D0014000020C7
:100B20002400002010B50446FE48844208D101216B
:100B3000C014FFF7ADFF0021E014FFF7A9FFC4E0E8
:100B4000B4F1804F08D101210846FFF7AEFF002124
:100B50000120FFF7AAFFB8E0F348844208D1012141
:100B60000220FFF7A2FF00210220FFF79EFFACE06A
:100B7000EE48844208D101210420FFF796FF0021AE
:100B80000420FFF792FFA0E0E948844208D1012148
:100B90000820FFF78AFF00210820FFF786FF94E076
:100BA000E448844208D101211020FFF77EFF002194
:100BB0001020FFF77AFF88E0DF48844208D1012146
:100BC0002020FFF772FF00212020FFF76EFF7CE05E
:100BD000DA48844208D101214014FFF759FF00216F
:100BE0006014FFF755FF70E0D548844209D1012118
:100BF000C804FFF74DFF00214FF40020FFF748FF26
:100C000063E0D048844209D101210805FFF740FF85
:100C100000214FF48010FFF73BFF56E0CA488442A2
:100C200009D101214805FFF733FF00214FF40010DF
:100C3000FFF72EFF49E0C548844208D1012140203A
:100C4000FFF733FF00214020FFF72FFF3DE0C048B2
:100C5000844208D101218020FFF727FF0021802056
:100C6000FFF723FF31E0BB48844208D10121801502
:100C7000FFF71BFF0021A015FFF717FF25E0B6487F
:100C8000844209D101210804FFF702FF00214FF43B
:100C90008030FFF7FDFE18E0B048844209D1012101
:100CA0004804FFF7F5FE00214FF40030FFF7F0FE97
:100CB0000BE0AB48844208D101218804FFF7E8FE2D
:100CC00000214FF48020FFF7E3FE10BD00220288D0
:100CD000944B98420ED0994B98420BD0B0F1804F74
:100CE00008D0914B984205D0904B984202D0904B3F
:100CF000984204D14FF68F731A404B881A438D4B9C
:100D0000984207D08C4B984204D04FF6FF431A40CC
:100D1000CB881A4302808B8883850B880385814B9F
:100D200098420BD0854B984208D08B4B984205D007
:100D30008A4B984202D08A4B984201D10B7A0386A3
:100D400001238382704770B5002400220023058CA4
:100D50004FF6FE7635400584028C8388048B4FF66F
:100D60008F752C40B51E2C400D882C43751E2A40D3
:100D70000D892A434D882A436A4DA8420BD06F4DF6
:100D8000A84208D0744DA84205D0744DA84202D0A4
:100D9000734DA84213D14FF6F7752A404D892A4367
:100DA0004FF6FB752A408D882A434FF6FF652B408E
:100DB0004FF6FF552B408D892B43CD892B438380E4
:100DC0000483CD888586028470BD70B5002400221E
:100DD0000023058C4FF6EF7635400584028C83881E
:100DE000048B48F6FF752C404FF6FF452C400D88CC
:100DF0004FF6FF7606EA05252C434FF6DF752A40AD
:100E00000D8906EA05152A434D8806EA05152A4389
:100E1000444DA84202D0494DA8421DD14FF67F75DE
:100E20002A404D894FF6FF7606EA05152A434FF60C
:100E3000BF752A408D8806EA05152A434FF6FF350F
:100E40002B404FF2FF752B408D8906EA85052B4319
:100E5000CD8906EA85052B4383800483CD880587E9
:100E6000028470BD70B5002400220023058C4FF66B
:100E7000FF6635400584028C8388848B4FF68F751E
:100E80002C404FF6FC752C400D882C434FF6FF5537
:100E90002A400D894FF6FF7606EA05252A434D883C
:100EA00006EA05252A431F4DA84202D0234DA84239
:100EB0001DD14FF2FF752A404D894FF6FF7606EAA5
:100EC00005252A434FF6FF352A408D8806EA052579
:100ED0002A434EF6FF752B404DF6FF752B408D894A
:100EE00006EA05152B43CD8906EA05152B438380B9
:100EF0008483CD888587028470BD70B5002200236D
:100F00000024058C4EF6FF7635400584038C8488DA
:100F1000828B48F6FF752A404FF6FF452A400D8820
:100F200020E00000002C01400004004000080040C8
:100F3000000C00400010004000140040003401404C
:100F4000004C014000500140005401400018004096
:100F5000001C0040002000400040014000440140CF
:100F6000004801404FF6FF7606EA05252A434DF674
:100F7000FF752B400D8906EA05352B434D8806EA9F
:100F800005352B43FA4DA84202D0FA4DA84208D1AC
:100F90004BF6FF752C408D894FF6FF7606EA8515D6
:100FA0002C4384808283CD88A0F84050038470BD98
:100FB000828B4FF2FF331A408283828B4FF6FF738E
:100FC00003EA01231A4382837047F0B50C461546A5
:100FD000002200210026078C4EF6FF7C07EA0C0752
:100FE0000784828B018C4FF6FF7707EA043640F6C0
:100FF000FF473A404FF6FF7707EA05273A434FF697
:10100000FF7707EA03373A43D94FB8420ED0D94F9A
:10101000B8420BD0B0F1804F08D0D74FB84205D0BE
:10102000D64FB84202D0D64FB84206D14DF6FF7720
:10103000394046F48057394305E047F6FF573940B9
:1010400044F48057394382830184F0BD828B4FF68C
:10105000F3731A408283828B0A4382837047F0B510
:101060000C461546002200210026078C4FF6FF6C27
:1010700007EA0C070784828B018C4FF6FF7707EA9B
:1010800004264FF60C773A404FF6FF7707EA03172E
:101090002F433A43B64FB8420ED0B64FB8420BD0AA
:1010A000B0F1804F08D0B44FB84205D0B34FB8422A
:1010B00002D0B34FB84206D14FF6FF57394046F43D
:1010C0008077394305E04FF2FF57394044F4807789
:1010D000394382830184F0BD028B4FF2FF331A4003
:1010E0000283028B4FF6FF7303EA01231A43028344
:1010F0007047F0B50C461546002200210026078CEB
:101100004FF6EF7C07EA0C070784028B018C4FF641
:10111000FF7707EA041640F6FF473A404FF6FF779D
:1011200007EA03373A434FF6FF7707EA05273A43C2
:101130008F4FB8420ED08F4FB8420BD0B0F1804FD6
:1011400008D08D4FB84205D08C4FB84202D08C4F9A
:10115000B84206D14FF6DF77394046F010073943E1
:1011600005E04FF65F77394044F0100739430283BA
:101170000184F0BD028B4FF6F3731A400283028B99
:101180000A4302837047F0B50C4615460022002141
:10119000068C4FF6FE773E400684028B018C4FF69C
:1011A0000C7632407E1C06EA03162E433243704E04
:1011B000B0420ED06F4EB0420BD0B0F1804F08D08D
:1011C0006D4EB04205D06D4EB04202D06C4EB04272
:1011D00006D14FF6FD76314044F00106314305E07B
:1011E0004FF6F576314044F0010631430283018425
:1011F000F0BD70B505460C465D4885420ED05D4891
:1012000085420BD0B5F1804F08D05B48854205D0B0
:101210005A48854202D05A48854200D100E000BFBA
:10122000208850B92389A28861882846FFF7ABFF40
:10123000E1882846FFF79EFF25E0208804280AD190
:101240002389A28861882846FFF753FFE188284652
:10125000FFF742FF17E0208808280AD12389A288D7
:1012600061882846FFF7FBFEE1882846FFF7EEFE7F
:1012700009E02389A28861882846FFF7A6FEE18855
:101280002846FFF795FE70BD2DE9F04105460C4656
:1012900000260127608808B9022600E00026A08801
:1012A000012801D1022700E001272088A0B9238965
:1012B000A28861882846FFF766FFE1882846FFF785
:1012C00059FF23893A4631462846FFF712FFE18845
:1012D0002846FFF701FF13E02389A288618828468A
:1012E000FFF707FFE1882846FFF7F6FE23893A4615
:1012F00031462846FFF747FFE1882846FFF73AFFC7
:10130000BDE8F0810A884B881A438B881A43CB8842
:101310001A430B891A434B891A438B891A43A0F845
:10132000442070474FF6FF71818000210180C18009
:101330004180017270470021018041808180C1801D
:10134000018141818181C1817047002101804180FB
:10135000012181800021C18001817047002101802D
:1013600041808180C180018141818181704700007D
:10137000002C0140003401400004004000080040FF
:10138000000C004021B1028842F00102028004E01A
:1013900002884FF6FE731A400280704731B1B0F8F0
:1013A000442042F40042A0F8442005E0B0F8442074
:1013B000C2F30E02A0F8442070471AB183890B4390
:1013C000838102E083898B438381704781827047E8
:1013D00041EA0203A0F8483070471AB183890B43F1
:1013E000838102E083898B438381704701894FF6B3
:1013F000F8721140018170470A46002101894FF6B9
:101400008F73194011430181704730B504460D4672
:1014100029462046FFF7F0FF208940F00700208191
:1014200030BD2DE9F04104460D4616461F46602D9D
:1014300006D13B46012231462046FFF75AFE05E021
:101440003B46012231462046FFF79DFE29462046B5
:10145000FFF7D2FF208940F007002081BDE8F0812E
:1014600030B50C4600210189C9B24FF6FF7505EA77
:101470000325154325432943018130BD2DE9F04162
:1014800005460E4617469846002443463A463146DE
:101490002846FFF7E5FF2C894FF6F870044044F02A
:1014A00007044FF68F70044044F070042C81BDE8AF
:1014B000F081F0B504460D4616461F463B463246BF
:1014C00029462046FFF7CCFF208940F48040208148
:1014D000F0BD0185828270470A46002101884FF6DF
:1014E0008F731940114301807047F0B50C461546C3
:1014F0001E460021002200230189028B038C4FF637
:10150000F877394021434FF6FC473A4040F2011743
:101510003A434FF6DD773B404FF6FF7707EA061771
:101520002F433B43018102830384F0BD0A4600211F
:10153000018B4FF68F7319401143018370470A46A0
:101540000021018B48F6FF7319404FF6FF7303EA41
:1015500002231943018370470A460021818B4FF60D
:101560008F7319401143818370470A460021818B94
:1015700048F6FF7319404FF6FF7303EA022319433D
:101580008183704721B1028842F08002028004E02A
:1015900002884FF67F731A400280704721B182881B
:1015A00042F00402828004E082884FF6FB731A4006
:1015B0008280704721B1828842F00802828004E074
:1015C00082884FF6F7731A408280704721B1828873
:1015D00042F00102828004E082884FF6FE731A40D6
:1015E000828070470A460021018B4FF6F77319403D
:1015F0001143018370470A460021018B4FF2FF73AC
:1016000019404FF6FF7303EA022319430183704721
:101610000A460021818B4FF6F773194011438183ED
:1016200070470A460021818B4FF2FF7319404FF635
:10163000FF7303EA02231943818370470A4600219E
:10164000018B4FF6FB7319401143018370470A4623
:101650000021018B4FF6FF3319404FF6FF7303EA69
:1016600002231943018370470A460021818B4FF6FC
:10167000FB7319401143818370470A460021818B17
:101680004FF6FF3319404FF6FF7303EA0223194365
:10169000818370470A460021018B4FF67F73194002
:1016A0001143018370470A460021018BC1F30E01EB
:1016B0004FF6FF7303EA02231943018370470A467A
:1016C0000021818B4FF67F7319401143818370474E
:1016D0000A460021818BC1F30E014FF6FF7303EA26
:1016E00002231943818370470A460021018C4FF67B
:1016F000FD7319401143018470470A460021018C93
:101700004FF6F77319401143018470470A460021D0
:10171000018C4FF6DF7319404FF6FF7303EA021393
:101720001943018470470A460021018C4FF67F73EC
:1017300019404FF6FF7303EA0213194301847047FF
:101740000A460021018C4FF6FF5319404FF6FF73F4
:1017500003EA02231943018470470A460021018CE1
:101760004FF2FF7319404FF6FF7303EA0223194348
:10177000018470470A460021018C4DF6FF73194021
:101780004FF6FF7303EA023319430184704730B503
:10179000002301248C40A3B2048C9C430484048C59
:1017A00002FA01F5ADB22C43048430BD30B50023FC
:1017B00004248C40A3B2048C9C430484048C02FA5D
:1017C00001F5ADB22C43048430BD70B50346002052
:1017D00000241846183001258D40ACB21D8CA5435D
:1017E0001D8409B1082909D100EB6100056825F0C5
:1017F000700505600568154305600EE00D1FC5F313
:101800004E052844056825F4E045056005684FF657
:10181000FF7606EA02263543056070BD21B10288D5
:1018200042F00202028004E002884FF6FD731A4083
:101830000280704721B1028842F00402028004E075
:1018400002884FF6FB731A400280704721B18288EC
:1018500042F08002828004E082884FF67F731A4053
:101860008280704702884FF6F7731A400280028820
:101870000A430280704782884FF68F731A40828035
:1018800082880A438280704702894FF6F8731A40B3
:10189000028102890A430281704702894FF67F73F1
:1018A0001A40028102890A4302817047818470478D
:1018B00081857047818670470187704781877047AF
:1018C000A0F84010704702884FF6FF431A4002808C
:1018D00002880A43028070470146888E704701469D
:1018E000088F70470146888F70470146B1F8400065
:1018F00070470146888C70470146088D7047024644
:101900000020138A0B400BB1012000E0002070473B
:10191000CA430282704730B50246002000230024EB
:10192000158A05EA0103958905EA010413B10CB192
:10193000012000E0002030BDCA4302827047000051
:1019400010B50446FB48844209D101218803FFF702
:101950009FF800214FF48040FFF79AF832E0F648F4
:10196000844209D101214804FFF79FF800214FF478
:101970000030FFF79AF825E0F048844209D10121B0
:101980008804FFF792F800214FF48020FFF78DF8CC
:1019900018E0EB48844209D10121C804FFF785F81B
:1019A00000214FF40020FFF780F80BE0E548844267
:1019B00008D101210805FFF778F800214FF48010C5
:1019C000FFF773F810BD2DE9F04786B005460E46C7
:1019D0000024A24600BFA1460027B08900B100BF85
:1019E0002F462C8A4CF6FF700440F08804432C826A
:1019F000AC894EF6F3100440B088318908437189F0
:101A000008430443AC81AC8A4FF6FF400440B089E0
:101A10000443AC8201A8FEF7B4FFC648874202D156
:101A2000DDF810A001E0DDF80CA0A88900F400406A
:101A300040B10AEBCA0000EB0A1031684900B0FB64
:101A4000F1F807E00AEBCA0000EB0A1031688900E0
:101A5000B0FBF1F86420B8FBF0F004012009642128
:101A600001FB1089A88900F4004040B1322000EB4E
:101A7000C900B0FBF1F000F00700044308E0322099
:101A800000EB09106421B0FBF1F000F00F000443FB
:101A90002C8106B0BDE8F0874FF41651016000219B
:101AA0008180C18001810C214181002181817047A9
:101AB00010B502460020108A4FF2FF0318400B8831
:101AC0004C8823438C882343CC88234318431082BB
:101AD00010BD0021018041808180C180704721B10B
:101AE000828942F40052828104E082894DF6FF73BC
:101AF0001A4082817047F0B5034600240026002575
:101B0000002040F66A17B94200D100BF1846C1F361
:101B1000421401F01F06012707FA06F5012C01D136
:101B20000C3004E0022C01D1103000E014301AB166
:101B300007682F43076002E00768AF430760F0BD06
:101B40001AB1838A0B43838202E0838A8B438382A8
:101B50007047028A4FF6F0731A400282028A0A43E3
:101B60000282704782894FF2FF731A408281828914
:101B70000A438281704721B1828942F00202828148
:101B800004E082894FF6FD731A4082817047028A11
:101B90004FF6DF731A400282028A0A4302827047BC
:101BA00021B1028A42F48042028204E0028A4BF6AA
:101BB000FF731A4002827047C1F3080282807047A7
:101BC00001468888C0F308007047818941F001010F
:101BD00081817047028BD2B20283028B42EA0122DA
:101BE00002837047028B02F47F420283028B0A4316
:101BF0000283704721B1828A42F02002828204E08F
:101C0000828A4FF6DF731A408282704721B1828A3E
:101C100042F01002828204E0828A4FF6EF731A408B
:101C20008282704721B1828A42F00802828204E0F7
:101C3000828A4FF6F7731A408282704721B18289F7
:101C400042F40042828103E08289C2F30E02828163
:101C5000704721B1828A42F40062828204E0828A63
:101C60004FF2FF731A4082827047828A4FF6FB73ED
:101C70001A408282828A0A438282704721B1828A14
:101C800042F00202828204E0828A4FF6FD731A401B
:101C90008282704702460020B1F5007F00D100BF6C
:101CA00013880B400BB1012000E00020704701F4C5
:101CB0000072B2F5007F00D100BFCA4302807047B6
:101CC00070B50246002400230025002040F66A1665
:101CD000B14200D100BFC1F3421501F01F0301263C
:101CE00006FA03F3012D02D19689334006E0022D56
:101CF00002D1168A334001E0968A33400C12012645
:101D000006FA04F41688344013B10CB1012000E047
:101D1000002070BD10B50022002340F66A14A142D5
:101D200000D100BF0A1201249440A3B2DC43048016
:101D300010BD000000380140004400400048004051
:101D4000004C00400050004010B500F07BF802F05D
:101D5000D1FD0A490A48007803F023F909490860CF
:101D60000723094A0021094803F078FC08A005F080
:101D7000C3FB02F0DBFE002010BD00002C000020A1
:101D80002D00002028000020A40500206145000847
:101D900062737020696E6974204F4B0A0000000066
:101DA000704700BFFEE700BFFEE700BFFEE700BFD1
:101DB000FEE770477047704710B502F0ADFD02F0C6
:101DC000ECFE02F0C4FD10BD10B501210648FFF77E
:101DD000A2FD40B105480068401E04490860012189
:101DE0000148FFF7A9FD10BD001400408C00002041
:101DF00030B5274800684FF47A72B0FBF2F1B1F1C8
:101E0000807F00D31DE021F07F40401E4FF0E02294
:101E1000506150170F22002807DA13071D0E1D4BC3
:101E200000F00F04241F1D5503E013071C0E1A4B6E
:101E30001C5400BF00204FF0E02290610720106189
:101E400000BF30BD10B5FFF7D3FF01F0F2F900F08D
:101E500031F800F07CF800F0C0F800F0F1FE00F07E
:101E600003FF04F0F4FB00F0C7FF00F0E0FF01F017
:101E70001DFA01F054FA09A005F03EFB02F04CFBFC
:101E800001F048FC0020094908700949087010BD9C
:101E90000000002018ED00E000E400E06273702014
:101EA000696E6974204F4B0A00000000A0000020FA
:101EB000A100002008B501211820FEF7CFFD012068
:101EC000ADF8000010208DF8030003208DF802000B
:101ED00069460D48FEF706FB0820ADF8000069468C
:101EE0000A48FEF7FFFA1020ADF8000069460748DF
:101EF000FEF7F8FA01210448FEF7A1FB1821034878
:101F0000FEF79DFB08BD0000000C014000100140E1
:101F10002DE9FF478246DAF8080004F097FE0446F0
:101F20000D46DAF8000004F091FE06460F46DAF896
:101F3000040004F08BFE804642460B46FDA0CDE92E
:101F40000067CDE9024505F0D7FABDE8FF8700B587
:101F500085B001218804FEF78EFD01212120FEF7C6
:101F60007DFD0121FA48FEF78EFB4FF48070ADF83D
:101F7000100018208DF8130003208DF8120004A91A
:101F8000F448FEF7AFFA4FF40070ADF810000420EB
:101F90008DF8130004A9EF48FEF7A4FA4FF4165089
:101FA00000900020ADF80400ADF80600ADF8080080
:101FB000ADF80C000C20ADF80A006946E648FFF7C2
:101FC00002FD012240F22551E348FFF794FD012173
:101FD000E148FFF784FD05B000BD08B54FF4E060AF
:101FE000FEF7B2F927208DF8000001208DF80100DE
:101FF00000208DF8020001208DF803006846FEF7EE
:10200000A8F908BD002003E00021D44A1154401C67
:10201000C828F9DB70470FB438B505A80090D04840
:10202000009A049905F078FA00200090CC4804F05A
:1020300075FB85B200240DE000BF4021C648FFF7C4
:1020400029FE0028F9D0C648015DC348FFF7B4FD5A
:10205000601C84B2AC42EFDB38BC5DF814FBF8B511
:10206000C048008800F40040002870D00120BE491C
:1020700008706946B94806F077FA054604F0F9FD9C
:102080000446BAA1009804F050FB58B9B84804605F
:10209000006804F0DBFD05462A460B46B5A0FFF7B5
:1020A000BAFFF1E0B8A1009804F03FFB58B9B74877
:1020B0000460006804F0CAFD05462A460B46B4A039
:1020C000FFF7A9FFE0E0B7A1009804F02EFB58B994
:1020D000B5480460006804F0B9FD05462A460B4681
:1020E000B2A0FFF798FFCFE0B5A1009804F01DFB68
:1020F00058B9B4480460006804F0A8FD05462A46B3
:102100000B46B1A0FFF787FFBEE0B4A1009804F032
:102110000CFB58B9B2480460006804F097FD05460E
:102120002A460B46AFA0FFF776FFADE0B2A10098BC
:1021300004F0FBFA60B9B1480460006804F086FD61
:1021400005462A460B46AEA0FFF765FF9CE0A3E0DC
:10215000B0A1009804F0E9FA58B9AF4804600068EB
:1021600004F074FD05462A460B46ACA0FFF753FF6A
:102170008AE0AFA1009804F0D8FA58B9AD480460DD
:10218000006804F063FD05462A460B46AAA0FFF747
:1021900042FF79E0ADA1009804F0C7FA58B9AC4805
:1021A0000460006804F052FD05462A460B46A9A0CB
:1021B000FFF731FF68E0ACA1009804F0B6FA58B917
:1021C000AA480460006804F041FD05462A460B4613
:1021D000A7A0FFF720FF57E0AAA1009804F0A5FAF6
:1021E00058B9A9480460006804F030FD05462A4645
:1021F0000B46A6A0FFF70FFF46E0A9A1009804F048
:1022000094FA58B9A7480460006804F01FFD054619
:102210002A460B46A4A0FFF7FEFE35E0A7A10098D2
:1022200004F083FA58B9A6480460006804F00EFD73
:1022300005462A460B46A3A0FFF7EDFE24E0A6A123
:10224000009804F072FA58B9A4480460006804F0D9
:10225000FDFC05462A460B46A1A0FFF7DCFE13E075
:10226000A4A1009804F061FA58B9A348046000687A
:1022700004F0ECFC05462A460B46A0A0FFF7CBFE77
:1022800002E0A3A0FFF7C7FEA4A0FFF7C4FE002052
:1022900034490880FFF7B6FEF8BD10B502F03CFBEC
:1022A00040F225512C48FFF70BFD38B32A48FFF7C1
:1022B00087FC9B4908702B48008800F40040E8B96F
:1022C00008460078232808D12648008840F40040BA
:1022D00024490880FFF7C3FE10E0914801782148A7
:1022E00002880088401C1F4B18801C4881541846E7
:1022F0000088C72802DD00201946088002F027FB6D
:1023000010BD2DE9F04782460E4690461C46B14668
:102310005546304604F002FA0746B84501DDA7EB02
:102320000408002C00DA0024BC4202DD0020BDE8D5
:10233000F087F7E070697463682025663B726F6C04
:102340006C2025663B7961772025660A0000000035
:10235000300014000014014000480040A80500208F
:10236000700600202E0000203100002070737000E5
:102370003C01002020707370206368616E676564A3
:1023800020746F256C6600007073640040010020AB
:1023900020707364206368616E67656420746F25C4
:1023A0006C6600007073690044010020207073693E
:1023B000206368616E67656420746F256C66000039
:1023C00070637000480100202070637020636861B2
:1023D0006E67656420746F256C660000706364002E
:1023E0004C01002020706364206368616E6765643F
:1023F00020746F256C66000072737000500100201D
:1024000020727370206368616E67656420746F2545
:102410006C660000727364005401002020727364C3
:10242000206368616E67656420746F256C660000C8
:10243000727369005801002020727369206368611B
:102440006E67656420746F256C66000072637000AF
:102450005C01002020726370206368616E676564B0
:1024600020746F256C6600007263640060010020B8
:1024700020726364206368616E67656420746F25F1
:102480006C6600007973700064010020207973701D
:10249000206368616E67656420746F256C66000058
:1024A0007973640068010020207973642063686197
:1024B0006E67656420746F256C660000797369002F
:1024C0006C01002020797369206368616E67656420
:1024D00020746F256C660000796370007001002025
:1024E00020796370206368616E67656420746F256E
:1024F0006C660000796364007401002020796364D5
:10250000206368616E67656420746F256C660000E7
:10251000756E64656620696E666F00000D0A0000C6
:1025200030000020A14403E019F8010B05F8010B6D
:10253000B8F10000A8F10108F6D105F8010B5046EA
:10254000BDE8F08700B585B001210820FEF786FAC6
:102550002020ADF8100004208DF8130003208DF822
:10256000120004A9FE48FDF7BDFF01214804FEF753
:1025700082FA01212120FEF771FA01210820FEF7DD
:1025800082F82020ADF8100018208DF813000320E9
:102590008DF8120004A9F348FDF7A4FF4020ADF820
:1025A000100004208DF8130004A9EE48FDF79AFFEF
:1025B0004FF4165000900020ADF80400ADF806006E
:1025C000ADF80800ADF80C000C20ADF80A00694623
:1025D000E548FFF7F8F9012240F22551E248FFF7FC
:1025E0008AFA0021E048FFF77AFA05B000BD08B585
:1025F0004FF4E060FDF7A8FE26208DF800000120D2
:102600008DF8010000208DF8020001208DF80300F4
:102610006846FDF79EFE08BD002000BF03E00021D4
:10262000D24A1154401CB0F5487FF8DB7047F8B52A
:10263000CF49D1F8490004F0DFFA0746CD493846C2
:1026400004F00BF90746044604F000FB0546C848B1
:1026500090F84D002A460B460090C7A004F04CFFAE
:10266000C349486C04F0C8FA0746C249384604F02A
:10267000F4F80746044604F0E9FA0546BC4890F829
:1026800048002A460B460090C1A004F035FFB84828
:1026900090F8403090F83F20B0F83D10C2A004F010
:1026A0002BFFB34890F8433090F8422090F8411047
:1026B000C5A004F021FFF8BD10B50246012000E0DE
:1026C00050430B1EA1F10104E1B2F9D110BD2DE977
:1026D000F34F81B007463C46002000908346814678
:1026E0000026804628E020782D2802D148F00208F4
:1026F000641C20782C2802D020782A2800D11CE0E5
:1027000020782E2803D148F00108641C09E02078C5
:10271000392802DC2078302803DA4FF0000900263F
:102720000BE008F0010010B1701CC6B203E009F123
:10273000010000F0FF09641CD5E700BF08F00200AB
:1027400000B17F1C00250EE0A9F10100401BC1B2C1
:102750000A20FFF7B1FF795D3039009A00FB0120B4
:102760000090681CC5B24D45EEDB052E00DD052648
:102770000298067000250EE0701E401BC1B20A20B0
:10278000FFF79AFF09F101012944795C303900FB18
:1027900001BB681CC5B2B542EEDB31460A20FFF72B
:1027A0008BFF009901FB00BA08F0020008B1CAF1E2
:1027B000000A5046BDE8FE8F0246134610E010782E
:1027C0002A2805D01078202802DB10787A2801DD2D
:1027D000FF20704710782C2801D1481EC1B2521C2E
:1027E0000029ECD1D01AC0B2F3E72DE9F04F85B043
:1027F000044688467CA1404603F07EFF074601213F
:102800003846FFF7D9FF0546FF2D24D0781904A9D3
:10281000FFF75DFF82469DF810100A20FFF74CFF7E
:10282000BAFBF0F642F21070B6FBF0F00830C1B21D
:10283000412001556420B6FBF0F06421B0FBF1F2B9
:1028400001FB1201422001556420B6FBF0F100FBB0
:1028500011614320015503213846FFF7ADFF0546BE
:10286000FF2D43D0781904A9FFF731FF06469DF8E4
:102870001000801CC1B20A20FFF71EFFB6FBF0F06B
:1028800060649DF81000801CC1B20A20FFF714FF9D
:10289000B6FBF0F100FB116A504604F0ADF9814639
:1028A0009DF81000C0F10500C1B20A20FFF704FF37
:1028B000009004F0A1F98346494603F09CFF82464C
:1028C0004B4903F0CAFF052102900A20FFF7F4FEEE
:1028D000616C00FB01FA504604F08EF901900299F8
:1028E00003F031FF039004F09DF960640421384641
:1028F000FFF762FF0546FF2D02D0785D84F848009F
:1029000005213846FFF758FF0546FF2D72D078198C
:1029100004A9FFF7DCFE06469DF81000801CC1B23A
:102920000A20FFF7C9FEB6FBF0F044F8490F9DF806
:102930001000801CC1B20A20FFF7BEFEB6FBF0F10A
:1029400000FB116A504604F057F981469DF81000CB
:10295000C0F10500C1B20A20FFF7AEFE00904AE0C8
:10296000000C014000140140004400405C070020BE
:102970009C0D00200050C3474C6F6E6769747564EE
:10298000653A252E3566202531632020200D0A006A
:102990004C617469747564653A252E35662025315D
:1029A000632020200D0A00005554432044617465C3
:1029B0003A253034642F253032642F25303264209C
:1029C00020200D0A000000005554432054696D6515
:1029D0003A253032643A253032643A253032642068
:1029E00020200D0A000000004750524D4300000017
:1029F000000070421DE004F0FFF88346494603F0F2
:102A0000FAFE8246714903F028FF052102900A2050
:102A1000FFF752FE216800FB01FA504604F0ECF883
:102A20000190029903F08FFE039004F0FBF844F844
:102A3000490906213846FFF7BFFE0546FF2D02D0A3
:102A4000785D84F84D0009213846FFF7B5FE05464C
:102A5000FF2D1ED0781904A9FFF739FE064642F271
:102A60001070B6FBF0F0C1B2402001556420B6FBF7
:102A7000F0F06421B0FBF1F201FB12013F2001559F
:102A80006420B6FBF0F100FB116000F5FA60A4F8D9
:102A90003D0005B0BDE8F08FF8B505460F464CA1E6
:102AA000384603F029FE064606213046FFF784FE2D
:102AB0000446FF2C05D030196946FFF708FE85F85B
:102AC0004E0007213046FFF777FE0446FF2C05D065
:102AD00030196946FFF7FBFD85F84F0009213046A4
:102AE000FFF76AFE0446FF2C05D030196946FFF750
:102AF000EEFDC5F86300F8BD70B504460D462946E5
:102B00002046FFF7C9FF29462046FFF76EFE70BD3D
:102B100070B5002430480088C0F30D0500BF04E004
:102B20002E48005D2E490855641CAC42F8DB00209D
:102B30002B4908552B48FFF7DFFFFFF778FDFFF71C
:102B40006BFD00202449088070BD10B540F225516E
:102B50002548FFF7B5F820B32348FFF731F8C4B292
:102B60001D48008800F40040D8B91B48008800F4D4
:102B7000804070B10A2C03D000201749088023E060
:102B800015480088C0F30D0013490880FFF7C0FF07
:102B90001AE00D2C06D11048008840F480400E4900
:102BA000088011E00C480088C0F30D000B490C545C
:102BB00009480088401C0849088008460088B0F58C
:102BC000487F01DB0020088010BD0000000070423B
:102BD0002447504747410000340000205C07002094
:102BE0007C0A00209C0D00200044004030B5B0F568
:102BF000FA6F01DD4FF4FA60B1F5FA6F01DD4FF4C1
:102C0000FA61B2F5FA6F01DD4FF4FA62B3F5FA6FCB
:102C100001DD4FF4FA63002800DA0020002900DA11
:102C20000021002A00DA0022002B00DA0023704D78
:102C300028802D1D29802D1D2A802D1D2B8030BD23
:102C400008B501210920FDF709FF4FF47070ADF8B8
:102C5000000003208DF8020018208DF8030069465B
:102C60006448FDF73FFC08BDF0B587B04FF44877E6
:102C70003C462546264601210420FDF7FCFE44F68D
:102C80001F60ADF814004720ADF810000020ADF82B
:102C90001600ADF8120004A955483438FEF716F8AE
:102CA0006020ADF800000120ADF80200ADF806701C
:102CB0000020ADF8080069464D483438FEF743F867
:102CC0000120ADF80200ADF80640694648483438A6
:102CD000FEF77BF80120ADF80200ADF8065069461A
:102CE00043483438FEF7BEF80120ADF80200ADF8D5
:102CF000066069463E483438FEF7FFF808213C4834
:102D00003438FEF76FFC082139483438FEF773FC7D
:102D1000082137483438FEF77BFC08213448343822
:102D2000FEF77FFC012132483438FEF72BFC0121ED
:102D30002F483438FEF726FB07B0F0BD4FF47A7108
:102D40004143642291FBF2F101F57A71284A118026
:102D50004FF47A714143642291FBF2F101F57A71EB
:102D6000234A121D11804FF47A714143642291FB72
:102D7000F2F101F57A711E4A083211804FF47A712E
:102D80004143642291FBF2F101F57A71184A0C3249
:102D90001180704730B54FF47A744443642594FB36
:102DA000F5F404F57A74124D2C804FF47A744C4388
:102DB000642594FBF5F404F57A740D4D2D1D2C80DB
:102DC0004FF47A745443642594FBF5F404F57A7453
:102DD000074D08352C804FF47A745C43642594FBCE
:102DE000F5F404F57A74024D0C352C8030BD0000EA
:102DF00034080040000C014008B501210846FDF7E9
:102E00003AFE01210520FDF729FE0F20ADF8000054
:102E100003208DF8020028208DF803006946E14860
:102E2000FDF760FB0F21DF48FDF70BFC08BD00B587
:102E300087B01C208DF8000000208DF801000120D3
:102E40008DF802008DF803006846FDF782FA4FF610
:102E5000FF70ADF814004720ADF810000020ADF869
:102E60001600ADF8120004A94FF08040FDF72EFFC8
:102E70000020ADF80400ADF806000120ADF8080010
:102E80000020ADF80A00ADF80C0001A94FF0804019
:102E9000FEF7AFF90420ADF804000020ADF80600FD
:102EA0000120ADF808000020ADF80A00ADF80C00D4
:102EB00001A94FF08040FEF79CF90820ADF804000E
:102EC0000020ADF806000120ADF808000020ADF8A4
:102ED0000A00ADF80C0001A94FF08040FEF789F917
:102EE0000C20ADF804000020ADF806000120ADF87C
:102EF00008000020ADF80A00ADF80C0001A94FF061
:102F00008040FEF776F901221E219007FEF755FA60
:102F100001218807FEF736FA07B000BD10B501F0B1
:102F2000FBFCA148007800F08000002849D1022174
:102F30004807FEF7F0FC002843D002214807FEF7BF
:102F4000FBFC9948007800F0400050B34FF08040FF
:102F5000FEF7C2FC95490880084600889449098814
:102F6000884204DA4FF6FF709249086002E00020C0
:102F7000904908608D4800888D490988401A8D491C
:102F8000096808448C490860084600688B49086055
:102F900000208549087000214FF08040FEF7A4FB17
:102FA0000FE04FF08040FEF797FC814908807E4893
:102FB000007840F040007C49087002214807FEF785
:102FC00093FB7F48007800F08000002849D104215D
:102FD0000807FEF7A0FC002843D004210807FEF7ED
:102FE000ABFC7748007800F0400050B34FF08040D1
:102FF000FEF775FC73490880084600887249098805
:10300000884204DA4FF6FF707049086002E0002041
:103010006E4908606B4800886B490988401A6B4903
:10302000096808446A4908600846006869490860F8
:1030300000206349087000214FF08040FEF766FBD6
:103040000FE04FF08040FEF74AFC5F4908805C4883
:10305000007840F040005A49087002214807FEF706
:1030600055FB5D48007800F08000002848D1082119
:10307000C806FEF750FC90B30821C806FEF75CFCBA
:103080005548007800F0400050B34FF08040FEF704
:1030900029FC52490880084600885149098888421D
:1030A00004DA4FF6FF704F49086002E000204D49F6
:1030B00008604A4800884A490988401A494909680D
:1030C00008444949086008460068484908600020EB
:1030D0004149087000214FF08040FEF731FB0FE0BE
:1030E0004FF08040FEF7FEFB3D4908803A480078EB
:1030F00040F040003849087002214807FEF720FBE5
:103100003B48007800F08000B8BB10218806FEF72D
:1031100002FC90B310218806FEF70EFC34480078BC
:1031200000F0400050B34FF08040FEF7DEFB314925
:1031300008800846008830490988884204DA4FF63A
:10314000FF702E49086002E000202C4908602948E1
:10315000008829490988401A2849096808442849EB
:103160000860084600682749086000202049087068
:1031700000214FF08040FEF7FDFA0FE04FF0804055
:10318000FEF7B3FB1C4908801948007840F0400066
:103190001749087002214807FEF7ECFA01F0D7FB47
:1031A00010BD000000080140400000204400002045
:1031B0004200002068000020580000208400002009
:1031C000460000204A000020480000206C0000203B
:1031D0005C000020800000204C00002050000020F7
:1031E0004E00002070000020600000207C000020C5
:1031F00052000020560000205400002074000020DF
:10320000640000207800002010B504460121202031
:10321000FDF731FC2348046000BF22480068002805
:10322000FBD100212020FDF726FC00201E4908804C
:1032300010BD1FB501212020FDF71DFC37208DF8A2
:10324000000000208DF801008DF8020001208DF8AB
:1032500003006846FDF77DF840F2E730ADF808005E
:103260004720ADF804000020ADF80A00ADF80600D4
:1032700001A90D482438FDF729FD01210A48243809
:10328000FEF746FB0122114607482438FEF795F861
:10329000012105482438FEF775F800212020FDF7AC
:1032A000EAFB1FBD8C0000202414004000B585B04F
:1032B000012144F20400FDF7D1FB4FF40070ADF89A
:1032C000100018208DF8130003208DF8120004A9B7
:1032D0005048FDF707F94FF48060ADF81000042066
:1032E0008DF8130004A94B48FDF7FCF84FF4165075
:1032F00000900020ADF80400ADF80600ADF808001D
:10330000ADF80C000C20ADF80A0069464248FEF703
:103310005AFB01214048FEF7E2FB05B000BD08B5AD
:103320004FF4E060FDF710F825208DF80000002034
:103330008DF8010001208DF802008DF80300684629
:10334000FDF707F808BD70B504460D46E1B23248F6
:10335000FEF732FC00BF40212F48FEF79BFC0028FF
:10336000F9D0204670BD10B5044600BF20212A4880
:10337000FEF790FC0028F9D02748FEF721FC10BD8D
:1033800010B501F0C9FA40F225512348FEF798FC28
:1033900000283BD02048FEF713FC20490870204845
:1033A000008800F4004088BB1D48008800F480407D
:1033B00070B1084600780A2803D000201849088018
:1033C00024E01748008840F40040154908801DE0BB
:1033D000124800780D2806D11148008840F480403A
:1033E0000F49088012E00D4800780D490988C1F3A3
:1033F0000D010C4A50540A480088401C08490880B6
:1034000008460088C72801DD0020088001F09FFAE7
:1034100010BD00000008014000380140920000206B
:1034200090000020050E002010B5CB480078CA4956
:10343000497840EA0120C9490988401A00B2C849C0
:103440000880C5488078C449C97840EA0120C3494A
:103450004988401A00B2C2494880BF480079BE4935
:10346000497940EA0120BD498988401A00B2BC4927
:103470008880B948007AB849497A40EA0120B949B8
:103480000988401A00B2B8490880B348807AB24926
:10349000C97A40EA0120B3494988401A00B2B249CA
:1034A0004880AD48007BAC49497B40EA0120AD49EA
:1034B0008988401A00B2AC498880AC48007800285E
:1034C00055D1AB48008870B90020A64908804880D3
:1034D0008880A8490860A8490860A84908600120B8
:1034E000A349088010BDA048B0F90000A1490968AF
:1034F0000844A04908609C48B0F902009E49096848
:1035000008449D4908609848B0F904009B4909683F
:1035100008449A49086096480088B0F57A7F21D11E
:10352000944800689249098890FBF1F000B28D49F7
:103530000880914800688E49098890FBF1F000B23C
:10354000884948808D4800688949098890FBF1F0D6
:1035500000B2844988800020854908800120834981
:103560000870BFE782480088401C81490880844871
:103570000078002860D18348008870B9002077491E
:1035800008804880888080490860804908608049B8
:10359000086001207B490880A4E77148B0F9000069
:1035A000794909680844784908606D48B0F9020013
:1035B000764909680844754908606948B0F904000B
:1035C000734909680844724908606E480088B0F57C
:1035D0007A7F2CD16C4800686A49098890FBF1F029
:1035E00000B25E490880694800686649098890FB16
:1035F000F1F000B25949488065480068614909887E
:1036000090FBF1F0A0F5005000B2544988800020F2
:103610005C49088001205A4908705EA003F06CFFE5
:103620005CA003F069FF01205C4908605AE7554837
:103630000088401C5349088000BF53E710B53C2167
:10364000D02000F081FE444908703B21D02000F0DA
:103650007BFE414948703E21D02000F075FE3E4976
:1036600088703D21D02000F06FFE3B49C87040219A
:10367000D02000F069FE384908713F21D02000F0C9
:1036800063FE354948714221D02000F05DFE324989
:1036900088714121D02000F057FE2F49C871442184
:1036A000D02000F051FE2C4908724321D02000F0B8
:1036B0004BFE294948724621D02000F045FE26499C
:1036C00088724521D02000F03FFE2349C87248216E
:1036D000D02000F039FE204908734721D02000F0A7
:1036E00033FE1D49487310BD10B500247521D0204C
:1036F00000F02AFE0446682C01D1012000E00020E1
:1037000020B1214626A003F0F7FE02E02CA003F032
:10371000F3FE10BD10B500226B21D02000F035FE65
:1037200007221921D02000F030FE03221A21D020D8
:1037300000F02BFE10221B21D02000F026FE0822D4
:103740001C21D02000F021FE4FF4FA60FFF75CFD51
:10375000FFF7CAFF10BD0000CD0E00209A00002028
:10376000A200002094000020A8000020A00000205B
:10377000C4000020B8000020BC000020C0000020D1
:10378000A1000020D4000020C8000020CC000020B0
:10379000D00000204F4B200A00000000B4000020A1
:1037A0000DC9E8B1B84D5036303530CAB6B1F0B3B6
:1037B000C9B9A6A3AC69643D307825780D0A0D001F
:1037C0000DB4EDCEF321CEDEB7A8C9E8B1F0C9E85B
:1037D000B1B80D0A0D0000002DE9F04100250026CA
:1037E0000027FFF72BFFFFF71FFEFE480088FE496A
:1037F000FE4A127821F81200FA484188FC48FB4A38
:10380000127820F81210F7488188FA48F74A12789F
:1038100020F8121000240DE0F34830F9140005449C
:10382000F34830F914000644F24830F91400074414
:10383000601CC4B2142CEFDB142095FBF0F840465A
:1038400003F0D1F9EC490860142096FBF0F84046EB
:1038500003F0C9F9E8494860142097FBF0F84046A6
:1038600003F0C1F9E4498860E0480078401CDF4972
:10387000087008460078142801D100200870BDE8BF
:10388000F0810FB59DB0DD480168006802F0B3FF1C
:103890001590DB480168D948006802F0ACFF14902D
:1038A000D8480168D548006802F0A5FF1390D448B5
:1038B0000168006802F09FFF1290D3480168D04869
:1038C000006802F098FF1190CE480168006802F08D
:1038D00092FF1090CC480168CA48006802F08BFF44
:1038E0000F90C9480168006802F085FF0E90229988
:1038F000209802F080FF0C90239902F07CFF0021B9
:103900000D9003F0D3F901D121B000BD23990846F1
:1039100002F071FF08902299084602F06CFF0690B1
:103920002099084602F067FF0590069902F00BFF08
:103930000790089902F007FF099003F087F9CDE995
:103940000A0104F0EBFDCDE90C0103F092F91C90A3
:103950001C99209802F081FF20901C99229802F077
:103960007CFF22901C99239802F077FF23901399F3
:10397000119802F03AFF4FF080410D9002F03BFFAA
:103980001B900F99149802F0DEFE4FF080410D90CD
:1039900002F031FF1A901299159802F026FF0C9050
:1039A000109902F022FF0D900E9902F0CCFE1990B2
:1039B0001A99239802F01FFF0D901999229802F08E
:1039C0001AFF0C900D9902F010FF18901999209889
:1039D00002F011FF0D901B99239802F00CFF0C9040
:1039E0000D9902F002FF17901B99229802F003FF35
:1039F0000D901A99209802F0FEFE0C900D9902F09D
:103A0000F4FE16908149189802F0F5FE0D9080485A
:103A100001680D9802F097FE7D4908607B49179870
:103A200002F0E9FE0D907B4801680D9802F08BFED4
:103A3000784908607549169802F0DDFE0D907648C9
:103A400001680D9802F07FFE734908607348189969
:103A500002F0D1FE0C901D9902F075FE0D906C489D
:103A600001680D9802F06FFE1D906C48179902F0E6
:103A7000C2FE0C901E9902F066FE0D90654801682A
:103A80000D9802F060FE1E906448169902F0B3FE95
:103A90000C901F9902F057FE0D905F4801680D9839
:103AA00002F051FE1F9058481F99006802F0A3FED3
:103AB0000B9054481E99006802F09DFE09905048F2
:103AC000006880F0004007901D9902F094FE089075
:103AD000099902F08AFE0A900B9902F086FE50497D
:103AE0000C9002F088FE0D90444801680D9802F099
:103AF0002AFE4249086044481E99006802F07BFE95
:103B00000B9040481F99006802F075FE09903B48F1
:103B100001681D9802F06FFE0890099902F013FEEB
:103B20000A900B9902F061FE3D490C9002F063FE91
:103B30000D90334801680D9802F005FE3049086089
:103B4000314801681D9802F056FE0B902C481F99D1
:103B5000006802F050FE099028481E99006802F0A3
:103B60004AFE0890099902F040FE0A900B9902F073
:103B7000EAFD2B490C9002F03EFE0D9021480168B1
:103B80000D9802F0E0FD1F490860084601681D9885
:103B900002F031FE0B901A481E99006802F02BFECD
:103BA000099016481F99006802F025FE08900999AF
:103BB00002F0C9FD0A900B9902F017FE18490C900B
:103BC00002F019FE0D90104801680D9802F0BBFD3F
:103BD0000D49086008460168006802F00CFE089074
:103BE00008481FE0A2000020180F0020F400002069
:103BF000400F0020680F0020DC0E0020D8000020BD
:103C0000DC000020E0000020E40000200AD7A33BF5
:103C1000E8000020EC000020F0000020000020411F
:103C20006F12833A0168006802F0E5FD0690FE48D5
:103C30000168006802F0DFFD0490FC48016800683C
:103C400002F0D9FD0390049902F07DFD05900699DC
:103C500002F079FD0790089902F075FD099002F0D5
:103C6000F5FFCDE90A0104F059FCCDE90C0103F0A0
:103C700000F81C90ED481C99006802F0EEFDEB493D
:103C80000860E9481C99006802F0E7FDE649086011
:103C9000E7481C99006802F0E0FDE5490860E54846
:103CA0001C99006802F0D9FDE2490860E24A00214F
:103CB000E248006801F082FADC4801684FF0804079
:103CC00002F099FD0490DA480168049802F093FD2F
:103CD0000690D54801684FF0404002F08CFD0490FA
:103CE000D4480168049802F086FD0590069902F018
:103CF0002AFD079002F0AAFFCDE9080104F006F9B9
:103D00004FF06632CE4BCDE90A0102F08BFECDE9D1
:103D10000C0102F0AEFFCB494860C54801684FF086
:103D2000804002F068FD0190C1480168019802F0EE
:103D300062FD0390BC4801684FF0404002F05BFD1B
:103D40000190B9480168019802F055FD029003996D
:103D500002F04BFD4FF07E51049002F0F4FC059010
:103D600002F074FFCDE90801B04801684FF08040CF
:103D700002F041FD0290AC480168029802F03BFD60
:103D80000490AB4801684FF0804002F034FD02908F
:103D9000A8480168029802F02EFD0390049902F0F1
:103DA000D2FC059002F052FFCDE90601DDE90823BF
:103DB00004F0F4FA4FF06632A14BCDE90A0102F0AB
:103DC00031FECDE90C0102F054FF9E49086099488C
:103DD00001684FF0804002F00EFD019095480168A7
:103DE000019802F008FD0390914801684FF04040AF
:103DF00002F001FD01908E480168019802F0FBFC81
:103E00000290039902F0F1FC4FF07E51049002F011
:103E10009AFC059002F01AFFCDE908018348016879
:103E20004FF0804002F0E7FC02908248016802985F
:103E300002F0E1FC04907C4801684FF0804002F001
:103E4000DAFC02907A480168029802F0D4FC0390F0
:103E5000049902F078FC059002F0F8FECDE9060125
:103E6000DDE9082304F09AFA4FF06632744BCDE98D
:103E70000A0102F0D7FDCDE90C0102F0FAFE71490A
:103E8000886008468068099002F0E0FE6E4A6F4B39
:103E9000CDE90A0102F0C6FDCDE90C0102F0E9FE10
:103EA000684988606A48006860B16A480068B0F58F
:103EB000FA7F02D100206749086066480068401C0C
:103EC000644908605D48006801F094FA00BF1BE592
:103ED0002DE9F04F89B0604908684FF08C4102F03D
:103EE000BCFC07905C4948684FF08C4102F0B5FC7F
:103EF0000690594988684FF08C4102F0AEFC05905D
:103F00005649B1F9000002F07CFE06464FF06632D9
:103F1000534B02F0F9FD044602F0ABFE04904F490A
:103F2000B1F9020002F06DFE06464FF066324C4BCE
:103F300002F0EAFD044602F09CFE03904749B1F905
:103F4000040002F05EFE06464FF06632444B02F07B
:103F5000DBFD044602F08DFE02903D48006800281B
:103F600060D0049802F072FE3E4A3F4BCDE900015A
:103F700002F058FD82463D4A3D4B02F053FD064695
:103F80000F463C49086802F061FE804632463B46D7
:103F900002F0A1FC044602F06CFE3649086003986A
:103FA00002F054FE2F4A304BCDE9000102F03AFDF9
:103FB00080462E4A2E4B02F035FD06460F462D490F
:103FC000486802F043FE824632463B4602F083FCDC
:103FD000044602F04EFE27494860029802F036FE81
:103FE0008246204A204B02F01DFD204A204BCDE99D
:103FF000000102F017FD06460F461E49886802F0D0
:1040000025FE804632463B4602F065FC044602F03F
:1040100030FE18498860029802F018FE0746164ADA
:10402000164B2DE054E00000DC000020D8000020FA
:10403000E0000020E40000202C00002028000020E8
:1040400066A64C400C0F0020E9482EFF21FD0840D9
:10405000B4000020F8000020DC0E0020A8000020A2
:1040600066664040FCA9F1D24D62603F083D9B5519
:104070009F2B0740E80E0020A835CD3B4ED1913F45
:1040800002F0D0FC054602F0F4FD0446039802F06D
:10409000DDFD0746104A114B02F0C4FC054602F054
:1040A000E8FD8146049802F0D1FD07460A4A0B4B11
:1040B00002F0B8FC054602F0DCFD8246DDE90510A1
:1040C000CDE90001224649465046079BFFF7D9FB40
:1040D00009B0BDE8F08F0000A835CD3B4ED1913F2F
:1040E000002100E0491C8142FCD370470A2000BF38
:1040F000011EA0F10100FBD1704710B54FF48061A3
:10410000FE48FCF79CFAFFF7F1FF4FF40061FB4813
:10411000FCF795FAFFF7EAFF4FF48061F748FCF7E8
:1041200090FAFFF7E3FF4FF40061F448FCF789FAD7
:10413000FFF7DCFF10BD10B54FF48061EF48FCF7CE
:1041400080FAFFF7D3FF4FF40061EC48FCF777FAF1
:10415000FFF7CCFF4FF48061E848FCF770FAFFF7F7
:10416000C5FF10BD2DE9F04104462646002521E09B
:1041700006F080077006060E4FF40061DF48FCF77A
:1041800060FAFFF7B3FF802F04D1F900DB48FCF79A
:1041900056FA04E04FF48061D848FCF752FAFFF772
:1041A000A5FF4FF40061D548FCF749FAFFF79EFFE1
:1041B000681CC5B2082DDBDB4FF40061CF48FCF76B
:1041C00040FAFFF793FF4FF48061CC48FCF737FAD1
:1041D000FFF78CFFBDE8F08138B5044674B94FF4A1
:1041E0008060ADF8000014208DF8030003208DF8E6
:1041F00002006946C148FCF775F90BE0012C09D1B2
:10420000A002ADF8000048208DF803006946BB48C5
:10421000FCF768F938BD70B500254FF40061B74868
:10422000FCF70FFAFFF762FF4FF48061B348FCF729
:1042300006FA0120FFF7D0FF00241CE0FFF756FF2D
:104240004FF40061AD48FCF7FAF9FFF74FFF4FF468
:104250008061AA48FCF7D9F9012801D1012600E0C4
:10426000002646EA4500C5B24FF40061A348FCF7BA
:10427000E8F9601CC4B2082CE0DB0020FFF7ACFFBB
:10428000FFF734FF284670BD10B500240120FFF76A
:10429000A3FF4FF400619948FCF7D1F9FFF726FF1F
:1042A00000E0641C4FF480619448FCF7AEF90128EB
:1042B00003D141F288308442F3D34FF400618F4838
:1042C000FCF7BFF9FFF712FF0020FFF785FF10BDD5
:1042D00010B54FF400618948FCF7B3F9FFF706FF0A
:1042E0004FF480618548FCF7ACF9FFF7FFFE4FF40F
:1042F00000618248FCF7A3F9FFF7F8FE4FF4006174
:104300007E48FCF79EF9FFF7F1FE10BD10B54FF4A3
:1043100000617A48FCF795F9FFF7E8FE4FF48061F9
:104320007648FCF78CF9FFF7E1FE4FF40061734823
:10433000FCF785F9FFF7DAFE4FF400616F48FCF7F0
:1043400080F9FFF7D3FE10BD70B504460D46FFF7A8
:10435000D4FE2046FFF706FFFFF796FF2846FFF73B
:1043600001FFFFF791FFFFF7C8FE611CC8B2FFF71E
:10437000F9FEFFF789FFFFF74EFF0646FFF7DBFE6A
:104380003220FFF7ADFE304670BD70B506460C46D4
:104390001546FFF7B2FE3046FFF7E4FEFFF774FF65
:1043A0002046FFF7DFFEFFF76FFF2846FFF7DAFE34
:1043B000FFF76AFFFFF7BFFEFA20FFF791FE70BD1F
:1043C00070B505460C46FFF798FE2846FFF7CAFE73
:1043D000FFF75AFF2046FFF7C5FEFFF755FFFFF72F
:1043E000AAFEFA20FFF77CFE70BD2DE9F0410646DB
:1043F0000F4615469846FFF780FE3046FFF7B2FE9F
:10440000FFF742FF3846FFF7ADFEFFF73DFFFFF72E
:1044100074FE711CC8B2FFF7A5FEFFF735FF00243C
:104420000DE0FFF7F8FE08F80400601CA84202DA6D
:10443000FFF74EFF01E0FFF769FF601CC4B2AC421A
:10444000EFDBFFF778FEFA20FFF74AFEBDE8F081C8
:104450002DE9F04104460D46FFF74FFE2046FFF7D9
:1044600081FEFFF711FF2846FFF77CFEFFF70CFFE8
:10447000FFF743FE611CC8B2FFF774FEFFF704FFAD
:10448000FFF7C9FE0646FFF723FFFFF7C4FE074606
:10449000FFF73CFFFFF74FFEFA20FFF721FE47EA48
:1044A00006284046BDE8F0812DE9F04704460D4658
:1044B000FFF723FE2046FFF755FEFFF7E5FE2846EF
:1044C000FFF750FEFFF7E0FEFFF717FE611CC8B2D2
:1044D000FFF748FEFFF7D8FEFFF79DFE0746FFF700
:1044E000F7FEFFF798FE0646FFF7F2FEFFF793FE92
:1044F0008046FFF70BFFFFF71EFE01E0000C0140B6
:10450000FA20FFF7EDFDC7EB074000EB062000EBBC
:1045100008094846BDE8F08708B501210820FCF7E6
:104520009DFA4FF40060ADF8000014208DF80300F0
:1045300003208DF8020069460848FBF7D3FF4FF4CB
:104540008060ADF8000014208DF8030003208DF882
:10455000020069460148FBF7C5FF08BD000C014099
:1045600006230D4A00210D4801F078F805230C4A76
:1045700000210C4801F072F808230B4A00210B4877
:1045800001F06CF806E04FF47A73002211461046F1
:1045900001F0A8FBF7E700008C170020915F0008EE
:1045A0008C1F0020E16600088C2700200D600008A9
:1045B0000246002005E011F8013B02F8013B431CD4
:1045C000D8B20B78002BF6D1137070472DE9F0416B
:1045D00005460E4614460027F9480078002804DDF9
:1045E000112020700020BDE8F0812878012808D033
:1045F000022807D0032802D0042804D100E000BF1D
:1046000000BF00BF03E0012020700020EBE700BFE7
:1046100001F06CFC074605F10F013046FFF7C8FFBB
:104620008046384601F066FC002020704046DAE7FC
:104630000146002002E0491C421CD0B20A78002A40
:10464000F9D170472DE9F04105460F4614464FF069
:104650000008DB480078002803DD12202070BDE848
:10466000F0812878012808D0022807D0032802D03A
:10467000042804D100E000BF00BF00BF02E0012019
:104680002070ECE700BF01F031FC80463846FFF7B0
:10469000CFFF06460F2E05DD404601F02BFC0B2018
:1046A0002070DCE7394605F10F00FFF781FF404637
:1046B00001F020FC0020207000BFD0E77CB5002571
:1046C00014E06946284601F019FA064666B9BD4865
:1046D00050F8254044B1012C06D0D4E9020100EB8A
:1046E0008100A0630198E063681CC5B21F2DE8DD5E
:1046F0007CBD002402E0C82001F0C4FAB248007872
:104700000028F8D0B14800686421B0FBF1F0AF494F
:1047100008600846006828B90020AD490870FF20ED
:1047200001F02EFA00BF01F0E1FB0446A948006841
:10473000A94908600020A7490860204601F0DAFB7B
:10474000A5480068A1490968B0FBF1F0C0F1640018
:104750009F49087001F079FBFFF7B0FF642001F07A
:1047600091FAE0E700B587B00320002180229B4B3F
:10477000CDE90132CDE903104FF6FE701E23984AB1
:104780000090AFF2910000F0C1FF06AA95A11E2093
:1047900001F025F907B000BD002400BF01F0A6FB21
:1047A00004468C480068401C8A490860204601F095
:1047B000A1FB01F049FBF1E700B587B00320002120
:1047C00080228C4BCDE90132CDE903104FF6FF700A
:1047D0001F23894A0090AFF23F0000F097FF06AA1E
:1047E00086A11F2001F0FBF807B000BD04E0002205
:1047F00000F8012B4A1E91B20029F8DC704730B551
:104800004FF4A0718148FFF7F1FF804B03F12005C1
:1048100000240AE0002018705D603F20D87300215A
:10482000197420332035601C84B2092CF2DB00207F
:10483000187058603F20D873002119747348744968
:10484000086030BD30B54FF4B4617248FFF7CEFF59
:1048500080215C48FFF7CAFF6E4B03F1500500242E
:104860000AE05D613F2083F8400000214120C154EF
:1048700050335035601CC4B2112CF2D30020586163
:104880003F2083F8400000214120C15400206249AC
:10489000086060486149086030BD0022604B1A70B2
:1048A0006049002004E0002201F8012B421CD0B234
:1048B0000428F8DB00225C4B1A705C4B1A705C4BCE
:1048C0001A605C4B1A60704700205B4908603C49E5
:1048D00008705A4908705A4908705A4908705A496C
:1048E00008603C4908603C4908603849086036491E
:1048F0000870704710B501F0A3FAFFF7E5FFFFF766
:10490000CCFFFFF79FFFFFF77AFFFFF755FFFFF799
:1049100029FF01F096FA10BD4A480078012808D115
:1049200027480078FF2804D225480078401C2449F5
:104930000870704745493A4A1278885C3949095CE1
:10494000424A515C01EBC001384A1170704710B502
:1049500000243C480078012830D101F0C7FA044611
:1049600017480078002804DD15480078401E1449D7
:10497000087013480078F0B930480078D8B9FFF7CC
:10498000D9FF2A48007828490978884213D00D4871
:104990002649097850F82100254908600846006832
:1049A000C06A401C0968C86227480068401C264944
:1049B000086001F0B7FA204601F09CFA10BD000033
:1049C00011010020D0340020100100200801002037
:1049D000040100201C0100200C010020D030002028
:1049E000CC32002075432F4F532D49492053746119
:1049F00074000000D0320020CC34002075432F4FCB
:104A0000532D49492049646C65000000902F002017
:104A100000010020503500202C010020240100203E
:104A200015010020160100201301002014010020B0
:104A30002801002020010020340100201201002064
:104A40001B0100201A010020FC00002084850008C2
:104A500010B50024FE480078012811D101F046FA73
:104A60000446FC48007840B9FB480078FF2804D28F
:104A7000F9480078401CF8490870204601F03AFADD
:104A800010BD10B5002401F031FA0446F148007859
:104A9000F0B9F1480078D8B9FFF74CFFEF4800783B
:104AA000EF490978884213D0EE48EC49097850F86C
:104AB0002100ED49086008460068C06A401C09688A
:104AC000C862EA480068401CE849086001F025FA1D
:104AD000204601F00FFA10BD10B50024DC48007824
:104AE000012822D101F002FA0446DB4800780028B0
:104AF00018DDD9480078401ED7490870084600786C
:104B000060B9D448007828B9204601F0F3F9FFF7DE
:104B1000B8FF0AE0204601F0EDF906E0204601F07A
:104B2000E9F902E0204601F0E5F910BD10B5C848EA
:104B3000007890B9FFF7FEFEC8480078C8490870B1
:104B4000C848C649097850F82100C7490860084696
:104B50000068C749086001F0D0F910BD10B5002405
:104B6000022001F08FF801F0C1F904460020C1498C
:104B70000860204601F0BEF9642001F083F801F0DE
:104B8000B5F90446BB480068BB4908600120BB4931
:104B90000870204601F0AEF910BD70B5002601F096
:104BA000A4F901F0A3F90646B5480068401CB449D1
:104BB0000860304601F09EF9A5480078012853D1DD
:104BC000B048007820B1012804D0022809D103E0C0
:104BD00001250BE0002509E001250120A949087005
:104BE00004E001250020A749087000BF00BF05B9F7
:104BF00070BDA548046833E001F078F90646208CC2
:104C000050B3208C401E80B2208428BB94F8220030
:104C100000F0370040B114F8220F20F03700207068
:104C200001206070223C02E0002084F8230094F808
:104C3000220000F0080078B92634A078934909785A
:104C400008439249087020789149085C61780843CC
:104C500014F826198E4A50546469304601F04AF916
:104C600094F824001F28C7D100BFC1E74FF48F700C
:104C70007047704710B590F8262001F10B039B5C3C
:104C800090F82740A34301F10B04A35423469B5CF7
:104C900023B98B7A90F82840A3438B7210BD2DE97D
:104CA000F04F05460F4690469946A87A79490E5C22
:104CB00005F10B00805D11F800B00BEBC60000F0B1
:104CC000FF0A684850F82A40002024F8200F00BF4F
:104CD000A07820EA0800A07084F80390A078203C17
:104CE00000F0080068B994F828006849097808437A
:104CF000664908706648805D94F827100843644947
:104D0000885529462046FFF7B5FF5046BDE8F08F8D
:104D100010B5574A1268D061554A126892F8263089
:104D200000F10B02D25C524B1B6893F827301A43F8
:104D30004F4B1B6893F8264000F10B031A55827AFB
:104D40004B4B1B6893F828301A438272484A12680A
:104D500092F826104E4A525C454B1B6893F8273058
:104D60009A434B4B5A541A46525C42B9404A126815
:104D700092F82830454A12789A43444B1A7010BD75
:104D80000023837200F10B01002204E0002301F8EC
:104D9000013B531CDAB2042AF8DB704705E011F836
:104DA000013B00F8013B531E9AB2002AF7DC704722
:104DB0002DE9F84F05460E4617469846DDE90BAB40
:104DC000DDF828900020009001F090F80090324823
:104DD0000468002C7ED054F8140F2F490860009806
:104DE00001F088F844F8146C25740020A073E07377
:104DF000A08144F810AC44F8089C44F80C7C24F8DA
:104E000004BC24F8028C6075E810A07405F007005B
:104E10006074A17C012088402075617C012088405D
:104E2000E0740020A060A0612062E0616062A06286
:104E30003F2084F82C00143C0021412001552046DD
:104E400001F052F8204600F0FDFF01F04FF825E098
:104E50001A0100201101002012010020140100207D
:104E600013010020D034002028010020FC00002085
:104E7000200100201C01002008010020100100205A
:104E800034010020300100202C01002015010020F9
:104E90001601002084850008240100200090194894
:104EA00040F825401848006860610020A06116485D
:104EB000006810B114480068846113480460263407
:104EC000A0781249097808431049087020781049E1
:104ED000085C00E010E06178084314F826190C4AD9
:104EE00050540C480078401C0A490870009801F0A2
:104EF00001F80020BDE8F88F009800F0FBFF422089
:104F0000F8E70000D03400202C010020150100201B
:104F1000160100201B0100202DE9F04104460D463A
:104F200000272078042804D0012028700020BDE844
:104F3000F081FA480078002803DD02202870002064
:104F4000F5E700F0D3FF074620890612207AFF28F4
:104F500020D1208900F47F4020812089F049096810
:104F600091F8241008432081ED4800686060EC4807
:104F7000006890F82400B04205DC384600F0BAFF23
:104F80007820287004E0384600F0B4FF0020287034
:104F90000120CCE7384600F0ADFF0020287000BFAC
:104FA000C5E72DE9F04105460E460027DB480078AD
:104FB000002804DD102030700020BDE8F08100F0F2
:104FC00095FF0746D74850F8250030B1384600F025
:104FD00091FF282030700020EFE70120D14941F8EF
:104FE0002500D14804684CB9002041F82500384616
:104FF00000F080FF042030702046DEE7CA480068D9
:105000004068C9490860384600F074FF04202070E9
:10501000FF2040EA05202081002060603F20E073EF
:10502000002121742046FFF7ABFE0020307020469F
:10503000C3E730B590F82620BC4B9B5C90F8274026
:10504000A343BA4CA35423469B5C33B990F8284041
:10505000B74B1B78A343B64C237000F8241FC1F351
:10506000C203837001F00703437084780123A340D7
:10507000037144780123A340C3700379AC4C2478B6
:105080002343AB4C23708378A84CE35CC478234360
:1050900084782438A54D2B55A24B43F8210030BD10
:1050A0002DE9F84F04468A461546002000902078E6
:1050B000042804D0012028702046BDE8F88F9748C6
:1050C0000078002803DD0F2028702046F5E700F067
:1050D0000DFF0090A07A10B14FF0010801E04FF0F1
:1050E0000008BAF1000F03D0BAF1010F5CD122E041
:1050F000B8F1000F18D13F20E073002121742089FE
:1051000007120020874941F8270020708648006870
:1051100060600020208184480460009800F0EAFE6E
:1051200000202870002605E0009800F0E3FE4920EA
:10513000287026463FE02089071294F808B0D4F87A
:105140000490B9F1000F07D099F82400B84203D1B8
:1051500059464846FFF76DFF05E000231022194627
:105160002046FFF79CFDA07A0028F6D13F20E0738F
:10517000002121742089071200206A4941F8270084
:1051800020706948006860600020208166480460E3
:10519000009800F0AFFEB8F1010F01D1FFF771FCEC
:1051A00000202870002606E0009800F0A3FE0720EB
:1051B0002870264600BF00BF30467EE72DE9F74F36
:1051C00082B005461746002001902878042804D0B4
:1051D0000120387005B0BDE8F08F504800780028F5
:1051E00002DD02203870F5E752480078002802DD21
:1051F0000D203870EEE700F079FE019028894FEA23
:105200002028287AFF281FD1288900F47F40288190
:1052100028894349096891F82410084328814048A7
:10522000006868603E48006890F82400404505DC4E
:10523000019800F05FFE7820387004E0019800F0DB
:1052400059FE00203870C5E795F808B06C6894F8EE
:105250002400404561DD3248006890F8240058453C
:105260007FDA94F82690314810F8090094F8271056
:105270000840B0B12D4810F8090094F82710884371
:105280002A4901F80900084610F8090030B994F8D5
:105290002810274800788843254908704FF0010AF4
:1052A00015E0E6698EB114F8261F06F10B00405C8C
:1052B0006178884314F8262906F10B01885420B937
:1052C000B07A94F828108843B0724FF0000A04F8BE
:1052D000248F2078C010A070207800F00700607044
:1052E000A178012088402071617801208840E07019
:1052F000243CBAF1010F1FD12634A0780C4909785B
:1053000008430B49087020780849085C6178084315
:1053100014F82619054A505420E022E0110100201B
:1053200020010020D03400200001002016010020C0
:105330001501002012010020E6697EB1B07A263402
:10534000A1780843B072217806F10B00405C6178C7
:10535000084314F8262906F10B0188546F4840F8D9
:1053600028406F48006890F8220040F010006C4917
:10537000096881F8220000206949096881F8230042
:1053800067490398096808842846FFF7C1FC01981B
:1053900000F0B0FDFFF775FB00F0A8FD019060483C
:1053A000006890F8230020B1012809D0022806D116
:1053B00002E0002038700BE00E20387008E000BFDB
:1053C000294657480068FFF755FC0A20387000BF8F
:1053D00000BF00205249096881F82200504909683D
:1053E00081F823004E490968C861019800F082FDE8
:1053F00000BFEFE62DE9F041044600274948007858
:10540000002802DD0520BDE8F0812078042801D0C5
:105410000120F8E700F06AFD074620890612257A88
:105420003F4960680968884204D0384600F062FD50
:105430006420E8E73A48006890F82400B04204D1BC
:10544000294637480068FFF7F4FD0120334941F849
:105450002600A07A08B30023102219462046FFF741
:105460001EFC0546208900F47F40208120892843C6
:1054700020812A4850F825006060B54206DC384695
:1054800000F038FDFFF7FDFA7820BCE7384600F061
:1054900031FDFFF7F6FA0020B5E7208940F0FF0064
:1054A000208100206060384600F024FD0020AAE73B
:1054B0002DE9F04705460C464FF0000919480078E1
:1054C000002802DD0620BDE8F0872878042801D0F6
:1054D0000120F8E700F00AFD814628890012E071FA
:1054E000287AA071A079FF2802D10120607101E023
:1054F00000206071A87A207105F10B08264600276C
:1055000005E018F8010B06F8010B781CC7B2042F50
:10551000F7DB484600F0EEFC0020D4E7D034002052
:1055200020010020110100202DE9FF5F81468846FF
:105530000020009000F0DAFC0090FA4850F82800B3
:1055400030B1009800F0D6FC282004B0BDE8F09FF0
:10555000B9F1FF0F03D1F448006890F82490F148A6
:1055600050F8294024B9009800F0C4FC2920ECE749
:10557000012C04D1009800F0BDFC4320E5E74FEA80
:10558000E80708F0070003900120B84000F0FF0A88
:1055900001210398814001F0FF0B0020E14941F80F
:1055A0002900084640F8284014F8266FA078029099
:1055B0006078263C0190DD48815D01980140D1B1C1
:1055C000DA48805D01998843D84988550846805D4E
:1055D00028B9D748007802998843D5490870D4483B
:1055E000007840EA0A00D2490870D048C05D40EA1D
:1055F0000B00CE49C855E569D5B105F10B00805DBA
:105600000199884305F10B0188550846805D18B95A
:10561000A87A02998843A872A87A40EA0A00A87278
:1056200005F10B00C05D40EA0B0005F10B01C85508
:1056300084F8248084F82670039884F8250084F880
:1056400028A084F827B0009800F054FCB9480078EE
:10565000012801D1FFF715FA002076E72DE9FE4F6A
:1056600006460F4690461C464FF0000900F03EFCEF
:105670008146B1480078002805DD484600F03AFC34
:105680003C20BDE8FE8FA74850F8240060BB0120F5
:10569000A44941F82400484600F02CFC002342466F
:1056A0003946304600F0D2FB82460020009001903F
:1056B00003460246514602902046FFF779FB054615
:1056C00035B99C48007801280CD1FFF7DAF909E0D8
:1056D00000F00CFC81460020924941F82400484625
:1056E00000F008FC2846CCE7484600F003FC2820E0
:1056F000C7E702F0010343B102F002032BB102E05D
:10570000491E002308C00029FAD170472DE9F04F47
:1057100085B081468A4693461C46DDE90F78129D86
:105720000020039000F0E2FB0390834800780028FB
:1057300006DD039800F0DEFB3C2005B0BDE8F08FED
:10574000784850F8240088BB0120764941F82400AD
:10575000039800F0CFFB2A4641463846FFF7C9FFC1
:105760002B465A465146484600F070FB049011986B
:10577000CDE9008002953A4620460E9B0499FFF73A
:1057800017FB064636B96B48007801280CD1FFF7A5
:1057900078F909E000F0AAFB03900020614941F884
:1057A0002400039800F0A6FB3046C6E7FFE7039805
:1057B00000F0A0FB2820C0E770B5054600265E4833
:1057C0000078002801DD402070BD1F2D01D13E2052
:1057D000FAE700F08BFB0646FF2D03D15248006824
:1057E00090F824504F4850F8254024B9304600F036
:1057F00081FB4320E8E7012C04D1304600F07AFB1E
:105800003D20E1E714F8260F4849085C6178884399
:105810002178464A505414F826091146085C30B9DC
:1058200094F8281042480078884341490870E0699C
:1058300018B12046E169FFF71DFA0020208484F8A2
:10584000220084F823003D480078FF2804D23B481A
:105850000078401C39490870304600F04BFBFFF7D8
:1058600008FA00F043FB064634480078002804DDBF
:1058700032480078401E31490870204600F0E3FAB3
:105880002F480078401E2E4908700020254941F815
:105890002500A06930B900206169886129496069E3
:1058A000086005E0D4E905014861D4E90510886184
:1058B000254800686061244804603F2084F8400067
:1058C000002141200155304600F014FB19480078B2
:1058D000012801D1FFF7D5F8002075E72DE9F04147
:1058E000044600271F2C02D13E20BDE8F081FF2C8A
:1058F0000BD100F0FBFA07460B48006890F82960CE
:10590000384600F0F7FA3046EFE700F0EFFA0746C6
:10591000044850F82450CDB9384600F0EBFA432043
:10592000E3E70000D0340020200100201601002011
:10593000150100201A010020110100201201002091
:105940001B0100202C01002024010020012D04D186
:10595000384600F0CFFA3D20C7E73F2085F8290000
:10596000384600F0C7FA0020BFE72DE9F0470646A9
:105970000F4614464FF00008BC480078002804DDAC
:10598000112020700020BDE8F08700F0AFFA8046BB
:10599000FF2E03D1B648006890F82460B54850F84F
:1059A000265035B9404600F0A5FA4320207000206B
:1059B000E9E7012D06D1404600F09CFA4320207013
:1059C0000020E0E705F140013846FEF7F1FD814691
:1059D000404600F08FFA002020704846D3E72DE9BA
:1059E000F0470646884614464FF000099F48007865
:1059F000002803DD12202070BDE8F08700F076FA61
:105A00008146FF2E03D19A48006890F82460994897
:105A100050F826502DB9484600F06CFA432020700B
:105A2000EAE7012D05D1484600F064FA43202070D2
:105A3000E2E74046FEF7FCFD07460F2F05DD48462E
:105A400000F058FA41202070D6E7414605F14000A9
:105A5000FEF7AEFD484600F04DFA0020207000BF72
:105A6000CAE770B50546002600F040FA06468148B0
:105A700050F8254024B9304600F03CFA462070BD6D
:105A8000012C04D1304600F035FA4320F7E794F8B2
:105A9000220000F0080060B314F8220F20F0080084
:105AA000207014F82209F8B9208CC8B92634A078DF
:105AB0007149097808437049087020786F49085C7B
:105AC0006178084314F826196C4A5054304600F0A7
:105AD00011FA6B480078012809D1FEF7D2FF06E0E1
