:020000040800F2
:10000000D83F002045010008612300086323000851
:10001000672300086B2300086F230008000000001E
:100020000000000000000000000000007323000832
:100030007523000800000000D3820008792300081F
:100040005F0100085F0100085F0100085F01000810
:100050005F0100085F0100085F0100085F01000800
:100060005F0100085F0100085F0100085F010008F0
:100070005F0100085F0100085F0100085F010008E0
:100080005F0100085F0100085F0100085F010008D0
:100090005F0100085F0100085F0100085F010008C0
:1000A0005F0100085F0100085F0100085F010008B0
:1000B000393600085F0100085F0100085F01000891
:1000C0005F0100085F0100085F0100085F01000890
:1000D0005F0100089D3A00086B320008ED2B000814
:1000E0005F0100085F0100085F0100085F01000870
:1000F0005F0100085F0100085F0100085F01000860
:100100005F0100085F0100085F0100085F0100084F
:100110005F0100085F0100085F01000889230008F3
:100120005F0100085F0100085F0100085F0100082F
:10013000DFF80CD009F078F90048004705230008E3
:10014000D83F00200648804706480047FEE7FEE704
:10015000FEE7FEE7FEE7FEE7FEE7FEE7FEE7FEE777
:1001600047020008310100080CB500200190009002
:100170006C48006840F480306A49086000BF6948F4
:10018000006800F4003000900198401C0190009835
:1001900018B90198B0F5A06FF1D16248006800F479
:1001A000003010B10120009001E000200090009884
:1001B000012843D15C48006840F010005A490860AB
:1001C0000846006820F0030008600846006840F018
:1001D0000200086053484068524948600846406839
:1001E00048600846406840F48060486008464068BF
:1001F00020F47C1048600846406840F4E8104860ED
:100200000846006840F08070086000BF45480068FC
:1002100000F000700028F9D04248406820F0030048
:10022000404948600846406840F00200486000BF0E
:100230003C48406800F00C000828F9D10CBD10B50E
:10024000FFF792FF10BD10B53648006840F001007E
:1002500034490860084640683449084031494860DC
:1002600008460068324908402E4908600846006880
:1002700020F4802008600846406820F4FE004860B2
:100280004FF41F008860FFF7DAFF4FF00060294944
:10029000086010BD10B5002100200022214B5B68D2
:1002A00003F00C0121B1042906D0082928D107E068
:1002B000214B224C236027E01F4B204C236023E07E
:1002C000184B5B6803F47010164B5B6803F48032C4
:1002D000022303EB904022B9194B4343174C236090
:1002E0000DE0104B5B6803F4003323B1144B434320
:1002F000124C236003E0104B4343104C236003E097
:100300000D4B0E4C236000BF00BF064B5B68C3F370
:1003100003130C4CE15C094B1B68CB40074C23607A
:1003200010BD000000100240002002400000FFF855
:10033000FFFFF6FE08ED00E000127A00000000204A
:1003400000093D000400002031490143314A116099
:10035000704770B5002100230F22C47804B32D4CE0
:10036000246804F4E064C4F5E064210AC1F10403E4
:10037000CA40447804FA03F1847814402143090107
:10038000254C0678A155047804F01F050124AC40E3
:1003900005786D11AD0005F1E025C5F8004109E0D3
:1003A000047804F01F050124AC401C4D067876113A
:1003B00045F8264070BD1A4A0A400243154B1B1FE0
:1003C0001A60704739B1134A121D12680243114B6B
:1003D0001B1D1A6006E00F4A121D126882430D4B66
:1003E0001B1D1A607047042808D14FF0E0210969ED
:1003F00041F004014FF0E022116107E04FF0E021ED
:10040000096921F004014FF0E022116170470000FA
:100410000000FA050CED00E000E400E080E100E0FF
:1004200080FFFF1F01460020FE4A106800F03800E0
:10043000084310607047FB49096821F00801F94A38
:10044000116011460968014311607047F549096858
:1004500021F01001F34A116011460968014311604F
:100460007047F148EF494860F04848607047EE48EF
:10047000EC494860ED4848607047EA48006940F040
:100480008000E84908617047E648006940F0800054
:10049000E449086170470420E249C96801F001019C
:1004A00009B101200EE0DF49C96801F0040109B17A
:1004B000022007E0DB49C96801F0100109B10320FF
:1004C00000E00420704700B502460423FFF7E3FF75
:1004D000034603E0FFF7DFFF0346521E012B01D165
:1004E000002AF7D102B90523184600BD30B50446ED
:1004F00004254FF43020FFF7E6FF0546042D17D101
:10050000C848006940F00200C649086108464461D5
:10051000006940F0400008614FF43020FFF7D3FF3E
:100520000546C048006941F6FD710840BD490861B3
:10053000284630BD10B504244FF43020FFF7C3FF28
:100540000446042C16D1B748006940F00400B549B0
:1005500008610846006940F0400008614FF430200F
:10056000FFF7B1FF0446AF48006941F6FB71084050
:10057000AC490861204610BD00B502460423FFF7D0
:100580008AFF034603E0FFF786FF0346521E012B56
:1005900001D1002AF7D102B90523184600BD10B5D4
:1005A00004244FF43020FFF7E7FF0446042C16D153
:1005B0009C48006940F004009A49086108460069B7
:1005C00040F0400008614FF43020FFF7D5FF0446AB
:1005D0009448006941F6FB71084092490861204641
:1005E00010BD00208F49C96901F0020109B1012045
:1005F00000E00020704730B5A5250424FFF7F1FF87
:1006000000B100254FF43020FFF75DFF0446042CB5
:100610003AD18548834988608448886008460069E3
:1006200040F0200008610846006940F04000086181
:100630004FF43020FFF747FF0446042C1BD17948C4
:10064000006941F6DF710840764908610846006993
:1006500040F01000086176480580E002FFF733FFA4
:100660000446052C10D06F48006941F6EF71084030
:100670006C49086108E0052C06D06A48006941F61B
:10068000EF71084067490861204630BD78B50646DD
:100690000C46042500200090E802FFF714FF0546F1
:1006A000042D24D15F48006940F001005D490861D4
:1006B0003480E802FFF707FF0546042D10D1B01C77
:1006C0000090200C00990880E802FFF7FCFE054628
:1006D0005448006941F6FE7108405249086106E03D
:1006E0005048006941F6FE7108404E4908612846AD
:1006F00078BD70B504460D460426F002FFF7E3FE10
:100700000646042E11D14748006940F001004549D2
:1007100008612580F002FFF7D6FE064641480069D1
:1007200041F6FE7108403F490861304670BD70B522
:1007300005460E460424E002FFF7C5FE0446042CDD
:1007400017D13948374988603848886008460069B9
:1007500040F0100008612E80E002FFF7B4FE04466E
:10076000052C06D02F48006941F6EF7108402D494D
:100770000861204670BD2DE9F04304464FF6FF7630
:100780003746B046B1460425E443E6B2C4F3072732
:10079000C4F307484FEA1469E802FFF794FE0546E0
:1007A000042D49D120481F498860204888600846A8
:1007B000006940F010000861FF2E06D01C48083088
:1007C0000680E802FFF77FFE0546042D08D1FF2FC3
:1007D00006D017480A300780E802FFF774FE054686
:1007E000042D0AD1B8F1FF0F07D011480C30A0F842
:1007F0000080E802FFF767FE0546042D0AD1B9F133
:10080000FF0F07D00A480E30A0F80090E802FFF76B
:100810005AFE0546052D0FD00248006941F6EF71DA
:10082000084007E00020024023016745AB89EFCD77
:1008300000F8FF1F664908612846BDE8F08330B51F
:10084000054604244FF43020FFF73DFE0446042CF7
:1008500041D160485E4988605F4888600846006909
:1008600040F0200008610846006940F0400008613F
:100870004FF43020FFF727FE0446042C22D15448C1
:10088000006941F6DF710840514908610846006976
:1008900040F0100008611DB100205049088002E0BE
:1008A000A5204E4908804FF43020FFF70CFE044687
:1008B000052C10D04648006941F6EF7108404449C4
:1008C000086108E0052C06D04148006941F6DF7157
:1008D00008403F490861204630BDF0B505460E4648
:1008E000174604243B483A4988603B488860E00248
:1008F000FFF7E9FD0446042C19D13548006940F0A2
:1009000010003349086147F0F80030432843334969
:10091000891C0880E002FFF7D6FD0446052C06D0AE
:100920002B48006941F6EF710840294908612046CB
:10093000F0BD2748C069800870472548006A7047A5
:1009400000202349096801F0200109B1012000E0DD
:100950000020704729B11E4A126902431C4B1A61DC
:1009600004E01B4A12698243194B1A617047014621
:100970000020012908D1164AD26902F001020AB109
:10098000012008E0002006E0114AD2680A400AB1BE
:10099000012000E0002070470D49C8607047042026
:1009A0000B49C96801F0010109B101200EE00849B5
:1009B000C96801F0040109B1022007E00449C968CF
:1009C00001F0100109B1032000E00420704700008D
:1009D0000020024023016745AB89EFCD00F8FF1FDF
:1009E00010B50446CC48844208D10121042000F00F
:1009F0002DFB0021042000F029FB46E0C74884427B
:100A000008D10121082000F021FB0021082000F07E
:100A10001DFB3AE0C248844208D10121102000F0B9
:100A200015FB0021102000F011FB2EE0BD48844290
:100A300008D10121202000F009FB0021202000F036
:100A400005FB22E0B848844208D10121402000F093
:100A5000FDFA0021402000F0F9FA16E0B348844284
:100A600008D10121802000F0F1FA0021802000F05F
:100A7000EDFA0AE0AE48844207D10121801500F06A
:100A8000E5FA0021A01500F0E1FA10BD10B5012132
:100A9000084600F0DBFA0021012000F0D7FA10BD73
:100AA0002DE9F04102460025002600200023002405
:100AB000002791F803C00CF00F0591F803C00CF06B
:100AC000100CBCF1000F03D091F802C04CEA0505F0
:100AD00091F800C0BCF1000F31D0146800202BE069
:100AE0004FF0010C0CFA00F3B1F800C00CEA030659
:100AF0009E4220D183004FF00F0C0CFA03F7BC4349
:100B000005FA03FC4CEA040491F803C0BCF1280F79
:100B100006D14FF0010C0CFA00FCC2F814C00AE038
:100B200091F803C0BCF1480F05D14FF0010C0CFA4D
:100B300000FCC2F810C0401C0828D1D31460B1F8E2
:100B400000C0BCF1FF0F34DD546800202EE000F13E
:100B5000080C4FF0010808FA0CF3B1F800C00CEAD9
:100B600003069E4221D183004FF00F0C0CFA03F7CD
:100B7000BC4305FA03FC4CEA040491F803C0BCF141
:100B8000280F05D100F1080C08FA0CF8C2F81480FF
:100B900091F803C0BCF1480F07D100F1080C4FF0E9
:100BA000010808FA0CF8C2F81080401C0828CED3BF
:100BB0005460BDE8F0814FF6FF7101800221817021
:100BC0000421C17070470246002093680B400BB1AE
:100BD000012000E0002070470146886880B270471D
:100BE00002460020D3680B400BB1012000E000203A
:100BF00070470146C86880B2704701617047416123
:100C000070470AB1016100E041617047C1607047FF
:100C10004FF480320A438261816182618269826914
:100C2000704702460020434B18684FF68073184007
:100C300040EA021008433F4B186070473E49C861C4
:100C40007047F0B50A46002300240021002500F07B
:100C50000046B6F1004F02D1364EF16901E0354E43
:100C60007168C0F3034583B200F44016B6F5401F27
:100C700008D121F070612F4E766826F070662D4FF6
:100C80007E6012E000F48016B6F5801F06D10326C0
:100C900006FA05F4A14341F0706106E0460D360105
:100CA00003FA06F6B14341F0706122B1460D3601F8
:100CB00003FA06F6314300F00046B6F1004F02D1C8
:100CC0001C4EF16101E01B4E7160F0BD30B5002299
:100CD0008B071C0F0F2303FA04F2164B08338C10FA
:100CE00053F824309343134C08348D1044F82530C6
:100CF00023468C1053F824308C07240F00FA04F498
:100D000023430C4C08348D1044F8253030BD0A497B
:100D1000DC3108607047000000080140000C014011
:100D2000001001400014014000180140001C014067
:100D3000002001400000014000002042DF48006820
:100D400040F00100DD49086008464068DC49084081
:100D5000DA49486008460068DA490840D74908601F
:100D60000846006820F4802008600846406820F4A7
:100D7000FE0048604FF41F0088607047CF49096843
:100D800021F48031CD4A11601146096821F4802197
:100D90001160B0F5803F03D0B0F5802F0ED106E092
:100DA000C649096841F48031C44A116007E0C3496B
:100DB000096841F4A021C14A116000E000BF00BFF2
:100DC000704710B501460022002300204A11012A75
:100DD00002D1BA4C236806E0022A02D1B74C236A3A
:100DE00001E0B64C636A01F01F02012494401C40EC
:100DF0000CB1012000E0002010BD38B500200090AB
:100E00000024002500BF3120FFF7DBFF05460098D6
:100E1000401C00900098B0F5A06F01D0002DF2D0DA
:100E20003120FFF7CEFF08B1012400E00024204666
:100E300038BD01460020A14A106820F0F80040EAC1
:100E4000C10010607047A04908607047024600204A
:100E50009A4B586820F47C1042EA01031843974BE0
:100E60005860704798490866704701460020934AC9
:100E7000506820F003000843506070478F48406876
:100E800000F00C007047014600208C4A506820F0AA
:100E9000F00008435060704701460020874A5068C0
:100EA00020F4E06008435060704701460020834A08
:100EB000506820F4605040EAC1005060704729B18A
:100EC0007E4A527A02437D4B5A7204E07B4A527A40
:100ED00082437A4B5A7270477B49D8310860704719
:100EE00001460020754A506820F440400843506095
:100EF00070470021714A20321170704A82F8201028
:100F0000012802D004280AD104E001216B4A2032D2
:100F1000117005E00521694A2032117000E000BF20
:100F200000BF70476949086070476449096A014316
:100F3000624A11627047654944390860704730B5AC
:100F400000210022002400235C4D6D6805F00C0197
:100F500021B1042905D0082923D105E05C4D0560A5
:100F600022E05B4D05601FE0544D6D6805F4701282
:100F7000524D6D6805F48034022505EB92421CB990
:100F8000544D554305600BE04C4D6D6805F400353C
:100F90001DB1504D5543056002E04D4D5543056070
:100FA00002E04B4D056000BF00BF444D6D6805F089
:100FB000F0010909484D6B5C0568DD4045603F4D17
:100FC0006D6805F4E061090A434D6B5C4568DD40DE
:100FD00085603A4D6D6805F46051C90A3E4D6B5C01
:100FE0004568DD40C560354D6D6805F44041890BAD
:100FF0003A4D6B5CC568B5FBF3F5056130BD29B1B1
:101000002E4A526902432D4B5A6104E02B4A526921
:1010100082432A4B5A61704729B1284A9269024398
:10102000264B9A6104E0254A92698243234B9A61D8
:10103000704729B1214AD2690243204BDA6104E0AA
:101040001E4AD26982431D4BDA61704729B11B4A9F
:10105000D2680243194BDA6004E0184AD26882432E
:10106000164BDA60704729B1144A12690243134BD8
:101070001A6104E0114A12698243104B1A617047E9
:1010800012494039086070470F49C86470470B49DE
:10109000C87170470948406A40F08070074948624B
:1010A000704701460020054A92680A400AB10120B3
:1010B00000E000207047014988727047001002402C
:1010C0000000FFF8FFFFF6FE0000424280044242AB
:1010D00000127A0000093D001400002024000020C6
:1010E00010B50446FE48844208D10121C014FFF720
:1010F000ADFF0021E014FFF7A9FFC4E0B4F1804F79
:1011000008D101210846FFF7AEFF00210120FFF7BB
:10111000AAFFB8E0F348844208D101210220FFF77A
:10112000A2FF00210220FFF79EFFACE0EE488442C0
:1011300008D101210420FFF796FF00210420FFF7CA
:1011400092FFA0E0E948844208D101210820FFF77E
:101150008AFF00210820FFF786FF94E0E4488442DC
:1011600008D101211020FFF77EFF00211020FFF79A
:101170007AFF88E0DF48844208D101212020FFF770
:1011800072FF00212020FFF76EFF7CE0DA488442E6
:1011900008D101214014FFF759FF00216014FFF727
:1011A00055FF70E0D548844209D10121C804FFF7FA
:1011B0004DFF00214FF40020FFF748FF63E0D048C7
:1011C000844209D101210805FFF740FF00214FF4B7
:1011D0008010FFF73BFF56E0CA48844209D1012145
:1011E0004805FFF733FF00214FF40010FFF72EFFF3
:1011F00049E0C548844208D101214020FFF733FF70
:1012000000214020FFF72FFF3DE0C048844208D175
:1012100001218020FFF727FF00218020FFF723FF17
:1012200031E0BB48844208D101218015FFF71BFF44
:101230000021A015FFF717FF25E0B648844209D129
:1012400001210804FFF702FF00214FF48030FFF76F
:10125000FDFE18E0B048844209D101214804FFF79F
:10126000F5FE00214FF40030FFF7F0FE0BE0AB4835
:10127000844208D101218804FFF7E8FE00214FF4E1
:101280008020FFF7E3FE10BD00220288944B9842B5
:101290000ED0994B98420BD0B0F1804F08D0914BB3
:1012A000984205D0904B984202D0904B984204D17E
:1012B0004FF68F731A404B881A438D4B984207D0D4
:1012C0008C4B984204D04FF6FF431A40CB881A4308
:1012D00002808B8883850B880385814B98420BD0D5
:1012E000854B984208D08B4B984205D08A4B984248
:1012F00002D08A4B984201D10B7A03860123838264
:10130000704770B5002400220023058C4FF6FE764E
:1013100035400584028C8388048B4FF68F752C40F2
:10132000B51E2C400D882C43751E2A400D892A437A
:101330004D882A436A4DA8420BD06F4DA84208D071
:10134000744DA84205D0744DA84202D0734DA842F6
:1013500013D14FF6F7752A404D892A434FF6FB7596
:101360002A408D882A434FF6FF652B404FF6FF55E4
:101370002B408D892B43CD892B4383800483CD88DB
:101380008586028470BD70B5002400220023058C80
:101390004FF6EF7635400584028C8388048B48F63F
:1013A000FF752C404FF6FF452C400D884FF6FF7619
:1013B00006EA05252C434FF6DF752A400D8906EA1B
:1013C00005152A434D8806EA05152A43444DA842CF
:1013D00002D0494DA8421DD14FF67F752A404D8954
:1013E0004FF6FF7606EA05152A434FF6BF752A40E9
:1013F0008D8806EA05152A434FF6FF352B404FF23C
:10140000FF752B408D8906EA85052B43CD8906EAB9
:1014100085052B4383800483CD880587028470BDB6
:1014200070B5002400220023058C4FF6FF6635407E
:101430000584028C8388848B4FF68F752C404FF681
:10144000FC752C400D882C434FF6FF552A400D8922
:101450004FF6FF7606EA05252A434D8806EA05255C
:101460002A431F4DA84202D0234DA8421DD14FF25E
:10147000FF752A404D894FF6FF7606EA05252A4377
:101480004FF6FF352A408D8806EA05252A434EF699
:10149000FF752B404DF6FF752B408D8906EA05152B
:1014A0002B43CD8906EA05152B4383808483CD88A1
:1014B0008587028470BD70B5002200230024058C4E
:1014C0004EF6FF7635400584038C8488828B48F67F
:1014D000FF752A404FF6FF452A400D8820E00000A6
:1014E000002C01400004004000080040000C0040B7
:1014F000001000400014004000340140004C014046
:10150000005001400054014000180040001C004001
:1015100000200040004001400044014000480140DC
:101520004FF6FF7606EA05252A434DF6FF752B4058
:101530000D8906EA05352B434D8806EA05352B4310
:10154000FA4DA84202D0FA4DA84208D14BF6FF75D9
:101550002C408D894FF6FF7606EA85152C43848052
:101560008283CD88A0F84050038470BD828B4FF2F7
:10157000FF331A408283828B4FF6FF7303EA012305
:101580001A4382837047F0B50C46154600220021AD
:101590000026078C4EF6FF7C07EA0C070784828B37
:1015A000018C4FF6FF7707EA043640F6FF473A40D2
:1015B0004FF6FF7707EA05273A434FF6FF7707EA2A
:1015C00003373A43D94FB8420ED0D94FB8420BD067
:1015D000B0F1804F08D0D74FB84205D0D64FB842AF
:1015E00002D0D64FB84206D14DF6FF77394046F4C7
:1015F0008057394305E047F6FF57394044F4805798
:10160000394382830184F0BD828B4FF6F3731A4015
:101610008283828B0A4382837047F0B50C4615465D
:10162000002200210026078C4FF6FF6C07EA0C070A
:101630000784828B018C4FF6FF7707EA04264FF66A
:101640000C773A404FF6FF7707EA03172F433A43E8
:10165000B64FB8420ED0B64FB8420BD0B0F1804F63
:1016600008D0B44FB84205D0B34FB84202D0B34F00
:10167000B84206D14FF6FF57394046F480773943D8
:1016800005E04FF2FF57394044F4807739438283B5
:101690000184F0BD028B4FF2FF331A400283028BAC
:1016A0004FF6FF7303EA01231A4302837047F0B534
:1016B0000C461546002200210026078C4FF6EF7CD1
:1016C00007EA0C070784028B018C4FF6FF7707EAC5
:1016D000041640F6FF473A404FF6FF7707EA033714
:1016E0003A434FF6FF7707EA05273A438F4FB84250
:1016F0000ED08F4FB8420BD0B0F1804F08D08D4F35
:10170000B84205D08C4FB84202D08C4FB84206D1B7
:101710004FF6DF77394046F01007394305E04FF6C2
:101720005F77394044F01007394302830184F0BDEC
:10173000028B4FF6F3731A400283028B0A43028333
:101740007047F0B50C46154600220021068C4FF676
:10175000FE773E400684028B018C4FF60C763240B9
:101760007E1C06EA03162E433243704EB0420ED062
:101770006F4EB0420BD0B0F1804F08D06D4EB042EA
:1017800005D06D4EB04202D06C4EB04206D14FF63D
:10179000FD76314044F00106314305E04FF6F57621
:1017A000314044F00106314302830184F0BD70B53D
:1017B00005460C465D4885420ED05D4885420BD0FB
:1017C000B5F1804F08D05B48854205D05A48854224
:1017D00002D05A48854200D100E000BF208850B9AD
:1017E0002389A28861882846FFF7ABFFE188284655
:1017F000FFF79EFF25E0208804280AD12389A288CC
:1018000061882846FFF753FFE1882846FFF742FF2B
:1018100017E0208808280AD12389A28861882846F1
:10182000FFF7FBFEE1882846FFF7EEFE09E023897B
:10183000A28861882846FFF7A6FEE1882846FFF7C0
:1018400095FE70BD2DE9F04105460C4600260127A6
:10185000608808B9022600E00026A088012801D18E
:10186000022700E001272088A0B92389A288618887
:101870002846FFF766FFE1882846FFF759FF2389CE
:101880003A4631462846FFF712FFE1882846FFF71F
:1018900001FF13E02389A28861882846FFF707FF2C
:1018A000E1882846FFF7F6FE23893A463146284666
:1018B000FFF747FFE1882846FFF73AFFBDE8F081D0
:1018C0000A884B881A438B881A43CB881A430B89A2
:1018D0001A434B891A438B891A43A0F84420704756
:1018E0004FF6FF71818000210180C180418001722B
:1018F00070470021018041808180C1800181418148
:101900008181C18170470021018041800121818056
:101910000021C180018170470021018041808180C8
:10192000C18001814181818170470000002C01400C
:10193000003401400004004000080040000C00405A
:1019400021B1028842F00102028004E002884FF6D1
:10195000FE731A400280704731B1B0F8442042F45F
:101960000042A0F8442005E0B0F84420C2F30E0283
:10197000A0F8442070471AB183890B43838102E0A9
:1019800083898B43838170478182704741EA0203D8
:10199000A0F8483070471AB183890B43838102E075
:1019A00083898B438381704701894FF6F872114018
:1019B000018170470A46002101894FF68F73194053
:1019C00011430181704730B504460D462946204633
:1019D000FFF7F0FF208940F00700208130BD2DE99E
:1019E000F04104460D4616461F46602D06D13B4683
:1019F000012231462046FFF75AFE05E03B46012210
:101A000031462046FFF79DFE29462046FFF7D2FFCC
:101A1000208940F007002081BDE8F08130B50C46F8
:101A200000210189C9B24FF6FF7505EA0325154368
:101A300025432943018130BD2DE9F04105460E467D
:101A400017469846002443463A4631462846FFF753
:101A5000E5FF2C894FF6F870044044F007044FF678
:101A60008F70044044F070042C81BDE8F081F0B523
:101A700004460D4616461F463B463246294620463A
:101A8000FFF7CCFF208940F480402081F0BD018524
:101A9000828270470A46002101884FF68F731940F1
:101AA000114301807047F0B50C4615461E460021D3
:101AB000002200230189028B038C4FF6F87739400E
:101AC00021434FF6FC473A4040F201173A434FF6A4
:101AD000DD773B404FF6FF7707EA06172F433B437E
:101AE000018102830384F0BD0A460021018B4FF679
:101AF0008F7319401143018370470A460021018BFF
:101B000048F6FF7319404FF6FF7303EA02231943A7
:101B1000018370470A460021818B4FF68F7319406D
:101B20001143818370470A460021818B48F6FF7379
:101B300019404FF6FF7303EA02231943818370476C
:101B400021B1028842F08002028004E002884FF650
:101B50007F731A400280704721B1828842F00402EC
:101B6000828004E082884FF6FB731A4082807047BF
:101B700021B1828842F00802828004E082884FF618
:101B8000F7731A408280704721B1828842F00102C7
:101B9000828004E082884FF6FE731A40828070478C
:101BA0000A460021018B4FF6F77319401143018358
:101BB00070470A460021018B4FF2FF7319404FF620
:101BC000FF7303EA02231943018370470A46002189
:101BD000818B4FF6F77319401143818370470A4692
:101BE0000021818B4FF2FF7319404FF6FF7303EA18
:101BF00002231943818370470A460021018B4FF667
:101C0000FB7319401143018370470A460021018B81
:101C10004FF6FF3319404FF6FF7303EA02231943CF
:101C2000018370470A460021818B4FF6FB731940F0
:101C30001143818370470A460021818B4FF6FF33A1
:101C400019404FF6FF7303EA02231943818370475B
:101C50000A460021018B4FF67F731940114301831F
:101C600070470A460021018BC1F30E014FF6FF7346
:101C700003EA02231943018370470A460021818B3E
:101C80004FF67F7319401143818370470A46002144
:101C9000818BC1F30E014FF6FF7303EA0223194350
:101CA000818370470A460021018C4FF6FD7319406D
:101CB0001143018470470A460021018C4FF6F773E7
:101CC00019401143018470470A460021018C4FF6E8
:101CD000DF7319404FF6FF7303EA021319430184BF
:101CE00070470A460021018C4FF67F7319404FF66A
:101CF000FF7303EA02131943018470470A46002167
:101D0000018C4FF6FF5319404FF6FF7303EA02238D
:101D10001943018470470A460021018C4FF2FF737A
:101D200019404FF6FF7303EA0223194301847047F9
:101D30000A460021018C4DF6FF7319404FF6FF73E0
:101D400003EA023319430184704730B500230124AC
:101D50008C40A3B2048C9C430484048C02FA01F5E9
:101D6000ADB22C43048430BD30B5002304248C4034
:101D7000A3B2048C9C430484048C02FA01F5ADB236
:101D80002C43048430BD70B503460020002418465F
:101D9000183001258D40ACB21D8CA5431D8409B1BE
:101DA000082909D100EB6100056825F07005056080
:101DB0000568154305600EE00D1FC5F34E05284468
:101DC000056825F4E045056005684FF6FF7606EAEC
:101DD00002263543056070BD21B1028842F002023F
:101DE000028004E002884FF6FD731A4002807047BB
:101DF00021B1028842F00402028004E002884FF61A
:101E0000FB731A400280704721B1828842F0800241
:101E1000828004E082884FF67F731A408280704788
:101E200002884FF6F7731A40028002880A43028044
:101E3000704782884FF68F731A40828082880A43E7
:101E40008280704702894FF6F8731A400281028936
:101E50000A430281704702894FF67F731A4002815C
:101E600002890A43028170478184704781857047E7
:101E7000818670470187704781877047A0F84010BE
:101E8000704702884FF6FF431A40028002880A43D7
:101E9000028070470146888E70470146088F704760
:101EA0000146888F70470146B1F8400070470146EF
:101EB000888C70470146088D704702460020138ABF
:101EC0000B400BB1012000E000207047CA430282A2
:101ED000704730B50246002000230024158A05EA29
:101EE0000103958905EA010413B10CB1012000E05A
:101EF000002030BDCA4302827047000010B504467E
:101F0000FB48844209D101218803FFF79FF8002193
:101F10004FF48040FFF79AF832E0F648844209D146
:101F200001214804FFF79FF800214FF40030FFF72C
:101F30009AF825E0F048844209D101218804FFF78E
:101F400092F800214FF48020FFF78DF818E0EB485D
:101F5000844209D10121C804FFF785F800214FF41C
:101F60000020FFF780F80BE0E548844208D101210A
:101F70000805FFF778F800214FF48010FFF773F899
:101F800010BD2DE9F04786B005460E460024A24656
:101F900000BFA1460027B08900B100BF2F462C8AA0
:101FA0004CF6FF700440F08804432C82AC894EF656
:101FB000F3100440B0883189084371890843044311
:101FC000AC81AC8A4FF6FF400440B0890443AC8238
:101FD00001A8FEF7B4FFC648874202D1DDF810A081
:101FE00001E0DDF80CA0A88900F4004040B10AEB44
:101FF000CA0000EB0A1031684900B0FBF1F807E0B5
:102000000AEBCA0000EB0A1031688900B0FBF1F856
:102010006420B8FBF0F004012009642101FB108961
:10202000A88900F4004040B1322000EBC900B0FBA9
:10203000F1F000F00700044308E0322000EB091043
:102040006421B0FBF1F000F00F0004432C8106B0D6
:10205000BDE8F0874FF41651016000218180C180F6
:1020600001810C21418100218181704710B5024618
:102070000020108A4FF2FF0318400B884C8823433E
:102080008C882343CC8823431843108210BD002141
:10209000018041808180C180704721B1828942F4F2
:1020A0000052828104E082894DF6FF731A408281DA
:1020B0007047F0B50346002400260025002040F6B6
:1020C0006A17B94200D100BF1846C1F3421401F0AB
:1020D0001F06012707FA06F5012C01D10C3004E098
:1020E000022C01D1103000E014301AB107682F43E0
:1020F000076002E00768AF430760F0BD1AB1838A4A
:102100000B43838202E0838A8B4383827047028A77
:102110004FF6F0731A400282028A0A430282704725
:1021200082894FF2FF731A40828182890A43828139
:10213000704721B1828942F00202828104E08289E3
:102140004FF6FD731A4082817047028A4FF6DF73A3
:102150001A400282028A0A430282704721B1028A2F
:1021600042F48042028204E0028A4BF6FF731A4076
:1021700002827047C1F30802828070470146888856
:10218000C0F308007047818941F0010181817047E7
:10219000028BD2B20283028B42EA01220283704791
:1021A000028B02F47F420283028B0A430283704750
:1021B00021B1828A42F02002828204E0828A4FF6B4
:1021C000DF731A408282704721B1828A42F0100286
:1021D000828204E0828A4FF6EF731A40828270474F
:1021E00021B1828A42F00802828204E0828A4FF69C
:1021F000F7731A408282704721B1828942F400420B
:10220000828103E08289C2F30E028281704721B18C
:10221000828A42F40062828204E0828A4FF2FF7373
:102220001A4082827047828A4FF6FB731A4082827C
:10223000828A0A438282704721B1828A42F0020276
:10224000828204E0828A4FF6FD731A4082827047D0
:1022500002460020B1F5007F00D100BF13880B407B
:102260000BB1012000E00020704701F40072B2F5CC
:10227000007F00D100BFCA430280704770B502469C
:10228000002400230025002040F66A16B14200D148
:1022900000BFC1F3421501F01F03012606FA03F344
:1022A000012D02D19689334006E0022D02D1168A13
:1022B000334001E0968A33400C12012606FA04F4FA
:1022C0001688344013B10CB1012000E0002070BD2D
:1022D00010B50022002340F66A14A14200D100BFCD
:1022E0000A1201249440A3B2DC43048010BD000014
:1022F000003801400044004000480040004C0040CD
:102300000050004010B500F07DF804F0C5FC0A490B
:102310000A48007805F017F8094908600723094AB8
:102320000021094805F06CFB08A007F0B9FA04F099
:10233000CFFD002010BD00002C0000202D0000204B
:10234000280000200C060020056900084F53737414
:1023500061727420696E6974204F4B0A000000009E
:10236000704700BFFEE700BFFEE700BFFEE700BF0B
:10237000FEE770477047704710B504F09FFC04F00B
:10238000DEFD04F0B6FC10BD10B501210648FFF7D4
:10239000A0FD40B105480068401E044908600121C5
:1023A0000148FFF7A7FD10BD001400408C0000207D
:1023B00030B5504800684FF47A72B0FBF2F1B1F1D9
:1023C000807F00D31DE021F07F40401E4FF0E022CF
:1023D000506150170F22002807DA13071D0E464BD5
:1023E00000F00F04241F1D5503E013071C0E434B80
:1023F0001C5400BF00204FF0E022906107201061C4
:1024000000BF30BD70B5FFF7D3FF01F0A0FA00F0B8
:10241000BBF801F0D9FA01F010FB00F002F900F06E
:1024200046F901F077F801F090F800F099FF00F01C
:10243000ABFF642001F011F84FF4FA6001F072FA7A
:10244000002001F00AF84FF4FA6001F06BFA06F090
:10245000D4FA04F08DF801F0E1FC04F012F928A0A0
:1024600007F01EFA00202B4908702B4908702B49F1
:102470000870002406E001F045FD04F0BEF802F00B
:102480004AFB641C40F2DC508442F4DB00240CE084
:1024900001F038FD04F0B1F802F03DFB20488168FE
:1024A000284606F018FB0546641C0A2CF0DB1D4983
:1024B000284606F09AFB1C4908600120174908705D
:1024C0001AA007F0EDF91DA000F00FF9FDF7C9FF04
:1024D00003F099F91FA007F0E3F922A000F005F935
:1024E00012A007F0DDF903F004FC22A007F0D8F9F0
:1024F00070BD00000000002018ED00E000E400E0E6
:1025000062737020696E6974204F4B206E65787419
:102510000A000000A0000020A1000020B40000205C
:10252000740F002000002041D80000206461746115
:1025300020696E6974204F4B0A000000627370209E
:1025400020616E6420206461746120696E6974206A
:102550004F4B0A00666C61736820696E6974204F86
:102560004B0A0000666C61736820696E6974204FC5
:102570004B200A00706964207465737420656E6472
:10258000204F4B0A0000000008B501211820FEF77B
:1025900043FD0120ADF8000010208DF8030003205A
:1025A0008DF8020069460D48FEF77AFA0820ADF86A
:1025B000000069460A48FEF773FA1020ADF80000E3
:1025C00069460748FEF76CFA01210448FEF715FB3F
:1025D00018210348FEF711FB08BD0000000C014064
:1025E000001001402DE9FF478246DAF8080006F0A6
:1025F000F5FC04460D46DAF8000006F0EFFC06464E
:102600000F46DAF8040006F0E9FC804642460B4625
:10261000F7A0CDE90067CDE9024507F041F9BDE833
:10262000FF8700B585B001218804FEF702FD012176
:102630002120FEF7F1FC0121F448FEF702FB4FF4E4
:102640008070ADF8100018208DF8130003208DF86D
:10265000120004A9EE48FEF723FA4FF40070ADF81B
:10266000100004208DF8130004A9E948FEF718FAB9
:102670004FF4165000900020ADF80400ADF80600AD
:10268000ADF80800ADF80C000C20ADF80A00694662
:10269000E048FFF776FC012240F22551DD48FFF7C4
:1026A00008FD0121DB48FFF7F8FC05B000BD08B5C7
:1026B0004FF4E060FDF748FE27208DF80000012070
:1026C0008DF8010000208DF8020001208DF8030034
:1026D0006846FDF73EFE08BD002003E00021CE4A1B
:1026E0001154401CC828F9DB70470FB438B505A851
:1026F0000090CA48009A049907F0E2F80020009080
:10270000C64806F0D3F985B200240DE000BF402191
:10271000C048FFF79DFD0028F9D0C048015DBD48C5
:10272000FFF728FD601C84B2AC42EFDB38BC5DF8DB
:1027300014FBF8B5BA48008800F4004000287CD0AB
:10274000B8A1B54806F0B9F918B9B7A0FFF7CDFFA1
:1027500045E1B7A1B04806F0B0F930B90020B6495C
:102760000870B6A0FFF7C1FF39E1B7A1AA4806F08B
:10277000A4F930B90120B0490870B5A0FFF7B5FF42
:102780002DE1B6A1A44806F098F918B90120B54981
:10279000087024E103F0C7F969469F4808F000FA81
:1027A000054606F02EFC0446A3480078002810D108
:1027B000ADA1009806F081F960B9AC48046001460B
:1027C000086806F00BFC05462A460B46A8A0FFF752
:1027D0008CFF00E1ABA1009806F06FF960B9A34847
:1027E00084600146886806F0F9FB05462A460B46D8
:1027F000A5A0FFF77AFFEEE0A8A1009806F05DF92A
:1028000060B99A4844600146486806F0E7FB05460F
:102810002A460B46A2A0FFF768FFDCE0A5A10098BE
:1028200006F04BF970B99148C4600146C86806F0DB
:10283000D5FB05462A460B4600E0D8E09EA0FFF7F0
:1028400054FFC8E0A1A1009806F037F960B98748A5
:1028500044610146486906F0C1FB05462A460B461D
:102860009BA0FFF742FFB6E09EA1009806F025F975
:1028700060B99D4804600146086806F0AFFB054654
:102880002A460B4699A0FFF730FFA4E09CA10098D0
:1028900006F013F960B9944884600146886806F030
:1028A0009DFB05462A460B4696A0FFF71EFF92E0C9
:1028B00099A1009806F001F960B98B48446001467F
:1028C000486806F08BFB05462A460B4693A0FFF7A7
:1028D0000CFF80E096A1009806F0EFF860B98248FE
:1028E000C4600146C86806F079FB05462A460B46D7
:1028F00090A0FFF7FAFE6EE093A1009806F0DDF8D5
:1029000060B9794844610146486906F067FB0546AD
:102910002A460B468DA0FFF7E8FE5CE090A10098E8
:1029200006F0CBF860B98F4804600146086806F0ED
:1029300055FB05462A460B468BA0FFF7D6FE4AE01C
:102940008EA1009806F0B9F860B986488460014607
:10295000886806F043FB05462A460B4688A0FFF729
:10296000C4FE38E08BA1009806F0A7F860B97D4856
:1029700044600146486806F031FB05462A460B468E
:1029800085A0FFF7B2FE26E088A1009806F095F832
:1029900060B97448C4600146C86806F01FFB05466C
:1029A0002A460B4682A0FFF7A0FE14E085A10098FE
:1029B00006F083F860B96B4844610146486906F047
:1029C0000DFB05462A460B467FA0FFF78EFE02E070
:1029D00082A0FFF78AFE02F0B7FF03F08AF982A017
:1029E000FFF783FE00200E490880FFF775FEF8BD53
:1029F00070697463682025663B726F6C6C20256675
:102A00003B7961772025660A000000003000140041
:102A1000001401400048004010060020D8060020A5
:102A20002E00002059657300636F7079000000006C
:102A300053544F50000000003100002053746F7059
:102A4000204D6F746F7200005354415254000000C7
:102A50005374617274204D6F746F7200414E474C15
:102A60004500000033000020707370008C3B002094
:102A700020707370206368616E67656420746F25D1
:102A80006C6600007073640020707364206368617A
:102A90006E67656420746F256C6600007073690052
:102AA00020707369206368616E67656420746F25A8
:102AB0006C66000070637000207063702063686152
:102AC0006E67656420746F256C6600007063640037
:102AD00020706364206368616E67656420746F258D
:102AE0006C66000072737000683B00202072737087
:102AF000206368616E67656420746F256C660000F2
:102B00007273640020727364206368616E67656429
:102B100020746F256C6600007273690020727369FF
:102B2000206368616E67656420746F256C660000C1
:102B30007263700020726370206368616E67656401
:102B400020746F256C6600007263640020726364F9
:102B5000206368616E67656420746F256C66000091
:102B600079737000B03B0020207973702063686136
:102B70006E67656420746F256C660000797364006D
:102B800020797364206368616E67656420746F25C3
:102B90006C6600007973690020797369206368614D
:102BA0006E67656420746F256C6600007963700041
:102BB00020796370206368616E67656420746F2597
:102BC0006C66000079636400207963642063686147
:102BD0006E67656420746F256C660000756E6465B1
:102BE0006620696E666F00000D0A000010B504F0E3
:102BF00065F840F225511748FFF740FB38B31548F8
:102C0000FFF7BCFA144908701448008800F400402B
:102C1000E8B908460078232808D11048008840F415
:102C200000400E490880FFF784FD10E00A48017853
:102C30000A4802880088401C084B188008488154C4
:102C400018460088C72802DD00201946088004F0D5
:102C500050F810BD00480040300000202E00002039
:102C60001006002000B585B001210820FEF7D4F938
:102C70002020ADF8100004208DF8130003208DF8FB
:102C8000120004A9FE48FDF70BFF01214804FEF7DE
:102C9000D0F901212120FEF7BFF901210820FDF71D
:102CA000D0FF2020ADF8100018208DF8130003206D
:102CB0008DF8120004A9F348FDF7F2FE4020ADF8AC
:102CC000100004208DF8130004A9EE48FDF7E8FE7B
:102CD0004FF4165000900020ADF80400ADF8060047
:102CE000ADF80800ADF80C000C20ADF80A006946FC
:102CF000E548FFF746F9012240F22551E248FFF787
:102D0000D8F90021E048FFF7C8F905B000BD08B5C3
:102D10004FF4E060FDF718FB26208DF8000001203D
:102D20008DF8010000208DF8020001208DF80300CD
:102D30006846FDF70EFB08BD002000BF03E0002140
:102D4000D24A1154401CB0F5487FF8DB7047F8B503
:102D5000CF49D1F8490006F017F90746CD49384662
:102D600005F043FF0746044606F038F90546C84813
:102D700090F84D002A460B460090C7A006F090FD43
:102D8000C349486C06F000F90746C249384605F0C9
:102D90002CFF0746044606F021F90546BC4890F88A
:102DA00048002A460B460090C1A006F079FDB848BD
:102DB00090F8403090F83F20B0F83D10C2A006F0E7
:102DC0006FFDB34890F8433090F8422090F84110DE
:102DD000C5A006F065FDF8BD10B50246012000E073
:102DE00050430B1EA1F10104E1B2F9D110BD2DE950
:102DF000F34F81B007463C46002000908346814651
:102E00000026804628E020782D2802D148F00208CC
:102E1000641C20782C2802D020782A2800D11CE0BD
:102E200020782E2803D148F00108641C09E020789E
:102E3000392802DC2078302803DA4FF00009002618
:102E40000BE008F0010010B1701CC6B203E009F1FC
:102E5000010000F0FF09641CD5E700BF08F0020084
:102E600000B17F1C00250EE0A9F10100401BC1B29A
:102E70000A20FFF7B1FF795D3039009A00FB01208D
:102E80000090681CC5B24D45EEDB052E00DD052621
:102E90000298067000250EE0701E401BC1B20A2089
:102EA000FFF79AFF09F101012944795C303900FBF1
:102EB00001BB681CC5B2B542EEDB31460A20FFF704
:102EC0008BFF009901FB00BA08F0020008B1CAF1BB
:102ED000000A5046BDE8FE8F0246134610E0107807
:102EE0002A2805D01078202802DB10787A2801DD06
:102EF000FF20704710782C2801D1481EC1B2521C07
:102F00000029ECD1D01AC0B2F3E72DE9F04F85B01B
:102F1000044688467CA1404605F0B6FD07460121DF
:102F20003846FFF7D9FF0546FF2D24D0781904A9AC
:102F3000FFF75DFF82469DF810100A20FFF74CFF57
:102F4000BAFBF0F642F21070B6FBF0F00830C1B2F6
:102F5000412001556420B6FBF0F06421B0FBF1F292
:102F600001FB1201422001556420B6FBF0F100FB89
:102F700011614320015503213846FFF7ADFF054697
:102F8000FF2D43D0781904A9FFF731FF06469DF8BD
:102F90001000801CC1B20A20FFF71EFFB6FBF0F044
:102FA00060649DF81000801CC1B20A20FFF714FF76
:102FB000B6FBF0F100FB116A504605F0E5FF8146D3
:102FC0009DF81000C0F10500C1B20A20FFF704FF10
:102FD000009005F0D9FF8346494605F0D4FD8246AE
:102FE0004B4905F002FE052102900A20FFF7F4FE8E
:102FF000616C00FB01FA504605F0C6FF0190029992
:1030000005F069FD039005F0D5FF606404213846A2
:10301000FFF762FF0546FF2D02D0785D84F8480077
:1030200005213846FFF758FF0546FF2D72D0781965
:1030300004A9FFF7DCFE06469DF81000801CC1B213
:103040000A20FFF7C9FEB6FBF0F044F8490F9DF8DF
:103050001000801CC1B20A20FFF7BEFEB6FBF0F1E3
:1030600000FB116A504605F08FFF81469DF8100065
:10307000C0F10500C1B20A20FFF7AEFE00904AE0A1
:10308000000C01400014014000440040C40700202F
:10309000040E00200050C3474C6F6E67697475645E
:1030A000653A252E3566202531632020200D0A0043
:1030B0004C617469747564653A252E356620253136
:1030C000632020200D0A000055544320446174659C
:1030D0003A253034642F253032642F253032642075
:1030E00020200D0A000000005554432054696D65EE
:1030F0003A253032643A253032643A253032642041
:1031000020200D0A000000004750524D43000000EF
:10311000000070421DE005F037FF8346494605F088
:1031200032FD8246714905F060FD052102900A20BA
:10313000FFF752FE216800FB01FA504605F024FF1C
:103140000190029905F0C7FC039005F033FF44F8A5
:10315000490906213846FFF7BFFE0546FF2D02D07C
:10316000785D84F84D0009213846FFF7B5FE054625
:10317000FF2D1ED0781904A9FFF739FE064642F24A
:103180001070B6FBF0F0C1B2402001556420B6FBD0
:10319000F0F06421B0FBF1F201FB12013F20015578
:1031A0006420B6FBF0F100FB116000F5FA60A4F8B2
:1031B0003D0005B0BDE8F08FF8B505460F464CA1BF
:1031C000384605F061FC064606213046FFF784FECE
:1031D0000446FF2C05D030196946FFF708FE85F834
:1031E0004E0007213046FFF777FE0446FF2C05D03E
:1031F00030196946FFF7FBFD85F84F00092130467D
:10320000FFF76AFE0446FF2C05D030196946FFF728
:10321000EEFDC5F86300F8BD70B504460D462946BD
:103220002046FFF7C9FF29462046FFF76EFE70BD16
:1032300070B5002430480088C0F30D0500BF04E0DD
:103240002E48005D2E490855641CAC42F8DB002076
:103250002B4908552B48FFF7DFFFFFF778FDFFF7F5
:103260006BFD00202449088070BD10B540F2255147
:103270002548FFF703F820B32348FEF77FFFC4B2C9
:103280001D48008800F40040D8B91B48008800F4AD
:10329000804070B10A2C03D000201749088023E039
:1032A00015480088C0F30D0013490880FFF7C0FFE0
:1032B0001AE00D2C06D11048008840F480400E49D9
:1032C000088011E00C480088C0F30D000B490C5435
:1032D00009480088401C0849088008460088B0F565
:1032E000487F01DB0020088010BD00000000704214
:1032F000244750474741000034000020C407002005
:10330000E40A0020040E00200044004030B5B0F56F
:10331000FA6F01DD4FF4FA60B1F5FA6F01DD4FF499
:10332000FA61B2F5FA6F01DD4FF4FA62B3F5FA6FA4
:1033300001DD4FF4FA63002800DA0020002900DAEA
:103340000021002A00DA0022002B00DA00236F4D52
:1033500028802D1D29802D1D2A802D1D2B8030BDFC
:1033600008B501210920FDF757FE4FF47070ADF844
:10337000000003208DF8020018208DF80300694634
:103380006348FDF78DFB08BDF0B587B01427142402
:103390001425142601210420FDF74BFE44F61F607E
:1033A000ADF814004720ADF810000020ADF816006D
:1033B000ADF8120004A955483438FDF765FF6020C8
:1033C000ADF800000120ADF80200ADF80670002055
:1033D000ADF8080069464D483438FDF792FF0120EA
:1033E000ADF80200ADF80640694648483438FDF7AC
:1033F000CAFF0120ADF80200ADF806506946434807
:103400003438FEF70DF80120ADF80200ADF8066083
:1034100069463E483438FEF74EF808213B483438B8
:10342000FEF7BEFB082139483438FEF7C2FB0821FD
:1034300036483438FEF7CAFB082134483438FEF7E2
:10344000CEFB012131483438FEF77AFB01212F48A9
:103450003438FEF775FA07B0F0BD4FF47A71414386
:10346000642291FBF2F101F57A71284A11804FF440
:103470007A714143642291FBF2F101F57A71234A9A
:10348000121D11804FF47A714143642291FBF2F1D5
:1034900001F57A711D4A083211804FF47A71414367
:1034A000642291FBF2F101F57A71184A0C32118015
:1034B000704730B54FF47A744443642594FBF5F4B7
:1034C00004F57A74114D2C804FF47A744C436425C2
:1034D00094FBF5F404F57A740C4D2D1D2C804FF4FB
:1034E0007A745443642594FBF5F404F57A74074D1B
:1034F00008352C804FF47A745C43642594FBF5F412
:1035000004F57A74014D0C352C8030BD3408004030
:10351000000C014008B501210846FDF78AFD012194
:103520000520FDF779FD0F20ADF8000003208DF890
:10353000020028208DF803006946E148FDF7B0FA43
:103540000F21DF48FDF75BFB08BD00B587B01C20ED
:103550008DF8000000208DF8010001208DF8020098
:103560008DF803006846FCF7F4FE4FF6FF70ADF8E7
:1035700014004720ADF810000020ADF81600ADF89B
:10358000120004A94FF08040FDF77EFE0020ADF848
:103590000400ADF806000120ADF808000020ADF8E9
:1035A0000A00ADF80C0001A94FF08040FEF7FFF8CB
:1035B0000420ADF804000020ADF806000120ADF8AD
:1035C00008000020ADF80A00ADF80C0001A94FF08A
:1035D0008040FEF7ECF80820ADF804000020ADF8BC
:1035E00006000120ADF808000020ADF80A00ADF893
:1035F0000C0001A94FF08040FEF7D9F80C20ADF87F
:1036000004000020ADF806000120ADF808000020FD
:10361000ADF80A00ADF80C0001A94FF08040FEF7AC
:10362000C6F801221E219007FEF7A5F9012188079F
:10363000FEF786F907B000BD10B503F03FFBA148C7
:10364000007800F08000002849D102214807FEF7E9
:1036500040FC002843D002214807FEF74BFC994864
:10366000007800F0400050B34FF08040FEF712FCAD
:10367000954908800846008894490988884204DAF8
:103680004FF6FF709249086002E000209049086000
:103690008D4800888D490988401A8D490968084479
:1036A0008C490860084600688B49086000208549FD
:1036B000087000214FF08040FEF7F4FA0FE04FF061
:1036C0008040FEF7E7FB814908807E48007840F0A3
:1036D00040007C49087002214807FEF7E3FA7F4862
:1036E000007800F08000002849D104210807FEF787
:1036F000F0FB002843D004210807FEF7FBFB7748C6
:10370000007800F0400050B34FF08040FEF7C5FB5A
:10371000734908800846008872490988884204DA9B
:103720004FF6FF707049086002E000206E490860A3
:103730006B4800886B490988401A6B49096808443E
:103740006A490860084600686949086000206349C2
:10375000087000214FF08040FEF7B6FA0FE04FF0FE
:103760008040FEF79AFB5F4908805C48007840F093
:1037700040005A49087002214807FEF7A5FA5D4843
:10378000007800F08000002848D10821C806FEF724
:10379000A0FB90B30821C806FEF7ACFB55480078A3
:1037A00000F0400050B34FF08040FEF779FB5249E3
:1037B00008800846008851490988884204DA4FF693
:1037C000FF704F49086002E000204D4908604A48F8
:1037D00000884A490988401A494909680844494902
:1037E00008600846006848490860002041490870A0
:1037F00000214FF08040FEF781FA0FE04FF080404B
:10380000FEF74EFB3D4908803A48007840F0400002
:103810003849087002214807FEF770FA3B480078E3
:1038200000F08000B8BB10218806FEF752FB90B371
:1038300010218806FEF75EFB3448007800F0400057
:1038400050B34FF08040FEF72EFB31490880084608
:10385000008830490988884204DA4FF6FF702E4903
:10386000086002E000202C490860294800882949A6
:103870000988401A28490968084428490860084608
:1038800000682749086000202049087000214FF097
:103890008040FEF74DFA0FE04FF08040FEF703FB4B
:1038A0001C4908801948007840F04000174908700A
:1038B00002214807FEF73CFA03F01BFA10BD000096
:1038C0000008014040000020440000204200002089
:1038D00068000020580000208400002046000020DE
:1038E0004A000020480000206C0000205C000020FE
:1038F000800000204C000020500000204E000020DE
:1039000070000020600000207C0000205200002099
:1039100056000020540000207400002064000020A5
:103920007800002010B5044601212020FDF781FB1E
:103930002348046000BF224800680028FBD1002112
:103940002020FDF776FB00201E49088010BD1FB522
:1039500001212020FDF76DFB37208DF800000020AD
:103960008DF801008DF8020001208DF803006846F3
:10397000FCF7EFFC40F2E730ADF808004720ADF867
:1039800004000020ADF80A00ADF8060001A90D48BA
:103990002438FDF779FC01210A482438FEF796FA0D
:1039A0000122114607482438FDF7E5FF01210548AB
:1039B0002438FDF7C5FF00212020FDF73AFB1FBD8D
:1039C0008C0000202414004000B585B0012144F291
:1039D0000400FDF721FB4FF40070ADF81000182033
:1039E0008DF8130003208DF8120004A95048FDF74C
:1039F00057F84FF48060ADF8100004208DF81300E4
:103A000004A94B48FDF74CF84FF4E130009000203A
:103A1000ADF80400ADF80600ADF80800ADF80C00F4
:103A20000C20ADF80A0069464248FEF7AAFA0121C7
:103A30004048FEF732FB05B000BD08B54FF4E0602A
:103A4000FCF782FC25208DF8000000208DF8010095
:103A500001208DF802008DF803006846FCF779FC20
:103A600008BD70B504460D46E1B23248FEF782FB50
:103A700000BF40212F48FEF7EBFB0028F9D020467D
:103A800070BD10B5044600BF20212A48FEF7E0FBB8
:103A90000028F9D02748FEF771FB10BD10B503F0E0
:103AA0000DF940F225512348FEF7E8FB00283BD0F2
:103AB0002048FEF763FB204908702048008800F486
:103AC000004088BB1D48008800F4804070B1084663
:103AD00000780A2803D000201849088024E01748FD
:103AE000008840F40040154908801DE01248007825
:103AF0000D2806D11148008840F480400F49088005
:103B000012E00D4800780D490988C1F30D010C4AF7
:103B100050540A480088401C08490880084600881C
:103B2000C72801DD0020088003F0E3F810BD000085
:103B30000008014000380140920000209000002061
:103B40006D0E0020D2480078D149497840EA012022
:103B5000D0490988401A00B2CF490880CC48807803
:103B6000CB49C97840EA0120CA494988401A00B2C5
:103B7000C9494880C6480079C549497940EA0120C9
:103B8000C4498988401A00B2C3498880C048007A75
:103B9000BF49497A40EA0120C0490988401A00B269
:103BA000BF490880BA48807AB949C97A40EA0120F9
:103BB000BA494988401A00B2B9494880B448007BE4
:103BC000B349497B40EA0120B4498988401A00B2D0
:103BD000B3498880B3480078002855D1B24800889E
:103BE00070B90020AD49088048808880AF490860DE
:103BF000AF490860AF4908600120AB4908807047B1
:103C0000A748B0F90000A94909680844A749086015
:103C1000A348B0F90200A64909680844A44908600D
:103C20009F48B0F90400A34909680844A149086005
:103C30009D480088B0F5487F21D19C4800689A498A
:103C4000098890FBF1F000B2944908809848006818
:103C50009549098890FBF1F000B290494880954859
:103C600000689149098890FBF1F000B28B49888087
:103C700000208D49088001208A490870BFE78A48E2
:103C80000088401C884908808B480078002857D15C
:103C90008A48008870B900207E4908804880888062
:103CA000874908608749086087490860012083497F
:103CB0000880A4E77848B0F9000081490968084401
:103CC0007F4908607448B0F902007E4909680844D9
:103CD0007C4908607048B0F904007B4909680844D1
:103CE0007949086075480088B0F5487F23D1744849
:103CF00000687249098890FBF1F000B265490880BC
:103D0000704800686D49098890FBF1F000B2614984
:103D100048806D4800686949098890FBF1F0A0F57A
:103D2000005000B25B49888000206449088001206F
:103D30006149087063E761480088401C5F4908805A
:103D400000BF5CE710B53C21D02002F029FB5049B0
:103D500008703B21D02002F023FB4D4948703E21E2
:103D6000D02002F01DFB4A4988703D21D02002F08E
:103D700017FB4749C8704021D02002F011FB44498D
:103D800008713F21D02002F00BFB414948714221CC
:103D9000D02002F005FB3E4988714121D02002F07D
:103DA000FFFA3B49C8714421D02002F0F9FA3849A2
:103DB00008724321D02002F0F3FA354948724621B7
:103DC000D02002F0EDFA324988724521D02002F06D
:103DD000E7FA2F49C8724821D02002F0E1FA2C49B5
:103DE00008734721D02002F0DBFA2949487310BD3F
:103DF00010B500247521D02002F0D2FA0446682CB8
:103E000001D1012000E0002020B121462FA005F0C3
:103E100047FD02E035A005F043FD10BD10B50024BC
:103E200000226B21D02002F0DCFA07221921D020D9
:103E300002F0D7FA06221A21D02002F0D2FA0A2084
:103E4000FFF770FD42223721D02002F0CAFA40224B
:103E50006A21D02002F0C5FA0A20FFF763FD102284
:103E60001B21D02002F0BDFA08221C21D02002F034
:103E7000B8FA4FF4FA60FFF755FDFFF7B9FF02E01B
:103E8000FFF760FF641CB4F57A7FF9DB10BD00001A
:103E9000350F00209A000020A2000020940000208E
:103EA000A8000020A0000020C4000020B8000020CE
:103EB000BC000020C0000020A1000020D400002091
:103EC000C8000020CC000020D00000200DC9E8B1BF
:103ED000B84D5036303530CAB6B1F0B3C9B9A6A323
:103EE000AC69643D307825780D0A0D000DB4EDCE37
:103EF000F321CEDEB7A8C9E8B1F0C9E8B1B80D0A20
:103F00000D0000002DE9F041002500260027FFF7F5
:103F100019FFFFF717FEFE480088FE49FE4A127897
:103F200021F81200FA484188FC48FB4A127820F830
:103F30001210F7488188FA48F74A127820F81210D0
:103F400000240DE0F34830F914000544F34830F93B
:103F500014000644F24830F914000744601CC4B24F
:103F6000142CEFDB142095FBF0F8404605F003F825
:103F7000EC490860142096FBF0F8404604F0FBFF83
:103F8000E8494860142097FBF0F8404604F0F3FF3E
:103F9000E4498860E0480078401CDF490870084622
:103FA0000078142801D100200870BDE8F0810FB519
:103FB000AFB0DD480168006804F0E5FD1D90DB4806
:103FC0000168D948006804F0DEFD1C90D8480168FB
:103FD000D548006804F0D7FD1B90D6480168D24848
:103FE000006804F0D0FD1A90D0480168006804F021
:103FF000CAFD1990CE480168CC48006804F0C3FDA2
:104000001890CC480168C948006804F0BCFD1790BE
:10401000C7480168006804F0B6FD1690C5480168FD
:10402000C348006804F0AFFD1590C24801680068FD
:1040300004F0A9FD14903599084604F0A4FD0E90F3
:104040003499084604F09FFD0C903299084604F01C
:104050009AFD0B900C9904F03EFD0D900E9904F022
:104060003AFD0F9004F0BAFFCDE9100106F072FDA1
:10407000CDE9120104F0C5FF2D902D99329804F07E
:10408000B4FD32902D99349804F0AFFD34902D9901
:10409000359804F0AAFD35903899084604F073FD70
:1040A0000E903799084604F06EFD0C90369908463C
:1040B00004F069FD0B900C9904F00DFD0D900E9924
:1040C00004F009FD0F9004F089FFCDE9100106F01E
:1040D00041FDCDE9120104F094FF2D902D99369801
:1040E00004F083FD36902D99379804F07EFD3790CB
:1040F0002D99389804F079FD38901B99179804F0A1
:10410000EAFC0C904FF08040389904F03CFD0B9095
:104110000C9904F038FD0D9004F060FFCDE910011A
:104120001A99189804F029FD08904FF080403799AB
:1041300004F029FD0790089904F025FD099004F08A
:104140004DFFCDE90C01149804F048FFCDE90401BE
:10415000169804F043FF0022774BCDE9000104F0EC
:1041600026FECDE90201DDE9042304F01DFECDE9C0
:1041700008014FF08040369904F005FD059004F0E9
:104180002DFFCDE90601DDE9082304F013FECDE99A
:104190000A01DDE90C2304F066FDCDE90E01DDE93D
:1041A000102304F060FDCDE9120104F02AFF2C90E9
:1041B0001C99159804F0E1FC0C904FF08040389960
:1041C00004F0E1FC0B900C9904F0DDFC0D9004F080
:1041D00005FFCDE91001149804F000FFCDE90401BA
:1041E000199804F0FBFE0022534BCDE9000104F0C6
:1041F000DEFDCDE90201DDE9042304F0D5FDCDE9C2
:1042000008014FF08040379904F0BDFC059004F0A0
:10421000E5FECDE90601DDE9082304F0CBFDCDE99B
:104220000C011A99189804F056FC08904FF0804041
:10423000369904F0A8FC0790089904F0A4FC0990B2
:1042400004F0CCFECDE90A01DDE90C2304F00BFDFE
:10425000CDE90E01DDE9102304F005FDCDE91201E1
:1042600004F0CFFE2B90169804F0B8FECDE90801BB
:10427000199804F0B3FE00222F4BCDE9040104F09D
:1042800096FDCDE90601DDE9082304F08DFDCDE9B9
:104290000C014FF08040389904F075FC099004F04F
:1042A0009DFECDE90A01DDE90C2304F083FDCDE993
:1042B00010011C99159804F00EFC0A904FF08040F4
:1042C000379904F060FC09900A9904F05CFC0C90AA
:1042D0001B99179804F051FC0A904FF080403699D2
:1042E00004F051FC09900A9904F04DFC0B900C99D4
:1042F00004F0F1FB0D9004F071FECDE90E01DDE953
:10430000102304F0B0FCCDE9120104F07AFE15E0B0
:10431000A20000208C0F002008010020B40F002014
:10432000DC0F0020440F0020DC000020E000002013
:10433000E4000020E80000200000E03F2A902B99D4
:10434000084604F020FC0E902C99084604F01BFC53
:104350000D900E9904F0BFFB0F9004F03FFECDE9E5
:10436000100106F0F7FBCDE9120104F04AFE299096
:104370002A9828901B99179804F0FFFB4FF0804172
:10438000139004F000FC279015991C9804F0A3FBEF
:104390004FF08041139004F0F6FB269019991D9878
:1043A00004F0EBFB1290169904F0E7FB13901499BC
:1043B00004F091FB25901B99179804F0DEFB0C90FC
:1043C0004FF08040289904F0DEFB0B900C9904F02C
:1043D000DAFB0D9004F002FECDE91001149804F010
:1043E000FDFDCDE90801169804F0F8FD0022FE4B12
:1043F000CDE9040104F0DBFCCDE90601DDE9082389
:1044000004F0D2FCCDE90C014FF08040299904F072
:10441000BAFB099004F0E2FDCDE90A01DDE90C23C5
:1044200004F0C8FCCDE90E01DDE9102304F01BFC0B
:10443000CDE9120104F0E5FD249015991C9804F0D3
:104440004AFB11904FF08040289904F09CFB10909B
:10445000119904F098FB13901A99189804F08DFBA9
:1044600011904FF08040299904F08DFB1090119924
:1044700004F089FB1290139904F02DFB23901698F9
:1044800004F0ACFDCDE90801199804F0A7FD002265
:10449000D54BCDE9040104F08AFCCDE90601DDE944
:1044A000082304F081FCCDE90C014FF080402899ED
:1044B00004F069FB099004F091FDCDE90A01DDE902
:1044C0000C2304F077FCCDE9100117991B9804F038
:1044D00002FB0C904FF08040299904F054FB0B90A4
:1044E0000C9904F050FB0D9004F078FDCDE90E011D
:1044F000DDE9102304F0B7FBCDE9120104F081FDE2
:1045000022902399389804F03EFB11902299379815
:1045100004F039FB1090119904F02FFB13902699A9
:10452000359804F030FB11902599349804F02BFB5A
:104530001090119904F021FB1290139904F0CBFA1A
:1045400021902299369804F01EFB119024993898F6
:1045500004F019FB1090119904F00FFB13902599AA
:10456000329804F010FB11902799359804F00BFB5A
:104570001090119904F001FB1290139904F0ABFA1A
:1045800020902499379804F0FEFA119023993698D8
:1045900004F0F9FA1090119904F0EFFA13902799AA
:1045A000349804F0F0FA11902699329804F0EBFA5E
:1045B0001090119904F0E1FA1290139904F08BFA1B
:1045C0001F908A49219804F0DEFA13908848016808
:1045D000139804F080FA864908608449209804F012
:1045E000D2FA139083480168139804F074FA814951
:1045F00008607E491F9804F0C6FA13907E4801684F
:10460000139804F068FA7C4908607C48219904F00A
:10461000BAFA12902F9904F05EFA13907448016868
:10462000139804F058FA2F907448209904F0ABFACC
:104630001290309904F04FFA13906E480168139865
:1046400004F049FA30906D481F9904F09CFA1290DA
:10465000319904F040FA139067480168139804F008
:104660003AFA319066483199006804F08CFA11905A
:1046700064483099006804F086FA0F906248006838
:1046800080F000400D902F9904F07DFA0E900F9964
:1046900004F073FA1090119904F06FFA5B491290CC
:1046A00004F071FA13905A480168139804F013FA51
:1046B0005849086052483099006804F064FA119033
:1046C00050483199006804F05EFA0F905048016834
:1046D0002F9804F058FA0E900F9904F0FCF91090FE
:1046E000119904F04AFA4949129004F04CFA1390D7
:1046F00045480168139804F0EEF9474908604048BE
:1047000001682F9804F03FFA11903F4831990068F2
:1047100004F039FA0F903E483099006804F033FAFB
:104720000E900F9904F029FA1090119904F0D3F922
:104730003649129004F027FA139032480168139812
:1047400004F0C9F9354908602E4801682F9804F033
:104750001AFA11902C483099006804F014FA0F905E
:104760002B483199006804F00EFA0E900F9904F06E
:10477000B2F91090119904F000FA2449129004F053
:1047800002FA13901E480168139804F0A4F9244912
:104790000860204800681E4908601F4800681A49E0
:1047A00008601E480068174908601D4800681449E1
:1047B000086008460168006804F0E5F90E901148A9
:1047C0000168006804F0DFF90C900F480168006888
:1047D00004F0D9F90A900E480168006804F0D3F992
:1047E00009900A991EE000000000E03F0AD7A33BB1
:1047F000FC00002000010020040100200000A04176
:10480000E8000020E4000020E00000206F12833A5E
:10481000DC000020F8000020EC000020F000002068
:10482000F400002004F057F90B900C9904F053F9B0
:104830000D900E9904F04FF90F9004F0CFFBCDE9E5
:10484000100106F087F9CDE9120104F0DAFB2D9092
:10485000FE482D99006804F0C8F9FC490860FC483E
:104860002D99006804F0C1F9F9490860F9482D99BB
:10487000006804F0BAF9F7490860F7482D99006814
:1048800004F0B3F9F4490860F44A0021F4480068E0
:1048900002F066FEED4801684FF0804004F073F9C5
:1048A0000A90EC4801680A9804F06DF90C90E84809
:1048B00001684FF0404004F066F90A90E64801684C
:1048C0000A9804F060F90B900C9904F004F90D902B
:1048D00004F084FBCDE90E0105F006FD4FF06632D1
:1048E000E04BCDE9100104F065FACDE9120104F0C6
:1048F00088FBDD494860D74801684FF0804004F0EC
:1049000042F90790D3480168079804F03CF90990F0
:10491000CF4801684FF0404004F035F90790CC488B
:104920000168079804F02FF90890099904F025F917
:104930004FF07E510A9004F0CEF80B9004F04EFB3D
:10494000CDE90E01C14801684FF0804004F01BF929
:104950000890BF480168089804F015F90A90BD480E
:1049600001684FF0804004F00EF90890BA480168E1
:10497000089804F008F909900A9904F0ACF80B9033
:1049800004F02CFBCDE90C01DDE90E2305F0F4FE6B
:104990004FF06632B34BCDE9100104F00BFACDE9CC
:1049A000120104F02EFBB0490860AB4801684FF0DB
:1049B000804004F0E8F80790A7480168079804F0E1
:1049C000E2F80990A34801684FF0404004F0DBF89A
:1049D0000790A0480168079804F0D5F80890099955
:1049E00004F0CBF84FF07E510A9004F074F80B906D
:1049F00004F0F4FACDE90E01944801684FF08040CC
:104A000004F0C1F8089094480168089804F0BBF8D5
:104A10000A908F4801684FF0804004F0B4F8089085
:104A20008C480168089804F0AEF809900A9904F0DF
:104A300052F80B9004F0D2FACDE90C01DDE90E2317
:104A400005F09AFE4FF06632864BCDE9100104F076
:104A5000B1F9CDE9120104F0D4FA8349886008461F
:104A60008068139081480168139804F086F87E49A5
:104A70008860084680687E49139004F0E9FA08D2FD
:104A8000794880687B49139004F077F8764988600C
:104A90000EE0754880687849139004F0CFFA07D289
:104AA000714880687349139004F015F86E49886066
:104AB0006B48006802F070FE7048007848B31E989A
:104AC000FA2823DB684880680D9004F087FACDE966
:104AD0001201654840680D9004F080FACDE910019C
:104AE000614800680D9004F079FACDE90E01DDE926
:104AF0001201CDE90201DDE91001CDE9000160A05C
:104B0000DDE90E2304F0CCFE00201E901E98401C10
:104B10001E9033B000BD2DE9F04F8DB05D4908689F
:104B20004FF08C4104F061F80C905A4948684FF0FE
:104B30008C4104F05AF80B90564988684FF08C412C
:104B400004F053F80A905449B1F9000004F021FA36
:104B500006464FF06632514B04F09EF9044604F0CD
:104B600050FA09904C49B1F9020004F012FA0646D5
:104B70004FF06632494B04F08FF9044604F041FAD5
:104B800008904549B1F9040004F003FA06464FF0D5
:104B90006632424B04F080F9044604F032FA079082
:104BA0003F48B0F9000040F2424190FBF1F420464A
:104BB00004F0E1F93B4908603B48B0F9000040F2DD
:104BC000424190FBF1F4204604F0D5F937490860E2
:104BD0003748B0F9000040F2424190FBF1F4204622
:104BE00004F0C9F933490860099804F0F7F98246DE
:104BF000314A324B04F0DEF88046314A314B04F042
:104C0000D9F804460D463049086804F0E7F906462D
:104C100022462B4604F027F8CDE9040104F0F1F90F
:104C200029490860089804F0D9F98246224A234BA2
:104C300004F0C0F8224A234BCDE9040104F0BAF88D
:104C400006460F462049486840E00000DC0000208E
:104C5000E0000020E4000020E80000202C000020FC
:104C60002800002066A64C40740F0020D8000020C9
:104C7000000034430000B443000034C3B4000020FB
:104C8000583A25662020593A25662020205A3A2095
:104C900025660A00440F0020A800002066664040F8
:104CA000400100206C010020420100207001002022
:104CB0004401002074010020FCA9F1D24D62603F44
:104CC000083D9B559F2B0740500F002004F086F9AC
:104CD000804632463B4603F0C6FF044604F091F995
:104CE000FE494860079804F079F9FD4AFD4BCDE98B
:104CF000040104F05FF88246FB4AFC4B04F05AF8CA
:104D000080468946F549886804F068F906464246B7
:104D10004B4603F0A8FF044604F073F9EF4988609E
:104D2000F348B0F9000004F026F90446F148B0F960
:104D3000000004F020F98146EF48B0F9000004F0CB
:104D40001AF98246079804F049F90746EB4AEC4BFA
:104D500004F030F8054604F054F98346089804F04E
:104D60003DF90746E54AE64B04F024F8054604F011
:104D700048F90690099804F031F90746DF4AE04BFC
:104D800004F018F8054604F03CF905900A98CDE9BE
:104D900002A9049401900B9800905A460C9BDDE9FF
:104DA0000501FFF704F90DB0BDE8F08F0FB59DB018
:104DB000D4480168006803F0E6FE1590D248016807
:104DC000D048006803F0DFFE1490D0480168CD4859
:104DD000006803F0D8FE1390CB480168006803F028
:104DE000D2FE1290CA480168C748006803F0CBFEA3
:104DF0001190C6480168006803F0C5FE1090C448D1
:104E00000168C248006803F0BEFE0F90C048016808
:104E1000006803F0B8FE0E902299209803F0B3FECC
:104E20000C90239903F0AFFE00210D9004F006F9D9
:104E300001D121B000BD2399084603F0A4FE0890DB
:104E40002299084603F09FFE06902099084603F039
:104E50009AFE0590069903F03EFE0790089903F02C
:104E60003AFE099004F0BAF8CDE90A0105F072FEA5
:104E7000CDE90C0104F0C5F81C901C99209803F0B2
:104E8000B4FE20901C99229803F0AFFE22901C994A
:104E9000239803F0AAFE23901399119803F06DFE56
:104EA0004FF080410D9003F06EFE1B900F99149807
:104EB00003F011FE4FF080410D9003F064FE1A9054
:104EC0001299159803F059FE0C90109903F055FEB5
:104ED0000D900E9903F0FFFD19901A99239803F095
:104EE00052FE0D901999229803F04DFE0C900D99E9
:104EF00003F043FE18901999209803F044FE0D909A
:104F00001B99239803F03FFE0C900D9903F035FE9A
:104F100017901B99229803F036FE0D901A9920984D
:104F200003F031FE0C900D9903F027FE169079499D
:104F3000189803F028FE0D90774801680D9803F04B
:104F4000CAFD754908607349179803F01CFE0D905F
:104F5000724801680D9803F0BEFD704908606D4904
:104F6000169803F010FE0D906D4801680D9803F03F
:104F7000B2FD6B4908606B48189903F004FE0C9071
:104F80001D9903F0A8FD0D90634801680D9803F08A
:104F9000A2FD1D906348179903F0F5FD0C901E9932
:104FA00003F099FD0D905D4801680D9803F093FDA5
:104FB0001E905C48169903F0E6FD0C901F9903F0D3
:104FC0008AFD0D90564801680D9803F084FD1F90EE
:104FD0004F481F99006803F0D6FD0B904B481E996F
:104FE000006803F0D0FD09904748006880F0004059
:104FF00007901D9903F0C7FD0890099903F0BDFDC6
:105000000A900B9903F0B9FD47490C9003F0BBFDE2
:105010000D903C4801680D9803F05DFD4349086020
:105020003B481E99006803F0AEFD0B9037481F996E
:10503000006803F0A8FD0990324801681D9803F04C
:10504000A2FD0890099903F046FD0A900B9903F020
:1050500094FD35490C9003F096FD0D902A480168A7
:105060000D9803F038FD32490860294801681D9801
:1050700003F089FD0B9024481F99006803F083FD1D
:10508000099020481E99006803F07DFD0890099959
:1050900003F073FD0A900B9903F01DFD22490C905B
:1050A00003F071FD0D90194801680D9803F013FD90
:1050B00020490860154801681D9803F064FD0B90B5
:1050C00011481E99006803F05EFD09900D481F9974
:1050D000006803F058FD089009992DE0500F00205A
:1050E000FCA9F1D24D62603F083D9B559F2B0740C4
:1050F000440100204201002040010020A835CD3BA2
:105100004ED1913FDC000020E0000020E4000020B0
:10511000E80000200AD7A33BFC000020000100208B
:10512000040100200000A0416F12833AF800002023
:10513000EC000020F000002003F0CDFC0A900B9959
:1051400003F01BFDB4490C9003F01DFD0D90B34816
:1051500001680D9803F0BFFCB1490860B1480068D0
:10516000B1490860B1480068B1490860B1480068B9
:10517000B1490860AA480068A84908600846016863
:10518000006803F000FD0890AB480168006803F078
:10519000FAFC0690A6480168006803F0F4FC04904D
:1051A000A1480168006803F0EEFC0390049903F045
:1051B00092FC0590069903F08EFC0790089903F085
:1051C0008AFC099003F00AFFCDE90A0105F0C2FC50
:1051D000CDE90C0103F015FF1C9093481C99006861
:1051E00003F003FD9049086091481C99006803F0A2
:1051F000FCFC8F49086090481C99006803F0F5FC9E
:105200008D49086085481C99006803F0EEFC8349CD
:1052100008608A4A00218A48006802F0A1F98248A1
:1052200001684FF0804003F0AEFC049082480168B2
:10523000049803F0A8FC06907D4801684FF04040B8
:1052400003F0A1FC049075480168049803F09BFCEE
:105250000590069903F03FFC079003F0BFFECDE9EF
:10526000080105F041F84FF06632764BCDE90A01AE
:1052700003F0A0FDCDE90C0103F0C3FE72494860C4
:105280006D4801684FF0804003F07DFC01906A4852
:105290000168019803F077FC0390654801684FF0BE
:1052A000404003F070FC019061480168019803F0F0
:1052B0006AFC0290039903F060FC4FF07E51049069
:1052C00003F009FC059003F089FECDE9080156487A
:1052D00001684FF0804003F056FC0290544801688A
:1052E000029803F050FC0490534801684FF080404E
:1052F00003F049FC029049480168029803F043FC1E
:105300000390049903F0E7FB059003F067FECDE9F5
:105310000601DDE9082305F02FFA4FF06632494B0C
:10532000CDE90A0103F046FDCDE90C0103F069FE69
:10533000454908604548B0F9000003F01CFE08909C
:105340004348B0F9000003F016FE0790089905F0F5
:10535000D3FA099003F042FE4FF06632394BCDE9A3
:105360000A0103F027FDCDE90C0103F04AFE36499E
:105370008860084680680D90364801680D9803F0F3
:10538000FCFB314988600846806833490D9003F082
:105390005FFE08D22C48806801460D902F4803F02C
:1053A000ECFB294988602648006802F0F5F92C4892
:1053B000007870B32B480068FA2825D1224880680D
:1053C000079003F00BFECDE90C011F4840680790E1
:1053D00003F004FECDE90A011B480068079003F0C2
:1053E000FDFDCDE90801DDE90C01CDE90201DDE9B2
:1053F0000A01CDE90001AFF27870DDE9082304F07D
:105400004FFA00201749086016480068401C1549EB
:10541000086000BF0DE500006F12833AE80000202D
:10542000F4000020F8000020DC000020EC00002048
:10543000E0000020F0000020E40000202C0000200C
:105440002800002066A64C40740F00204001002078
:10545000420100209C010020000034430000B443BE
:10546000B400002014010020034606210622F7485C
:105470000188F7480288ABB1012B1BD13AB94EF62F
:10548000EE60814201D1002070470120FCE739B96C
:105490004EF6EE60824201D10120F5E70020F3E7ED
:1054A000AB20F1E709B90020EEE70AB90120EBE7EC
:1054B000AB20E9E70020E7E770B5042600240120CF
:1054C000FFF7D2FF0446AB2C06D1E04800EBC42026
:1054D000E0490860AB2070BDDC4800EBC420DD492A
:1054E0000860601CD949891E01EBC0250CE0D94831
:1054F00000680068401C10B904263046EBE7D54828
:105500000068001DD3490860D2480068A842EED365
:105510008020E0E710B50424CC48FAF7E7FF044602
:10552000042C01D0204610BD0021C848FBF7E1F84B
:105530000446042C01D02046F5E7C548FAF7D6FF0B
:1055400004462046EFE72DE9F04104460F460425C6
:105550000026DFF8FC82A8F101080120FFF784FF94
:105560000646AB2E01D1BDE8F081701CB749891EFB
:1055700001EBC02821E0B74800680068401CB8B9BA
:105580003946B4480068FBF7B4F80546042D01D04D
:105590002846E8E72146AF480068801CFBF7A9F8D9
:1055A0000546AC480068001DAA4908602846DAE7AD
:1055B000A8480068001DA7490860A6480068404543
:1055C000D9D38020CFE72DE9F04706460F460025C6
:1055D00045F255584FF001099C4CA2460020FFF7B8
:1055E00043FF0546AB2D01D1BDE8F087974800EB9E
:1055F000C52A98480068841E0AE0B4F80080B045C7
:1056000005D134F8020C38804FF0000904E0241F63
:105610000AF102008442F0D800BF4846E4E72DE9D1
:10562000F0474FF0060A062600250027A8464FF04F
:10563000FF398648B0F800A085480688BAF1000016
:1056400075D0A0F56E40EE3858B3A0F588501138EB
:1056500000286DD146B97D48FAF748FF0446042C6E
:105660001ED02046BDE8F0874EF6EE60864210D18F
:105670007648FAF73BFF0446042C01D02046F1E7B8
:1056800000217348FBF735F80446042C08D0204667
:10569000E8E7FFF73FFF0446042C01D02046E1E78E
:1056A000AEE07EBB002522E06848C0886A4931F838
:1056B0001510884201D10FFA85F94D4515D066497C
:1056C00031F815006549FFF77EFF8046B8F1010FFC
:1056D0000BD0614931F8150060490988FFF733FFA5
:1056E0000746042F01D03846BCE7681C85B20F2D51
:1056F000DADB00215548FAF7FCFF0446042C02D0FF
:105700002046AFE707E05248FAF7F0FE0446042CC3
:105710001FD02046A6E74FF6FF70864212D14C48B4
:10572000FAF7E4FE0446042C03D020469AE711E081
:105730005EE000214548FAF7DCFF0446042C08D05F
:1057400020468FE7FFF7E6FE0446042C01D02046F2
:1057500088E755E036B9FFF7DDFE0446042C46D055
:1057600020467FE74FF6FF70864207D13848FAF7A8
:10577000BDFE0446042C3AD0204673E7002523E002
:105780003348801D0088344931F81510884201D112
:105790000FFA85F94D4515D02F4931F815002F49DD
:1057A000FFF711FF8046B8F1010F0BD02A4931F8FD
:1057B00015002A490988FFF7C6FE0746042F01D0C5
:1057C00038464FE7681C85B20F2DD9DB00212048F1
:1057D000FAF78FFF0446042C01D0204642E71B480D
:1057E000FAF784FE0446042C01D020463AE707E08D
:1057F000FFF790FE0446042C01D0204632E700BF9C
:1058000000BF04202EE710B5FFF709FF0446FFF79D
:1058100053FE204610BD2DE9F84F07468946042562
:10582000DFF83CA0094800904FF000080024002653
:105830004FF0000B0020FFF717FE8046B8F1010F74
:1058400010D1DFF808A00248009016E0000001081F
:10585000000801081C010020200100201801002080
:10586000FF030108B8F1000F04D1DFF8C4A03148EC
:10587000009002E0AB20BDE8F88F4EF6EE61504696
:10588000FAF737FF0546042D01D02846F3E7FFF766
:1058900013FE49463846FFF756FE0646042E01D051
:1058A0003046E8E700241CE0234830F81400B842F2
:1058B00015D0214931F814002049FFF784FE8346B2
:1058C000BBF1010F0BD01C4931F814001B490988AA
:1058D000FFF739FE0646042E01D03046CBE7601CA8
:1058E00084B20F2CE0DB0098FAF700FE0546042D89
:1058F00001D02846BFE700215046FAF7FAFE0546D8
:10590000042D01D02846B6E72846B4E770B5054611
:105910000E46002431462846FFF715FE0446802C2B
:1059200004D131462846FFF776FF0446204670BD75
:1059300000080108000001082001002018010020D3
:1059400010B5FFF760FF10BD38B5FE490868FE4985
:1059500003F019F9044603F02DFB80B20090FB49D7
:105960008889BDF80010FFF7D1FFF6494868F6496D
:1059700003F009F9044603F01DFB80B20090F349DF
:10598000C889BDF80010FFF7C1FFEE498868F049EB
:1059900003F0F9F8044603F00DFB80B20090EB49E8
:1059A000088ABDF80010FFF7B1FFEA490868E64928
:1059B00003F0E9F8044603F0FDFA80B20090E349F1
:1059C000488ABDF80010FFF7A1FFE2494868DE49A8
:1059D00003F0D9F8044603F0EDFA80B20090DB49F9
:1059E000888ABDF80010FFF791FFDA498868D84926
:1059F00003F0C9F8044603F0DDFA80B20090D34901
:105A0000C88ABDF80010FFF781FFD3490868CE4966
:105A100003F0B9F8044603F0CDFA80B20090CB4908
:105A2000088BBDF80010FFF771FFCB494868C649E5
:105A300003F0A9F8044603F0BDFA80B20090C34910
:105A4000488BBDF80010FFF761FFC3498868C04963
:105A500003F099F8044603F0ADFA80B20090BB4918
:105A6000888BBDF80010FFF751FFB649C868BB49E5
:105A700003F089F8044603F09DFA80B20090B34920
:105A800008886946FFF79FFDAE494869B34903F0AE
:105A90007AF8044603F08EFA80B20090AB49488849
:105AA0006946FFF790FDAB49C868AC4903F06BF855
:105AB000044603F07FFA80B20090A44988886946C2
:105AC000FFF781FDA3494869A44903F05CF8044647
:105AD00003F070FA80B200909C49C8886946FFF7CD
