:020000040800F2
:10000000F811002045010008710A0008730A000871
:10001000770A00087B0A00087F0A00080000000039
:10002000000000000000000000000000830A00083B
:10003000850A0008000000007B1C0008890A0008EF
:100040005F0100085F0100085F0100085F01000810
:100050005F0100085F0100085F0100085F01000800
:100060005F0100085F0100085F0100085F010008F0
:100070005F0100085F0100085F0100085F010008E0
:100080005F0100085F0100085F0100085F010008D0
:100090005F0100085F0100085F0100085F010008C0
:1000A0005F0100085F0100085F0100085F010008B0
:1000B0005F0100085F0100085F0100085F010008A0
:1000C0005F0100085F0100085F0100085F01000890
:1000D0005F0100085F0100085F0100085F01000880
:1000E0005F0100085F0100085F0100085F01000870
:1000F0005F0100085F0100085F0100085F01000860
:100100005F0100085F0100085F0100085F0100084F
:100110005F0100085F0100085F0100085F0100083F
:100120005F0100085F0100085F0100085F0100082F
:10013000DFF80CD001F0D2FD00480047490A000862
:10014000F81100200648804706480047FEE7FEE712
:10015000FEE7FEE7FEE7FEE7FEE7FEE7FEE7FEE777
:1001600047020008310100080CB500200190009002
:100170006C48006840F480306A49086000BF6948F4
:10018000006800F4003000900198401C0190009835
:1001900018B90198B0F5A06FF1D16248006800F479
:1001A000003010B10120009001E000200090009884
:1001B000012843D15C48006840F010005A490860AB
:1001C0000846006820F0030008600846006840F018
:1001D0000200086053484068524948600846406839
:1001E00048600846406840F48060486008464068BF
:1001F00020F47C1048600846406840F4E8104860ED
:100200000846006840F08070086000BF45480068FC
:1002100000F000700028F9D04248406820F0030048
:10022000404948600846406840F00200486000BF0E
:100230003C48406800F00C000828F9D10CBD10B50E
:10024000FFF792FF10BD10B53648006840F001007E
:1002500034490860084640683449084031494860DC
:1002600008460068324908402E4908600846006880
:1002700020F4802008600846406820F4FE004860B2
:100280004FF41F008860FFF7DAFF4FF00060294944
:10029000086010BD10B5002100200022214B5B68D2
:1002A00003F00C0121B1042906D0082928D107E068
:1002B000214B224C236027E01F4B204C236023E07E
:1002C000184B5B6803F47010164B5B6803F48032C4
:1002D000022303EB904022B9194B4343174C236090
:1002E0000DE0104B5B6803F4003323B1144B434320
:1002F000124C236003E0104B4343104C236003E097
:100300000D4B0E4C236000BF00BF064B5B68C3F370
:1003100003130C4CE15C094B1B68CB40074C23607A
:1003200010BD000000100240002002400000FFF855
:10033000FFFFF6FE08ED00E000127A00000000204A
:1003400000093D000400002010B50446CC4884425A
:1003500008D10121042000F02DFB0021042000F031
:1003600029FB46E0C748844208D10121082000F05B
:1003700021FB0021082000F01DFB3AE0C248844226
:1003800008D10121102000F015FB0021102000F001
:1003900011FB2EE0BD48844208D10121202000F04D
:1003A00009FB0021202000F005FB22E0B848844230
:1003B00008D10121402000F0FDFA0021402000F08A
:1003C000F9FA16E0B348844208D10121802000F0F8
:1003D000F1FA0021802000F0EDFA0AE0AE488442F4
:1003E00007D10121801500F0E5FA0021A01500F0E9
:1003F000E1FA10BD10B50121084600F0DBFA00213A
:10040000012000F0D7FA10BD2DE9F0410246002589
:100410000026002000230024002791F803C00CF0E0
:100420000F0591F803C00CF0100CBCF1000F03D0C5
:1004300091F802C04CEA050591F800C0BCF1000F2C
:1004400031D0146800202BE04FF0010C0CFA00F3BF
:10045000B1F800C00CEA03069E4220D183004FF0A1
:100460000F0C0CFA03F7BC4305FA03FC4CEA040436
:1004700091F803C0BCF1280F06D14FF0010C0CFA23
:1004800000FCC2F814C00AE091F803C0BCF1480FA8
:1004900005D14FF0010C0CFA00FCC2F810C0401C52
:1004A0000828D1D31460B1F800C0BCF1FF0F34DDCF
:1004B000546800202EE000F1080C4FF0010808FA03
:1004C0000CF3B1F800C00CEA03069E4221D1830070
:1004D0004FF00F0C0CFA03F7BC4305FA03FC4CEA8F
:1004E000040491F803C0BCF1280F05D100F1080CF9
:1004F00008FA0CF8C2F8148091F803C0BCF1480F58
:1005000007D100F1080C4FF0010808FA0CF8C2F806
:100510001080401C0828CED35460BDE8F0814FF60F
:10052000FF710180022181700421C1707047024671
:10053000002093680B400BB1012000E000207047C1
:100540000146886880B2704702460020D3680B409D
:100550000BB1012000E0002070470146C86880B25E
:10056000704701617047416170470AB1016100E065
:1005700041617047C16070474FF480320A43826125
:100580008161826182698269704702460020434B23
:1005900018684FF68073184040EA021008433F4B3A
:1005A000186070473E49C8617047F0B50A4600239D
:1005B00000240021002500F00046B6F1004F02D1D2
:1005C000364EF16901E0354E7168C0F3034583B2E0
:1005D00000F44016B6F5401F08D121F070612F4E8F
:1005E000766826F070662D4F7E6012E000F480166B
:1005F000B6F5801F06D1032606FA05F4A14341F0A3
:10060000706106E0460D360103FA06F6B14341F08B
:10061000706122B1460D360103FA06F6314300F04F
:100620000046B6F1004F02D11C4EF16101E01B4EB5
:100630007160F0BD30B500228B071C0F0F2303FA49
:1006400004F2164B08338C1053F824309343134CA8
:1006500008348D1044F8253023468C1053F824308C
:100660008C07240F00FA04F423430C4C08348D103B
:1006700044F8253030BD0A49DC310860704700007D
:1006800000080140000C014000100140001401402E
:1006900000180140001C0140002001400000014002
:1006A00000002042DF48006840F00100DD4908609A
:1006B00008464068DC490840DA4948600846006856
:1006C000DA490840D74908600846006820F48020CD
:1006D00008600846406820F4FE0048604FF41F00A0
:1006E00088607047CF49096821F48031CD4A116094
:1006F0001146096821F480211160B0F5803F03D0D4
:10070000B0F5802F0ED106E0C649096841F480316A
:10071000C44A116007E0C349096841F4A021C14AF5
:10072000116000E000BF00BF704710B50146002215
:10073000002300204A11012A02D1BA4C236806E0A6
:10074000022A02D1B74C236A01E0B64C636A01F079
:100750001F02012494401C400CB1012000E0002045
:1007600010BD38B5002000900024002500BF3120C6
:10077000FFF7DBFF05460098401C00900098B0F59D
:10078000A06F01D0002DF2D03120FFF7CEFF08B1CD
:10079000012400E00024204638BD01460020A14A83
:1007A000106820F0F80040EAC10010607047A049CE
:1007B00008607047024600209A4B586820F47C106D
:1007C00042EA01031843974B5860704798490866FE
:1007D000704701460020934A506820F00300084308
:1007E000506070478F48406800F00C007047014629
:1007F00000208C4A506820F0F00008435060704799
:1008000001460020874A506820F4E06008435060A9
:10081000704701460020834A506820F4605040EA47
:10082000C1005060704729B17E4A527A02437D4B25
:100830005A7204E07B4A527A82437A4B5A7270476A
:100840007B49D8310860704701460020754A5068DE
:1008500020F440400843506070470021714A203224
:100860001170704A82F82010012802D004280AD1A1
:1008700004E001216B4A2032117005E00521694A2C
:100880002032117000E000BF00BF70476949086066
:1008900070476449096A0143624A116270476549B9
:1008A00044390860704730B500210022002400233D
:1008B0005C4D6D6805F00C0121B1042905D00829B3
:1008C00023D105E05C4D056022E05B4D05601FE033
:1008D000544D6D6805F47012524D6D6805F4803406
:1008E000022505EB92421CB9544D554305600BE0BF
:1008F0004C4D6D6805F400351DB1504D55430560F4
:1009000002E04D4D5543056002E04B4D056000BFD0
:1009100000BF444D6D6805F0F0010909484D6B5C5E
:100920000568DD4045603F4D6D6805F4E061090AEA
:10093000434D6B5C4568DD4085603A4D6D6805F45C
:100940006051C90A3E4D6B5C4568DD40C560354D60
:100950006D6805F44041890B3A4D6B5CC568B5FB89
:10096000F3F5056130BD29B12E4A526902432D4B82
:100970005A6104E02B4A526982432A4B5A617047FC
:1009800029B1284A92690243264B9A6104E0254A1C
:1009900092698243234B9A61704729B1214AD269F7
:1009A0000243204BDA6104E01E4AD26982431D4BA8
:1009B000DA61704729B11B4AD2680243194BDA60E9
:1009C00004E0184AD2688243164BDA60704729B1B6
:1009D000144A12690243134B1A6104E0114A126966
:1009E0008243104B1A6170471249403908607047C2
:1009F0000F49C86470470B49C87170470948406A7D
:100A000040F0807007494862704701460020054A5F
:100A100092680A400AB1012000E0002070470149B5
:100A200088727047001002400000FFF8FFFFF6FEDA
:100A3000000042428004424200127A0000093D0058
:100A4000140000202400002010B500F04FF800F042
:100A5000DBF90423044A0021044800F0B6FC00F04E
:100A6000A6FA002010BD00009C010020BD0B00086C
:100A7000704700BFFEE700BFFEE700BFFEE700BF14
:100A8000FEE770477047704710B500F0CFF900F0EF
:100A900009FB00F0E6F910BD30B5174800684FF4C7
:100AA0007A72B0FBF2F1B1F1807F00D31DE021F04A
:100AB0007F40401E4FF0E022506150170F22002867
:100AC00007DA13071D0E0D4B00F00F04241F1D55F0
:100AD00003E013071C0E0A4B1C5400BF00204FF00C
:100AE000E02290610720106100BF30BD10B5FFF714
:100AF000D3FF00F007F810BD0000002018ED00E063
:100B000000E400E008B501211820FFF739FF0120BB
:100B1000ADF8000010208DF8030003208DF80200CE
:100B200069460D48FFF770FC0820ADF800006946E3
:100B30000A48FFF769FC1020ADF800006946074835
:100B4000FFF762FC01210448FFF70BFD1821034861
:100B5000FFF707FD08BD0000000C01400010014038
:100B600015E008212748FFF7FEFC4FF4967300229A
:100B70001146104600F060FF08212248FFF7F1FC03
:100B80004FF4967300221146104600F055FFE8E737
:100B900013E010211B48FFF7E6FCC8230022114692
:100BA000104600F049FF10211648FFF7DAFCC82371
:100BB00000221146104600F03FFFEAE70523124AE3
:100BC0000021AFF2330000F000FC06230F4A0021A1
:100BD000AFF2730000F0F9FB13E001210C48FFF7BE
:100BE000C2FC642300221146104600F025FF0121BB
:100BF0000748FFF7B6FC642300221146104600F0B8
:100C00001BFFEAE700100140DC0200201C0400206A
:100C1000000C01407CB5002514E06946284600F030
:100C200019FE064666B9FD4850F8254044B1012C2E
:100C300006D0D4E9020100EB810060630198A06353
:100C4000681CC5B21F2DE8DD7CBD002402E0C82071
:100C500000F0C2FEF24800780028F8D0F1480068A1
:100C60006421B0FBF1F0EF4908600846006828B93C
:100C70000020ED490870FF2000F02EFE00BF00F0BC
:100C8000DBFF0446E9480068E94908600020E749BD
:100C90000860204600F0D4FFE5480068E149096893
:100CA000B0FBF1F0C0F16400DF49087000F073FFA1
:100CB000FFF7B0FF642000F08FFEE0E700B587B0DB
:100CC000032000218022DB4BCDE90132CDE9031066
:100CD0004FF6FE701E23D84A0090AFF2910000F04C
:100CE000CCFB06AAD5A11E2000F028FD07B000BD50
:100CF000002400BF00F0A0FF0446CC480068401C60
:100D0000CA490860204600F09BFF00F043FFF1E76E
:100D100000B587B0032000218022CC4BCDE9013201
:100D2000CDE903104FF6FF701F23C94A0090AFF2C0
:100D30003F0000F0A2FB06AAC6A11F2000F0FEFCA7
:100D400007B000BD704704E0002200F8012B4A1EE6
:100D500091B20029F8DC704730B54FF4AB61C1485F
:100D6000FFF7F1FF8021AD48FFF7EDFFBD4B03F129
:100D70004C0500240AE05D613F2083F83C0000211F
:100D80003D20C1544C334C35601CC4B2112CF2D3FD
:100D9000002058613F2083F83C0000213D20C154D1
:100DA0000020B1490860AF48B049086030BD00225A
:100DB000AF4B1A70AF49002004E0002201F8012B6C
:100DC000421CD0B20428F8DB0022AB4B1A70AB4BAC
:100DD0001A70AB4B1A60AB4B1A6070470020AA49DF
:100DE0000860AA490870AA490870AA490870AA4967
:100DF0000870AA4908608D4908608D4908608949D2
:100E0000086087490870704710B500F0BFFEFFF713
:100E1000E5FFFFF7CCFFFFF79FFFFFF793FFFFF71B
:100E200077FFFFF74BFF00F0B2FE10BD9A48007845
:100E3000012808D195480078FF2804D2934800780B
:100E4000401C9249087070479549894A1278885C1D
:100E50008849095C924A515C01EBC001874A1170D4
:100E6000704710B500248C480078012830D100F07C
:100E7000E3FE044685480078002804DD83480078B6
:100E8000401E8249087081480078F0B98048007897
:100E9000D8B9FFF7D9FF79480078774909788842AF
:100EA00013D05E487549097850F8210074490860EC
:100EB00008460068806A401C0968886277480068B4
:100EC000401C7649086000F0D3FE204600F0B8FED2
:100ED00010BD10B5002470480078012811D100F031
:100EE000ABFE04466948007840B969480078FF289D
:100EF00004D267480078401C65490870204600F01D
:100F00009FFE10BD10B5002400F096FE04465F4819
:100F10000078F0B95E480078D8B9FFF795FF5748D8
:100F2000007855490978884213D03C4853490978DC
:100F300050F821005249086008460068806A401C49
:100F40000968886255480068401C5449086000F0F0
:100F50008AFE204600F074FE10BD10B500244E48F5
:100F60000078012822D100F067FE04464848007846
:100F7000002818DD46480078401E4549087008469C
:100F8000007860B94148007828B9204600F058FE42
:100F9000FFF7B8FF0AE0204600F052FE06E02046C8
:100FA00000F04EFE02E0204600F04AFE10BD10B5F3
:100FB0003948007890B9FFF747FF304800782E494C
:100FC000087016482D49097850F821002C4908600E
:100FD000084600682B49086000F035FE10BD10B5CA
:100FE0000024022000F0F8FC00F026FE0446002059
:100FF0000E490860204600F023FE642000F0ECFC5F
:1010000000F01AFE044609480068064908600120FD
:1010100003490870204600F013FE10BD2008002090
:1010200038000020300000202C0000204400002068
:1010300034000020200400201C06002075432F4FA0
:10104000532D49492053746174000000200600208C
:101050001C08002075432F4F532D49492049646CCB
:1010600065000000A0080020540000204C00002073
:101070003D0000203E0000203B0000203C000020FE
:1010800050000020480000205C00002039000020B3
:101090003A000020430000204200002028000020E9
:1010A0001E1D000870B5002600F0C5FD00F0C4FD4F
:1010B000064680480068401C7E490860304600F0C3
:1010C000BFFD7D48007801284ED17C48007820B1D2
:1010D000012804D0022809D103E001250BE00025F6
:1010E00009E0012501207549087004E00125002070
:1010F0007249087000BF00BF05B970BD7048046830
:101100002EE000F099FD0646A08B28B3A08B401E70
:1011100080B2A08300BBA07F00F0370030B1A07F79
:1011200020F03700A0770120E07701E00020E07791
:10113000A07F00F0080078B92234A07861490978CE
:1011400008436049087020785F49085C617808436B
:1011500014F822195C4A50546469304600F070FD5E
:1011600094F820001F28CCD100BFC6E74FF48F7041
:101170007047704705E011F8013B00F8013B531E32
:101180009AB2002AF7DC70470246002005E011F809
:10119000013B02F8013B431CD8B20B78002BF6D17F
:1011A000137070470146002002E0491C421CD0B277
:1011B0000A78002AF9D170472DE9F84F05460E4606
:1011C00017469846DDE90BABDDF82890002000902B
:1011D00000F032FD00903D480468002C65D00834D2
:1011E0003A49E0680860009800F02AFD44F8086C6D
:1011F00025760020A075E075A08244F804ACC4F800
:1012000004902760A4F808B0A4F80A806077E8107A
:10121000A07605F007006076A17E01208840207747
:10122000617E01208840E07600202062A06260623A
:10123000E06220633F2084F83400083C00213D2018
:101240000155204600F0F6FC204600F0A1FC00F01D
:10125000F3FC00901E4840F8254019480068606182
:101260000020A0611648006810B11548006884612C
:10127000134804602234A0781249097808431149C0
:10128000087020781049085C6178084314F8221926
:101290000D4A50540F480078401C0E4908700098C1
:1012A00000F0CEFC0020BDE8F88F009800F0C8FCEC
:1012B0004220F8E75C000020420000205800002097
:1012C000540000203D0000203E0000204C00002083
:1012D00020080020430000202DE9FE4F80460D46E7
:1012E0000020009000F0A8FC0090FE4850F8250077
:1012F00028B1009800F0A4FC2820BDE8FE8FB8F1CA
:10130000FF0F03D1F848006890F82080F54850F8A6
:10131000284024B9009800F093FC2920EDE7012C27
:1013200004D1009800F08CFC4320E6E7EE1005F0B5
:1013300007090120B04000F0FF0A012000FA09F07F
:1013400000F0FF0B0020E74941F82800084640F86C
:10135000254014F8227FA07802906078223C01900A
:10136000E248C15D01980140D1B1E048C05D0199FA
:101370008843DE49C8550846C05D28B9DC48007876
:1013800002998843DA490870D948007840EA0A008F
:10139000D7490870D548805D40EA0B00D34988558D
:1013A00084F8205084F8226084F8219084F824A0E6
:1013B00084F823B0009800F043FCCE480078012860
:1013C00001D1FFF79FFD002097E72DE9FE4F06466C
:1013D0000F4690461C464FF0000900F02DFC814658
:1013E000C5480078002805DD484600F029FC3C206F
:1013F000BDE8FE8FBB4850F8240060BB0120B9490E
:1014000041F82400484600F01BFC002342463946C0
:10141000304600F0C1FB8246002000900190034658
:101420000246514602902046FFF7C6FE054635B9F2
:10143000B048007801280CD1FFF764FD09E000F006
:10144000FBFB81460020A74941F82400484600F0F4
:10145000F7FB2846CCE7484600F0F2FB2820C7E718
:1014600002F0010343B102F002032BB102E0491E76
:10147000002308C00029FAD170472DE9F04F85B04C
:1014800081468A4693461C46DDE90F78129D00206E
:10149000039000F0D1FB039097480078002806DD08
:1014A000039800F0CDFB3C2005B0BDE8F08F8D48DF
:1014B00050F8240088BB01208A4941F82400039891
:1014C00000F0BEFB2A4641463846FFF7C9FF2B46CF
:1014D0005A465146484600F05FFB04901198CDE90A
:1014E000008002953A4620460E9B0499FFF764FE61
:1014F000064636B97F48007801280CD1FFF702FD77
:1015000009E000F099FB03900020764941F824009F
:10151000039800F095FB3046C6E7FFE7039800F01C
:101520008FFB2820C0E770B505460026724800787A
:10153000002801DD402070BD1F2D01D13E20FAE7BB
:1015400000F07AFB0646FF2D03D16748006890F84B
:101550002050644850F8254024B9304600F070FB14
:101560004320E8E7012C04D1304600F069FB3D2020
:10157000E1E714F8220F5D49085C6178884321781F
:101580005A4A505414F822091146085C30B994F8AC
:101590002410574800788843554908700020A083DC
:1015A000A077E07755480078FF2804D253480078A8
:1015B000401C52490870304600F042FBFFF7D9FD4D
:1015C00000F03AFB06464D480078002804DD4B4801
:1015D0000078401E49490870204600F0DAFA484871
:1015E0000078401E4649087000203E4941F8250019
:1015F000A06930B90020616988614249606908606A
:1016000005E0D4E905014861D4E9051088613E4848
:10161000006860613C4804603F2084F83C00002181
:101620003D200155304600F00BFB32480078012880
:1016300001D1FFF767FC00207DE72DE9F04104466A
:1016400000271F2C02D13E20BDE8F081FF2C0BD1DA
:1016500000F0F2FA07462448006890F82560384602
:1016600000F0EEFA3046EFE700F0E6FA07461D48D4
:1016700050F8245025B9384600F0E2FA4320E3E759
:10168000012D04D1384600F0DBFA3D20DCE73F2095
:1016900085F82500384600F0D3FA0020D4E72DE97C
:1016A000F04706460F4614464FF0000812480078EF
:1016B000002804DD112020700020BDE8F08700F034
:1016C000BBFA8046FF2E03D10748006890F82060DF
:1016D000044850F82650DDB9404600F0B1FA4320E6
:1016E000207013E020080020480000203E00002069
:1016F0003D00002042000020390000203A00002078
:1017000043000020540000204C0000200020D4E7BB
:10171000012D06D1404600F093FA432020700020AE
:10172000CBE705F13C013846FFF72EFD81464046E8
:1017300000F086FA002020704846BEE72DE9F04709
:101740000646884614464FF000099D480078002858
:1017500003DD12202070BDE8F08700F06DFA8146AD
:10176000FF2E03D19748006890F82060964850F803
:1017700026502DB9484600F063FA43202070EAE76E
:10178000012D05D1484600F05BFA43202070E2E7C6
:101790004046FFF707FD07460F2F05DD484600F0DE
:1017A0004FFA41202070D6E7414605F13C00FFF793
:1017B000EBFC484600F044FA0020207000BFCAE766
:1017C00070B50546002600F037FA06467E4850F808
:1017D000254024B9304600F033FA462070BD012C74
:1017E00004D1304600F02CFA4320F7E7A07F00F048
:1017F000080050B3A07F20F00800A077A07FF8B9C0
:10180000A08BC8B92234A0787049097808436F4981
:10181000087020786E49085C6178084314F8221932
:101820006B4A5054304600F00BFA6A4800780128A1
:1018300009D1FFF767FB06E0304600F001FA02E04D
:10184000304600F0FDF90020C8E7304600F0F8F916
:101850004420C3E72DE9F04707460D464FF0000A44
:1018600000202860686000F0E7F98246FF2F03D16E
:101870005448006890F82070534850F827402CB91D
:10188000504600F0DDF94320BDE8F087012C04D17B
:10189000504600F0D5F94320F6E7207C00F0010027
:1018A00020B9504600F0CCF94520EDE70026D4F8E9
:1018B0000C90D4F80880504600F0C2F900E0761C85
:1018C00058F8041B0029FAD0B0002860A9EB0600E4
:1018D000800068600020D7E72DE9F04105464FF011
:1018E000000800F0A9F98046FF2D05D135480068B1
:1018F00090F82050012608E03248006890F8200057
:10190000A84201D1012600E000262F4850F82540CA
:101910002CB9404600F094F94820BDE8F081012C34
:1019200004D1404600F08CF94320F6E794F8227089
:101930002748C05D94F8231088432549C8550846B8
:10194000C05D30B994F824102048007888431F49BE
:101950000870A07F40F00800A077404600F070F9C2
:10196000012E01D1FFF7CEFA0020D6E72DE9F04194
:1019700005460E46002700F05FF90746FF2D03D10C
:101980001048006890F820500F4850F825402CB9B6
:10199000384600F055F92920BDE8F081012C04D12A
:1019A000384600F04DF94320F6E74C2221463046F8
:1019B000FFF7E0FB384600F043F90020ECE70000B9
:1019C0003900002048000020200800203D000020B1
:1019D0003E0000204200002070B505460026654804
:1019E0000078002800DD70BD002D23DD00F024F913
:1019F00006466148006890F822406048005D5E49F4
:101A0000096891F8231088435C4908550846005D31
:101A100040B95948006890F8241059480078884324
:101A200057490870544800688583304600F008F92B
:101A3000FFF768FA00BFD6E72DE9F047074688466A
:101A400091461D464B480078002802DD5520BDE830
:101A5000F0874FF47A7068434FF47A71B0FBF1F17C
:101A60004FF461607843C8EB081200EB82004844F1
:101A700000EB4002C2EBC01001EBC004260CA4B284
:101A80002046FFF7A9FF09E04FF40040FFF7A4FF4D
:101A90004FF40040FFF7A0FF701E86B2002EF3DC6B
:101AA0000020D4E770B5054600261F2D01DB2A2053
:101AB00070BD00F0C1F80646324850F8254024B900
:101AC000304600F0BDF84320F2E7012C04D1304647
:101AD00000F0B6F84320EBE7A08B20B9304600F0C9
:101AE000AFF85020E4E70020A083A07F00F037008B
:101AF00030B1A07F20F03700A0770120E07701E02F
:101B00000020E077A07F00F00800A8B92234A07878
:101B10001B49097808431A49087020781749085C5E
:101B20006178084314F82219144A5054304600F0E2
:101B300087F8FFF7E7F902E0304600F081F800206F
:101B4000B6E770B5002500F077F805460E48046842
:101B5000284600F075F8204670BD70B50446002593
:101B600000F06AF8054608480460284600F068F866
:101B700070BD000039000020480000203E00002019
:101B80003D000020200800205C00002070477047C6
:101B9000704770477047704770B5044610464FF065
:101BA00080750560051F28462C606FF00106051F33
:101BB00028462E604FF01236051F28462E604FF043
:101BC0000336051F28462E604FF00236051F2846B3
:101BD0002E607610051F28462E60051F28462960B6
:101BE0004FF01136051F28462E604FF01036051FA6
:101BF00028462E604FF00936051F28462E604FF00C
:101C00000836051F28462E604FF00736051F284668
:101C10002E604FF00636051F28462E604FF0053621
:101C2000051F28462E604FF00436051F28462E60FB
:101C300070BD704770477047EFF3108072B6704701
:101C400080F3108870471D484FF0FF01017000209D
:101C500080F309881A48012101701A484FF0805119
:101C6000016062B6FEE717484FF08051016070478F
:101C700014484FF080510160704772B6EFF309804D
:101C800028B1203880E8F00F0F490968086000B5D6
:101C90000E4880475DF804EB0D480E490A78027043
:101CA00009480D490A680260106890E8F00F20307A
:101CB00080F309884EF0040E62B6704722ED00E012
:101CC0004200002004ED00E048000020331C000822
:101CD0003B0000203C00002050000020064C074D37
:101CE00006E0E06840F0010394E8070098471034EC
:101CF000AC42F6D3FEF720FA201E0008401E000872
:101D000002E008C8121F08C1002AFAD170477047C4
:101D1000002001E001C1121F002AFBD17047000022
:101D200001000200010003000100020001000400A4
:101D30000100020001000300010002000100050093
:101D40000100020001000300010002000100040084
:101D50000100020001000300010002000100060072
:101D60000100020001000300010002000100040064
:101D70000100020001000300010002000100050053
:101D80000100020001000300010002000100040044
:101D90000100020001000300010002000100070031
:101DA0000100020001000300010002000100040024
:101DB0000100020001000300010002000100050013
:101DC0000100020001000300010002000100040004
:101DD00001000200010003000100020001000600F2
:101DE00001000200010003000100020001000400E4
:101DF00001000200010003000100020001000500D3
:101E000001000200010003000100020001000400C3
:101E100001000200010003000100020001000000B7
:101E2000401E00080000002060000000001D0008A7
:101E3000A01E00086000002098110000101D00087E
:101E400000A24A0400000000000000000102030498
:101E50000607080900000000010203040102030450
:101E60000607080902040608000000000000000040
:101E70000000000000000000000000000000000062
:101E80000000000000000000000000000000000052
:101E90000000000000000000000000000000000042
:0400000508000131BD
:00000001FF
